:020000040800F2
:1000000000040020790200087B0200087A02000840
:100010007A0200087A0200087A0200087A020008D0
:100020007A0200087A0200087A02000831360008D5
:100030007A0200087A0200087A0200087A020008B0
:100040007A0200087A0200087A0200087A020008A0
:100050007A0200087A0200087A0200087A02000890
:100060007A0200087A0200087A0200087A02000880
:100070007A0200087A0200087A0200087A02000870
:100080007A0200087A0200087A0200087A02000860
:100090007A0200087A0200087A0200087A02000850
:1000A0007A0200087A0200087A0200087A02000840
:1000B00051B300087A0200087A0200087A020008A8
:1000C0007A0200087A0200087A0200087A02000820
:1000D0007A0200087A0200087A0200087A02000810
:1000E0007A0200087A0200087A0200087A02000800
:1000F0007A0200087A0200087A0200087A020008F0
:100100007A0200087A0200087A0200087A020008DF
:100110007A0200087A0200087A0200087A020008CF
:100120007A0200087A0200087A0200087A020008BF
:100130007A0200087A0200087A0200087A020008AF
:100140007A0200087A0200087A02000831B4000836
:100150007A0200087A0200087A0200087A0200088F
:100160007A0200087A0200087A0200087A0200087F
:100170007A0200087A0200087A0200087A0200086F
:100180007A0200087A0200087A0200087A0200085F
:100190007A0200087A0200087A0200087A0200084F
:1001A00072B6274880F30888264880F309882648D5
:1001B0004EF60851CEF200010860022080F3148848
:1001C000BFF36F8F0BF084FB0AF062FF4FF05530E6
:1001D0001E491B4A91423CBF41F8040BFAE71C49F7
:1001E000184A91423CBF41F8040BFAE719491A4AF0
:1001F0001A4B9A423EBF51F8040B42F8040BF8E741
:1002000000201749174A91423CBF41F8040BFAE716
:100210000BF016FB0BF054FB134C144DAC4203DAFD
:1002200054F8041B8847F9E708F0BAFC104C114D4C
:10023000AC4203DA54F8041B8847F9E70BF038BBEB
:10024000000400200008002000000008000000203A
:1002500000040020F4E8000800080020980C0020AA
:10026000980C0020E01C0020A0010008A00100085C
:10027000A0010008A001000892E700F000F8FEE7E6
:100280002DE9F04FC1F80CD0C3689D46BDE8F08F52
:1002900003F02EFA002383F311882846A04700209C
:1002A00007F066FF03F08CFA03F0D2F903F020FAAE
:1002B00000DFFEE7844641EA000313F003036DD13B
:1002C000403A41D351F8043B40F8043B51F8043B19
:1002D00040F8043B51F8043B40F8043B51F8043B20
:1002E00040F8043B51F8043B40F8043B51F8043B10
:1002F00040F8043B51F8043B40F8043B51F8043B00
:1003000040F8043B51F8043B40F8043B51F8043BEF
:1003100040F8043B51F8043B40F8043B51F8043BDF
:1003200040F8043B51F8043B40F8043B51F8043BCF
:1003300040F8043B51F8043B40F8043B51F8043BBF
:1003400040F8043B403ABDD2303211D351F8043B5F
:1003500040F8043B51F8043B40F8043B51F8043B9F
:1003600040F8043B51F8043B40F8043B103AEDD20E
:100370000C3205D351F8043B40F8043B043AF9D25F
:10038000043208D0D2071CBF11F8013B00F8013B32
:1003900001D30B8803806046704700BF082A13D33F
:1003A0008B078DD010F003038AD0C3F10403D21A57
:1003B000DB071CBF11F8013B00F8013B80D331F88B
:1003C000023B20F8023B7BE7043AD9D3013A11F80B
:1003D000013B00F8013BF9D20B7803704B78437076
:1003E0008B788370604670470000000000000000BA
:1003F00000000000000000000000000000000000FD
:10040000A2EB0300704700BF02780B78012A28BFD7
:100410009A42F5D16DE9044540EA0104CDE902674D
:100420006FF0000C4FEA447212B380EA010414F03A
:10043000070F6AD100F0070420F0070004F003055D
:1004400021F007014FEAC505F0E8042314F0040F7A
:10045000F1E804670CFA05F462EA040266EA0406AD
:100460000AD063EA0403624667EA0407664603E0CB
:10047000F0E80423F1E8046782FA4CF582EA060406
:10048000A4FA8CF46CBB83FA4CF583EA0705A5FA51
:100490008CF595B950E9022351E9026782FA4CF5CF
:1004A00082EA0604A4FA8CF483FA4CF583EA070581
:1004B000A5FA8CF52543DBD09CB92DBAB5FA85F4A5
:1004C00024F0070427FA04F1DDE9026723FA04F3B4
:1004D00003F0FF0001F0FF01FDE80445A0EB01007F
:1004E000704724BAB4FA84F424F0070426FA04F11D
:1004F000DDE9026722FA04F202F0FF0001F0FF01D9
:10050000FDE80445A0EB0100704714F0030F3CD157
:1005100010F0030428D150F8082B51F8083B82FA58
:100520004CF582EA0305A5FA8CF55DB950F8042C68
:1005300051F8043C82FA4CF582EA0305A5FA8CF5E1
:10054000002DE8D02DBAB5FA85F424F0070423FA7B
:1005500004F122FA04F202F0FF0001F0FF01FDE8CD
:100560000445A0EB010070474FEAC40420F00300EB
:1005700050F8082B21F0030151F8083B0CFA04F461
:1005800062EA040263EA0403C9E710F003041AD024
:10059000A1EB040120F00300E40750F8042B06D07F
:1005A0000FD28B785FFAA2F4E41A06D12BB1CB7884
:1005B0005FFAB2F4E41A00D11BB920465DF8104B83
:1005C000704701F1040150F8042BCC0721F003011E
:1005D00051F8043B48D824D222F07F4482FA4CF5EB
:1005E00094EA1325A5FA8CF50AD165B951F8043BB4
:1005F00084EA0204B4EB036F0ED150F8042BEBE74E
:100600004FEA132355E035F07F454DD10878FDE8DA
:100610000445C0F1000070474FEA126203F0FF0387
:1006200047E002EA1C4482FA4CF594EA1345A5FA25
:100630008CF50AD165B951F8043B84EA0204B4EBA5
:10064000034F0CD150F8042BEBE74FEA134330E093
:1006500015EA1C4528D10B884FEA124229E04FEADF
:10066000124203EA1C4324E002F0FF0482FA4CF534
:1006700094EA1365A5FA8CF50AD165B951F8043BE3
:1006800084EA0204B4EB032F09D150F8042BEBE702
:100690004FEA13630DE015F0FF0F05D10B684FEA29
:1006A000122223F07F4304E04FF00000FDE80445F0
:1006B000704712BA1BBA82FA4CF482EA0304A4FA15
:1006C0008CF5B5FA85F402FA04F203FA04F34FEA62
:1006D0001260FDE80445A0EB1360704700000000C5
:1006E000284B03EB80022DE9F041D168DD6E4A69A9
:1006F000D2E900439C4235D9461C0F8A05EB0636E9
:1007000005EB401CE31ABB420CD9DCF818399BB24C
:10071000B7EB830F34D8916887BB72B61A4B1B4A6C
:10072000DA62FEE7DCF8181989B2B3EB810F27D83B
:1007300091680C683460042B0BD95C1F24F003040F
:1007400004340C448E465EF8048FC6F80080A6453B
:10075000F9D101EB030E516814680B449C42C2E9C5
:10076000013ECFD80123D5F8342803FA00F022EA5D
:100770000002C5F834281846BDE8F0813B46D8E7AA
:100780000020F9E728110020A011002080C00008F7
:10079000014B5B6883607047001000E000000000C0
:1007A0004FF08043091A5B6A1B1A8B4208D3054934
:1007B000054A064B06480860012010701870704703
:1007C00000207047941A0020381B0020981A00203F
:1007D000ACC10008000000000000000000000000A4
:1007E0000B4B0C4AD91D21F00701CB1AC3F178033A
:1007F00010B4002002F10C04DB084B60516008606B
:10080000C2E9034410609060506110BC704700BFA3
:10081000B81A00209C1A0020000000000000000010
:10082000054B00220421C3E90033DA609A619A6023
:10083000C3E90411704700BF140C00200000000041
:10084000FFF7EEBF00000000000000000000000005
:1008500000207047000000000000000000000000C1
:1008600030B40A4B0A4A1A6002F1100503F1180469
:10087000002103F120005D60C3E90644C3E90222C0
:10088000C3E908001961197530BC7047580C002085
:10089000C81300200000000000000000000000005D
:1008A000FFF7DEBF000000000000000000000000B5
:1008B000FFF7D6BF000000000000000000000000AD
:1008C000704700BF000000000000000000000000B2
:1008D0000B4B0C4AD91D21F00701CB1AC3F5CC6391
:1008E00010B4002002F10C04DB084B60516008607A
:1008F000C2E9034410609060506110BC704700BFB3
:1009000028140020AC1300200000000000000000AC
:10091000014B00221A607047681B00200000000095
:1009200048B910B4054A064C064B012020701070DF
:10093000196010BC70470020704700BF981A002053
:10094000381B0020941A0020000000000000000066
:10095000044B01214FF080421960516A536A994259
:10096000FCD070473C1B002000000000000000008D
:1009700020B370B584B06D462C46114E00E014468D
:10098000A6FB0023DB0803EB8301A0EB410000F191
:1009900030012246C9B202F8011B1846002BEED1E5
:1009A000AA4209D9074E01E014F8011D3068036816
:1009B000DB689847A542F7D104B070BD704700BF0F
:1009C000CDCCCCCC901A002000000000000000002C
:1009D00028B9044B186803683021DB681847FFF713
:1009E000C7BF00BF901A00200000000000000000F8
:1009F00070B5017889B10A4D044628680368DB6840
:100A0000984714F8011F0029F7D1286805490368A1
:100A100002225B68BDE870401847014DF5E700BF52
:100A2000901A002088C400080000000000000000A8
:100A3000017859B138B5064D044628680368DB686B
:100A4000984714F8011F0029F7D138BD704700BF3F
:100A5000901A0020000000000000000000000000CC
:100A6000F0B40D4E0D4F3568421E3B4603E013F8BF
:100A7000014B844207D19D4212F8010FF7D810B9FB
:100A80003760F0BC7047064C064A074B01202070C7
:100A900010701960F0BC7047501B0020401B0020F4
:100AA000381B0020981A0020941A00200000000033
:100AB00070B5084D4C24286803682D21DB689847E1
:100AC000013CF8D128680449036802225B68BDE84C
:100AD00070401847901A002088C4000800000000E9
:100AE000022906D0032906D00129064818BF002094
:100AF000704705487047032A9ABF044800EBC200BC
:100B00000020704720E80008D4E70008A8E80008A3
:100B1000202383F311880F4B5B6813F4006302D129
:100B200083F311887047EFF309834FF0807243F825
:100B3000042CA3F1200282F30988074A1168926904
:100B40008968926891428CBF044A054A43F8082C90
:100B5000704700BF00ED00E0A0110020A5020008D2
:100B6000B0020008000000000000000000000000CB
:100B70000E4B0F4A5B68C168F0B48468D66F426858
:100B80001B1BD0E904459B1BE61845F10007934267
:100B9000026888BF436001319342C0E90467C0E93D
:100BA000023138BF0360F0BC704700BF001000E0A6
:100BB000A011002000000000000000000000000064
:100BC000054B1A6B1AB95A6B002A00DD704772B6D2
:100BD000024ADA62FEE700BFA0110020CCC1000883
:100BE000054B1A6B002A03DB5A6B002A00DD7047A5
:100BF00072B6024ADA62FEE7A0110020C4C1000802
:100C000008B5FFF7EDFF40B139B18368013B1942E8
:100C100008D103680B60016008BD72B6044B054A39
:100C2000DA62FEE772B6024B024ADA62FEE700BF02
:100C3000A011002010BE000800000000000000000D
:100C4000F8B51446FFF7CCFF11B14D1E0D4004D08E
:100C500072B60C4B0C4ADA62FEE70C4ED6E9007213
:100C60003C44431E60180B440138494208400B4085
:100C700003449A4203D39F4201D83360F8BD28460B
:100C8000F8BD00BFA0110020B4BD00084013002033
:100C90000022FFF7D5BF00BF0000000000000000E9
:100CA000F8B5FFF79DFF4268530742D1836813F000
:100CB00007043ED19A423CD2991AC72939D9C5684E
:100CC000FF2D3BD80669002E38D01F4943F82C2C45
:100CD0004FF0020C0127026843F86C6C466903F878
:100CE000274C03F8267C03F828CC43F8381C4869C5
:100CF00043F8686C43F8302C43F8405C43F80C5CD4
:100D0000A3F1480243E90544A3F16C07A3F11C04D5
:100D10000E4E43F8340CA3F1200543F83C7C43F815
:100D20004C6C02614A61104643E9085443F8184C80
:100D3000F8BD72B6044B064ADA62FEE772B6024BA1
:100D4000034ADA62FEE700BFA0110020910200080A
:100D500054BD00080000000000000000000000007A
:100D600008B5FFF73DFFD0B190F8203001468BB1B8
:100D70000F2B0FD000220C4B806881F820201B68BD
:100D80009A688242FBD25A680846C1E90032116073
:100D9000596008BD72B6044B044ADA62FEE772B6C7
:100DA000014B024ADA62FEE7A011002048BD0008AC
:100DB000036898420BD01A680260506093F82020B4
:100DC000042A05D072B6054B054ADA62FEE7704781
:100DD00000225A621846FFF7C3BF00BFA0110020CF
:100DE000E0BC00080000000000000000000000005F
:100DF00038B51149FFF7F4FE0B7DB3B9FFF7F0FEEC
:100E00000A69AAB1CB684C681D680433A342CB6061
:100E100002F1FF32056028BF0B68084828BFCB608D
:100E20000A61FFF7C5FF002038BD6FF0010038BD33
:100E30004FF0FF3038BD00BF580C0020700C002070
:100E400038B50446006884420BD0026822605460C2
:100E500090F82020042A05D072B60A4B0A4ADA62BA
:100E6000FEE738BD6FF001054562FFF779FF2068A6
:100E70008442F6D0036823605C6090F82030042B35
:100E8000EAD1F1E7A0110020E0BC0008000000005A
:100E900008B5FFF7A5FEB0B1436B90F820200B43D7
:100EA0000A2A436306D00B2A03D1426A32EA0303BB
:100EB00003D008BD426A1342FBD000234362BDE861
:100EC0000840FFF74DBF72B6014B024ADA62FEE7F7
:100ED000A011002018BF0008000000000000000062
:100EE00070B5FFF77DFE98B10468A04205460E4636
:100EF0000DD0E3683343E36016B12269134203D097
:100F0000D4E90101FFF7C4FF2468A542F1D170BD07
:100F100072B6024B024ADA62FEE700BFA01100205F
:100F20003CBE0008000000000000000000000000BF
:100F300070B5FFF745FE90B1204B9D69AE6B002E5A
:100F400037D0B268AA4203D072B61D4ADA62FEE711
:100F50008642014608D072B6194ADA62FEE772B6D6
:100F6000164B174ADA62FEE7C068A863FFF728FE4F
:100F70000C68A1421AD0EE6B58B1FFF721FE03684E
:100F8000984203D09B689E4238BF1E46C068002826
:100F9000F3D1A26B2368AE6020460B605960C1E9B3
:100FA0000242A163BDE87040FFF7DABE0023B360E0
:100FB00070BD72B6024ADA62FEE700BFA0110020DF
:100FC000BCBE00080000000000000000000000009F
:100FD00008B5FFF705FE88B182680368002A06DBC2
:100FE000834206D072B60D4B0D4ADA62FEE78342A9
:100FF000F8D00132002A826005DD08BD72B6074BC9
:10100000074ADA62FEE71A6802600021506018465B
:101010005962BDE80840FFF7A3BE00BFA011002041
:10102000ACBE00080000000000000000000000004E
:10103000202383F31188074B1A6B002A01DD596BBB
:1010400019B172B6044ADA62FEE7013A1A6381F313
:1010500011887047A01100207CC10008000000002A
:10106000202383F31188074B1A6B002A01DB596B8D
:1010700019B172B6044ADA62FEE701321A6381F3EB
:1010800011887047A011002074C100080000000002
:10109000064B1A6B002A05DD5A6B002A02DD00227E
:1010A0005A63704772B6024ADA62FEE7A011002066
:1010B000A4C10008000000000000000000000000C3
:1010C000064B1A6B002A01DD5A6B1AB172B6044A3C
:1010D000DA62FEE701225A63704700BFA0110020C8
:1010E0008CC10008000000000000000000000000AB
:1010F00008B5202383F31188FFF7E2FF90F8203032
:10110000072B10D8DFE803F0140F0F1A0A040F0A98
:10111000416AFFF765FD8B6801338B60D0E90023DE
:101120001A60026853604FF0FF334362FFF718FE06
:10113000FFF7AEFF002383F3118808BD436A002246
:101140001A604FF0FF334362FFF70AFEF0E700BF7B
:10115000044B1A6B0AB95A6B1AB172B6024ADA62B8
:10116000FEE77047A01100206CC1000800000000DD
:10117000044B1A6B0AB95A6B1AB172B6024ADA6298
:10118000FEE77047A011002094C100080000000095
:1011900008B50F4B01221A60202080F3118862B637
:1011A000FFF7E6FF72B60B4B1A6B0AB9596B19B110
:1011B00072B6094ADA62FEE780F3118862B6FFF779
:1011C000D7FFFFF7C5FF81F3118862B608BD00BFE6
:1011D0003C1B0020A01100207CD40008000000006F
:1011E000034A516853685B1A9842FBD8704700BFA6
:1011F000001000E0000000000000000000000000FF
:1012000010B5FFF7EDFCC20712D5284BD3E9001447
:1012100099423FD000220968994202F10102FAD1B5
:101220008C4235D064689C4202F1FF32FAD17ABB1D
:10123000830713D51D4CD4E907211C34A2422DD0BD
:1012400000231268A24203F10103FAD191421FD098
:101250004968A14203F1FF33FAD1CBB910F0040081
:1012600015D0124BD3E904219A424FF0000019D057
:1012700012699A4200F10100FAD1914208D04969FD
:10128000994200F1FF30FAD1003018BF012010BDA3
:10129000012010BD9C42CBD00022C3E7A142DDD08B
:1012A0000023D5E79142EAD110BD00BFA011002074
:1012B000FEE700BF0000000000000000000000008A
:1012C00000EB8103C26ED868F0B444692368E36020
:1012D000EBB902EB41134FF40024C3F81049036843
:1012E00003F00303012B25D008B202EB40100123C9
:1012F000D0F8004944F00444C0F80049D2F834085A
:1013000003FA01F10143C2F83418F0BC704711B37D
:1013100043F00056078A02EB41157C1E2344B3FBC1
:10132000F7F346EAC343C5F81039036803F0030333
:10133000012BD9D108B2D2F8083802EB401413F4CB
:10134000807FD4F8003914BF43F0805343F000533A
:10135000C4F80039C9E7402BDAD94023014E236095
:10136000D8E700BF4000002000000000000000009F
:101370002DE9F041234FFE6E06EB40130546D3F8EE
:101380000849C3F80849E10703D5D6F81038DA0749
:1013900009D4230605D5D6F834280123AB401342DF
:1013A00018D1BDE8F08107EB8003D9684B69186854
:1013B000DA68904213D33B89D1F808800122AA4011
:1013C00023EA02033B81B8F1000FE2D038462946F8
:1013D000C047DEE72846BDE8F041FFF781B9121AA1
:1013E0004FF00008C3E90028202383F31188FFF79A
:1013F00067FE29463846FFF763FFFFF749FE88F38B
:101400001188C6E72811002000000000000000003D
:1014100000EB810330B4DD68AB691C68DC6019B98E
:10142000402C84BF40241C606B8AC06E2D685A1EFD
:101430002244B2FBF3F202FB03F3033323F0030372
:1014400043EAC24300EB411405F0030243F0C043FA
:10145000012AC4F8103B0AD009B200EB411130BC9C
:10146000D1F8003B43F00443C1F8003B704709B298
:10147000D0F8083800EB411213F4807FD2F8003B1B
:1014800014BF43F0805343F00053C2F8003BE4E73D
:101490002DE9F041284EF76E07EB40130546D3F8CF
:1014A000084BC3F8084B23070AD5D7F81438180798
:1014B00006D506EB85032946DB6830465B6898470E
:1014C000E10727D5D7F81438DA0723D506EB8503CB
:1014D000D9680DBB96F84C30DB061BD58A69488A63
:1014E0005468B4FBF0F300FB1343ABB91068D36846
:1014F000984211D21B1AC2E90035202383F31188C8
:10150000FFF7DEFD29460C48FFF782FFFFF7C0FD1D
:1015100085F31188BDE8F0817389CC680122AA4067
:1015200023EA02037381002CF4D0294623460248A3
:10153000BDE8F041184700BF28110020000000005E
:101540002DE9F04117469846FFF74AFB08B10529F7
:1015500004D972B60E4B0F4ADA62FEE701248C40C2
:101560000589A4B215EA04060CD100EB81032C43D3
:10157000DB6804815C69A760C4E90086BDE8F041CE
:10158000FFF79EBE72B6024B024ADA62FEE700BF68
:10159000A01100201CC10008000000000000000095
:1015A00038B590F84C300446152B46D8DFE803F0E8
:1015B0004045454545452A4545404040454545450A
:1015C000454545451E0B0B2380F84C30202383F303
:1015D0001188FFF775FD00231A461946FFF7B0FF83
:1015E000FFF756FD002383F3118838BDC3689B695C
:1015F0005B68002BF9D1836D03B19847002384F811
:101600004C3038BDC36E4168D3F800290D6842F4F0
:101610000012C3F80029D3F8002B42F40012C3F8DB
:10162000002B0DB10621A847062384F84C3038BDA5
:1016300072B6044B044ADA62FEE772B6014B024A04
:10164000DA62FEE7A011002060C10008000000007F
:101650002DE9F04117469846FFF7C2FA08B105296F
:1016600004D972B60E4B0F4ADA62FEE701248C40B1
:101670004589A4B215EA04060CD100EB81032C4382
:10168000DB6844819C69A760C4E90086BDE8F0413D
:10169000FFF7BEBE72B6024B024ADA62FEE700BF37
:1016A000A0110020ECC000080000000000000000B5
:1016B00038B590F84C300446152B4CD8DFE803F0D1
:1016C000464B4B4B4B4B304B4B0B1C504B4B4B4BF4
:1016D0004B4B4B4B464690F8631090F86220436D9D
:1016E00042EA0122934207D2C268128AB3FBF2F5A2
:1016F00002FB1535002D3AD0142384F84C302023FA
:1017000083F31188FFF7DCFC00231A4619462046B4
:10171000FFF79EFFFFF7BCFC002383F3118838BD61
:10172000C36E4168D3F800290D6842F40012C3F873
:101730000029D3F8002B42F40012C3F8002B0DB19E
:101740000621A847062384F84C3038BD72B6114BE9
:10175000114ADA62FEE772B60E4B0F4ADA62FEE712
:10176000836D03B19847002384F84C3038BD2023A3
:1017700083F31188FFF7A4FC2B462A462946FFF77E
:10178000DFFEFFF785FC85F311880A2384F84C30CF
:1017900038BD00BFA011002054C1000800000000A7
:1017A000704700BF000000000000000000000000C3
:1017B00090F85C3003F06003202B01D000207047CC
:1017C00090F85D30202BF9D3212B07D8074B036508
:1017D00007220023C0E9152301207047222BEDD1F9
:1017E0000023C0E91433836501207047300C0020CA
:1017F00078B149B1012905D122B172B6074B084A27
:10180000DA62FEE70020704772B6044B044ADA62DF
:10181000FEE772B6014B024ADA62FEE7A011002031
:10182000F8BF0008000000000000000000000000F9
:1018300070B5D0F88C542E683378042B01D0012079
:1018400070BD037A022BFAD12B797289012404FA34
:1018500003F31342F3D1FFF7C3F9D0E907239A4208
:1018600009D00432EBD0304669794FF48073FFF72A
:10187000EFFE002070BD8369002BE0D1F1E700BFCF
:10188000406BFFF7D5BF00BF000000000000000064
:101890000D3138B550F82140B4B1202383F31188BD
:1018A000FFF70EFCD4F88C241368527903EB820303
:1018B000DB689B695D6845B92046FFF7B9FFFFF714
:1018C000E7FB002383F3118838BD04216018FFF77C
:1018D00007FBFFF785F9A36A043B9D4204D972B662
:1018E000104B114ADA62FEE7D4E90732934210D076
:1018F0001D60D4E90910A269034401328B42A26140
:10190000E36101D3236BE36104F10C00FFF750FAAC
:10191000D2E7A269002AEBD072B6024B024ADA6221
:10192000FEE700BFA011002018C000080000000062
:1019300010B5FFF745F919B1C369043B8B4204D2D6
:1019400072B6104B104ADA62FEE7C3689BB10369B6
:1019500084691960C169C2680B44A342036124BF52
:10196000436A0361013A036BC260002282623BB1A9
:10197000BDE81040184772B6024B034ADA62FEE730
:1019800010BD00BFA011002030C100080000000001
:1019900008B5FFF725F9D0E904239A4204D0184688
:1019A00050F8043B0B6008BDC268002AF7D0002045
:1019B00008BD00BF000000000000000000000000A3
:1019C00010B5446BD4F88C2413681978042982B0BC
:1019D00001D002B010BD217A0229FAD111791A89F9
:1019E00001238B401342F4D101A904F14400FFF715
:1019F000CFFF02460028ECD0D4F88C04019B01797B
:101A00000068FFF79DFDE4E7000000000000000013
:101A100010B5202382B083F31188244CFFF750FBCC
:101A2000D4F88C2413681978042906D0FFF730FB0A
:101A3000002383F3118802B010BD217A0229F5D169
:101A400011791A8901238B401342EFD1FFF7C8F8AF
:101A5000D4E915329342E9D1226D002AE6D0E26E34
:101A6000002AE3D0043AD21AE0D01A60D4E9171061
:101A700003448B42226D636524BFA36E6365013A04
:101A8000002301A90A482265E366FFF781FF0246A9
:101A900038B1D4F88C04019B01790068FFF750FD40
:101AA000C4E772B6034B044ADA62FEE7980C0020E2
:101AB000DC0C0020A01100200CC000080000000079
:101AC0002DE9F04100EB810382B01C6A14B30E468D
:101AD0000546202383F3118800EB8107FFF7F0FA16
:101AE000201D0821FFF7FCF9FB685B691B6804F106
:101AF000440813BB404601A9FFF74AFF024660B104
:101B000031462846019BFFF71BFDFFF7C1FA002372
:101B100083F3118802B0BDE8F081FB685A6912684E
:101B2000002AF2D01B8A013B1340EED1314605F169
:101B30005C022846FFF704FDE7E7FFF751F8D4E918
:101B400015239A4215D0D4E91721206D0B4401309A
:101B500093422065A36501D3A36EA3654046FFF7BA
:101B600027F9404601A9FFF713FF02460028C7D115
:101B7000D3E7226D002AE6D072B6024B024ADA623F
:101B8000FEE700BFA0110020D4C000080000000044
:101B900010B5FFF715F8C36893B1D0E9061443698F
:101BA000C26823448B42436124BF436A4361013AC4
:101BB000036BC260002282623BB1BDE8104018474F
:101BC00072B6024B024ADA62FEE710BDA011002095
:101BD00048C00008000000000000000000000000F5
:101BE0004FF08043DA68920701D55863704772B6A8
:101BF000014B024ADA62FEE7A0110020ECBF0008A8
:101C000010B5FEF7EDFFC368002B2FD01C4AD36937
:101C100083420ED0D0E900310B6003681C320024EF
:101C200093425960C46003D081689A680A449A60FC
:101C300010BD1046196840F81C1F002481424860FE
:101C4000DC6018D09C688B68906A23444FF0804217
:101C50008B60526A121A9342EAD9991A012998BFE5
:101C6000931C1844BDE81040FFF7BABF72B6044B8E
:101C7000044ADA62FEE74FF08043DC6010BD00BF2B
:101C8000A0110020D4BD00080000000000000000EA
:101C90002DE9F041054690461846FEF7A1FF29B30D
:101CA000294E28613746022957F81C4FC5F80C8089
:101CB0004FF0804038BF0221BC42436A2FD0B06A47
:101CC000A2681B1A5B18194623D32468991AA368C3
:101CD0008B4205D30FE02468C91AA3688B420AD24D
:101CE000A542F8D172B6194BF362FEE772B6164BF5
:101CF000164ADA62FEE76368C5E900431D60656065
:101D0000A960A3684FF0FF325B1AA3607262BDE85E
:101D1000F0819342DBD21844FFF762FFD7E7B3624A
:101D2000C6E90755A960C26812F00202C5E900447D
:101D30000B4404D1022143630261C160E7E772B63C
:101D4000034BF362FEE700BFA01100206CBD00084A
:101D5000DCBF0008000000000000000000000000E0
:101D600010B5FEF73DFF074B1A689A4209D011687B
:101D7000196000244B6010465462BDE81040FEF725
:101D8000EFBF10BD040C00200000000000000000A8
:101D900010B50A4CFEF724FF236804F11800002157
:101DA000012221612275C4E90233FFF749F804F1E9
:101DB0002000BDE81040FFF743B800BF580C0020DA
:101DC00070B51249FEF70CFF0B7DCBB9FEF708FF8B
:101DD000D1E90064FEF704FF0B69A21BB3EBA20F6D
:101DE00011D08D682A1D8A609442286003F1010396
:101DF000074898BF8E600B61FEF7DAFF002070BDC8
:101E00006FF0010070BD4FF0FF3070BD580C002026
:101E1000780C00200000000000000000000000001E
:101E200038B51249FEF7DCFE0B7DC3B9FEF7D8FECC
:101E3000D1E90045FEF7D4FE0A692B1BB2EBA30FD4
:101E400010D0CB68043B9C4288BF2B1FCB60013273
:101E5000186007480A61FEF7ABFF002038BD6FF03D
:101E6000010038BD4FF0FF3038BD00BF580C0020D6
:101E7000780C0020000000000000000000000000BE
:101E8000034B002104221960D960C3E90122704785
:101E9000800C002000000000000000000000000096
:101EA00070B5334D334C344801232B60FEF7C0FD31
:101EB0008020FEF75DFD2046FEF79AFD02232F48A5
:101EC0002B60FEF7B5FD4420FEF752FD2046FEF7DD
:101ED0008FFD03232A482B60FEF7AAFD1420FEF78E
:101EE00047FD2046FEF784FD042626482E60FEF7B7
:101EF0009FFD0C20FEF73CFD2046FEF779FD0523F3
:101F000021482B60FEF794FD1020FEF731FD20469E
:101F1000FEF76EFD06231D482B60FEF789FD0820A5
:101F2000FEF726FD2046FEF763FD072318482B60C9
:101F3000FEF77EFD3046FEF71BFD2046FEF758FDFE
:101F4000082314482B60FEF773FD1420FEF710FDE4
:101F50002046FEF74DFD09230F482B60FEF768FD74
:101F60002820FEF705FD2046BDE87040FEF740BD85
:101F70003C1B00208CDA00087CDA000894DA0008A8
:101F8000A4DA0008B4DA0008C4DA0008D4DA0008D9
:101F9000E4DA0008F4DA000804DB000800000000BE
:101FA000024B0022C3E900339A607047E813002017
:101FB000024B0122C3E900339A60704714140020D9
:101FC000024B0022C3E900339A60704714140020CA
:101FD000044B00224FF4A4700421C3E901011A60EC
:101FE000DA607047D81300200000000000000000F5
:101FF000124AF8B50126124F16600725002425FA6B
:1020000004F313F0010F06FA04F220460ED057F83D
:10201000243025EA02055BB198470134002DEED14A
:1020200008490948BDE8F840FEF71ABD0134E6E763
:1020300072B6064B064ADA62FEE700BF3C1B002080
:1020400008C5000874D7000888D70008A011002030
:1020500050BF000800000000000000000000000069
:102060000649074A074B096000204960C2E900227F
:1020700090609860C3E90033704700BF040C0020F3
:10208000380C0020480C0020000000000000000078
:10209000044A054B126000215260C3E90033996085
:1020A000704700BF040C0020380C00200000000026
:1020B000FFF7EEBF0000000000000000000000007D
:1020C000024B0022C3E900339A607047380C0020AD
:1020D000FFF7F6BF00000000000000000000000055
:1020E000044A054B12600021C2E901219960C3E94D
:1020F00000337047380C0020480C0020000000001E
:10210000024B0022C3E900339A6070470814002094
:10211000FFF7F6BF00000000000000000000000014
:10212000FFF7EEBF0000000000000000000000000C
:10213000FFF7E6BF00000000000000000000000004
:10214000024B0122C3E900339A6070470814002053
:1021500038B5C94BC94CCA4801251D60FEF768FC5B
:102160002020FEF705FC2046FEF742FCC548FEF79E
:102170005FFC42F21070FEF7FBFB2046FEF738FCD6
:10218000C148FEF755FC2020FEF7F2FB2046FEF783
:102190002FFCBE48FEF74CFC2020FEF7E9FB204652
:1021A000FEF726FCBA48FEF743FC0220FEF7E0FBF0
:1021B0002046FEF71DFCB748FEF73AFC0020FEF76C
:1021C00007FC2046FEF714FCB348FEF731FC002064
:1021D000FEF7FEFB2046FEF70BFCB048FEF728FC9E
:1021E0000020FEF7F5FB2046FEF702FCAC48FEF7A8
:1021F0001FFC2846FEF7BCFB2046FEF7F9FBA9486A
:10220000FEF716FC2846FEF7B3FB2046FEF7F0FB70
:10221000A548FEF70DFC2846FEF7AAFB2046FEF770
:10222000E7FBA248FEF704FC2846FEF7A1FB204688
:10223000FEF7DEFB9E48FEF7FBFB2846FEF798FB09
:102240002046FEF7D5FB9B48FEF7F2FB0020FEF789
:10225000BFFB2046FEF7CCFB9748FEF7E9FB28467C
:10226000FEF786FB2046FEF7C3FB9448FEF7E0FB33
:102270000020FEF7ADFB2046FEF7BAFB9048FEF7C4
:10228000D7FB2846FEF774FB2046FEF7B1FB8D48CE
:10229000FEF7CEFB2846FEF76BFB2046FEF7A8FBB9
:1022A0008948FEF7C5FB2846FEF762FB2046FEF78D
:1022B0009FFB8648FEF7BCFB2846FEF759FB2046ED
:1022C000FEF796FB8248FEF7B3FB2846FEF750FB6D
:1022D0002046FEF78DFB7F48FEF7AAFB0020FEF7A5
:1022E00077FB2046FEF784FB7B48FEF7A1FB2846E0
:1022F000FEF73EFB2046FEF77BFB7848FEF798FB97
:102300002846FEF735FB2046FEF772FB7448FEF7C1
:102310008FFB2846FEF72CFB2046FEF769FB714831
:10232000FEF786FB2846FEF723FB2046FEF760FB00
:102330006D48FEF77DFB2846FEF71AFB2046FEF7A8
:1023400057FB6A48FEF774FB2846FEF711FB204650
:10235000FEF74EFB6648FEF76BFB2846FEF708FBD0
:102360002046FEF745FB6348FEF762FB0820FEF7B8
:10237000FFFA2046FEF73CFB5F48FEF759FB284674
:10238000FEF7F6FA2046FEF733FB5C48FEF750FBFB
:102390002846FEF7EDFA2046FEF72AFB5848FEF7DE
:1023A00047FB2846FEF7E4FA2046FEF721FB554896
:1023B000FEF73EFB2846FEF7DBFA2046FEF718FB49
:1023C0005148FEF735FB2846FEF7D2FA2046FEF7C5
:1023D0000FFB4E48FEF72CFB0020FEF7F9FA2046D3
:1023E000FEF706FB4A48FEF723FB2846FEF7C0FA35
:1023F0002046FEF7FDFA4748FEF71AFB2846FEF78F
:10240000B7FA2046FEF7F4FA4348FEF711FB2846D8
:10241000FEF7AEFA2046FEF7EBFA4048FEF708FB5F
:10242000FF20FEF7A5FA2046FEF7E2FA3C48FEF749
:10243000FFFA8020FEF79CFA2046FEF7D9FA3948C9
:10244000FEF7F6FA0020FEF7C3FA2046FEF7D0FAB0
:102450003548FEF7EDFA0020FEF7BAFA2046FEF7FF
:10246000C7FA3248FEF7E4FA0020FEF7B1FA204638
:10247000BDE83840FEF7BCBA3C1B0020ECDC00088D
:1024800038CC000864CC000890CC0008BCCC000814
:10249000E8CC000814CD000840CD00086CCD000841
:1024A00098CD0008C4CD0008F0CD00081CCE00086F
:1024B00048CE000874CE0008A0CE0008CCCE00089C
:1024C000F8CE000824CF000850CF00087CCF0008C9
:1024D000A8CF0008D4CF000800D000082CD00008F6
:1024E00058D0000884D00008B0D00008DCD0000824
:1024F00008D1000834D1000860D100088CD1000850
:10250000B8D10008E4D1000810D200083CD200087D
:1025100068D2000894D20008C0D20008ECD20008AB
:1025200018D3000844D3000870D300089CD30008D7
:10253000194B1A4810B501221A60194CFEF758FAC7
:102540001848FEF775FA0020FEF742FA2046FEF71B
:102550004FFA1548FEF76CFA1448FEF749FA14488A
:10256000FEF766FA0520FEF703FA2046FEF740FA6A
:102570001048FEF75DFA0020FEF72AFA2046FEF723
:1025800037FA0D48FEF754FA0020FEF721FA2046EC
:10259000BDE81040FEF72CBA3C1B002010CB000811
:1025A000ECDC000844CB000870CB00089CCB000892
:1025B000A4CB0008D0CB0008FCCB00080000000032
:1025C0001C4B1D4810B501221A60FEF731FA1B485A
:1025D0001B4CFEF70DFA1B48FEF72AFA1A48FEF7C5
:1025E00007FA1A48FEF724FA1948FEF701FA1948C3
:1025F000FEF71EFA1848FEF7FBF91848FEF718FA1E
:102600000420FEF7B5F92046FEF7F2F91448FEF76C
:102610000FFA0820FEF7ACF92046FEF7E9F9114859
:10262000FEF706FA0820FEF7A3F92046BDE81040A1
:10263000FEF7DEB93C1B002054C9000880C9000821
:10264000ECDC00088CC90008B8C90008C4C900083F
:10265000F0C9000838CA000864CA00087CCA00082B
:10266000A8CA0008D4CA000800000000000000004A
:102670002DE9F0411446FEF7B3FA98B10378042B24
:102680000BD10EB200EB86080D46D8F80C1071B1D4
:1026900072B6624B624ADA62FEE772B65F4B604A1C
:1026A000DA62FEE772B65D4B5D4ADA62FEE76369A5
:1026B000C8F80C401BB1196059609960D960A369D2
:1026C00023B100221A605A609A60DA60D8F80C20B0
:1026D000C46E136803F00303022B63D0032B00F0D6
:1026E0009A80504F5049012B18BF0F466B01E118DB
:1026F0004FF0000ED2F818C0C1F810EB05F1100130
:102700004FF0010E0EFA01F1BCF1000F74D0B2F8D7
:1027100012E005F1580C4FEA4C1C4EEA070E44F843
:102720000CE0D4F81CC84CEA0101C4F81C1823447E
:1027300051694FF0000CC3F810C9002939D0138A31
:10274000928B9B08012A88BF5343D0E91C215E1855
:102750004667526896424FEA034325D805F13F0287
:10276000C06E0B4304EB8202A90141F020015360CB
:10277000016103699A06FCD41220FEF731FDD8F8F6
:102780000C301B8A05F1480243EA855352011F436E
:10279000A7500123D4F81C28AB401343C4F81C38BD
:1027A000BDE8F081214FA1E772B61C4B204ADA62E6
:1027B000FEE705F13F03C16E1E4804EB8303AA0147
:1027C00042F0200258600A610B699B06FCD404EBBE
:1027D00046161220FEF704FDD6F8003923F4004314
:1027E000C6F80039D4F81C38012202FA05F523EAAC
:1027F0000503C4F81C38D3E704EB461EDEF800CB13
:102800002CF4004CCEF800CBD4F81CC82CEA010103
:10281000C4F81C188BE7084F68E700BFA011002020
:10282000A8C000080080041000800010008008107C
:1028300060C000080004000200800C1000000000CE
:1028400038B5052916D8DFE801F04F15164F4F03AC
:10285000202383F31188324DFEF732FC0024281D1B
:102860000121FEF73DFB2C7585F84C40FEF710FC6E
:1028700084F3118838BD0546202383F31188FEF7C1
:102880001FFC274C274A0121FFF7F2FE0221264AAE
:102890002846FFF7EDFE0025FEF7A2F9236B236221
:1028A00004F10C00E361A561C4E90D55FEF7C8FA17
:1028B0002575FEF795F9D4E9192304F14400226542
:1028C000C4E91533E5662567FEF7BAFA0121201D34
:1028D00084F84C50FEF704FB2046FEF7A9FFFEF7F4
:1028E000D7FB85F3118838BD202383F311880C4C66
:1028F000FEF7E6FB0221201DFEF7F2FA012504F1A6
:102900000C002575FEF79CFA04F1440084F84C5045
:10291000FEF796FAFEF7BCFB002383F3118838BD5F
:10292000980C0020C0C40008E4C4000800000000A7
:1029300070B50E46F0B1044630601149204609F0EA
:1029400027F9215C222904EB00050DD00C4928460B
:1029500009F0FCF8306018B1421C002332600370AB
:102960002B7853B1284670BD0135284608F0FCFF8E
:102970003060F0E70C68002CDFD10025284670BDE0
:10298000C0C80008000000000000000000000000B7
:102990000EB42DE9F04F86B00FAF044657F8046B24
:1029A00002974FF000083178721C61B1252910D0D0
:1029B00023681646DB6820469847317808F10108FD
:1029C000721C0029F2D1404606B0BDE8F04F03B0BA
:1029D000704771782D2903BFB178B21C4FF0010CFC
:1029E0004FF0000C302903BF517801324FF0300A0C
:1029F0004FF0200A0132002505E03B78043712F839
:102A0000011B03EB4005A1F13003DBB2092B964615
:102A100005EB8500F3D92A29EFD02E294FF00002CB
:102A200048D001F0DF034C2B0EF101064ED0A1F18E
:102A30004103A1F14400DBB2342800F21681DFE843
:102A400010F0650114011401140114016501140151
:102A500014011401140114011001140114011401D2
:102A600014011401E100140114016E011401140198
:102A700014011401140114011401140114011401AE
:102A80008F00650114011401140114016501140182
:102A90001401140114011401100114011401140192
:102AA0006D001401E100140114016E013B7804373C
:102AB00003EB40021EF8011BA1F13003DBB2092B2E
:102AC00002EB8200F4D92A29F0D0AAE79EF8003060
:102AD0000BB3A3F14401342900F2C980DFE801F00F
:102AE000D7C7C7C7C7D7C7C7C7C7C7C2C7C7C7C75B
:102AF000C793C7C7D4C7C7C7C7C7C7C7C7C7C74113
:102B0000D7C7C7C7C7D7C7C7C7C7C7C2C7C7C71FE2
:102B1000C793C7C7D4000B467646DAE77646D7F8A0
:102B200000900437B9F1000F00F0FD8099F80030F3
:102B30004846002A40F0FE80002B00F00C8147F64A
:102B4000FE724B4601E0013A03D413F8011F00293D
:102B5000F9D11B1AED1A013B00934FF0200A0BE04C
:102B600076460DF118093B6809F80C3D0023013D3C
:102B7000043700934FF0200A002D1EDBBCF1000F3C
:102B80007ED16B42002D7AD099F8001022682D2951
:102B9000D26800F0A8809B4601E02368DA685146BD
:102BA000204690471BF1010BF7D1009A002A5B46A3
:102BB000A844FFF6F8AE1D4604E0009B002BFFF68C
:102BC000F2AE0025DDF800B0236819F8011BDB68C0
:102BD0000BF1FF3B20469847BBF1FF3FF4D1009B30
:102BE00008F1010843449846002D3FF4DCAEA946A5
:102BF00023685146DB6820469847B9F10109F7D1AF
:102C0000A844D0E676464FF00A0957F8042B0DF198
:102C1000170100E00146B2FBF9FE09FB1E2202F19A
:102C20003003392BC8BF02F13703DBB2724601F81B
:102C3000013C481E002AEDD10DF11702A2EB000B5A
:102C40000DF10C094A46584401E011F8013B02F825
:102C5000013B8142F9D10BF1FF33A5EB0B0500934A
:102C60008AE776464FF00809CFE776460B460DF126
:102C70001809013D09F80C3D002300937CE71D462F
:102C8000009B002B9EDAAFE74FF01009BDE7391D1E
:102C90003A680F46002A55DB0DF10C09484600F151
:102CA0000B03009319462F4BA3FB02E3DB0803EB56
:102CB000830B9E46A2EB4B033033DBB2724601F826
:102CC000013D002AEFD1009A521A024401E011F8A6
:102CD000013F00F8013B9042F9D1A0EB0900431EEF
:102CE0002D1A009348E7BAF1300F7FF454AF204615
:102CF00001939047009B2268013B0093019BD2689F
:102D000008F1010809F101099B4648E73946192BEA
:102D100051F8042B764688BF0F46BBD8B8E77646F5
:102D20004FF0100971E710488146002A3FF407AFC1
:102D3000013A06E7002BFBD14FF0FF3300934FF031
:102D4000200A19E72D2352428DF80C300DF10D00A9
:102D50000DF10C09A3E74FF0FF3300934FF0200A69
:102D60000CE700BFCDCCCCCC1CC20008000000009A
:102D7000002918DC70B504460C4E0D4D02E0336896
:102D80005B689847236800219B692046984701307B
:102D90004FF4806229460548F1D020460549BDE838
:102DA0007040FFF7F5BD0449FFF7F2BD980C002015
:102DB000000800206CC400087CC40008000000006B
:102DC000012903D0034A0449FFF7E2BD1268034911
:102DD000FFF7DEBD24C2000834C2000840C200086C
:102DE000002903DD194A1A49FFF7D2BD10B5194A67
:102DF000194982B00446FFF7CBFD184A184920460E
:102E0000FFF7C6FD174A18492046FFF7C1FD174ACC
:102E100017492046FFF7BCFD164A17492046FFF721
:102E2000B7FD164A16492046FFF7B2FD154A164966
:102E30002046FFF7ADFD154B00932046144B154A75
:102E40001549FFF7A5FD02B010BD00BF48C200083C
:102E500034C200089CCB000850C20008F0C900082A
:102E600064C2000880C9000878C20008B8C9000818
:102E70008CC2000864CA0008A0C20008B4C20008DE
:102E8000D0C20008E4C200080CC3000848C3000810
:102E900020C3000824C3000830C30008000000005D
:102EA00070B50C68A14212D00D46064602E02468B7
:102EB000A5420CD008223146A01808F0C9FD002810
:102EC000F5D114B1636801336360204670BD0024FE
:102ED000204670BD0000000000000000000000005F
:102EE00038B5124D0446A869FDF76AFE2A68836862
:102EF000AA4202D092689A4214D8A26861629A42A9
:102F00000BD9FDF72DFF012384F820300146AC6179
:102F10002046BDE83840FDF7B3B92046BDE838404B
:102F2000FDF71EBF72B6024BEB62FEE7A011002058
:102F30008CBE00080000000000000000000000003F
:102F400038B5094CA169FDF73BFE236881F82000E4
:102F50001A6822600125546083F820501846A36146
:102F6000BDE83840FDF78CB9A0110020000000003A
:102F7000F8B53B4EB469FDF723FE002833D0054673
:102F8000806858B3A26883689A4207D990F82030C5
:102F90008260062B4AD0072B34D043B32B4603E084
:102FA0009968A268914202D31B689D42F8D15A6881
:102FB0000620C4E9003214605C606562FFF7C0FF60
:102FC000AB68A34203D072B6264BF362FEE7A36B55
:102FD000AB4207D072B6234BF362FEE7A36BC5E9A1
:102FE0000243A563F8BD72B61E4BF362FEE7D0E95B
:102FF0000023012180F820101A6002685360FDF759
:10300000AFFECBE7D0E9001319600768416A7B6027
:103010000B4602E09F68974202D31B689942F9D1A0
:103020005A68C0E9003210605860B7E7D0E9001371
:1030300019600768416A7B600B4602E09F6897420F
:1030400002D31B689942F9D15A68C0E90032106076
:1030500058608868A2688368934297D39EE700BF50
:10306000A011002078BD0008000000000000000052
:10307000114DAC6908B5A36A606204F12806B34239
:1030800007D01A68A2621846FDF76AFEA36AB34227
:10309000F7D194F8223043B994F821309B0704D13A
:1030A000D4E904231A61226953610F20FFF748FF16
:1030B00072B6024BEB62FEE7A011002028BF0008A9
:1030C00030B587B00546FDF77BFD4B1C13D00D4C8A
:1030D0000D4AA36901A8FEF7DBFD2846FFF730FF84
:1030E000FDF77EFD049B13B101A8FEF789FDA369DE
:1030F000586A07B030BD034CFFF722FFA369586A36
:1031000007B030BDA0110020F11000080000000041
:1031100010B5FDF755FD98B183680268002B044691
:1031200006DB824206D072B6114B124ADA62FEE723
:103130008242F8D05A1E002AA26006DB002010BD91
:1031400072B60B4B0B4ADA62FEE761B1084B9B6922
:103150005C6262680520C3E9004213606360BDE8F9
:103160001040FFF7ADBFA3604FF0FF3010BD00BFB0
:10317000A01100206CBE000800000000000000004C
:1031800061B1084B10B4024644689B690420C3E94E
:1031900000242360536010BCFFF792BF4FF0FF3054
:1031A000704700BFA01100200000000000000000D8
:1031B00038B504460D46FDF703FD05E0237A93B9C3
:1031C000FFF7DEFF00280DDBE36829462046002BD1
:1031D000F4D0E36853B12369E1691A1D0B44C4E9D3
:1031E0000A23002038BD6FF0010038BD72B6024BD3
:1031F000024ADA62FEE700BFA011002000C1000809
:1032000038B504460D46FDF7DBFC05E0237A93B99B
:10321000FFF7B6FF00280DDBE36829462046002BA8
:10322000F4D0E36853B163691A6804331A44C4E9FB
:103230000A32002038BD6FF0010038BD72B6024B73
:10324000024ADA62FEE700BFA01100202CC000088D
:1032500070B590F84C30044613B1002380F84C3020
:1032600004EB81016268CB681B6A19685B6823669E
:10327000E165936843B32046984728B3616D94F89D
:103280005C3094F8630094F8622042EA00228A429B
:103290002CBF0A466265190600F19880002A6BD09F
:1032A000152384F84C30202383F31188FDF708FFA1
:1032B000D4E9142320460021FEF7CAF9FDF7E8FE01
:1032C000002383F3118870BD94F85C3013F060051F
:1032D000194616D0E26ED2F80039616843F4001343
:1032E000C2F80039D2F8003B0D6843F40013C2F86D
:1032F000003B15B106212046A847062384F84C3030
:1033000070BD94F85D0003F07F0242EA002240F2B3
:103310000230824200F0D18042D8022A00F0B78009
:1033200040F2AD80B2F5817F00F0E480B2F5407FDD
:103330007DD0B2F5807FCDD194F85E30012BC9D11C
:10334000B4F86430256523F00203C4E91555A4F8E8
:1033500064300FE0B2F5C06F78D2B2F5A06FB9D18A
:10336000B4F85C30B3F5A06F00F0E4800023C4E94A
:103370001433A3650B0636D40B2384F84C3020237A
:1033800083F31188FDF79CFE002320461A46002196
:10339000FEF7D6F8FDF77CFE002383F3118870BD9D
:1033A00040F201608242D5D9B2F5106F27D040F6C5
:1033B00002418A4200F09C80B2F5006F8AD104F18C
:1033C00067020121A565C4E914215AE75AB109230E
:1033D00084F84C30202383F31188FDF771FED4E983
:1033E00014232046D3E7142384F84C30202383F39E
:1033F0001188FDF765FE002320461A465BE7237817
:10340000042B00F0AF8094F85E304BB10421626869
:1034100084F867302170136813B102212046984761
:103420000023C4E91433A36594F85C10A2E794F870
:103430005E30012B7FF44EAFB4F86430256543F065
:103440000203C4E91555A4F8643093E794F86100C9
:10345000616894F860304E6894F85E2094F85F10CC
:1034600043EA00232046B04700283FF433AFD0E9B9
:103470000013A565C4E9143194F85C3001E7A2BBE0
:1034800004F164000221A265C4E91401F9E694F88C
:103490006000E26E050600F00F0144D45831490186
:1034A00051580E047FF517AF8A023AD55A4A226561
:1034B00002210022C4E91512E3E694F85E30002BE5
:1034C0007FF408AF94F8602012F00F003FF44EAF85
:1034D000E36E03EB4013100600F18F80D3F8002B4E
:1034E00042F40012C3F8002B40E7012A7FF4F2AE49
:1034F0004A4ADCE794F85E30002B7FF4EBAE94F898
:10350000602012F00F003FF431AFE36E150603EBBD
:10351000401379D4D3F8002B22F40012C3F8002B07
:1035200024E73F4AC3E748314901515808047FF571
:10353000D2AEB9E794F85E00E16E84F86600D1F887
:103540000038626823F4FE63126843EA0013C1F88E
:10355000003812B1012120469047032394F85C10F3
:10356000237003E7202383F31188FDF7A9FDFDF7FE
:1035700037FB2378042B04D072B62A4B2A4ADA622E
:10358000FEE7226F21891368636763899068E66E9E
:10359000256101F001012A4603F00103C4E9055544
:1035A000C4E907552181451C638110464FF0FF3166
:1035B00006EB421301329542C3F80009C3F8100923
:1035C000C3F80819C3F8000BC3F8100BC3F8081BA5
:1035D000EED14FF00113C6F81C38FDF759FD80F30A
:1035E00011880321636884F8670021701B68002B31
:1035F0003FF409AF2046984705E7D3F8002942F485
:103600000012C3F80029B1E6D3F8002922F4001211
:10361000C3F80029AAE600BF20C50008F0E80008AA
:10362000C0C10008A0110020BCC0000800000000BC
:10363000EFF30983203383F30988002383F3118890
:10364000704700BF00000000000000000000000004
:1036500017480368816910B51C6804600122606026
:1036600083F820208361FDF7BBFAE9B191F820309F
:10367000B3B10F2B14D0002381F820308A68A368DF
:10368000934203D92468A3689342FBD86368C1E9D5
:103690000043196061608069BDE81040FCF7F0BD2F
:1036A00072B6044BC362FEE772B6024BC362FEE71A
:1036B000A0110020A0BD00080000000000000000D4
:1036C00008B5FDF77DFAFDF78BFA064B1A689B6982
:1036D00092689B689A4200D808BDBDE80840FFF791
:1036E000B7BF00BFA01100200000000000000000D4
:1036F000054B1A6B22B9596B002901DD5A637047DB
:1037000072B6024ADA62FEE7A01100209CC10008EE
:1037100008B5FFF7EDFF084B1A689A4204D0996983
:1037200092688968914203D3002383F3118808BD0E
:1037300072B6024ADA62FEE7A011002014BC00084B
:1037400008B5FFF7D5FF084B1A689A4204D099696B
:1037500092688968914203D3002383F3118808BDDE
:1037600072B6024ADA62FEE7A0110020C8BC000867
:1037700008B5EFF30583C3F30803A3B9FFF7A0FF70
:10378000FFF7B6FF0B4B1A689A4208D09969926806
:103790008968914203D272B6074ADA62FEE70023D3
:1037A00083F3118808BDFDF773FC002383F31188B0
:1037B00008BD00BFA0110020D8BB00080000000019
:1037C000054B1A6B0AB95A6B1AB172B6034ADA6220
:1037D000FEE701225A637047A011002084C100084F
:1037E00070B5202383F31188214CFFF7E9FFA3680C
:1037F0002268002B06DBA24206D072B61D4B1E4A81
:10380000DA62FEE7A242F8D00133002BA36007DCA6
:103810002068036823605C60FDF7A2FA002343621E
:10382000A368013B002BA36011DB124DFFF748FF9B
:103830000020FFF75DFF2B68AB4204D0AA699B68AC
:1038400092689A4210D3002383F3118870BD094D0A
:103850006368AE690520C6E900431E607462666055
:10386000FFF76EFB706AE4E772B6044BEB62FEE7AB
:1038700008140020A011002034BF0008F0BB00088D
:1038800010B5202383F31188FFF79AFFFDF798F90D
:103890000E4B0F4C9A6872B10020FFF729FF236886
:1038A000A34204D0A2699B6892689A420AD300237B
:1038B00083F3118810BDA2699A60916BD9609363FC
:1038C0000120EAE772B6034BE362FEE7380C002002
:1038D000A0110020FCBB0008000000000000000058
:1038E00008B5202383F31188FFF76AFF0E4B186891
:1038F000984205D002681A6053600021FFF7F0FA81
:10390000FFF7F6FE094B1A689A4204D0996992684B
:103910008968914203D3002383F3118808BD72B6EE
:10392000034ADA62FEE700BF040C0020A011002069
:1039300008BC0008000000000000000000000000BB
:1039400010B5202383F311880C4CFFF739FFA369CE
:103950000022586B5A63FFF7CBFE2368A34204D0C2
:10396000A2699B6892689A4203D3002383F311886B
:1039700010BD72B6024BE362FEE700BFA01100204B
:1039800014BC00080000000000000000000000005F
:1039900008B5FFF7D5FF024A024B12601B6008BD55
:1039A0000C0C0020100C00200000000000000000A3
:1039B000FFF7C6BF0000000000000000000000008C
:1039C000FFF7F6BF0000000000000000000000004C
:1039D000FFF7EEBF00000000000000000000000044
:1039E000FFF7E6BF0000000000000000000000003C
:1039F000FFF7DEBF00000000000000000000000034
:103A000038B5144C2023A56983F31188FFF7D8FE3D
:103A10006B6B93B15842184023EA00036B63FFF7C6
:103A200067FE2368A34204D0A2699B6892689A4209
:103A30000BD3002383F3118838BD4FF0FF336B6243
:103A40000A20FFF77DFA6B6BE4E772B6024BE36284
:103A5000FEE700BFA011002014BC00080000000019
:103A600038B5124C2023A56983F31188FFF7A8FE0F
:103A7000686B78B100236B63FFF73AFE2368A342BB
:103A800004D0A2699B6892689A420BD3002383F307
:103A9000118838BD4FF0FF330A206B62FFF750FAF0
:103AA000686BE7E772B6024BE362FEE7A011002005
:103AB00014BC00080000000000000000000000002E
:103AC00038B5144C2023A56983F31188FFF778FEDD
:103AD0006B6B03F00502052A05D005236B620B20F2
:103AE000FFF72EFA6B6B23F005036B63FFF700FE05
:103AF0002368A34204D0A2699B6892689A4204D3C7
:103B0000002383F31188052038BD72B6024BE362AF
:103B1000FEE700BFA011002014BC00080000000058
:103B200038B5254C2023A56983F31188FFF748FE9B
:103B30006B6B53B90146D8B14FF0FF336B620A206B
:103B4000FFF7BEFA002825DB6B6B5842184023EACA
:103B500000036B63FFF7CCFD2368A34204D0A26986
:103B60009B6892689A4211D3002383F3118838BD71
:103B7000FFF7BEFD2368A34204D0A2699B68926848
:103B80009A4215D3002080F3118838BD72B60B4BD2
:103B9000E362FEE7FFF7ACFD2368A342F2D0A2691F
:103BA0009B6892689A42EDD272B6044BE362FEE7DC
:103BB00072B6024BE362FEE7A011002014BC0008BD
:103BC00008B5202383F31188FFF7FAFDFEF7E0F82C
:103BD000FFF776FDFFF78CFD084B1A689A4204D078
:103BE000996992688968914203D3002383F311880D
:103BF00008BD72B6024ADA62FEE700BFA0110020DB
:103C000038BC0008000000000000000000000000B8
:103C1000FFF7D6BF00000000000000000000000019
:103C2000FFF7F6BF000000000000000000000000E9
:103C3000FFF7EEBF000000000000000000000000E1
:103C40002DE9F84381468846202383F31188224CCE
:103C5000FFF7B6FD04F11807FCF7B2FF10E0FCF720
:103C6000BFFFD4E90056FCF7BBFF2369721BB3EB1F
:103C7000A20F414638461DD1FFF782FA054620B90A
:103C8000237D002BEBD06FF00105FFF731FD134BC7
:103C90001A689A4204D0996992688968914205D35A
:103CA000002383F311882846BDE8F88372B60C4AD6
:103CB000DA62FEE7A1680B480A1DA2609642C1F8CD
:103CC000009003F1010398BFA56023610025FDF773
:103CD0006FF8FFF7F5FCD8E7580C0020A011002082
:103CE00038BC0008780C0020000000000000000034
:103CF0002DE9F84307468946202383F31188214C98
:103D0000FFF75EFD04F11808FCF75AFF10E0FCF71E
:103D100067FFD4E90065FCF763FF2269AB1BB2EBD8
:103D2000A30F494640461DD1FFF72AFA054620B9A0
:103D3000237D002BEBD06FF00105FFF7D9FC124B70
:103D40001A689A4204D0996992688968914205D3A9
:103D5000002383F311882846BDE8F88372B60B4A26
:103D6000DA62FEE7E3680A48043B9E4288BF2B1FE5
:103D7000E36001321F6000252261FDF719F8FFF7AB
:103D80009FFCDAE7580C0020A011002038BC000886
:103D9000780C00200000000000000000000000007F
:103DA0002DE9F04120230646884683F31188204CF4
:103DB000FFF706FD04F12007FCF702FF09E0FCF71E
:103DC0000FFF226941463846CAB9FFF7D9F90546BF
:103DD00020B9237D002BF2D06FF00105FFF788FC9E
:103DE000144B1A689A4204D0996992688968914282
:103DF0001AD3002383F311882846BDE8F081E368D5
:103E00006168186804338B42E36002F1FF3230606E
:103E100028BF2368084828BFE36022610025FCF71B
:103E2000C7FFFFF74DFCD9E772B6044ADA62FEE736
:103E3000580C0020A0110020700C002038BC000895
:103E400010B50146202383F31188144CFFF7B8FC0A
:103E50002046FFF75DF9A0B9FCF7C2FEE068B0B1FB
:103E60000368E360FFF744FC0D4B1A689A4204D0E4
:103E7000996992688968914205D3002383F3118878
:103E800010BD0020EEE772B6064ADA62FEE7A369CB
:103E9000002BE7D0D4E904019847E3E7140C002095
:103EA000A011002050BC000800000000000000002D
:103EB00008B5074B01224FF47A701A60FFF7C0FF74
:103EC000B0FA80F040090349BDE80840FCF728BD7E
:103ED0003C1B0020B0C600080000000000000000ED
:103EE00010B52023144683F31188FFF769FC22469E
:103EF000FCF7A6FEFFF7FCFB084B1A689A4204D0B9
:103F0000996992688968914203D3002383F31188E9
:103F100010BD72B6024ADA62FEE700BFA0110020AF
:103F200044BC000800000000000000000000000089
:103F300070B5574D574E012382B02B6042244FF08D
:103F4000FF312046FFF77CFEB0FA80F03146400991
:103F5000FCF7E6FC013480B9462CF0D102230121A4
:103F600058202B60FFF76CFEA0F1FF30B0FA80F014
:103F700048494009FCF7D4FC08B102B070BD2023C9
:103F800083F31188444CFFF71BFC5820FDF718FF02
:103F9000FFF7AEFB2368A34204D0A2699B68926836
:103FA0009A4268D3002383F31188A0F1FF30B0FA5E
:103FB00080F038494009FCF7B3FC0028DDD101212D
:103FC0005820FFF795FEA0F1FF30B0FA80F031499C
:103FD0004009FCF7A5FC0028CFD1202383F31188EA
:103FE000FFF7EEFB5820FDF71BFFFFF781FB23686F
:103FF000A34204D0A2699B6892689A4243D30023EB
:1040000083F31188461C704270412249FCF788FCFA
:1040100006460028B1D103232B60FFF7D1FD1F4BCB
:1040200001211E7501A804232B60FFF7B9FE421C75
:10403000504250411749FCF773FC00289DD12023C2
:1040400083F31188FFF7BCFB01A8FCF7D1FEFFF753
:104050004FFB2368A34204D0A2699B6892689A42EE
:104060000DD3002383F31188431C5842094958415A
:10407000FCF756FC81E772B6094BE362FEE772B6C5
:10408000074BE362FEE772B6054BE362FEE700BF53
:104090003C1B002040C60008A0110020580C002046
:1040A000C8BC000800000000000000000000000084
:1040B00038B50F4C2023A56983F31188FFF780FBE7
:1040C0000320FEF73DFF6B6A002BF9D0FFF710FBD2
:1040D0002368A34204D0A2699B6892689A4203D3E2
:1040E000002383F3118838BD72B6024BE362FEE70A
:1040F000A0110020BCBC000800000000000000006F
:1041000070B5754D012300202B60FFF709FDB0FA53
:1041100080F040097149FCF703FC00B170BD704CA0
:104120002023A16983F31188FFF74AFB4B6B002B17
:1041300040F09980FFF7DCFA2368A34205D0A2691A
:104140009B6892689A42C0F08A80002383F31188AA
:1041500001206249FCF7E4FB0028DFD1A669202397
:1041600083F31188FFF72CFB736B013300F08E8013
:10417000FFF7BEFA2368A34205D0A2699B68926844
:104180009A42C0F09280002383F3118801205349A2
:10419000FCF7C6FB0028C1D102234FF4FA702B6054
:1041A000FFF7BEFCB0FA80F040094C49FCF7B8FBC1
:1041B0000028B3D1A569202383F31188FFF700FB02
:1041C0006E6B56B94FF0FF336B624FF4FA710A20F1
:1041D000FEF776FF002870DB6E6B00236B63FFF742
:1041E00087FA2368A34204D0A2699B6892689A4226
:1041F00066D3002383F31188B6FA86F04009374965
:10420000FCF78EFB0546002888D1A669202383F39E
:104210001188FFF7D5FA736B013309D04FF0FF33E4
:1042200073624FF4FA710B20FEF74AFF00284BDB54
:1042300000237363FFF75CFA2368A34204D0A269EA
:104240009B6892689A4243D3002383F311884FF00E
:10425000FF3001302149BDE87040FCF761BB72B608
:10426000204BE362FEE74863FFF742FA2368A3426C
:1042700004D0A2699B6892689A4203D3002080F31D
:10428000118866E772B6174BE362FEE77063FFF7CB
:104290002FFA2368A34204D0A2699B6892689A42CD
:1042A00007D3002383F3118871E772B60D4BE362E5
:1042B000FEE772B60B4BE362FEE7FFF729FA9BE7D6
:1042C00072B6084BE362FEE7FFF722FA2846C0E722
:1042D00072B6044BE362FEE73C1B002020D80008C6
:1042E000A011002014BC0008000000000000000025
:1042F00008B5202383F31188FFF762FAFCF770FCFE
:104300008368002B10DDFFF7DBF9FFF7F1F90A4BAB
:104310001A689A4204D0996992688968914206D3D2
:10432000002383F3118808BDFCF752FEEBE772B659
:10433000024ADA62FEE700BFA011002098BC000824
:1043400038B5464D01202860202383F31188444C62
:10435000FFF736FAFCF754FFFFF7CAF92368A342C8
:1043600004D0A2699B6892689A4266D3002383F3C3
:10437000118880F00100C0B23A49FCF7D1FA00B1CF
:1043800038BD02202860202383F31188FFF718FA34
:10439000FCF736FFFFF7ACF92368A34204D0A2690B
:1043A0009B6892689A424CD3002383F3118880F073
:1043B0000100C0B22C49FCF7B3FA0028E0D1032376
:1043C0002B60202383F31188FFF7FAF90420FCF710
:1043D00017FFFFF78DF92368A34204D0A2699B68F9
:1043E00092689A4231D3002383F3118880F0010050
:1043F000C0B21E49FCF794FA0028C1D104232B60F7
:10440000202383F31188FFF7DBF90820FCF7F8FE7F
:10441000FFF76EF92368A34204D0A2699B689268F3
:104420009A4216D3002383F3118880F00100C0B2B2
:104430000F49BDE83840FCF773BA72B60D4BE36222
:10444000FEE772B60B4BE362FEE772B6094BE3621E
:10445000FEE772B6074BE362FEE700BF3C1B00209D
:10446000A0110020D8D30008F0D3000814D400080D
:1044700030D4000874BC00080000000000000000F8
:10448000F8B5134C134804F114072026002554F8FE
:10449000041BA9B186F31188FFF792F991F8213036
:1044A00043F0040381F82130FFF722F903688342C7
:1044B00004D082699B6892689A4204D385F311887C
:1044C000BC42E4D1F8BD72B6034BC362FEE700BF45
:1044D000541B0020A0110020E4BB000800000000D5
:1044E00008B5202383F31188FFF76AF90D4A0E49B6
:1044F00013688B4202D2591C18701160FFF7F8F84C
:104500000A4B1A689A4204D0996992688968914264
:1045100003D3002383F3118808BD72B6044ADA621C
:10452000FEE700BF501B0020501B0020A011002000
:104530005CBC00080000000000000000000000005B
:104540002DE9F0475A4E012382B03360202383F3D4
:104550001188584DFFF734F9FCF742FBFCF740FB9C
:10456000D5E900022B695449121AC3EBA203A3F147
:104570000400B0FA80F04009FCF7D2F9002868D1B5
:104580004E4CFFF7B5F82368A34204D0A2699B689C
:1045900092689A427CD3002383F31188022333600C
:1045A000202383F31188FFF70BF9FDF7F1FBFFF7E9
:1045B0009FF82368A34204D0A2699B6892689A423C
:1045C0006AD3002383F31188202383F31188FFF734
:1045D000F7F8FCF705FBFCF703FBD5E900122B69A4
:1045E000521AC3EBA203A3F10400B0FA80F0400911
:1045F0003349FCF795F900283AD1FFF779F8236899
:10460000A34204D0A2699B6892689A4248D30023CF
:1046100083F31188202383F31188FFF7D1F8FCF787
:10462000DFFA28692749B0FA80F04009FCF778F9E9
:10463000002840F02B82FFF75BF82368A34245D0A7
:10464000A2699B6892689A4240D272B61E4BE3629E
:10465000FEE7FFF74DF8194B1A689A4212D0996994
:104660009268896891420DD272B6174ADA62FEE703
:10467000FFF73EF82368A34204D0A2699B689268C2
:104680009A4211D3002383F3118802B0BDE8F0876A
:1046900072B60D4BE362FEE772B60B4BE362FEE7C8
:1046A00072B6094BE362FEE772B6074BE362FEE7C0
:1046B0003C1B0020580C002078C50008A0110020E9
:1046C00084C5000890C50008C8BC0008002383F317
:1046D0001188202383F31188FFF772F82868AB68EC
:1046E000C149A0EB0308D8F1000040EB0800FCF73B
:1046F00017F9002840F0B681FEF7FAFF2368A342BD
:1047000005D0A2699B6892689A42C0F0BB810023E1
:1047100083F31188202383F31188FFF751F8286869
:10472000EB68B249A0EB030EDEF1000040EB0E0097
:10473000FCF7F6F8002840F0B981FEF7D9FF2368AE
:10474000A34205D0A2699B6892689A42C0F0BE81DC
:10475000002383F311880322DFF894922B75984687
:10476000326042274FF0200A8AF31188FFF728F8B9
:104770003846FDF725FBFEF7BBFF2368A34205D0B3
:10478000A2699B6892689A42C0F0228188F31188DE
:10479000B0FA80F040094946FCF7C2F8013700281A
:1047A0007FF473AF452FDFD1202383F31188FFF708
:1047B00007F84120FDF734FBFEF79AFF2368A34278
:1047C00005D0A2699B6892689A42C0F08381002359
:1047D00083F31188B0FA80F040098549FCF7A0F80E
:1047E00000287FF452AF04233360202383F3118821
:1047F000FEF7E6FFFCF7F4F9FCF7F2F9D5E9001350
:104800002A695B1AB2EBA30F0CBF01200020794983
:10481000FCF786F8002840F0FD80FEF769FF23686A
:10482000A34205D0A2699B6892689A42C0F0568163
:10483000002383F31188202383F31188FEF7C0FF40
:10484000FCF7CEF928696C49A0F1040CDCF10000FA
:1048500040EB0C00FCF764F8002840F0EF80FEF716
:1048600047FF2368A34205D0A2699B6892689A42D9
:10487000C0F0E080002383F31188202383F31188A4
:10488000FEF79EFFD5E90230C71A784278415B49AE
:10489000FCF746F8002840F09F80FEF729FF2368C8
:1048A000A34205D0A2699B6892689A42C0F0D68064
:1048B000002383F311880522DFF834913260984693
:1048C00004274FF0200A8AF31188FEF779FF01A828
:1048D000FCF78EFAFEF70CFF2368A34204D0A2690E
:1048E0009B6892689A427AD388F31188B0FA80F074
:1048F00040094946FCF714F800287FF4C6AE9DF83D
:104900000400FFF7EDFD013FDDD13D493D48FCF7D7
:10491000A7F800287FF4B9AE06234FF0FF314620F8
:104920003360FFF78DF9B0FA80F040093049FBF7AA
:10493000F7FF00287FF4A9AE4FF0FF3101A8FFF781
:104940002FFAB0FA80F040092949FBF7E9FF002867
:104950007FF49BAE07233360202484F31188FEF795
:104960002FFFFCF73DF9FCF73BF9D5E900022B6975
:104970002549121AC3EBA2031E1F70427041FBF7B8
:10498000CFFF48BBFEF7DCFE84F31188FEF718FF6B
:10499000FCF726F928691D49B0FA80F04009FBF7B9
:1049A000BFFFC8B9FEF7CCFE2868AB680E49C21A33
:1049B00050425041FBF7B4FF00287FF466AE2868F0
:1049C000EB680A49C31A58425841FBF7A9FF5CE655
:1049D00072B60F4BE362FEE7FEF7B2FE55E672B623
:1049E0000B4BE362FEE700BF9CC50008C0C5000892
:1049F00040C60008E4C50008F0C50008FCC5000872
:104A000014C6000828C6000884C5000890C5000820
:104A1000C8BC0008FEF76CFE2368A3423FF432AE28
:104A2000A2699B6892689A42BFF42CAE72B62D4B75
:104A3000E362FEE772B62B4BE362FEE7FEF758FE39
:104A40002368A3423FF41EAEA2699B6892689A4213
:104A5000BFF418AE72B6234BE362FEE772B6214B89
:104A6000E362FEE7FEF744FE2368A3423FF40AAE8A
:104A7000A2699B6892689A42BFF404AE72B6194B61
:104A8000E362FEE772B6174BE362FEE7FEF730FE25
:104A90002368A3423FF4F6ADA2699B6892689A42EC
:104AA000BFF4F0AD72B60F4BE362FEE7FEF720FEF7
:104AB0002368A3423FF4E6ADA2699B6892689A42DC
:104AC000BFF4E0AD72B6074BE362FEE772B6054B8A
:104AD000E362FEE772B6034BE362FEE772B6014B98
:104AE000E362FEE7C8BC0008000000000000000010
:104AF000F0B5C44E012383B03360202383F31188C3
:104B0000C14DFEF75DFEFCF76BF8FCF769F8D5E9DF
:104B100000022B69BD49121AC3EBA203A3F10400E2
:104B2000B0FA80F04009FBF7FBFE002840F0C78197
:104B3000B74CFEF7DDFD2368A34205D0A2699B6850
:104B400092689A42C0F0D981002383F3118802232E
:104B50003360FFF735F8202383F31188FEF730FE2A
:104B6000FCF73EF8FCF73CF8D5E900122B69521A25
:104B7000C3EBA203A3F10400B0FA80F04009A549F9
:104B8000FBF7CEFE002840F0A981FEF7B1FD2368B7
:104B9000A34205D0A2699B6892689A42C0F0B18195
:104BA000002383F31188202383F31188FEF708FE86
:104BB000FCF716F828699849B0FA80F04009FBF72D
:104BC000AFFE002840F0B781FEF792FD2368A342B4
:104BD00005D0A2699B6892689A42C0F09A8100232E
:104BE00083F31188202383F31188FEF7E9FD2868F9
:104BF000AB688A49A0EB030CDCF1000040EB0C0031
:104C0000FBF78EFE002840F0A881FEF771FD2368B7
:104C1000A34205D0A2699B6892689A42C0F099812C
:104C2000002383F31188202383F31188FEF7C8FD46
:104C30002868EB687A49C71A78427841FBF770FE1A
:104C4000002840F06A81FEF753FD2368A34205D097
:104C5000A2699B6892689A42C0F08D81002080F31F
:104C6000118803234FF0FF313360FEF7E9FF841C06
:104C700014BF002001206B49FBF752FE002840F0D2
:104C80003A814FF0FF31FFF733F8821C14BF002048
:104C900001206449FBF744FE002840F02C814FF0CE
:104CA000FF3101A8FFF77CF8831C14BF002001200E
:104CB0005C49FBF735FE002840F01D8104235A4F64
:104CC0002875336042244FF0FF312046FEF7B8FFCD
:104CD000B0FA80F039464009FBF722FE0134002883
:104CE00040F00981452CEED14FF0FF314120FEF715
:104CF000FFFFB0FA80F040094B49FBF711FE002896
:104D000040F0F98005233360202484F31188FEF7F6
:104D100057FDFBF765FFFBF763FFD5E900132A6931
:104D20005B1AB2EBA30F0CBF012000203F49FBF739
:104D3000F7FD002840F02381FEF702FD84F311887F
:104D4000FEF73EFDFBF74CFF28693949A0F1040C42
:104D5000DCF1000040EB0C00FBF7E2FD002840F026
:104D60000E81FEF7EDFC84F31188FEF729FDD5E9ED
:104D70000230C71A784278412E49FBF7D1FD00284E
:104D800040F0FD80FEF7DCFC274F0623336004244F
:104D90004FF0FF3101A8FFF703F8B0FA80F0394671
:104DA0004009FBF7BDFD002840F0A5809DF80400F8
:104DB000FFF796FB013CEBD11F492048FBF750FE63
:104DC000002840F0988007234FF0FF3146203360E1
:104DD000FEF736FFB0FA80F040091349FBF7A0FD5B
:104DE000002840F088804FF0FF3101A8FEF7D8FF7F
:104DF000B0FA80F040090C49FBF792FD00287AD107
:104E00001EE000BF3C1B0020580C002078C50008A5
:104E1000A011002084C5000890C500089CC50008AA
:104E2000C0C5000854C5000840C60008E4C5000815
:104E3000F0C50008FCC5000814C6000828C6000814
:104E400008233360202484F31188FEF7B9FCFBF7B4
:104E5000C7FEFBF7C5FED5E900022B694949121AC6
:104E6000C3EBA2031E1F70427041FBF759FD0028DF
:104E700040F08580FEF764FC84F31188FEF7A0FC07
:104E8000FBF7AEFE28694049B0FA80F04009FBF715
:104E900047FD002873D1FEF753FC2868AB683B49F7
:104EA000C21A50425041FBF73BFD20BB2868EB681B
:104EB0003749C31A58425841FBF732FD1BE0FEF751
:104EC00017FC344B1A689A4212D099699268896823
:104ED00091420DD272B6304ADA62FEE7FEF708FC64
:104EE0002368A34204D0A2699B6892689A420CD3BB
:104EF000002383F3118803B0F0BD72B6264BE36242
:104F0000FEE772B6244BE362FEE772B6224BE36221
:104F1000FEE772B6204BE362FEE7FEF7E9FB23688B
:104F2000A342E5D0A2699B6892689A42E0D272B629
:104F3000194BE362FEE7FEF7DBFB2368A342D7D001
:104F4000A2699B6892689A42D2D272B6124BE3620F
:104F5000FEE772B6104BE362FEE7FEF7C9FB23687B
:104F6000A342C5D0A2699B6892689A42C0D272B629
:104F7000094BE362FEE772B6074BE362FEE7FEF71A
:104F8000DFFBB8E784C5000890C500089CC5000891
:104F9000C0C50008A0110020C8BC00080000000027
:104FA0004320FFF79DBA00BF000000000000000092
:104FB0004220FFF795BA00BF00000000000000008B
:104FC0004120FFF78DBA00BF000000000000000084
:104FD00010B52023044683F31188FEF7F1FB154B2F
:104FE000186868B190F82020032A04D072B6124BDA
:104FF000124ADA62FEE7002242621A60FBF7B0FE54
:10500000FEF75EFBFEF774FB0B4B1A689A4204D066
:10501000996992688968914207D3002383F31188C4
:105020002078BDE81040FFF75BBA72B6044ADA6236
:10503000FEE700BF681B0020A01100208CBF000805
:105040008CBC000800000000000000000000000010
:105050000078FFF745BA00BF000000000000000024
:10506000FFF7F6BF00000000000000000000000095
:10507000002903DD124A1349FDF78ABC38B5202305
:1050800083F31188FEF79CFB4FF080435C6AFEF7C8
:105090002FFB0D4B1968994204D09D698A68A96855
:1050A000914208D3002383F3118808492246BDE8C2
:1050B0003840FDF76DBC72B6054ADA62FEE700BF04
:1050C000D0C3000834C20008A0110020D8C30008D3
:1050D00018BD0008000000000000000000000000F3
:1050E0002DE98048D0E900739BB073490193814654
:1050F00038468B46FDF74CFC38467049DFF8F0A186
:10510000FDF746FC0AAE51463846FDF741FCD9F89A
:105110000040236835469B6801220DF10F012046AF
:105120009847002869D09DF80F10042961D00829FC
:1051300013D07F2911D00D2923D01F292368EAD944
:105140000DF167029542E6D2DB68204698479DF84C
:105150000F302B7023680135DDE7B5422368DAD0C4
:10516000DB6808212046984723682021DB68204619
:10517000984723680821DB6820469847013D23684B
:10518000C9E7204659460024FDF702FC04A92C700B
:105190003046FDF7CDFB04A98046002005ADFDF7A4
:1051A000C7FB50B1042C1DD045F8040B04A9002006
:1051B0000134FDF7BDFB0028F4D11AAB03EB8403E7
:1051C00043F8540CB8F1000F9DD03D494046FBF721
:1051D0001BF9002846D124B3394A3A493846FDF72D
:1051E000D7FB90E738493846FDF7D2FB00230993F7
:1051F00089E720463549FDF7CBFB2F493846FDF7B7
:10520000C7FB38463249FDF7C3FB202383F31188DF
:10521000FEF7D6FA2F480021FBF762FE0020FDF7CB
:1052200027FF2D492D4C2E4D3846FDF7B1FB2D4A59
:1052300029463846FDF7ACFB54F8082F002AF7D171
:10524000019C54B1226842B1254D29463846FDF7EC
:105250009FFB54F8082F002AF7D159463846FDF72E
:1052600097FB50E71D4D1F4802E055F8080F50B15D
:105270004146FBF7C9F80028F7D16B6805AA21461B
:10528000384698473FE7019D5DB1286818B908E0A6
:1052900055F8080F28B14146FBF7B6F80028F7D1BA
:1052A000EBE7424610493846FDF772FB0F49384696
:1052B000FDF76EFB27E700BF88C4000888DC000804
:1052C000C8DC000834C20008B0DC0008A4DC000818
:1052D000A8DC000820140020D0DC0008F8DC00085E
:1052E000E0DC000880DC0008E4DC0008E8DC000802
:1052F0009CDC00080000000000000000000000002E
:10530000002903DD084A0949FDF742BB08B52023FF
:1053100083F31188FEF754FA05480021FBF7E0FDFE
:105320000020FDF7A5FE00BF80DC000834C20008A5
:105330002014002000000000000000000000000019
:1053400050B32DE9F047194C0E461746054600F1BB
:105350000C0A4FF020094FF0000889F31188FEF77E
:105360002FFA31465046FBF74BFC2846FBF730FE40
:10537000FEF7A6F9FEF7BCF92368A34204D0A269A0
:105380009B6892689A420CD388F311882B69013F7D
:105390001E44E2D1BDE8F08772B6044B044ADA62DB
:1053A000FEE772B6034BE362FEE700BFA0110020E8
:1053B000ECBE000850BC0008000000000000000027
:1053C0002DE9F047374C38493848394E012304223B
:1053D0002360FFF7B5FF0223236004250020FEF7BA
:1053E0002FFD003018BF01203146FBF799FA002845
:1053F00052D1013DF2D103232360FEF721FDB0FA23
:1054000080F040092B49FBF78BFA002844D1264D48
:10541000294F2A4E042305F1100AA7F10C09236035
:105420004FF0200888F31188FEF7CAF9294638465C
:10543000FBF7E6FB4846FBF7CBFDFEF741F9FEF72D
:1054400057F93368B3424FF0000104D0B2699B684A
:1054500092689A4222D381F311880435AA45E1D19A
:105460000523134E236004250020FEF7E9FC0030DD
:1054700018BF01203146FBF753FA68B9013DF3D15B
:1054800006232360FEF7DCFCB0FA80F040090949EE
:10549000BDE8F047FBF744BABDE8F08772B6084BA9
:1054A000F362FEE73C1B0020F8130020140C0020E0
:1054B00094C60008B0C60008200C0020A0110020EF
:1054C00050BC0008000000000000000000000000C8
:1054D00008B5202383F31188FEF772F9FBF790FBE0
:1054E000FEF706F9084B1A689A4204D09969926847
:1054F0008968914203D3002383F3118808BD72B6F3
:10550000024ADA62FEE700BFA011002050BC00088A
:10551000D8B14368A3B1013B436083B90B4610B4D3
:105520001C68A14205D0A04214D023461C68A142A9
:10553000F9D10020014610BC1046FFF7C9BF7047E3
:1055400072B6084B084ADA62FEE772B6054B064AA5
:10555000DA62FEE70168196010BC01461046FFF7E9
:10556000B7BF00BFA0110020C4BF000800000000AA
:1055700010B52023044683F31188FEF721F9FBF7C9
:105580002FFB006880B103682360FEF7B1F80C4B75
:105590001A689A4204D099699268896891420AD33C
:1055A000002383F3118810BDE368002BEDD0D4E90C
:1055B00001019847E9E772B6024ADA62FEE700BFE6
:1055C000A011002050BC00080000000000000000F6
:1055D000F0B51C4D87B0044628460F461646FFF727
:1055E000C7FF68B36B6800940344174C02930190A3
:1055F000039705960494202383F31188FEF7E0F8BF
:105600006846FBF74DFB022380F82130056400213A
:105610000446FDF765FCFEF76BF80C4B1A689A42DE
:1056200004D0996992688968914205D3002383F375
:105630001188204607B0F0BD72B6054ADA62FEE76F
:105640000446F6E7D813002061500008A01100209E
:105650002CBC00080000000000000000000000005A
:105660002DE9F84F444D454CDFF82081444E01238D
:105670002B60A24604274FF0200B4FF000098BF35C
:105680001188FEF79DF841465046FBF7B9FAFEF740
:105690002FF83368B34204D0B2699B6892689A428B
:1056A00045D389F311886368013F9844E7D1022309
:1056B000DFF8C880334F2B6004264046FFF758FFC1
:1056C000003018BF01203946FBF72AF968BB013EBC
:1056D000F3D1032329482B60FFF74AFFB0FA80F08B
:1056E00040092949FBF71CF9F8B924482749254FF7
:1056F0008046FFF7EDFE2649FFF7EAFE2549FFF752
:10570000E7FE2549FFF7E4FE05232B60042601E0B0
:10571000013E10D04046FFF72BFF003018BF01209C
:105720003946FBF7FDF80028F2D0BDE8F88F72B6D5
:105730001A4BF362FEE7062310482B60FFF718FFB1
:10574000B0FA80F040091049FBF7EAF80028ECD1E4
:1057500007210423124A094829602660C4E901335D
:10576000E260FFF705FFB0FA80F040090D49BDE89F
:10577000F84FFBF7D5B800BF3C1B0020800C002081
:10578000A011002094C60008B0C60008F81300203D
:10579000FC130020001400200414002050BC00085A
:1057A0005108000868C60008000000000000000062
:1057B000F8B50C68A1420D460646174603D10DE028
:1057C0002468A5420AD008223146A01806F040F904
:1057D0000028F5D114B104462046F8BD3846FFF73D
:1057E000C7FE044648B108221044314606F07CF951
:1057F0002B680122C4E900322C602046F8BD00BFAE
:1058000008B5202383F31188FDF7DAFF90F82030E4
:105810000D2B04D072B60D4B0D4ADA62FEE7FBF792
:10582000CFF9FDF75DFBFDF763FF084B1A689A425D
:1058300004D0996992688968914203D3002383F365
:10584000118808BD72B6034ADA62FEE7A011002093
:1058500090BD000820BC000800000000000000000F
:1058600010B5202383F31188154CFDF7A9FFA1691A
:10587000FBF7B6F90B4653F82C0F984213D0026889
:10588000CA620D21536080F82010FDF731FF2368B4
:10589000A34204D0A2699B6892689A420BD300236A
:1058A00083F3118810BD0E20FDF74AFBA169C86A79
:1058B00001F12C03E3E772B6024BE362FEE700BF9F
:1058C000A011002020BC0008000000000000000023
:1058D00010B5FFF7C5FF90F820200D2A04D072B64E
:1058E000054B064ADA62FEE7446A2146FFF788FF65
:1058F000002CEED110BD00BFA011002030BD00086B
:1059000038B520B3184D2023AC6983F31188FDF717
:1059100057FF6162036B636000F12C0222601C6020
:1059200090F8203004630E2B1AD00C20FDF708FBF2
:10593000606AFDF7DDFE2B68AB4204D0AA699B6864
:1059400092689A4208D3002383F3118838BD72B657
:10595000054B064ADA62FEE772B6054BEB62FEE7DC
:10596000FBF7FEF9E1E700BFA01100203CBD0008F5
:1059700020BC000800000000000000000000000043
:1059800010B541210446FFF7BBFF20464221FFF737
:10599000B7FF20464321FFF7B3FF20464421BDE86F
:1059A0001040FFF7ADBF00BF000000000000000086
:1059B00010B5202383F311880C4CFDF701FFA36978
:1059C0005A6B10435863FDF793FE2368A34204D03B
:1059D000A2699B6892689A4203D3002383F31188DB
:1059E00010BD72B6024BE362FEE700BFA0110020BB
:1059F00014BC0008000000000000000000000000CF
:105A000008B5202383F31188FDF7DAFE034602E090
:105A10008A4212D013461A688242F9D1FDF768FE15
:105A2000094B1A689A4204D0996992688968914230
:105A300006D3002383F3118808BD0A681A60EDE7D6
:105A400072B6024ADA62FEE7A011002014BC000818
:105A50002DE9F041724DDFF8E0812D600223C8F896
:105A600000308AB0202383F311886E4C0AAFFDF713
:105A7000A7FE2B6847F8143DA36906930123002273
:105A800007934FF0FF33CDE908232F60FDF730FE79
:105A90002368A34204D0A2699B6892689A4272D399
:105AA000002181F31188202383F311880AAEFDF7CA
:105AB00087FE2B6846F8283DA369019302224FF028
:105AC000FF330493039102922E60FDF711FE2368C9
:105AD000A34204D0A2699B6892689A4241D30023F2
