:020000040800F2
:1000000000040020C1020008C1030008C103000869
:10001000C1030008C1030008C1030008C1030008B0
:10002000C1030008C1030008C1030008F103000870
:10003000C1030008C1030008C1030008C10400088F
:10004000C1030008C1030008C1030008C103000880
:10005000C1030008C1030008C1030008C103000870
:10006000C1030008C1030008C1030008C103000860
:10007000C1030008C1030008C1030008C103000850
:10008000C1030008C1030008C1030008C103000840
:10009000C1030008C1030008C1030008C103000830
:1000A000C1030008C1030008C1030008C103000820
:1000B000C1030008C1030008C1030008C103000810
:1000C000C1030008C1030008C1030008C103000800
:1000D000C1030008C1030008C1030008C1030008F0
:1000E000C1030008C1030008C1030008C1030008E0
:1000F000C1030008C1030008C1030008C1030008D0
:10010000C1030008C1030008C1030008C1030008BF
:10011000C1030008C1030008C1030008C1030008AF
:10012000C1030008C1030008C1030008C10300089F
:10013000C1030008C1030008C1030008C10300088F
:10014000C1030008C1030008C1030008318400088E
:10015000C1030008C1030008C1030008C10300086F
:10016000C1030008C1030008C1030008C10300085F
:10017000C103000851840008C1030008C10300083E
:10018000C1030008C1030008C1030008C10300083F
:10019000C1030008C1030008C1030008C10300082F
:0C01A000C1030008C1030008C1030008EF
:1001B00030B5314D314C83B006F0BAFB00F000FA97
:1001C000284606F0A5FC2E49284606F0C9FCA26E7A
:1001D000936B23F40023936340F2DC5000F090FE15
:1001E0002849204606F02CFEA26E936B43F40023B0
:1001F000936340F6B83000F083FEA26E936B23F455
:1002000000239363204606F04BFE40F2DC5000F0E2
:1002100077FE20461B4906F013FEA26E936B43F453
:1002200000239363002408F043FA00941648174B08
:100230004FF4A871402200F0CBFD4CB194F820306F
:100240000E2B13D04FF47A7000F05AFE002CF5D12B
:10025000D5F854321B681B78042BEFD10C484FF4AF
:100260000D61402208F044FA0446EBE7204600F016
:1002700027FF0024E6E700BF4C1F0020F81B0020EA
:10028000C0AB000820A90008E81D0020818C0008F0
:1002900000AB0008000000000000000000000000AB
:1002A000704700BF000000000000000000000000D8
:1002B000FEE700BF0000000000000000000000009A
:1002C00072B6314880F30988022383F31488BFF3A0
:1002D0006F8F2E4B2E4A93420BD2D9430A4422F001
:1002E000030204321A444FF0553143F8041B934281
:1002F000FBD1284B83420CD2274A191D521A22F0F7
:10030000030204321A444FF0553143F8041B934260
:10031000FBD108F015F9214A214B9A420CD2D04367
:10032000184420F003001F4B0430184453F8041BFA
:1003300042F8041B8342F9D11B4B1C4A93420AD258
:10034000D9430A4422F0030204321A44002143F83C
:10035000041B9342FBD1164D164CFFF7A1FFAC4294
:1003600004D254F8043B9847AC42FAD3124D134CD4
:10037000FFF71EFFAC4204D254F8043B9847AC424E
:10038000FAD3FFF795FF00BF00080020000000200F
:1003900000040020000400200308002000080020C2
:1003A000E00C0020E8AC0008E00C0020C821002090
:1003B000AC010008AC010008AC010008AC01000869
:1003C000FEE700BF00000000000000000000000089
:1003D00072B6FEE700000000000000000000000010
:1003E00000F076F900F054FC00F08AF900DF00BF5D
:1003F000EFF30983203383F30988002383F3118803
:10040000704700BF00000000000000000000000076
:1004100008B5094B094A002199600720DA601021CC
:1004200000F0A6F80A20202100F0A2F80B2080217D
:10043000BDE8084000F09CB800ED00E00003FA05BC
:10044000202383F31188184B5B6813F400631AD0E0
:10045000EFF309834FF0807243F8042CA3F12002DC
:1004600082F3098811498A6992F8230070B10868FB
:10047000916882688A4294BF002201227AB10C4AB4
:1004800043F8082C704783F3118870470868916817
:1004900082688A4234BF00220122002AEFD1054A35
:1004A00043F8082C704700BF00ED00E03412002034
:1004B000E1030008EC030008000000000000000059
:1004C00008B500F075F9202383F3118800F038F99E
:1004D00000F0AEF800F04CF9002383F3118800F02F
:1004E00087F9BDE80840FFF7ABBF00BF0000000080
:1004F0002DE9F04FC1F80CD0D0F80CD0BDE8F08F4A
:1005000008B500F0FDF8002383F311882846A047C2
:1005100000F066FD08BD00BF000000000000000004
:1005200020F0030202F1604202F5614270B4430917
:1005300000F00304D2F80053E400FF269B00A6401D
:1005400003F16043A14025EA060503F56143012458
:1005500000F01F0004FA00F02943C2F8001370BC39
:10056000C3F8800118607047000000000000000020
:1005700020F0030303F1604303F56D4300F0030033
:1005800010B4C0009A69FF24844022EA040281402A
:10059000114399615DF8044B704700BF00000000F3
:1005A000024B034A9B699A61FEE700BF34120020A8
:1005B0003090000800000000000000000000000073
:1005C00030B583B0FFF724FF00F002FA00F098F98D
:1005D00002F036F902F08CF900F05AF940210E4889
:1005E0000E4D00F065FB01240D4BC36180F82040E7
:1005F000A86100F055F8002383F3118862B6AA6958
:1006000008499161084800932246084BE02100F018
:10061000DFFB03B030BD00BFE00C0020341200202F
:100620000004002000920008300D0020A105000801
:10063000F8B500F0FDF8164B9B6993F8232012B132
:10064000013A83F823205A6A124D01325A62EB684C
:100650002C680133AC42EB6018D0A768013FA7605B
:10066000A7B92368E668E7605D602B6000F080F85A
:10067000002383F311882069B047202383F3118876
:1006800000F05EF82C68A368002BEAD0F8BD00BF2C
:10069000341200202412002000000000000000009E
:1006A000054B1B6813B9054B1B6823B1044B054A66
:1006B0001A60FFF78DBE7047100E00201C1200203C
:1006C00020120020509000080000000000000000F0
:1006D000074B1B6810B5074C0BB9236823B1064BB9
:1006E000064A1A60FFF774FE0123236010BD00BFA5
:1006F000100E00201C12002020120020589000082C
:10070000094B1B6810B5094C2BB92368002B02DD7F
:100710000023236010BD064B064A1A60FFF758FEFF
:100720000023236010BD00BF100E00201C1200200B
:10073000201200206090000800000000000000006F
:10074000074B1B68002B10B5064C01DD236823B155
:10075000054B064A1A60FFF73BFE0123236010BDDC
:10076000100E00201C1200202012002068900008AB
:10077000094B1B68002B10B5084C05DD2368002BC6
:1007800002DD0023236010BD054B064A1A60FFF707
:100790001FFE0023236010BD100E00201C1200203D
:1007A00020120020709000080000000000000000EF
:1007B00010B5202383F31188094C2368002B02DB3A
:1007C000084A12682AB1084B084A1A60FFF700FE6F
:1007D000236801332360002383F3118810BD00BF19
:1007E000100E00201C12002020120020789000081B
:1007F00010B5202383F31188094C2368002B02DDF8
:10080000084A12682AB1084B084A1A60FFF7E0FD4F
:100810002368013B2360002383F3118810BD00BFD0
:10082000100E00201C1200202012002080900008D2
:10083000064B1B68002B04DB054B1B68002B00DDFF
:100840007047044B044A1A60FFF7C2BD100E002027
:100850001C120020201200208890000800000000D8
:10086000064B1B6823B9064B1B68002B00DD704745
:10087000044B054A1A60FFF7ABBD00BF100E002005
:100880001C120020201200209090000800000000A0
:10089000034A1346402143F8081B5360704700BFCA
:1008A000140E002000000000000000000000000006
:1008B0000C4A0D495368896910B40C4CE4681C60FB
:1008C0005960816A996090F820101973103302F50D
:1008D00081618B4228BF02F1080353605DF8044B2D
:1008E000704700BF140E0020341200202412002094
:1008F000014B1860FFF76CBD2012002000000000C3
:10090000044B4FF0FF3100225B601B609960DA609E
:10091000704700BF2412002000000000000000000B
:10092000F8B505460C4616461F46FFF781FFCDB1C8
:10093000C6B1BCB10D492F610B68EE609A68944254
:1009400004D91B68A41A9A68A242FAD35A686A604A
:100950008B422B605D601560AC6002D09968091B0A
:100960009960F8BD0248FFF7C3FFE3E724120020B7
:10097000A09000080000000000000000000000003F
:1009800010B50446FFF754FF84B1E36893B12368C0
:100990000A4A934203D09968A2680A449A6062683E
:1009A0001360216800234A60E36010BD0448FFF72C
:1009B0009FFFEAE70348FFF79BFFE8E724120020C8
:1009C000B0900008C0900008000000000000000087
:1009D000034B00225B601B605B611B619A60704788
:1009E00034120020000000000000000000000000A1
:1009F00010B50446FFF71CFF94F820308BB10E2B86
:100A00000FD00022A168094B84F820201B689A6847
:100A10008A42FBD25A686260236020465C601460A0
:100A200010BD0348FFF764FFEBE700BF341200205E
:100A3000E09000080000000000000000000000003E
:100A400010B52023044683F31188FFF779FE94F84C
:100A500020300D2B11D8DFE803F016101007100B13
:100A6000101010101010100BA26A936801339360DD
:100A700094E80C001A60226853604FF0FF33A362C1
:100A80002046FFF7B5FFFFF773FE002383F31188BD
:100A900010BD00BF000000000000000000000000CA
:100AA00070B5114C0646FFF7DBFE2368A5691A688E
:100AB00085F820601420012185F823005460284621
:100AC00083F820102260A361FFF7F2FEEA69ADF11E
:100AD00024039A4202D90548FFF70AFFA069294674
:100AE000BDE87040FFF704BD34120020F490000808
:100AF00070B50C4686B00646FFF7B2FE631C12D0F6
:100B00000D4D0E4AAB69214601A8FFF709FF30469B
:100B1000FFF7C6FF049B13B101A8FFF731FFAB69D4
:100B2000986A06B070BD044D3046FFF7B9FFAB6957
:100B3000986A06B070BD00BF34120020410A000858
:100B400070B5164D04460E46FFF78AFEA869A268E6
:100B50008368A6629A4213D9FFF74AFF012306462B
:100B600084F82030AC61FFF7A3FEF269ADF12403F5
:100B70009A420AD820463146BDE87040FFF7B8BC1B
:100B80002046BDE87040FFF733BF0548FFF7B0FED1
:100B900020463146BDE87040FFF7AABC3412002061
:100BA000F4900008000000000000000000000000B9
:100BB00070B5104C2368A5691A68226014210126BB
:100BC0005460284683F8206085F82310A361FFF75E
:100BD0000FFF2846FFF76CFEEA69ADF124039A4245
:100BE00002D90548FFF784FEA0692946BDE8704098
:100BF000FFF77EBC34120020F490000800000000D3
:100C000070B5154D2A68AC691368A0682B60012681
:100C100000215D6082F820601346AA6184F82010EC
:100C200000E01B689A688242FBD85A6862602360C1
:100C300020465C601460FFF73BFEE269ADF12403DF
:100C40009A4202D90548FFF753FEA8692146BDE83C
:100C50007040FFF74DBC00BF34120020F490000834
:100C600008B5FFF7FDFD064B1A689B6992689B6803
:100C70009A4200D808BDBDE80840FFF7C1BF00BFD9
:100C800034120020000000000000000000000000FE
:100C9000044B9B6993F823300BB1FFF7B1BFFFF70B
:100CA00087BF00BF341200200000000000000000D9
:100CB0002DE9F043134C416466694661002200F15E
:100CC00030054FF002094FF014084FF0010C00F10D
:100CD0002C0E00F14C078160046180F82090606167
:100CE00080F8238080F822C080F821200264C2634B
:100CF000426282613061C0F82CE0C76145630563E0
:100D0000BDE8F08334120020000000000000000065
:100D1000884203D200F8012B8842FBD1704700BF04
:100D20002DE9F84F0446894616469846FFF780FDA0
:100D300014B1B9F1CF0F38D81F48FFF7D9FD1F4DB7
:100D4000DFF87CB06F69A9F124016018E06000232E
:100D500044F801804FF0020A4FF014094FF0010CE3
:100D60000A994160C0F820B004F1300204F12C0E61
:100D700004F14C0884F820A084F8213084F82390F2
:100D800084F822C0A6602561676166646C61236493
:100D9000E3636362A36120463C61C4F82CE06263B4
:100DA0002263C4F81C80BDE8F88F7F2EC4D8B8F148
:100DB000000FC4D1C0E700BF10910008341200201A
:100DC0000105000800000000000000000000000015
:100DD0002DE9F04782B099460A9E0746884692461A
:100DE00000F14C040346FF2503F8015B9C42FBD154
:100DF00007EB08039C4204D2552504F8015B9C4292
:100E0000FBD1202383F31188FFF762FC4B46524647
:100E1000414600963846FFF783FF00210446FFF75E
:100E20008FFEFFF76DFC002383F31188204602B08C
:100E3000BDE8F08700000000000000000000000096
:100E40007F2838B5044617D8202383F31188FFF78D
:100E50003FFC0B4B9B695D6C9A68954201D09442B4
:100E600000D99C605C64FFF7FBFEFFF749FC0023A0
:100E700083F31188284638BD0248FFF739FDE3E7C0
:100E8000341200202491000800000000000000003F
:100E900010B52023044683F31188FFF719FC94F85A
:100EA0002030022B02D00748FFF722FD2046002108
:100EB000FFF746FEFFF724FC002383F3118820464A
:100EC00010BD00BF3C9100080000000000000000C1
:100ED00010B52023044683F31188FFF7F9FB94F83B
:100EE000213043F0040384F82130FFF709FC00238C
:100EF00083F3118810BD00BF000000000000000057
:100F000010B5044610B90948FFF7F2FC202383F31B
:100F10001188FFF7DDFB21460620FFF7E9FDFFF70B
:100F2000EFFB002383F3118810BD00BF5091000830
:100F300010B52023044683F31188FFF7C9FB064B45
:100F4000D968611A02D00620FFF7D2FDFFF7D8FB5F
:100F5000002383F3118810BD24120020000000003C
:100F600008B5202383F31188FFF7B2FB074B1A68FB
:100F70009B6992689B689A4201D3FFF719FEFFF7BD
:100F8000BFFB002383F3118808BD00BF341200208B
:100F900038B5104B9C692546A06255F82C0FA84225
:100FA00006D00368E362FFF723FDE06AA842F8D1A8
:100FB00094F821309B0704D1636922691A61226980
:100FC00053610E20FFF76CFD0348BDE83840FFF782
:100FD0008FBC00BF341200206091000800000000A8
:100FE00010B52023044683F31188FFF771FB2046D8
:100FF000BDE81040FFF7CCBF00000000000000007B
:1010000038B5044648B3202383F31188154DFFF704
:101010005FFBAB69A3421CD094F82230ABB194F8CB
:1010200020300E2B06D0AB69E26A1A600720E3621B
:10103000FFF736FDA56AFFF763FB002383F31188F2
:10104000204600F03DF8284638BD0748FFF750FC21
:10105000E5E70648FFF74CFCDEE70548FFF748FCEC
:10106000D1E700BF34120020949100088491000859
:101070007491000800000000000000000000000063
:1010800010B52023044683F31188FFF721FB94F861
:101090002230FF2B09D0013384F82230FFF730FBD8
:1010A000002383F31188204610BD0348FFF720FC7E
:1010B00094F82230EFE700BFB09100080000000074
:1010C00038B50546202383F31188FFF701FB95F817
:1010D0002230BBB1013BDCB285F82240FFF710FBA8
:1010E000002383F311881CB995F820300E2B00D013
:1010F00038BD95F8213003F00303012B08D0022BF3
:1011000010D038BD0D48FFF7F3FB95F82230E1E72A
:101110006B692A691A612A6928465361BDE838401B
:1011200001F056BC6B692A691A612A69A86C53617F
:101130002946BDE8384001F02BBD00BFC49100082E
:101140002DE9F04182B090461F460D4601F000FCAB
:10115000044620B300F14C063146FF22FFF7D8FDCC
:10116000304661195522FFF7D3FD202383F3118800
:10117000FFF7AEFA089B0093424629463B462046BD
:10118000FFF7CEFD012380F8213000210446FFF750
:10119000D7FCFFF7B5FA002383F31188204602B08D
:1011A000BDE8F08100000000000000000000000029
:1011B0002DE9F043884683B017469946054670B33B
:1011C000284601F0B5FC044630B300F14C06314628
:1011D000FF22FFF79DFD6968304621445522FFF745
:1011E00097FD202383F31188FFF772FA6968CDF821
:1011F000009042463B462046FFF792FD022380F8CE
:101200002130856400210446FFF79AFCFFF778FA45
:10121000002383F31188204603B0BDE8F083024821
:10122000FFF766FBCCE700BFD89100080000000084
:1012300010B5202383F31188FFF74AFA064B1C6987
:1012400094F82230013384F82230FFF759FA002352
:1012500083F31188204610BD3412002000000000E6
:1012600038B50546202383F31188FFF731FA2C693E
:101270000D4B9C4216D094F82230FF2B0CD001333A
:1012800084F82230FFF73CFA002383F311882846C4
:10129000FFF716FF204638BD0448FFF729FB94F8F6
:1012A0002230ECE70024EDE7341200202092000801
:1012B00038B50D46044628B1002903DB646024607C
:1012C000A56038BD0348FFF713FB64602460A56088
:1012D00038BD00BF40920008000000000000000080
:1012E00070B504460E46FFF7A3FAFCB1002E1DDBD5
:1012F000A5682368002D16DBA34203D00D48FFF735
:10130000F7FAA568A6600135002D0BDC6FF0010629
:101310006068436863601C60FFF76AFB0135012D5C
:101320008662F5D170BDA342ECD1E7E70248FFF732
:10133000DFFADDE76092000850920008000000002C
:1013400038B505460C46202383F31188FFF7C0F912
:1013500028462146FFF7C4FFFFF782FCFFF7D0F9CC
:10136000002383F3118838BD000000000000000056
:1013700038B50446FFF774FA1CB3A3682268002B43
:101380000BDBA24203D01148FFF7B2FAA368013B7E
:10139000002BA36007DB002038BDA242F3D0013B45
:1013A000002BA360F7DA0A4DAB699C6262685A6051
:1013B0001C60032063601360FFF772FBAB69986ADF
:1013C00038BD0448FFF794FAD7E700BF84920008BD
:1013D0003412002074920008000000000000000099
:1013E00010B52023044683F31188FFF771F92046D6
:1013F000FFF7BEFF0446FFF783F9002383F311884C
:10140000204610BD000000000000000000000000A9
:1014100038B504460D46FFF723FA24B3A3682268C3
:10142000002B0BDBA24203D01348FFF761FAA3683D
:101430005A1E002AA26007DB002038BDA242F3D06A
:101440005A1E002AA260F7DA8DB10C4B9B699C6290
:1014500062685A601C602946636003201360BDE81F
:101460003840FFF745BB0648FFF742FAD6E7A360CE
:101470004FF0FF3038BD00BFB0920008341200209A
:10148000989200080000000000000000000000002A
:1014900038B505460C46202383F31188FFF718F969
:1014A00021462846FFF7B4FF0446FFF729F9002339
:1014B00083F31188204638BD0000000000000000C2
:1014C00010B5044640B3A368002B236814DBA34285
:1014D00002D01348FFF70CFA202383F31188FFF79B
:1014E000F7F8A3680133002BA36008DDFFF708F9C4
:1014F000002383F3118810BDA342EDD1E9E72068F2
:101500000368236000215C60FFF71AFBFFF7F8F81F
:10151000002383F3118810BD0248FFF7E9F9D2E7F1
:10152000D8920008C89200080000000000000000E7
:1015300010B50446FFF77CF9FCB1A3682268002BC4
:101540000ADBA24203D00F48FFF7D2F9A3680133A8
:10155000002BA36006DD10BDA242F4D00133002BA6
:10156000A360F8DC23681A68226000215460996245
:101570001846BDE81040FFF73BBA0348FFF7B8F93B
:10158000DBE700BF00930008EC92000800000000B9
:1015900070B505460C46FFF74BF915B3002C20DD5E
:1015A000AB68002B2B6819DBAB4202D00F48FFF76A
:1015B0009FF9002C11DD002601E0013C0DD0AB6845
:1015C0000133002BAB60F8DC286803682B605D609A
:1015D000FFF70EFA013C8662F1D170BDAB42E8D153
:1015E000E4E70348FFF784F9DAE700BF2C9300082B
:1015F000149300080000000000000000000000003C
:1016000038B50C460546002835D0002933D0AB68E4
:10161000002B2B6826DBAB4202D02448FFF768F989
:10162000A368002B236823DBA34202D02048FFF7E6
:101630005FF9202383F31188FFF74AF8AB68013381
:10164000002BAB6028DDA368013B002BA36016DBF9
:10165000FFF706FB0024FFF753F8002383F31188FC
:10166000204638BDAB42D8D0A368002B2368DBDA14
:10167000A342DED1DAE70F48FFF73AF9C7E70E4A8F
:101680006368956903202C606B6065601D60AC62C7
:10169000FFF706FAAC6ADEE7286803682B605D6036
:1016A000FFF7A6F900238362CDE700BF5893000837
:1016B00070930008449300083412002000000000DA
:1016C00010B5044620B1002364602460A36010BDFF
:1016D0000148FFF70DF9F6E79093000800000000BD
:1016E0003B4B70B505469C69FFF7BAF8002D6BD0EF
:1016F000A868002836D0A26883689A4207D990F873
:1017000020308260042B46D0052B30D0FBB12B4615
:1017100003E09968A268914202D31B689D42F8D108
:101720005A686260236004205C601460A562FFF761
:10173000B7F9AB68A34202D02648FFF7D9F8236C6B
:10174000AB4213D02448BDE87040FFF7D1B890E811
:101750000C00012180F820101A6002685360FFF726
:1017600047F9D4E7236CEB60AC60256470BD90E86A
:101770000A001960866A01684B60334602E0996886
:10178000914202D31B689E42F9D15A6842600360BD
:1017900058601060BBE790E80A001960866A01682B
:1017A0004B60334602E09968914202D31B689E4227
:1017B000F9D15A684260036058601060B068A2684E
:1017C000836893429BD3A2E70448FFF791F88FE721
:1017D00034120020B0930008C4930008A0930008BE
:1017E00010B52023044683F31188FEF771FF2046CD
:1017F000FFF776FFFEF784FF002383F3118810BD07
:1018000010B50446FFF72CF85CB1A3680BB10020BB
:1018100010BD064B9B69A3601A6CE26001201C643A
:1018200010BD0348FFF764F8EFE700BF3412002053
:10183000D893000800000000000000000000000035
:1018400010B52023044683F31188FEF741FF20469C
:10185000FFF7D6FF0446FEF753FF002383F31188FA
:10186000204610BD00000000000000000000000045
:101870001E4A70B52023956983F31188FEF728FF6F
:101880002C6C002C2DD0A368AB4203D01848FFF776
:101890002FF82C6C2668E3682B64A6421ED0696C76
:1018A0004BB11A689A4203D09268914238BF1146F0
:1018B000DB68002BF5D13368326CA96030462360B9
:1018C00000215C60A660E2603464FFF739F9FEF73E
:1018D00017FF002383F31188204670BD0023A36007
:1018E000F5E70448FFF704F82C6CCCE7341200202D
:1018F00000940008EC9300080000000000000000C5
:101900001A4B70B59D69FEF7ABFF2C6C44B3A3680E
:10191000AB4203D01648FEF7EBFF2C6C2668E36859
:101920002B64A64218D0696C4BB11A689A4203D056
:101930009268914238BF1146DB68002BF5D13368BD
:10194000326CA960304623605C60A660E26034645B
:10195000FFF74EF8204670BD0023A360204670BDFF
:101960000448FEF7C5FF2C6CD1E700BF34120020FD
:1019700028940008149400080000000000000000F3
:10198000154A70B52023946983F31188FEF7A0FEF1
:10199000236CD3B100260AE01168156C19604B6006
:1019A0009A60DD601364FFF723F8236C4BB11A686B
:1019B000D96821649A421046EED19E60236C002BB8
:1019C000F5D1636CA360FFF74BF9FEF799FE002396
:1019D00083F3118870BD00BF3412002000000000A6
:1019E00010B5044610B16460246010BD0248FEF7D3
:1019F0007FFF6460246010BD409400080000000078
:101A000010B5044698B1202383F31188FEF760FED9
:101A10002068A04205D00368236000215C60FFF7C6
:101A20008FF8FEF76DFE002383F3118810BD024886
:101A3000FEF75EFFE7E700BF5094000800000000DB
:101A400010B50446FEF7F4FE54B12068A04206D05B
:101A5000036823605C60FEF7CBFF0023836210BD48
:101A60000148FEF745FFF0E764940008000000001D
:101A700038B50446FEF7DCFE74B12068A0420AD0F7
:101A80006FF00105036823605C60FEF7B1FF8562BB
:101A90002068A042F6D138BD0148FEF729FFECE7E7
:101AA0007894000800000000000000000000000022
:101AB00010B52023044683F31188FEF709FE204663
:101AC000FFF7D6FFFFF7CCF8FEF71AFE002383F3EB
:101AD000118810BD000000000000000000000000A0
:101AE000154B70B505469C69FEF7BAFEE5B1236C4F
:101AF000F3B1FFF705FFA56206462B4603E09968A0
:101B0000A268914202D31B689D42F8D15A68626074
:101B1000236005205C601460FEF7C2FFA46A3046B3
:101B2000FFF7DEFD204670BD0448FEF7E1FEDEE76C
:101B30000348FEF7DDFEDCE7341200209094000835
:101B4000A094000800000000000000000000000059
:101B500010B52023044683F31188FEF7B9FD204613
:101B6000FFF7BEFF0446FEF7CBFD002383F3118889
:101B7000204610BD00000000000000000000000032
:101B8000F8B505460F46FEF76BFE1DB317B3154CAF
:101B9000A3691B6C13B3FFF7B3FEA46906462B467B
:101BA000A56203E09968A268914202D31B689D4236
:101BB000F8D15A686260236039465C600520146081
:101BC000FEF796FF431C044602D03046FFF788FD1F
:101BD0002046F8BD0448FEF78BFED8E70348FEF721
:101BE00087FED8E734120020B4940008CC94000893
:101BF00038B505460C46202383F31188FEF768FDAF
:101C000021462846FFF7BCFF0446FEF779FD002376
:101C100083F31188204638BD00000000000000005A
:101C2000F8B50C4617460546A0B199B1202383F3B9
:101C30001188FEF74DFD094B2A689B69226000263A
:101C40002C606360A760E660FEF75AFD334683F3BD
:101C50001188F8BD0248FEF74BFEE7E7341200207A
:101C6000F0940008000000000000000000000000E8
:101C700038B50D460446D8B1D1B1202383F311887D
:101C8000FEF726FD224602E09D4209D01A4613685F
:101C9000A342F9D1FEF734FD002383F3118838BD48
:101CA0002B681360FEF72CFD002383F3118838BDE9
:101CB0000148FEF71DFEE0E708950008000000005F
:101CC00010B52023044683F31188FEF701FD074B6E
:101CD0009A69D36B23EA0401D1631C40FEF710FD1F
:101CE000002383F31188204610BD00BF341200206A
:101CF00010B52023044683F31188FEF7E9FC064B58
:101D00009A69D36B1C43D463FEF7FAFC002383F378
:101D10001188204610BD00BF3412002000000000D2
:101D200038B504460D46FEF783FDC4B1E36B94F865
:101D3000202045EA0301082AE1630CD0092A00D0DB
:101D400038BDA36A19408B42FAD12046FEF750FEF7
:101D50000023836238BDA36A1942F6D138BD024818
:101D6000FEF7C6FDE2E700BF1C950008000000007A
:101D700070B505460E46FEF75BFD65B12C68A542C1
:101D800008D0201D0BC83343E360FFF7C9FF246868
:101D9000A542F6D170BD0248FEF7AAFDEEE700BFEE
:101DA0003095000800000000000000000000000066
:101DB00038B50D46044680B1202383F31188FEF721
:101DC00087FC20462946FFF7ABFFFEF749FFFEF7E9
:101DD00097FC002383F3118838BD0248FEF788FD85
:101DE000EAE700BF4895000800000000000000007E
:101DF00038B505460C46202383F31188FEF768FCAE
:101E000028462146FFF7B4FFFEF72AFFFEF778FCCD
:101E1000002383F3118838BD00000000000000009B
:101E20002DE9F0410E460546E8B1AEB100244FF071
:101E3000010808FA04F737420BD02B6873B120462B
:101E400026EA0706043598470134002EF1D1BDE893
:101E5000F08101340435ECE7BDE8F0810448FEF779
:101E600047FD2B68EBE70348FEF742FDDDE700BFC7
:101E70006C95000858950008000000000000000064
:101E800038B50F4B04469D69202383F31188FEF774
:101E90001FFCEB6B14EA030206D1AC620820FEF7CC
:101EA000FFFDEB6B04EA03025442144023EA0403EF
:101EB000EB63FEF725FC002383F31188204638BD31
:101EC00034120020000000000000000000000000AC
:101ED0000E4B70B59C690546202383F31188FEF7ED
:101EE000F7FBE36B15EA030606D1A5620820FEF7AF
:101EF000D7FDE36B05EA030623EA0603E363FEF777
:101F0000FFFB002383F31188304670BD341200209C
:101F100038B50E4B04469D69202383F31188FEF7E4
:101F2000D7FBEB6B04EA0302A24204D0AC620920A7
:101F3000FEF7B6FDEB6B23EA0403EB63FEF7E0FB71
:101F4000002383F31188204638BD00BF34120020DF
:101F5000F8B5194B05469E690F46202383F3118877
:101F6000FEF7B6FBF26B15EA02040AD1AFB1B56217
:101F700039460820FEF7BCFD002815DBF26B05EAA8
:101F8000020463421C4022EA0402F263FEF7B8FB3B
:101F9000002383F311882046F8BDFEF7B1FB3B46D2
:101FA00083F311883846F8BDFEF7AAFB234683F376
:101FB00011882046F8BD00BF341200200000000048
:101FC000F8B5184B05469E690F46202383F3118808
:101FD000FEF77EFBF26B15EA02040AD19FB1B562EF
:101FE00039460820FEF784FD002813DBF26B05EA72
:101FF000020422EA0402F263FEF782FB002383F369
:1020000011882046F8BDFEF77BFB3B4683F3118821
:102010003846F8BDFEF774FB234683F3118820464B
:10202000F8BD00BF341200200000000000000000D6
:10203000174B70B59D6904460E46202383F3118823
:10204000FEF746FBEB6B04EA0302A24208D08EB116
:10205000AC6231460920FEF74BFD002811DBEB6B2B
:1020600023EA0403EB63FEF74BFB002383F31188A1
:10207000204670BDFEF744FB334683F3118830469B
:1020800070BDFEF73DFB002383F31188184670BD39
:1020900034120020000000000000000000000000DA
:1020A000154B70B50E469C69054600B3202383F39B
:1020B0001188FEF70DFB05F1300295F82000A262B1
:1020C0006B6BA6630C2884E80C006C631C600AD060
:1020D0000A20FEF7E5FCA46AFEF712FB002383F357
:1020E0001188204670BD2846FEF782FCF0E70348C1
:1020F000FEF7FEFBDAE700BF3412002080950008EF
:1021000038B5202383F311880E4DFEF7E1FAAA6952
:10211000134653F8304F9C420CD0216811630B22B8
:102120004B6084F82020FEF7EBFA002383F311883C
:10213000204638BD0C20FEF7B3FCAA69146B02F1EF
:102140003003EAE734120020000000000000000025
:1021500038B504460D46202383F31188FEF7B8FAFC
:1021600094F820300B2B02D00648FEF7C1FB204626
:102170002946FEF7E5FCFEF7C3FA002383F3118836
:1021800038BD00BF9095000800000000000000006E
:1021900070B50D4616460446A0B199B1002A11DD6E
:1021A00005EB8603314604F11C00E560A56025605F
:1021B0006360FFF77DF804F110000021BDE8704076
:1021C000FFF776B80148FEF793FBE9E7B095000802
:1021D00010B50446D8B1202383F31188FEF778FAAE
:1021E00023686168E360C91AA36004F11C008910C8
:1021F000FFF776F804F110000021FFF771F8FEF701
:102200002FFDFEF77DFA002383F3118810BD0248ED
:10221000FEF76EFBDFE700BFC0950008000000007E
:1022200070B504460E461546FEF71AFBC4B12946A2
:1022300004F11C00FFF7ECF8054678B9A268616864
:10224000131D8B42A36028BF2368166004F11000A1
:1022500028BFA360FFF76CF9FEF702FD284670BDAA
:102260000148FEF745FBE2E7D095000800000000BA
:1022700070B5202306460D46144683F31188FEF7F9
:1022800027FA224629463046FFF7CAFF0446FEF7E2
:1022900037FA002383F31188204670BD0000000048
:1022A00038B504460D46FEF7C3FAA4B1636A002BA5
:1022B00015DDA0686168021D013B8A42636228BF88
:1022C0002368A260056004F1100028BFA360FFF737
:1022D0002FF9002038BD0348FEF70AFBE6E74FF070
:1022E000FF3038BDE095000800000000000000004D
:1022F00070B504460E461546FEF7B2FACCB1294633
:1023000004F11C00FFF784F8054660B9E368226811
:10231000043B9342E36008D31E6004F11000FFF712
:1023200007F9FEF79DFC284670BD6368043BE36037
:10233000F2E70248FEF7DCFAE1E700BFF09500089B
:1023400070B5202306460D46144683F31188FEF728
:10235000BFF9224629463046FFF7CAFF0446FEF77A
:10236000CFF9002383F31188204670BD00000000E0
:1023700038B504460D46FEF75BFAA4B1626A002A3E
:1023800015DDE3682168043B013A8B426262E36039
:1023900002D26368043BE36004F110001D60FFF7A4
:1023A000C7F8002038BD0348FEF7A2FAE6E74FF071
:1023B000FF3038BD04960008000000000000000057
:1023C00070B504460E461546FEF74AFAD4B1CEB1B2
:1023D000294604F11000FFF71BF8054680B9E368B1
:1023E0006268196804339342E36028BF2368316050
:1023F00004F11C0028BFE360FFF79AF8FEF730FCF9
:10240000284670BD0148FEF773FAE1E71896000808
:1024100070B5202306460D46144683F31188FEF757
:1024200057F9224629463046FFF7CAFF0446FEF711
:1024300067F9002383F31188204670BD0000000077
:1024400038B504460D46FEF7F3F9B4B1ADB1A36952
:10245000002B16DD5A1EE368A26162681968043316
:102460009342E36028BF2368296004F11C0028BF61
:10247000E360FFF75DF8002038BD0348FEF738FA47
:10248000E5E74FF0FF3038BD289600080000000057
:1024900071B1094B9B6910B498624468024683E8A5
:1024A00014000D20536023605DF8044BFEF720BB41
:1024B0004FF0FF30704700BF3412002000000000D2
:1024C00030B4029C046200250A44856002614060C9
:1024D000006041618161C160C36130BC704700BF71
:1024E00038B50446FEF7A4F92068E368636100226A
:1024F000A042A260A3610AD06FF0010503682360C7
:102500005C60FEF775FA85622068A042F6D138BD9E
:1025100038B504460D46FEF78BF9A36962699A4205
:10252000A3681BD00133511CA360616115706269FF
:1025300023699A420BD22068A0420DD00368236021
:102540005C60FEF755FA00238362184638BD2068A8
:10255000E3686361A042F1D1002038BD002BE1D0D7
:102560006FF0030038BD00BF000000000000000055
:10257000F8B504460F46202383F31188FEF7A8F828
:10258000E36933B12046984703E0FFF781FF061E59
:1025900018DBA56820463946002DF6D0A2692169CE
:1025A000531C8B4205F1FF35A361A56028BFE3688A
:1025B000167828BFA361FEF7A3F8002383F31188E0
:1025C0003046F8BDFEF79CF82B4683F31188304661
:1025D000F8BD00BF00000000000000000000000087
:1025E0002DE9F047044689461E46D0F81C809246E5
:1025F000002A37D0202383F31188FEF769F80027DB
:10260000B8F1000F05D02046C04702E0FFF740FFB9
:1026100000BBA56820463146002DF7D0A369013DD7
:102620005A1CA261A5601B7809F8013B2369A269C5
:102630009A4224BFE368A361FEF762F8002383F3A4
:1026400011880137BA450AD0202383F31188FEF799
:102650003FF8D5E7FEF754F82B4683F31188384648
:10266000BDE8F0870148FEF743F9C3E7409600084C
:1026700030B4029C04628D18056140600060826085
:1026800041618161C160C36130BC704700000000DE
:1026900038B50446FEF7CCF8E26823692068626129
:1026A0009B1AA042A261A3600AD06FF001050368E3
:1026B00023605C60FEF79CF985622068A042F6D139
:1026C00038BD00BF00000000000000000000000056
:1026D0002DE9F041202304468846174683F31188EC
:1026E000FDF7F6FF03E0FFF7D3FE061E1DDBA5682E
:1026F00020463946002DF6D06369013D5A1C6261BF
:10270000A56083F80080236962699A4224BFE36868
:102710006361E3690BB120469847FDF7F1FF0023A1
:1027200083F311881846BDE8F081FDF7E9FF2B46D9
:1027300083F311883046BDE8F08100BF000000003F
:1027400038B50446FEF774F86369A2699342A3683A
:1027500016D02069511C0133A360A1618142157814
:102760000BD22068A04206D0036823605C60FEF7AD
:102770003FF900238362284638BDE368A361F0E790
:10278000002BE6D06FF0020038BD00BF0000000053
:102790002DE9F84F04460E469B46D0F81CA017467C
:1027A000002A41D0202383F31188FDF791FF4FF0D9
:1027B0000009A56806F101086A1E204635B3636961
:1027C000A2605A1C626132781A70236962699A4267
:1027D00024BFE3686361BAF1000F00D0D047FDF772
:1027E0008FFF002383F31188013F09F101094FF0A6
:1027F000200316D083F31188FDF76AFFA5684646CB
:102800006A1E06F101082046002DD8D120465946FF
:10281000FFF73EFE0028CCD0FDF772FF2B4683F376
:1028200011884846BDE8F88F0148FEF761F8B9E71E
:1028300054960008000000000000000000000000A6
:10284000054A064B0648074922F0070223F0070312
:1028500002600B60704700BFCF21002000C0012044
:102860005412002050120020000000000000000060
:1028700010B50446FDF7DCFF0649074B08681A68E7
:10288000E31D23F00703121A93429ABF1B180B6033
:10289000002010BD54120020501200200000000043
:1028A00010B52023044683F31188FDF711FF20465D
:1028B000FFF7DEFF0446FDF723FF002383F31188B3
:1028C000204610BD000000000000000000000000D5
:1028D000024A034B10681B68C01A70475012002050
:1028E0005412002000000000000000000000000062
:1028F000044B054A1A6003F1100000229A60DA6066
:10290000FEF7DEBE58120020A128000800000000DB
:1029100070B516464A070C46054601D1730702D02A
:102920000748FDF7E5FF0023083EAC602B60EB6035
:1029300084E8480005F11000BDE87040FEF7C0BE15
:102940007096000800000000000000000000000079
:10295000F8B51E4E002818BF0646073106F11000D4
:1029600021F0070506F10804FEF73AFF03E043688B
:102970009D4211D9044620680028F8D1FEF778FF5F
:1029800033680BB305F108009847E8B1066045606D
:1029900000F108042046F8BD05F108029A4208D962
:1029A00003682360044644F8086BFEF761FF204685
:1029B000F8BD6FF00701491B87180B44016881506F
:1029C0007B6027604560EDE70024E3E758120020B4
:1029D000F8B50746002855D057F8086C06F11000E6
:1029E000FEF7FEFE08363446A7F10805AC4204D8CF
:1029F0006368083323449D420BD3B4420ED0AC42EB
:102A00000CD32468AC42F8D86368083323449D4251
:102A1000F3D21E48FDF76CFFB442F0D123681BB11E
:102A20009D4201D31C46E1E757F8042C47F8083CC7
:102A3000256002F1080357F8080CE918814209D013
:102A4000626802F1080323449D4211D0BDE8F840BA
:102A5000FEF70EBF4968EB5847F8083C5318083397
:102A600047F8043C626802F1080323449D42EDD11B
:102A700017E90A001344083321606360BDE8F84099
:102A8000FEF7F6BE0248FDF733FFA5E79096000873
:102A90008096000800000000000000000000000018
:102AA00038B50E4C002818BF044604F110000D463E
:102AB000FEF796FEA3686BB10022144658681B68A7
:102AC00001340244002BF9D105B12A60FEF7D0FE93
:102AD000204638BD1A461C46F6E700BF58120020B3
:102AE00070B50D461646044608B1032902D80348BE
:102AF000FDF7FEFE002384E8680070BDB096000874
:102B000010B50446FDF794FE5CB1206810B103686F
:102B1000236010BDA3681BB16068BDE81040184772
:102B200010BD0248FDF7E4FEEFE700BFC0960008C5
:102B300010B52023044683F31188FDF7C9FD204614
:102B4000FFF7DEFF0446FDF7DBFD002383F311886A
:102B5000204610BD00000000000000000000000042
:102B600038B504460D46FDF763FE24B11DB1236858
:102B70002B60256038BD0348FDF7BAFE23682B6043
:102B8000256038BDD4960008000000000000000059
:102B900038B505460C46202383F31188FDF798FDD0
:102BA00028462146FFF7DCFFFDF7AAFD002383F34B
:102BB000118838BD00000000000000000000000087
:102BC00070B50D461446064628B142B90948BDE81D
:102BD0007040FDF78DBE0748FDF78AFE44B12946D7
:102BE0003046FFF7D5FF7368013C1D44F7D170BD37
:102BF00070BD00BFE4960008000000000000000067
:102C0000014B01221A7070470D19002000000000CE
:102C100070B5094E4C243068074D03682D219B6820
:102C20009847013CF7D128680449036802221B68D1
:102C3000BDE87040184700BF4019002054A90008A3
:102C400010B370B5134A84B06D466C46A2FB0013F6
:102C5000DB0803EB8301A0EB410000F13001C9B2B6
:102C600004F8011B1846002BF0D1AC420AD90A4ED9
:102C7000013C01E014F8011D306803689B68984727
:102C8000AC42F7D104B070BD034B18680368302123
:102C90009B681847CDCCCCCC401900200000000028
:102CA00038B50178044641B1044D286803689B6833
:102CB000984714F8011F0029F7D138BD40190020AA
:102CC00070B50178094D044639B1286803689B68DE
:102CD000984714F8011F0029F7D1286804490368B0
:102CE00002221B68BDE87040184700BF4019002051
:102CF00054A90008000000000000000000000000CF
:102D000010B52023044683F31188FDF7E1FC054A42
:102D100013681C7001331360FDF7F2FC002383F38A
:102D2000118810BD101900200000000000000000F4
:102D300059B910B40649074C074A012323701060A3
:102D40000B7018465DF8044B704700231846704717
:102D5000141900200C1900200819002000000000A0
:102D6000F0B40E4E0E4F35683B4605E013F8014BAC
:102D700011F8012B944207D1AB42F7D30B781BB962
:102D800037601846F0BC7047064C0749074A0123D4
:102D9000237010600B701846F0BC704710190020AB
:102DA000441900200C1900201419002008190020D3
:102DB0000A4BDB68521A5B1A93420BD310B40849D2
:102DC000084C094A0123237010600B7018465DF807
:102DD000044B704700231846704700BF24120020A0
:102DE000141900200C190020081900200000000010
:102DF00038B5064C04F1140554F8043B18460BB1E1
:102E0000FEF766F8AC42F7D138BD00BF2C190020A0
:102E100070B5074C002604F1140554F8040B18B1E2
:102E2000FEF7EEF844F8046CAC42F6D170BD00BF7A
:102E30002C1900200000000000000000000000002D
:102E4000104B114910B49C694FF47A7303FB00F0E6
:102E5000626A0138531CA1FB000103EB91118A4205
:102E6000636A04D29A4204D95DF8044B70479A42CF
:102E7000F5D9994294BF00230123002BEFD15DF8CF
:102E8000044B704734120020D34D62100000000044
:102E900008B50120FEF734F8014BD86808BD00BF23
:102EA00024120020000000000000000000000000CC
:102EB00038B50F4B00241C700546202383F311887E
:102EC000FDF706FC4FF47A7303FB05F1094B0A4842
:102ED0000A4A0139A3FB0131890923460131FDF773
:102EE0001FFDFDF70DFC234683F3118838BD00BF9D
:102EF0000D190020D34D621018190020012C000874
:102F00002DE9F04F9F4CA04D206083B09F48FFF704
:102F1000D7FE9F48FFF7D4FE9E48FFF7D1FE2A2137
:102F2000206803689B68984715F8011F0029F7D1AE
:102F300099489A4DFFF7C4FE2A21206803689B68D0
:102F4000984715F8011F0029F7D19548954DFFF7CF
:102F5000B7FE2A21206803689B68984715F8011F6F
:102F60000029F7D19048914DFFF7AAFE2A21206849
:102F700003689B68984715F8011F0029F7D18C4812
:102F80008C4DFFF79DFE2A21206803689B689847B7
:102F900015F8011F0029F7D18748884DFFF790FEEB
:102FA0002A21206803689B68984715F8011F0029AB
:102FB000F7D18348834DFFF783FE2A2120680368F9
:102FC0009B68984715F8011F0029F7D17E487F4D6F
:102FD000FFF776FE2A21206803689B68984715F85A
:102FE000011F0029F7D17A4B7A4800910193FFF72E
:102FF00067FE6648DFF81C82DFF888B1FFF760FEE5
:10300000754B00991970009B01330093002658F806
:10301000263008EB8607002B00F086806F4DFFF707
:10302000F7FD2D21206803689B68984715F8011F5C
:103030000029F7D100986A4DFFF702FEDBF8000087
:1030400003682E219B68013698473046FFF7F8FD4C
:103050002021206803689B68984715F8011F002904
:10306000F7D13B681D68297839B1206803689B68EF
:10307000984715F8011F0029F7D15A48DFF89891B1
:10308000594DDFF878A1FFF71BFEC820FDF738FF88
:10309000564A3F68C5F800A0002313605360936050
:1030A000D36013617A6889F8003002B19047FB68F9
:1030B0009847BB6803B19847FFF7AAFE99F800301C
:1030C000002B53D04A4F2D21206803689B689847F6
:1030D00017F8011F0029F7D1464B474F1868FFF733
:1030E000AFFD2021206803689B68984717F8011FEF
:1030F0000029F7D12B68534509D9404F206817F8AC
:10310000011B03689B6898472B689F42F6D33C4895
:10311000FFF7D6FD019BD3F8008058F8263008EB66
:103120008607002B7FF47AAF019B53F8048F01933D
:10313000B8F1000F7FF467AFFFF76AFD314D134818
:10314000FFF7BEFD4621206803689B68984715F885
:10315000011F0029F7D1204B1B785BB92A48FFF7E4
:10316000AFFD1D4B187803B0BDE8F08F2748FFF77F
:10317000A7FD4CE72648FFF7A3FD174B187803B0CF
:10318000BDE8F08F4019002020970008DCA7000858
:10319000009800081C980008409800083497000820
:1031A0004898000848970008609800085C97000855
:1031B00080980008709700088C9800088497000891
:1031C0009898000898970008B0980008AC970008F5
:1031D00000990008E498000814190020C09700081E
:1031E000D097000874940008101900202C190020B2
:1031F000D497000808190020EC9700084419002013
:1032000020980008F09700083098000824980008DB
:1032100038980008709900080C1900200000000080
:10322000F0B5274F274EBB69274D9A68274B30686A
:10323000274C83B0053A00934FF4A8712B46FDF755
:10324000C7FDBB6923499A68736820600091043AFE
:1032500018464FF4A8712B46FDF7BAFDBA69B3685A
:1032600092681D4960600091033A18464FF4A871B6
:103270002B46FDF7ADFDBA69F36892681749A06067
:103280000091023A18464FF4A8712B46FDF7A0FDB5
:10329000BA69336992681249E060013A00911846B0
:1032A0004FF4A8712B46FDF793FD2061FFF7B0FDA9
:1032B0000C49012003B0BDE8F040FFF751BD00BF4D
:1032C0003412002000970008F1320008A09900088D
:1032D0002C1900205CAA0008909900089499000815
:1032E000989900089C990008000000000000000068
:1032F00008B50078FFF704FD002008BD00000000BD
:10330000F0B52D4F2D4EBB692D4D9A682D4B706831
:103310002D4C83B0043A00934FF4A8712B46FDF76F
:1033200057FDBB6929499A68336860600091053A86
:1033300018464FF4A8712B46FDF74AFDBA69336968
:103340009268234920600091013A18464FF4A87111
:103350002B46FDF73DFDBA69F36892681D4920616F
:103360000091023A18464FF4A8712B46FDF730FD44
:103370002023E06083F31188FDF7AAF9BB69B068E8
:103380009A68154B0093033A2B464FF4A871FDF74A
:10339000C7FCA060FDF7B4F9002383F31188A0688F
:1033A000FDF776FDFFF734FD0C49012003B0BDE8C1
:1033B000F040FFF7D5BC00BF341200200097000892
:1033C000F13200085CAA00082C190020A09900081E
:1033D0009899000894990008909900089C99000811
:1033E000F8B5504EB3699C68651C2846FDF728FD6A
:1033F000011B0746B1FA81F101204909FFF798FC4A
:1034000000B1F8BDB36999680220691AB1FA81F177
:103410004909FFF78DFC0028F3D13846FDF710FD70
:10342000291A0320B1FA81F14909FFF781FC00282C
:10343000E7D1B36999680420091BB1FA81F1490900
:10344000FFF776FC07460028DBD1202383F31188A1
:10345000FDF73EF9B269936802339360FDF750F9C6
:103460003B4683F31188B3699968A71CC91B0520E3
:10347000B1FA81F14909FFF75BFC0028C1D1284668
:10348000FDF7DEFC011B0620B1FA81F14909FFF7C7
:103490004FFC0028B5D1B36999680720791AB1FAB1
:1034A00081F14909FFF744FC0028AAD1B369596C9E
:1034B0000820691AB1FA81F14909FFF739FC00289F
:1034C0009FD1E71C3846FDF7BBFC281A4142414119
:1034D0000920FFF72DFC002893D1B36999687A1A67
:1034E000514251410A20FFF723FC002889D1B369DA
:1034F000596C7B1A59424FF00B005941FFF718FCE9
:10350000054600287FF47DAF202383F31188FDF763
:10351000DFF8B3699C605C64FDF7F2F82B4683F337
:1035200011886EE734120020000000000000000047
:1035300038B51C4DFFF7ACFCEC686420FDF7E0FCEF
:1035400004F1640104F165020120FFF731FC00B1D0
:1035500038BDEC686420FDF7D3FC04F1640104F18C
:1035600065020220FFF724FC0028F1D1EC684FF43B
:103570007A70FDF7C5FC04F57A7104F2E932032094
:10358000FFF716FC0028E3D1EC6804F16405284637
:10359000FDF7CEFC294604F165020420BDE8384061
:1035A000FFF706BC2412002000000000000000000D
:1035B0002DE9F043464E474FB369D7F800809A682B
:1035C000DFF83491444B454D454C83B005324FF400
:1035D000A871CDF800904046FDF7FAFBB369796811
:1035E0009A68404B28600132084600934FF4A87156
:1035F000394BFDF7EDFBB369B9689A683A4B6860DF
:103600000332084600934FF4A871334BFDF7E0FBFB
:10361000B369F9689A68354BA8600432084600938C
:103620004FF4A8712C4BFDF7D3FBB36939699A6845
:103630002F4BE8600232084600934FF4A871264BE6
:10364000FDF7C6FB28612046FDF73AFF2046FDF74F
:1036500037FF2046FDF734FF2046FDF731FF2046B7
:10366000FDF72EFFFFF7D4FB01202249FFF778FB7F
:10367000074610B103B0BDE8F083B269164B9268FB
:10368000CDF80090053240464FF4A871FDF7A0FB3D
:103690002023286083F31188FDF71AF820460221C1
:1036A000FDF776FFFDF7DCFAFDF72AF83B4683F3DA
:1036B0001188FFF7ADFBA1680220A1F10101B1FA69
:1036C00081F1490903B0BDE8F043FFF731BB00BF0A
:1036D0003412002000970008213700082C19002020
:1036E0000008002094990008909900085CAA00083E
:1036F000A09900089C990008989900080000000013
:1037000010B5044C2046FDF76BFE2046FDF7D8FEB1
:10371000002010BD00080020000000000000000094
:1037200010B504460348FDF75BFE2078FFF7E8FA82
:10373000002010BD00080020000000000000000074
:1037400001480021FDF7B4BD000800200000000082
:1037500001480021FDF7ACBD00080020000000007A
:1037600001480021FDF7A4BD000800200000000072
:1037700008B53220FDF7C4FB202383F31188FCF742
:10378000A7FF0648FDF7D4FEFDF76AFAFCF7B8FF7D
:10379000002383F31188184608BD00BF00080020ED
:1037A00010B52023044683F31188FCF791FFA3682A
:1037B000002B08DDFDF754FAFCF7A2FF002383F38A
:1037C0001188184610BD2046FDF7B2FEF2E700BF93
:1037D00000B587B003A80021FDF76AFD03A800210A
:1037E000FDF7AEFD05990029CCBF00210121012084
:1037F000FFF79EFA10B107B05DF804FB354B364A6F
:103800009B6910689A68354B03A90091013A4FF4FF
:10381000A871FDF7DDFA324B186003A8FDF7E0FD53
:1038200005990029CCBF002101210220FFF780FA71
:103830000028E0D1202383F31188FCF749FF059B82
:10384000002B3EDDFDF70CFAFCF75AFF002383F353
:10385000118805999942D4BF002101210320FFF767
:1038600067FA0028C7D105990420A1F10101B1FA36
:1038700081F14909FFF75CFA0028BCD1202383F3CA
:103880001188FCF725FF059B002B1EDDFDF7E8F9ED
:10389000FCF736FF002383F3118805999942D4BFC2
:1038A000002101210320FFF743FA0028A3D1059945
:1038B0000520A1F10101B1FA81F14909FFF738FAB8
:1038C00099E703A8FDF734FEBCE703A8FDF730FE37
:1038D000DCE700BF3412002000970008A137000881
:1038E0002C19002000000000000000000000000073
:1038F00070B54A4C82B000212046FDF7C9FDA0F109
:10390000FF310120B1FA81F14909FFF711FA08B13D
:1039100002B070BD21680220091BB1FA81F149098A
:10392000FFF706FA0028F3D1A168B1FA81F103206C
:103930004909FFF7FDF90028EAD1394B394A9B695B
:1039400011689A68384B0090013A08464FF4A87104
:10395000FDF73EFA354B4FF4FA7118602046FDF73B
:1039600097FD0546FFF754FAB5FA85F10420490999
:10397000FFF7DEF90028CBD121680520091BB1FA39
:1039800081F14909FFF7D4F90028C1D1A168B1FA42
:1039900081F106204909FFF7CBF90028B8D1FFF7DC
:1039A00077FA234BDE6841252846FFF7A9F94FF443
:1039B000FA711A48FDF76CFDA0F1FF310720B1FA4A
:1039C00081F14909FFF7B4F90028A1D12168082045
:1039D000091BB1FA81F14909FFF7AAF9002897D12B
:1039E000A168B1FA81F109204909FFF7A1F9013570
:1039F000EDB200288CD1462DD6D10A200D49FFF713
:103A0000AFF9002884D10B2006F6C41106F6C912BE
:103A100002B0BDE87040FFF7CBB900BF000800203E
:103A20003412002000970008713700082C1900207C
:103A3000241200209C9900080000000000000000F3
:103A400010B5204B204A9B6910689A681F4B204C88
:103A500082B00021013200914FF4A871FDF7B8F94E
:103A60001C4B214618602046FDF7CAFD2168012045
:103A7000091BB1FA81F14909FFF75AF908B102B0FF
:103A800010BDA168B1FA81F102204909FFF750F990
:103A90000028F4D121462046FDF7B2FD216803201D
:103AA000091BB1FA81F14909FFF742F90028E6D173
:103AB000A168B1FA81F10420490902B0BDE81040C3
:103AC000FFF736B9341200200097000801370008CC
:103AD000000800202C190020000000000000000059
:103AE000F0B52B4F2B4EBB692B489C682B4D83B0F8
:103AF000FDF776FE2A4B0093621C4FF4A871294B08
:103B00003068FDF765F97168274B2860A21C0846EC
:103B100000934FF4A871234BFDF75AF9B168234B7A
:103B20006860E21C084600934FF4A8711D4BFDF736
:103B30004FF9F1681E4BA860221D084600934FF410
:103B4000A871184BFDF744F931691A4BE860621D02
:103B5000084600934FF4A871124BFDF739F928611C
:103B6000FDF786FEFFF754F9BB6999680120091B30
:103B7000B1FA81F14909FFF7DBF808B103B0F0BDF4
:103B80000D49022003B0BDE8F040FFF7E9B800BFDF
:103B900034120020009700080C0800202C19002087
:103BA000A0990008C13B00085CAA00089099000891
:103BB00094990008989900089C990008000000005A
:103BC00010B504460448FDF70BFE2078FFF798F87F
:103BD000FDF74EFE002010BD0C0800200000000084
:103BE00010B504460448FDF7FBFD2078FFF788F880
:103BF000FDF73EFE002010BD1C0800200000000064
:103C00000148FDF75DBD00BF0C080020000000006A
:103C10000148FDF755BD00BF0C0800200000000062
:103C200008B50448FDF74CFD0348BDE80840FDF722
:103C300047BD00BF0C0800201C0800200000000049
:103C400008B50448FDF73CFD0348BDE80840FDF712
:103C500037BD00BF0C0800201C0800200000000039
:103C60000148FDF72DBD00BF0C080020000000003A
:103C70002DE9F041204F214E214C82B0FFF708F989
:103C8000BB6920499A68D1F80C801F4B3068002529
:103C9000013A4FF4A8710095FDF79AF8BA69736874
:103CA00092682060023A18464FF4A871174B0095AD
:103CB000FDF78EF8BA69B368926860604FF4A87136
:103CC000033A18460095124BFDF782F8A060FFF703
:103CD0009FF801200F49FFF743F810B102B0BDE88B
:103CE000F081022008F1640108F1690202B0BDE828
:103CF000F041FFF75DB800BF3412002000970008C4
:103D00002C19002024120020713E0008513E0008AA
:103D1000013E0008209B0008000000000000000099
:103D20002DE9F0412C4F2D4E2D4C82B0FFF7B0F80D
:103D3000BB692C499A68D1F80C802B4B3068002560
:103D4000053A4FF4A8710095FDF742F8BA69736817
:103D500092682060043A18464FF4A871234B0095EE
:103D6000FDF736F8BA69B36892686060033A18469E
:103D70004FF4A8711E4B0095FDF72AF8BA69F36855
:103D80009268A060023A18464FF4A871194B00954A
:103D9000FDF71EF8BA6933699268E0604FF4A871C4
:103DA000013A18460095144BFDF712F82061FFF711
:103DB0002FF801201149FEF7D3FF10B102B0BDE882
:103DC000F081022008F16E0108F1730202B0BDE833
:103DD000F041FEF7EDBF00BF34120020009700084D
:103DE0002C19002024120020313E0008213F000839
:103DF000F13E0008D13E0008A13E00089C99000851
:103E000008B50848FDF7ECFC2820FFF719F8FDF786
:103E10002FFD0A20FFF714F84320FEF771FF002062
:103E200008BD00BF0C0800200000000000000000DA
:103E300008B50648FDF7D4FC1E20FFF701F8FDF792
:103E400017FD4520FEF75CFF002008BD0C08002090
:103E500008B51420FDF754F82820FEF7F1FF4220A2
:103E6000FEF74EFF002008BD00000000000000002B
:103E700008B52820FDF744F80648FDF7B1FC0A20F4
:103E8000FEF7DEFFFDF7F4FC4120FEF739FF0020CE
:103E900008BD00BF0C08002000000000000000006A
:103EA00008B53220FDF72CF80648FDF799FC0A20EA
:103EB000FEF7C6FFFDF7DCFC4120FEF721FF0020E6
:103EC00008BD00BF1C08002000000000000000002A
:103ED00008B52820FDF714F81420FEF7B1FF4220A2
:103EE000FEF70EFF002008BD0000000000000000EB
:103EF00008B51420FDF704F80648FDF771FC0A2008
:103F0000FEF79EFFFDF7B4FC4320FEF7F9FE00200C
:103F100008BD00BF1C0800200000000000000000D9
:103F200008B50A20FCF7ECFF0B48FDF759FC1420FC
:103F3000FEF786FF0948FDF753FC0A20FEF780FFD5
:103F4000FDF796FC0A20FEF77BFFFDF791FC44206D
:103F5000FEF7D6FE002008BD1C0800200C0800203B
:103F600008B59620FCF7CCFF0348FDF739FCFDF7B8
:103F70007FFC002008BD00BF0C08002000000000EE
:103F800008B53220FCF7BCFF0348FDF729FCFDF71C
:103F90006FFC002008BD00BF1C08002000000000CE
:103FA0002DE9F0468C4D8D4EAB6932689C688C4B88
:103FB0008C4F85B004F101091046039200934A46E4
:103FC0004FF4A871884BFCF703FF7668874B386085
:103FD00004F1020A4FF4A871524600933046844B14
:103FE000FCF7F6FE78608348FDF7FAFBAB69996849
:103FF0000120091BB1FA81F14909FEF799FE10B1C0
:1040000005B0BDE8F0866420FCF77AFFAB699968DB
:104010000220C9EB0101B1FA81F14909FEF788FEDE
:104020000028EDD17448FDF7DBFBAB6999680320EC
:10403000C9EB0101B1FA81F14909FEF779FE0028C7
:10404000DED16420FCF75CFFAB6999680420CAEB01
:104050000101B1FA81F14909FEF76AFE0028CFD1CA
:10406000FDF706FCAB6999680520C9EB0101B1FABF
:1040700081F14909FEF75CFE0028C1D16420FCF7FC
:104080003FFFAB6999680620C9EB0101B1FA81F1E4
:104090004909FEF74DFE0028B2D1FDF771FCAB696E
:1040A00099680720091BB1FA81F14909FEF740FE22
:1040B0000028A5D1FEF7ACFE504B00934FF4A87139
:1040C0004A46494B0398FCF783FE4D4B38604FF44A
:1040D000A87100935246464B3046FCF779FE786053
:1040E0004448FDF77DFBAB6999680820091BB1FACC
:1040F00081F14909FEF71CFE002881D16420FCF7FC
:10410000FFFEAB699968C9EB010CDCF1000141EBE2
:104110000C010920FEF70CFE00287FF471AF364831
:10412000FDF75EFBAB699968C9EB010EDEF100019A
:1041300041EB0E010A20FEF7FBFD00287FF460AF83
:104140006420FCF7DDFEAB699968CAEB0107794290
:104150004FF00B007941FEF7EBFD064600287FF497
:104160004FAF202383F31188FCF7B2FAFDF7C8FBA9
:10417000FCF776FDFCF7C4FA334683F31188AB698C
:104180009968C9EB0106714271410C20FEF7D0FD20
:1041900000287FF435AF6420FCF7B2FEAB69996864
:1041A000C9EB0102514251410D20FEF7C1FD00282B
:1041B0007FF426AFFDF7E4FBAB6999680B1B59420E
:1041C00059410E20FEF7B4FD00287FF419AF05B069
:1041D000BDE8F046FEF71CBE341200200097000830
:1041E000949900082C190020813F00089899000834
:1041F000613F00081C0800200C0800205CAA000891
:10420000909900080000000000000000000000007D
:10421000F8B52D4D2D4CAB6920469E68FDF710FB7F
:1042200001460120FEF784FD00B1F8BD2046FDF7F0
:1042300007FB80F00101C9B20220FEF779FD0746B5
:104240000028F2D1202383F31188FCF741FAFDF70F
:1042500057FBFCF755FA3B4683F31188216803208E
:10426000091BB1FA81F14909FEF762FD0028DCD192
:10427000A168B1FA81F104204909FEF759FD00282F
:10428000D3D1AB6999680520891BB1FA81F149093D
:10429000FEF74EFD0028C8D12046FDF7A1FAFDF734
:1042A0006FFB21680620091BB1FA81F14909FEF76D
:1042B0003FFD0028B9D1A168B1FA81F10720490971
:1042C000BDE8F840FEF734BD341200200C08002091
:1042D000F0B5314B314F9B69314D9E68314B386899
:1042E000314C83B0721C00934FF4A8712B46FCF73D
:1042F0006FFD7B682D492060B21C009118464FF479
:10430000A8712B46FCF764FDBB6829496060F21C6C
:10431000009118464FF4A8712B46FCF759FDFB6835
:104320002449A060321D009118464FF4A8712B4615
:10433000FCF74EFD3B692049E060721D0091184674
:104340004FF4A8712B46FCF743FD2023206183F333
:1043500011881A4CFCF7BCF92046FDF771FB20468A
:10436000FDF76EFB2046FDF76BFB2046FDF768FB73
:104370002046FDF765FBFCF773FCFCF7C1F9002351
:1043800083F31188FEF744FD0D49012003B0BDE819
:10439000F040FEF7E5BC00BF341200200097000893
:1043A000D1430008A09900082C1900205CAA00083D
:1043B0009099000894990008989900082C0800200A
:1043C0009C990008000000000000000000000000B0
:1043D00010B504460648FDF703FA0648FDF7B8FB9A
:1043E0002078FEF78DFCFDF743FA002010BD00BFDA
:1043F0000C0800202C080020000000000000000035
:1044000008B50448FDF7ECFA0348BDE80840FDF79D
:1044100057B900BF2C0800200C0800200000000045
:1044200008B50448FDF7DCFA0348BDE80840FDF78D
:1044300047B900BF2C0800200C0800200000000035
:1044400008B50548FDF7CCFA0448FDF739F90448EA
:10445000BDE80840FDF734B92C0800200C08002006
:104460001C08002000000000000000000000000008
:10447000F0B5244B244F9B69244D9E68244B38682B
:10448000244C83B0721C00934FF4A8712B46FCF7A8
:104490009FFC7B6820492060B21C009118464FF4B5
:1044A000A8712B46FCF794FCBB681C496060F21CA9
:1044B000009118464FF4A8712B46FCF789FCFB6865
:1044C0001749A060321D009118464FF4A8712B4681
:1044D000FCF77EFC3B691349E060721D00911846B1
:1044E0004FF4A8712B46FCF773FC20610E48FDF7D2
:1044F000DFFAFEF78DFC0D49012003B0BDE8F04066
:10450000FEF72EBC3412002000970008D1430008AB
:10451000A09900082C1900205CAA000890990008B6
:1045200094990008989900082C0800209C9900088C
:10453000F0B51B4B1B4E9B6930689D681A4B1B4C9A
:104540001B4F83B06A1C00934FF4A871194BFCF702
:104550003FFC7168184B2060AA1C00930846174B5B
:104560004FF4A871FCF734FCB168154B6060EA1C8D
:1045700000930846134B4FF4A871FCF729FCA06088
:104580003846FDF73DFA3846FDF73AFAFEF740FCAB
:104590000D49012003B0BDE8F040FEF7E1BB00BFCC
:1045A0003412002000970008989900082C19002068
:1045B0002C080020D145000890990008D14300083C
:1045C00094990008E13B0008209B000800000000CF
:1045D00010B504460948FDF703F90948FDF700F94D
:1045E0004FF0FF310748FDF703FB2078FEF788FB0B
:1045F000FDF73EF9FDF73CF9002010BD1C08002036
:104600000C0800202C080020000000000000000022
:1046100010B5184A184B916918688A68174B82B010
:10462000013200914FF4A871FCF7D2FB144B1860D3
:10463000FDF766FD846B2146FDF78AFDE0B2FEF7CB
:104640005FFBFDF75DFD846B2146FDF781FDE0B268
:10465000FEF756FBFDF754FD846B2146FDF778FD10
:10466000E0B2FEF74DFB0749012002B0BDE8104063
:10467000FEF776BB34120020009700089146000830
:104680002C190020209B0008000000000000000002
:1046900010B541210446FDF703FD20464221FDF7F8
:1046A000FFFC20464321FDF7FBFC002010BD00BFAE
:1046B000F0B54A4E716A83B0A1F105010120B1FA4B
:1046C00081F14909FEF734FBF0B94224434D2146FC
:1046D0004FF0FF322846FDF7CBFDB0FA80F1022003
:1046E0004909FEF725FB013470B9462CEED1412172
:1046F00028464FF0FF32FDF723FEB0FA80F1032089
:104700004909FEF715FB08B103B0F0BD582101229D
:104710002846FDF7ADFDA0F1FF310420B1FA81F18B
:104720004909FEF705FB04460028EDD1202383F359
:104730001188FBF7CDFF58212846FDF7B1FD07464C
:10474000FBF7DEFF234683F311880520A7F1FF3135
:10475000B1FA81F14909FEF7EBFA0028D4D15821CA
:1047600001222846FDF7ECFDA0F1FF310620B1FA49
:1047700081F14909FEF7DCFA04460028C4D1202360
:1047800083F31188FBF7A4FF58212846FDF7F0FDBD
:104790000746FBF7B5FF234683F311880720A7F1EF
:1047A000FF31B1FA81F14909FEF7C2FA0746002844
:1047B000AAD1202383F31188FBF78AFF696AB1FA33
:1047C00081F108204909FEF7B3FA044640B1FBF72E
:1047D00097FF3B4683F3118896E700BF340800201B
:1047E000FBF78EFF234683F31188202383F3118880
:1047F000FBF76EFFA9694F1F794279410920FEF747
:1048000097FA0746002840F09682FBF779FF3B466F
:1048100083F31188202383F31188FBF759FFE9689C
:10482000AB68CC1A614261410A20FEF781FA002888
:1048300040F07B82FBF764FF002383F3118805259A
:10484000B04C01A920464FF0FF32FDF7E1FDB0FA70
:1048500080F10B204909FEF76BFA00287FF454AF72
:104860009DF80400FEF74CFA013DE9D10C20A64961
:10487000FEF776FA00287FF447AF472120464FF035
:10488000FF32FDF7F5FCB0FA80F10D204909FEF783
:104890004FFA00287FF438AF01A920464FF0FF32CD
:1048A000FDF7B6FDB0FA80F10E204909FEF740FA97
:1048B00000287FF429AF2168A368CA1A51425141E8
:1048C0000F20FEF735FA00287FF41EAF2168E36859
:1048D000CB1A594259411020FEF72AFA00287FF4DA
:1048E00013AF01A920460122FDF792FD00F1010C52
:1048F000DCF1000141EB0C011120FEF719FA002850
:104900007FF402AF202383F31188FBF7E1FE01A9B6
:104910002046FDF795FD0746FBF7F2FE2B4683F395
:10492000118807F1010EDEF1000141EB0E011220AA
:10493000FEF7FEF900287FF4E7AE202383F3118809
:10494000FBF7C6FE616A4F1F794279411320FEF7DB
:10495000EFF9002840F0E981FBF7D2FE002383F352
:104960001188202383F31188FBF7B2FEB169B1FAF5
:1049700081F114204909FEF7DBF9624C0546002855
:1049800040F0D381FBF7BCFE2B4683F31188202334
:1049900083F31188FBF79CFEE168A368CE1A71428D
:1049A00071411520FEF7C4F90646002840F0A380A7
:1049B000FBF7A6FE334683F31188202383F3118887
:1049C000FBF786FE41212046FDF76AFCB0FA80F134
:1049D00016204909FEF7ACF900287FF495AE422174
:1049E0002046FDF75DFCB0FA80F117204909FEF77B
:1049F0009FF900287FF488AE43212046FDF750FC44
:104A0000B0FA80F118204909FEF792F900287FF4E6
:104A10007BAE44212046FDF743FCB0FA80F119201B
:104A20004909FEF785F9054600287FF46DAE45215A
:104A30002046FDF735FC0646FBF762FE2B4683F366
:104A400011881A20B6FA86F14909FEF771F9002893
:104A50007FF45AAEE168A368CC1A614261411B2021
:104A6000FEF766F900287FF44FAE0525202383F377
:104A70001188244CFBF72CFE01A92046FDF7E0FC31
:104A80000646FBF73DFE002383F311881C20B6FA8F
:104A900086F14909FEF74CF900287FF435AE9DF800
:104AA0000400FEF72DF9013DE0D11D201649FEF767
:104AB00057F900287FF428AE202383F31188FBF7F1
:104AC00007FE616A4A1F514251411E20FEF730F92C
:104AD00088B9FBF715FE2B4683F31188202383F357
:104AE0001188FBF7F5FDA169B1FA81F11F20490991
:104AF000FEF71EF950B1FBF703FE2B4683F3118836
:104B000002E600BF340800209C990008FBF7F8FD7E
:104B10002B4683F31188E168A368CB1A59425941A7
:104B20002020FEF705F900287FF4EEAD202383F363
:104B30001188FBF7CDFD45212046FDF719FCB0FAA1
:104B400080F121204909FEF7F3F800287FF4DCAD5D
:104B500044212046FDF70CFCB0FA80F122204909DF
:104B6000FEF7E6F800287FF4CFAD43212046FDF79D
:104B7000FFFBB0FA80F123204909FEF7D9F800289D
:104B80007FF4C2AD42212046FDF7F2FBB0FA80F17E
:104B900024204909FEF7CCF800287FF4B5AD694C14
:104BA00041212046FDF7E4FB0546FBF7A9FD002364
:104BB00083F311882520B5FA85F14909FEF7B8F885
:104BC00000287FF4A1ADE168A368C3EB010CDCF120
:104BD000000141EB0C012620FEF7AAF800287FF423
:104BE00093AD0524202383F31188564DFBF770FD08
:104BF00001A92846FDF724FC0646FBF781FD0023AA
:104C000083F311882720B6FA86F14909FEF790F858
:104C100000287FF479AD9DF80400FEF771F8013C9F
:104C2000E0D128204849FEF79BF800287FF46CADBE
:104C3000202383F31188FBF74BFD696AA1F1050E70
:104C4000DEF1000141EB0E012920FEF771F800288A
:104C500071D1FBF755FD234683F31188202383F39D
:104C60001188FBF735FDA969B1FA81F12A204909BC
:104C7000FEF75EF800285ED1FBF742FD234683F382
:104C80001188E968AB68CF1A794279412B20FEF789
:104C90004FF800287FF438AD2846FDF799FA202315
:104CA00083F31188FBF714FD696A4E1F714271414D
:104CB0002C20FEF73DF800283DD1FBF721FD2346CF
:104CC00083F31188202383F31188FBF701FDA96981
:104CD000B1FA81F12D204909FEF72AF858BBFBF7FC
:104CE0000FFD234683F31188202383F31188FBF7FC
:104CF000EFFC2968AB68CA1A514251412E20FEF7D9
:104D000017F8C0B9FBF7FCFC234683F31188202376
:104D100083F31188FBF7DCFC2968EB68CB1A594256
:104D20004FF02F005941FEF703F8FBF7E9FC002391
:104D300083F31188E8E4FBF7E3FC234683F311884F
:104D4000E2E400BF340800209C9900080000000045
:104D5000024803490522FDF71BBA00BF34080020B2
:104D60007812002000000000000000000000000099
:104D700010B51D4C88B02046694601222460FCF71E
:104D80004FFF204604A90222FCF74AFF2168091BB5
:104D900018BF01210120FDF7CBFF08B108B010BDFD
:104DA00069462046FCF764FF2168091B18BF0121F2
:104DB0000220FDF7BDFF0028F0D104A92046FCF732
:104DC00057FF21680320091BB1FA81F14909FDF75A
:104DD000AFFF0028E2D105480721FDF721F804497B
:104DE0000420FDF7BDFFD9E75C080020809D000886
:104DF000209B0008000000000000000000000000F0
:104E00004320FDF77DBF00BF000000000000000050
:104E10004220FDF775BF00BF000000000000000049
:104E20004120FDF76DBF00BF000000000000000042
:104E30004FF0FF30FCF744BF00000000000000000E
:104E40004FF0FF30FCF73CBF000000000000000006
:104E50004FF0FF30FCF734BF0000000000000000FE
:104E60002DE9F04205208CB0FCF742FF4FF0FF30F7
:104E7000FDF706F8A0F101010120B1FA81F149091D
:104E8000FDF756FF10B10CB0BDE8F0824FF0FF30D7
:104E9000FCF7F6FFA0F104010220B1FA81F1490903
:104EA000FDF746FF0028EED14FF0FF30FCF708FF7A
:104EB000B0FA80F103204909FDF73AFF0028E2D15A
:104EC000704E714F714DFDF7E3FFB36970499A68F9
:104ED00009680093013A039108466E4BFC684FF451
:104EE000A871FBF775FF28604FF0FF30FCF7C8FF93
:104EF00004F13201814604F137020420FDF758FF26
:104F00000028C0D1A9F101010520B1FA81F14909B8
:104F1000FDF70EFF0028B6D14FF0FF30FCF7D0FEB2
:104F2000B0FA80F106204909FDF702FF0028AAD156
:104F3000FDF76EFF0520FCF7DBFE4FF0FF30FCF7BE
:104F4000C7FF441F614261410720FDF7F1FE0028C1
:104F500099D14FF0FF30FCF7B3FEB0FA80F1082092
:104F60004909FDF7E5FE00288DD1FDF791FFB169F4
:104F7000484B8A6803980091013A4FF4A871FC6885
:104F8000FBF726FF28604FF0FF30FCF7A1FF04F18C
:104F90003201814604F137020920FDF709FF00289C
:104FA0007FF471AF09F1FF30414241410A20FDF722
:104FB000BFFE00287FF467AF4FF0FF30FCF780FEA4
:104FC000B0FA80F10B204909FDF7B2FE00287FF40A
:104FD0005AAFDFF8D090304CFDF71AFF484604A9CD
:104FE0000122C9F800902460FCF71AFE08A90422E7
:104FF0002046FCF715FEFDF74BFFB36927499A6879
:1050000003980091013A4FF4A871254BFE68FBF715
:10501000DFFE28600520FCF77BFF06F1320106F178
:1050200037020C20FDF7C4FE00287FF42CAF4FF0B0
:10503000FF30FCF745FEB0FA80F10D204909FDF77D
:1050400077FE00287FF41FAFFDF7E2FE484604A973
:10505000FCF70EFE204608A9FCF70AFED9F800105E
:10506000C9EB0102514251410E20FDF761FE0028BB
:105070007FF409AF21680B1B594259410F20FDF7FE
:1050800057FE00E734120020241200202C190020C3
:1050900000970008E1500008600800209899000877
:1050A000B15000085C080020000000000000000073
:1050B00008B500210548FCF79BFE3220FBF720FFD6
:1050C00003480021FCF794FE002008BD5C08002086
:1050D0006008002000000000000000000000000048
:1050E00010B504463220FBF70BFF20460121FCF7E8
:1050F0005FFE002010BD00BF0000000000000000A7
:1051000008B500214FF0FF30FCF722FFB0FA80F124
:1051100001204909FDF70CFE00B108BD01464FF022
:10512000FF30FCF74DFFB0FA80F102204909FDF78E
:10513000FFFD0028F1D101464FF0FF30FCF778FF6A
:10514000B0FA80F103204909FDF7F2FD0028E4D10F
:105150000A214FF0FF30FCF7FBFEB0FA80F104208B
:105160004909FDF7E5FD0028D7D10A214FF0FF30AE
:10517000FCF726FFB0FA80F105204909FDF7D8FDBC
:105180000028CAD10A214FF0FF30FCF751FFBDE8DB
:105190000840B0FA80F106204909FDF7C9BD00BFFB
:1051A00070B582B0FDF794FB01A90020FDF778FCF3
:1051B00010210020FDF7CCFB011C054618BF012182
:1051C0000120FDF7B5FD044608B102B070BD2846C8
:1051D000FDF7FEFB6FF0FF012046FDF7B9FBB0FACB
:1051E00080F102204909FDF7A3FD0028EDD101A9B6
:1051F0007B48FDF755FC10217948FDF7A9FB1021EC
:1052000006467748FDF7A4FB102105467448FDF7D4
:105210009FFB04463046FDF7DBFB2846FDF7D8FB35
:105220002046FDF7D5FB69466D48FDF739FCA0F136
:1052300001010320B1FA81F14909FDF779FD002848
:10524000C3D110216648FDF783FB10210446644852
:10525000FDF77EFB102105466148FDF779FBFDF760
:10526000B7FB2846FDF7B4FB2046FDF7B1FB6946C6
:105270005B48FDF715FCA0F101010420B1FA81F1B2
:105280004909FDF755FD00289FD111215448FDF72C
:105290005FFB102104465248FDF75AFB05462046A5
:1052A000FDF796FB69464E48FDF7FAFBA0F10201B7
:1052B0000520B1FA81F14909FDF73AFD002884D1B2
:1052C00010214748FDF744FB694604464448FDF772
:1052D000E7FB012800F0818069464148FDF7E0FBCB
:1052E000A0F10201B1FA81F149090620FDF720FD84
:1052F00000287FF46AAF2846FDF76AFB2046FDF7D9
:1053000067FB69463648FDF7CBFB461E714271418B
:105310000720FDF70DFD00287FF457AF102130481E
:10532000FDF716FB102105462D48FDF711FB04463D
:105330002846FDF74DFB69462948FDF7B1FB851E60
:10534000694269410820FDF7F3FC00287FF43DAF76
:1053500020212348FDF7FCFAFDF73AFB2046FDF734
:1053600037FB69461E48FDF79BFB0138414241412E
:105370000920FDF7DDFC00287FF427AF69461848B7
:10538000FDF78EFB00991648FDF7E2FA69460446E0
:105390001348FDF785FBB0FA80F10A204909FDF7B3
:1053A000C7FC00287FF411AF2046FDF711FB6946CA
:1053B0000B48FDF775FB421E514251410B20FDF792
:1053C000B7FC00287FF401AF9DE80A00CB1A5942D0
:1053D00059410C20FDF7ACFCF7E6014685E700BF1C
:1053E000581900200000000000000000000000002C
:1053F000024803494FF4D262FDF78ABA58190020D7
:1054000078120020000000000000000000000000F2
:1054100000207047000000000000000000000000B5
:1054200002484FF4A8710022FDF75ABB640800201F
:1054300038B52B4B2B481D6805222946FDF7C0FBCC
:1054400005242848FDF774FB011C18BF0121012029
:10545000FDF76EFC90BB013CF3D12248FDF768FBE1
:10546000B0FA80F102204909FDF762FC30BB1C4C08
:105470001C48294604F11005FDF78AFBAC4206D012
:1054800054F8041F1748FDF783FBAC42F8D10524FC
:105490001448FDF74DFB011C18BF01210320FDF747
:1054A00047FC58B9013CF3D10E48FDF741FBB0FA77
:1054B00080F104204909FDF73BFC00B138BD102103
:1054C0000848094AFDF70CFB0648FDF731FBBDE82B
:1054D0003840B0FA80F105204909FDF729BC00BF2A
:1054E0000097000864080020115400080000000024
:1054F00070B5344B34489B69344C9D6884B003A923
:10550000FDF7CEFA324B00936A1E324B2E484FF411
:10551000A871FBF715FE304B2060AA1E00934FF4D4
:10552000A8712C4B2848FBF70BFE02A960602648A7
:10553000FDF7B6FA02992448FDF70AFA274B0093C3
:105540004FF4A8710646EA1E224B1F48FBF7F8FDF0
:10555000A0603046FDF73CFA216821B1616811B1C5
:10556000A16831B300210120FDF7E2FB08B104B0CE
:1055700070BDFDF74DFC02201949FDF7F1FB002835
:10558000F5D102A91048FDF78BFAA0F10101032023
:10559000B1FA81F14909FDF7CBFB0028E7D1029967
:1055A000039B0420C91AB1FA81F14909FDF7C0FB38
:1055B000DDE7E368002BD6D12169B1FA81F1490911
:1055C000D1E700BF34120020881900202C190020D8
:1055D00098990008F15500089499000890990008DE
:1055E000609E0008000000000000000000000000B5
:1055F00008B50078FDF784FB002008BD000000001E
:10560000024803494FF4D262FDF782B9881900209D
:1056100078120020000000000000000000000000E0
:10562000024803494FF4D262FDF772B9881900208D
:1056300078120020000000000000000000000000C0
:10564000314B9B6970B5314C9D6804F1100654F8DC
:10565000041B2F48FDF79CFAB442F8D12D4A2E4B7B
:105660002B482E4C691EFBF7A3FDA91E2060294A7A
:105670002B4B2748FBF79CFDE91E6060254A294B10
:105680002348FBF795FD291FA060224A264B20489E
:10569000FBF78EFD691FE0601E4A1D48234BFBF798
:1056A00087FD2168206141B1616831B1A16821B1F4
:1056B000E16811B1B0FA80F149090120FDF738FB2A
:1056C00000B170BDFDF7A4FB02201949FDF748FBAE
:1056D0000028F6D104240E48FDF72AFA011C18BF51
:1056E00001210320FDF724FB0028EAD1013CF2D17F
:1056F0000748FDF71DFABDE87040B0FA80F10420BC
:105700004909FDF715BB00BF3412002000970008BF
:1057100078190020F1550008989900082C190020EC
:1057200094990008909900085CAA0008A0990008C4
:10573000649E00080000000000000000000000005F
:1057400002484FF4A8710022FDF7CAB97819002069
:1057500038B50546FBF76CFD002403461846AB42FE
:1057600008BF44F00104FBF77BFD03460028F5D198
:10577000204638BD000000000000000000000000CE
:1057800010B54A4B4A499B694A489A684A4B82B0CD
:10579000013A00914FF4A871FBF7D2FC04460120B6
:1057A00094F82210091AB1FA81F14909FDF7C0FAFB
:1057B00008B102B010BD2046FBF762FC94F822103D
:1057C0000220091AB1FA81F14909FDF7B1FA00285E
:1057D000EFD12046FBF774FC94F822100320A1F1CE
:1057E0000101B1FA81F14909FDF7A2FA0028E0D1DF
:1057F0002046FFF7ADFF01460420FDF799FA002887
:10580000D7D12046FFF7A4FF01460520FDF790FA07
:105810000028CED12046FBF753FC94F82210B1FAB1
:1058200081F106204909FDF783FA0028C1D194F8D7
:105830002010B1FA81F107204909FDF779FA002813
:10584000B7D12046FFF784FF01460820FDF770FA24
:105850000028AED12046FFF77BFF01460920FDF767
:1058600067FA0028A5D13220FBF74AFB94F82010F4
:10587000A1F10E03594259410A20FDF759FA0028B7
:1058800097D12046FFF764FF01460B20FDF750FA41
:1058900000288ED12046FFF75BFF80F00101C9B2DE
:1058A0000C2002B0BDE81040FDF742BA34120020CF
:1058B0009899000888190020F155000800000000A0
:1058C000704700BF00000000000000000000000062
:1058D00008B5C8210248FCF74BFE002008BD00BFF8
:1058E00094080020000000000000000000000000FC
:1058F00000B5064B06481968064B83B0002200929B
:105900000422FCF7DDFD03B05DF804FB00970008FE
:1059100094080020C15800080000000000000000AA
:1059200008B50021C8220248FCF7D2FE002008BDBD
:1059300070080020000000000000000000000000CF
:1059400000B5064B06481968064B83B0002200924A
:105950000422FCF78DFE03B05DF804FB00970008FD
:1059600070080020C158000800000000000000007E
:10597000F0B5202383B083F31188FAF7A9FEB74B63
:1059800001209968B1FA81F14909FDF7D1F906467C
:10599000002840F04981FAF7B3FE334683F31188BB
:1059A000202383F31188FAF793FE4124AB4D21465F
:1059B00001342846E4B2FCF7ABFD452CF6D1FAF7EA
:1059C0009FFE002383F31188202383F31188FAF7C5
:1059D0007FFE6A69AB699A4200F034813146022049
:1059E000FDF7A6F90446002840F01E81FAF788FE6C
:1059F000234683F31188202383F31188FAF768FE86
:105A000021469648FCF784FD043014BF0021012193
:105A10000320FDF78DF90546002840F00C81FAF7C8
:105A20006FFE2B4683F3118804248C4D4FF0FF3119
:105A30002846FCF79DFDC0B2FDF762F9013CF4D1A8
:105A4000202383F31188FAF743FEA968B1FA81F1A4
:105A500004204909FDF76CF9002840F0EC80FAF7C2
:105A60004FFE234683F3118805207D49FDF778F921
:105A7000002840F0DE80202383F31188FAF728FE07
:105A80004124764D214601342846E4B2FCF740FD1E
:105A9000452CF6D1FAF734FE002383F31188714EBA
:105AA000082271682846FCF79BFDA0F1040106203E
:105AB000B1FA81F14909FDF73BF90446002840F0AD
:105AC000B880202383F31188FAF702FEA968B1FA9F
:105AD00081F107204909FDF72BF90546002840F020
