:020000040800F2
:100000000004002021130008211400082114000816
:1000100021140008211400082114000821140008EC
:1000200021140008211400082114000851140008AC
:1000300021140008211400082114000821150008CB
:1000400021140008211400082114000821140008BC
:1000500021140008211400082114000821140008AC
:10006000211400082114000821140008213300087D
:100070005133000891330008D133000811340008CF
:100080004134000881340008B13A00082114000806
:10009000211400082114000821140008211400086C
:1000A000211400082114000821140008211400085C
:1000B00021140008E14A0008014B0008211400083F
:1000C000211400082114000821140008211400083C
:1000D00021140008E14C0008211400082114000834
:1000E000211400082114000821140008211400081C
:1000F000211400082114000821140008C13400084C
:1001000021140008211400082114000821140008FB
:1001100021140008211400082114000821140008EB
:10012000013500083135000871350008B135000887
:10013000F1350008211400082114000821140008DA
:10014000211400082114000821140008A148000807
:100150002136000861360008A13600082114000885
:10016000211400082114000821140008211400089B
:10017000211400082114000821140008211400088B
:10018000211400082114000821140008211400087B
:10019000211400082114000821140008211400086B
:0C01A0002114000821140008211400089C
:1001B00010B582B002F04CF901F032FA04F0B8FE4A
:1001C00043480121032203F013FE41480221032288
:1001D00003F00EFE3E480421032203F009FE3C48D2
:1001E0000821032203F004FE39481021032203F002
:1001F000FFFD03223648202103F0FAFD3548002197
:1002000002F06EF93448354902F002FA34483349B5
:1002100002F0FEF9334820214FF4817203F0E8FD2B
:10022000304840214FF4817203F0E2FD2D488021D7
:100230004FF4817203F0DCFD2A484FF480714FF4D3
:10024000817203F0D5FD27484FF400714FF481729D
:1002500003F0CEFD22480121002202F001FA002124
:100260000A461D4802F0FCF91B480121002202F059
:10027000F7F9002418480221002202F0F1F916488B
:100280000321224602F0ECF9174B00944FF4A871B9
:100290000222164801F0CCFD154B00944FF49A61F0
:1002A0007F22144801F0C4FD134B00944FF49A616F
:1002B0004022124801F0BCFD00941148114B4FF44C
:1002C0008871022201F0B4FD0A2001F0E9FDFBE78C
:1002D00000080240D8160020F81800200C08002062
:1002E000E418002000040240B14F00083022002032
:1002F000F1520008581C0020A153000830240020AF
:1003000000290020814F00080000000000000000CC
:10031000844641EA000313F003036DD1403A41D310
:1003200051F8043B40F8043B51F8043B40F8043BCF
:1003300051F8043B40F8043B51F8043B40F8043BBF
:1003400051F8043B40F8043B51F8043B40F8043BAF
:1003500051F8043B40F8043B51F8043B40F8043B9F
:1003600051F8043B40F8043B51F8043B40F8043B8F
:1003700051F8043B40F8043B51F8043B40F8043B7F
:1003800051F8043B40F8043B51F8043B40F8043B6F
:1003900051F8043B40F8043B51F8043B40F8043B5F
:1003A000403ABDD2303211D351F8043B40F8043BFF
:1003B00051F8043B40F8043B51F8043B40F8043B3F
:1003C00051F8043B40F8043B103AEDD20C3205D30F
:1003D00051F8043B40F8043B043AF9D2043208D007
:1003E000D2071CBF11F8013B00F8013B01D30B8879
:1003F00003806046704700BF082A13D38B078DD057
:1004000010F003038AD0C3F10403D21ADB071CBF28
:1004100011F8013B00F8013B80D331F8023B20F892
:10042000023B7BE7043AD9D3013A11F8013B00F8CB
:10043000013BF9D20B7803704B7843708B78837053
:10044000604670470000000000000000000000004F
:1004500081F0004102E000BF83F0004330B54FEA75
:1004600041044FEA430594EA050F08BF90EA020FE2
:100470001FBF54EA000C55EA020C7FEA645C7FEA75
:10048000655C00F0E2804FEA5454D4EB5555B8BF98
:100490006D420CDD2C4480EA020281EA030382EA09
:1004A000000083EA010180EA020281EA0303362D9B
:1004B00088BF30BD11F0004F4FEA01314FF4801C6E
:1004C0004CEA113102D0404261EB410113F0004F80
:1004D0004FEA03334CEA133302D0524263EB430337
:1004E00094EA050F00F0A780A4F10104D5F1200ED5
:1004F0000DDB02FA0EFC22FA05F2801841F1000130
:1005000003FA0EF2801843FA05F359410EE0A5F103
:1005100020050EF1200E012A03FA0EFC28BF4CF034
:10052000020C43FA05F3C01851EBE37101F00045EA
:1005300007D54FF0000EDCF1000C7EEB00006EEBF7
:100540000101B1F5801F1BD3B1F5001F0CD3490881
:100550005FEA30004FEA3C0C04F101044FEA4452D8
:1005600012F5800F80F09A80BCF1004F08BF5FEA5F
:10057000500C50F1000041EB045141EA050130BD3F
:100580005FEA4C0C404141EB010111F4801FA4F1E2
:100590000104E9D191F0000F04BF01460020B1FA37
:1005A00081F308BF2033A3F10B03B3F120020CDA6F
:1005B0000C3208DD02F1140CC2F10C0201FA0CF04D
:1005C00021FA02F10CE002F11402D8BFC2F1200CB2
:1005D00001FA02F120FA0CFCDCBF41EA0C01904068
:1005E000E41AA2BF01EB0451294330BD6FEA0404B1
:1005F0001F3C1CDA0C340EDC04F11404C4F120029C
:1006000020FA04F001FA02F340EA030021FA04F3AD
:1006100045EA030130BDC4F10C04C4F1200220FA04
:1006200002F001FA04F340EA0300294630BD21FA42
:1006300004F0294630BD94F0000F83F4801306BF08
:1006400081F480110134013D4EE77FEA645C18BFFC
:100650007FEA655C29D094EA050F08BF90EA020F93
:1006600005D054EA000C04BF1946104630BD91EA8B
:10067000030F1EBF0021002030BD5FEA545C05D18E
:100680004000494128BF41F0004130BD14F58004CD
:100690003CBF01F5801130BD01F0004545F0FE4141
:1006A00041F470014FF0000030BD7FEA645C1ABF76
:1006B000194610467FEA655C1CBF0B46024650EAAD
:1006C000013406BF52EA033591EA030F41F40021D9
:1006D00030BD00BF90F0000F04BF0021704730B55F
:1006E0004FF4806404F132044FF000054FF0000134
:1006F00050E700BF90F0000F04BF0021704730B5F5
:100700004FF4806404F1320410F0004548BF4042C9
:100710004FF000013EE700BF42004FEAE2014FEA1E
:1007200031014FEA02701FBF12F07F4393F07F4FF9
:1007300081F06051704792F0000F14BF93F07F4F2B
:10074000704730B54FF4607401F0004521F000416E
:1007500020E700BF50EA010208BF704730B54FF0F4
:1007600000050AE050EA010208BF704730B511F0F9
:10077000004502D5404261EB41014FF4806404F131
:1007800032045FEA915C3FF4DCAE4FF003025FEAB3
:10079000DC0C18BF03325FEADC0C18BF033202EB3B
:1007A000DC02C2F1200300FA03FC20FA02F001FA95
:1007B00003FE40EA0E0021FA02F11444C1E600BF34
:1007C00070B54FF0FF0C4CF4E06C1CEA11541DBFE7
:1007D0001CEA135594EA0C0F95EA0C0F00F0DEF8B2
:1007E0002C4481EA030621EA4C5123EA4C5350EA97
:1007F000013518BF52EA033541F4801143F48013E8
:1008000038D0A0FB02CE4FF00005E1FB02E506F078
:100810000042E0FB03E54FF00006E1FB03569CF0CD
:10082000000F18BF4EF0010EA4F1FF04B6F5007FD3
:1008300064F5407404D25FEA4E0E6D4146EB060645
:1008400042EAC62141EA55514FEAC52040EA5E50CE
:100850004FEACE2EB4F1FD0C88BFBCF5E06F1ED878
:10086000BEF1004F08BF5FEA500E50F1000041EBAF
:10087000045170BD06F0004646EA010140EA02005C
:1008800081EA0301B4EB5C04C2BFD4EB0C0541EA7E
:10089000045170BD41F480114FF0000E013C00F393
:1008A000AB8014F1360FDEBF002001F0004170BDB7
:1008B000C4F10004203C35DA0C341BDC04F11404D0
:1008C000C4F1200500FA05F320FA04F001FA05F25C
:1008D00040EA020001F0004221F0004110EBD37029
:1008E00021FA04F642EB06015EEA430E08BF20EA55
:1008F000D37070BDC4F10C04C4F1200500FA04F3F8
:1009000020FA05F001FA04F240EA020001F0004189
:1009100010EBD37041F100015EEA430E08BF20EAFC
:10092000D37070BDC4F1200500FA05F24EEA020E44
:1009300020FA04F301FA05F243EA020321FA04F073
:1009400001F0004121FA04F220EA020000EBD3702A
:100950005EEA430E08BF20EAD37070BD94F0000F2A
:100960000FD101F00046400041EB010111F4801F5E
:1009700008BF013CF7D041EA060195F0000F18BF0F
:10098000704703F00046520043EB030313F4801F4B
:1009900008BF013DF7D043EA0603704794EA0C0F05
:1009A0000CEA135518BF95EA0C0F0CD050EA41061B
:1009B00018BF52EA4306D1D181EA030101F0004198
:1009C0004FF0000070BD50EA410606BF10461946C0
:1009D00052EA430619D094EA0C0F02D150EA0136CC
:1009E00013D195EA0C0F05D152EA03361CBF10460D
:1009F00019460AD181EA030101F0004141F0FE41AC
:100A000041F470014FF0000070BD41F0FE4141F42F
:100A1000780170BD70B54FF0FF0C4CF4E06C1CEA2F
:100A200011541DBF1CEA135594EA0C0F95EA0C0FE4
:100A300000F0A7F8A4EB050481EA030E52EA03359F
:100A40004FEA013100F088804FEA03334FF08055C0
:100A500045EA131343EA12634FEA022245EA1115ED
:100A600045EA10654FEA00260EF000419D4208BF9E
:100A7000964244F1FD0404F5407402D25B084FEA4B
:100A80003202B61A65EB03055B084FEA32024FF4F7
:100A900080104FF4002CB6EB020E75EB030E22BF54
:100AA000B61A754640EA0C005B084FEA3202B6EB14
:100AB000020E75EB030E22BFB61A754640EA5C00C3
:100AC0005B084FEA3202B6EB020E75EB030E22BF53
:100AD000B61A754640EA9C005B084FEA3202B6EB54
:100AE000020E75EB030E22BFB61A754640EADC0013
:100AF00055EA060E18D04FEA051545EA16754FEA75
:100B000006164FEAC30343EA52734FEAC2025FEA92
:100B10001C1CC0D111F4801F0BD141EA00014FF021
:100B200000004FF0004CB6E711F4801F04BF0143F2
:100B30000020B4F1FD0C88BFBCF5E06F3FF6AFAE0E
:100B4000B5EB030C04BFB6EB020C5FEA500C50F19E
:100B5000000041EB045170BD0EF0004E4EEA113121
:100B600014EB5C04C2BFD4EB0C0541EA045170BD28
:100B700041F480114FF0000E013C90E645EA060E6C
:100B80008DE60CEA135594EA0C0F08BF95EA0C0F9A
:100B90003FF43BAF94EA0C0F0AD150EA01347FF4E2
:100BA00034AF95EA0C0F7FF425AF104619462CE7B9
:100BB00095EA0C0F06D152EA03353FF4FDAE10461C
:100BC000194622E750EA410618BF52EA43067FF46D
:100BD000C5AE50EA41047FF40DAF52EA43057FF4FD
:100BE000EBAE12E700000000000000000000000073
:100BF0004FF0FF3C06E000BF4FF0010C02E000BFE9
:100C00004FF0010C4DF804CD4FEA410C7FEA6C5CCB
:100C10004FEA430C18BF7FEA6C5C1BD001B050EA6E
:100C2000410C0CBF52EA430C91EA030F02BF90EA59
:100C3000020F0020704710F1000F91EA030F58BF18
:100C4000994208BF90422CBFD8176FEAE37040F07A
:100C5000010070474FEA410C7FEA6C5C02D150EA18
:100C6000013C07D14FEA430C7FEA6C5CD6D152EAD3
:100C7000033CD3D05DF8040B704700BF8446104698
:100C800062468C461946634600E000BF01B5FFF797
:100C9000B7FF002848BF10F1000F01BD4DF808ED67
:100CA000FFF7F4FF0CBF012000205DF808FB00BF38
:100CB0004DF808EDFFF7EAFF34BF012000205DF892
:100CC00008FB00BF4DF808EDFFF7E0FF94BF0120DF
:100CD00000205DF808FB00BF4DF808EDFFF7CEFFE0
:100CE00094BF012000205DF808FB00BF4DF808ED1F
:100CF000FFF7C4FF34BF012000205DF808FB00BFF0
:100D00004FEA410212F5001215D211D56FF4787333
:100D1000B3EB625212D94FEAC12343F0004343EAD6
:100D2000505311F0004F23FA02F018BF40427047B1
:100D30004FF00000704750EA013005D111F000403B
:100D400008BF6FF0004070474FF00000704700BFD1
:100D500053B94AB9002908BF00281CBF4FF0FF3122
:100D60004FF0FF3000F03CB882B0EC462DE9005067
:100D700000F01EF8DDF804E002B00CBC704700BFC4
:100D80002DE9F041069C154606460F46984600F0B0
:100D90002FF805FB01F300FB0838A5FB0023B21A6E
:100DA000434467EB0303C4E90023BDE8F08100BFBF
:100DB0002DE9F041069C904606460F461D4600F080
:100DC00067F900FB05F5A0FB082308FB0155B21AE3
:100DD0002B4467EB0303C4E90023BDE8F08100BFA7
:100DE000704700BF0000000000000000000000008D
:100DF00000292DE9F043C0F2A6800026002BC0F2A6
:100E00009C80884694469E46154604460F46002B15
:100E10003DD18A4259D9B2FA82F33BB1C3F12002E3
:100E20009F4020FA02F29D4017439C40290C220C5F
:100E3000B7FBF1FEA8B201FB1E7742EA074700FBB1
:100E40000EF3BB420AD97F190EF1FF3280F0058103
:100E5000BB4240F20281AEF1020E2F44FF1AA4B24F
:100E6000B7FBF1F301FB137744EA074700FB03F0FC
:100E7000B84208D97F1903F1FF3280F0F080B84200
:100E800040F2ED80023B43EA0E43002203E08B4236
:100E90000FD900221346341C18BF012460424FF0C2
:100EA000000565EB45015840514000196941BDE816
:100EB000F083B3FA83F2002A40F086808B4202D39B
:100EC000844500F2DB800123E5E712B90123B3FB7F
:100ED000F2F5B5FA85F000283BD1781B4FEA154EA4
:100EE0001FFA85FC0122B0FBFEF8210C0EFB18074F
:100EF00041EA07470CFB08F3BB4207D97F1908F109
:100F0000FF3102D2BB4200F2BD808846FF1AA4B274
:100F1000B7FBFEF30EFB137744EA07470CFB03FC19
:100F2000BC4507D97F1903F1FF3102D2BC4500F25D
:100F3000A7800B4643EA0843ADE752426FEA060634
:100F400063EB43035DE7404261EB41014FF0FF3645
:100F500054E7C0F1200224FA02F107FA00F38540B9
:100F60004FEA154ED7401943B7FBFEF20B0C0EFBB0
:100F700012771FFA85FC43EA07430CFB02F79F42F6
:100F800004FA00F407D95B1902F1FF3074D29F42D2
:100F900072D9023A2B44DF1B89B2B7FBFEF80EFB75
:100FA000187341EA03430CFB08F79F4208D95B1909
:100FB00008F1FF315CD29F425AD9A8F102082B44B4
:100FC000D81B48EA02428EE7C2F120032CFA03F153
:100FD0000EFA02FE20FA03F741EA0E0E08FA02F0BA
:100FE00028FA03F14FEA1E453843B1FBF5F8030C2C
:100FF00005FB18111FFA8EF743EA014107FB08F3BE
:101000008B420CFA02FC09D911EB0E0108F1FF39F1
:1010100030D28B422ED9A8F102087144C91A80B28D
:10102000B1FBF5F305FB131140EA014107FB03F7A0
:101030008F4208D911EB0E0103F1FF3016D28F4217
:1010400014D9023B714443EA0843C91BA3FB0C8932
:10105000494509D305D000221DE79646FEE6134612
:1010600011E794404445F6D2013BF4E70346EAE732
:101070008846A5E7C846D1E702468CE713460AE74B
:10108000023B57E7A8F102082F443FE700000000A9
:101090002DE9F041002B44D18A42154604464FD930
:1010A000B2FA82F70E464FB1C7F12003B94020FAD9
:1010B00003F602FA07F50E4300FA07F44FEA154E5D
:1010C000230CB6FBFEF0AFB20EFB106143EA014306
:1010D00007FB00F1994209D95B1900F1FF3280F05A
:1010E000EC80994240F2E98002382B445A1AA4B2AB
:1010F000B2FBFEF30EFB132244EA024207FB03F7A6
:10110000974208D9521903F1FF3180F0D8809742F5
:1011100040F2D580023B43EA004000263146BDE85C
:10112000F0818B4247D8B3FA83F6002E48D18B4228
:1011300002D3824200F2CD8001203146BDE8F08129
:1011400012B90125B5FBF2F5B5FA85F8B8F1000F33
:1011500077D14A1B4FEA154EAFB20126B2FBFEF023
:10116000230C0EFB102143EA014107FB00F38B42E5
:1011700007D9491900F1FF3202D28B4200F2BA803E
:101180001046C91AA4B2B1FBFEF30EFB131144EAD8
:10119000014407FB03F7A74208D9641903F1FF32A2
:1011A00080F08F80A74240F28C80023B43EA0040EF
:1011B0003146BDE8F081002630463146BDE8F08179
:1011C000C6F1200422FA04F5B3402B4320FA04FCB4
:1011D00001FA06F721FA04F54FEA134E4CEA070725
:1011E000B5FBFEF8390C0EFB18551FFA83FC41EADB
:1011F00005450CFB08F1A94202FA06F204D9ED18E4
:1012000008F1FF3467D3A0466D1ABFB2B5FBFEF4F8
:101210000EFB145547EA05410CFB04FC8C4504D930
:10122000C91804F1FF355CD32C4644EA0844CCEBE2
:101230000101A4FB0223994248D344D02046002652
:101240006CE7C8F1200401FA08F305FA08F520FA62
:1012500004F7E1404FEA154E1F43B1FBFEF63A0C8E
:101260000EFB16111FFA85FC42EA01430CFB06F245
:101270009A4200FA08F407D95B1906F1FF3137D218
:101280009A4235D9023E2B449B1ABFB2B3FBFEF003
:101290000EFB103347EA03430CFB00F1994207D9D8
:1012A0005B1900F1FF3221D299421FD902382B4439
:1012B0005A1A40EA0646674650E7104616E70B46BC
:1012C00029E7134672E7B0409042B7D2601E00266D
:1012D00024E7304622E7A94295D9A8F102081D4427
:1012E00092E78C45A0D9023C19449EE71046DFE7FF
:1012F0000E46C9E70238294443E700BF000000005A
:10130000704700BF00000000000000000000000067
:10131000FEE700BF00000000000000000000000029
:1013200072B6314880F30988022383F31488BFF32F
:101330006F8F2E4B2E4A93420BD2D9430A4422F090
:10134000030204321A444FF0553143F8041B934210
:10135000FBD1284B83420CD2274A191D521A22F086
:10136000030204321A444FF0553143F8041B9342F0
:10137000FBD103F065FD214A214B9A420CD2D043A8
:10138000184420F003001F4B0430184453F8041B8A
:1013900042F8041B8342F9D11B4B1C4A93420AD2E8
:1013A000D9430A4422F0030204321A44002143F8CC
:1013B000041B9342FBD1164D164CFFF7A1FFAC4224
:1013C00004D254F8043B9847AC42FAD3124D134C64
:1013D000FEF7EEFEAC4204D254F8043B9847AC4210
:1013E000FAD3FFF795FF00BF00080020000000209F
:1013F0000004002000040020030800200008002052
:10140000B8100020B0A70008B8100020442A00201F
:10141000AC010008AC010008AC010008AC010008F8
:10142000FEE700BF00000000000000000000000018
:1014300072B6FEE70000000000000000000000009F
:1014400000F076F900F054FC00F08AF900DF00BFEC
:10145000EFF30983203383F30988002383F3118892
:10146000704700BF00000000000000000000000006
:1014700008B5094B094A002199600720DA6010215C
:1014800000F0A6F80A20202100F0A2F80B2080210D
:10149000BDE8084000F09CB800ED00E00003FA054C
:1014A000202383F31188184B5B6813F400631AD070
:1014B000EFF309834FF0807243F8042CA3F120026C
:1014C00082F3098811498A6992F8230070B108688B
:1014D000916882688A4294BF002201227AB10C4A44
:1014E00043F8082C704783F31188704708689168A7
:1014F00082688A4234BF00220122002AEFD1054AC5
:1015000043F8082C704700BF00ED00E00C160020E7
:10151000411400084C140008000000000000000006
:1015200008B500F075F9202383F3118800F038F92D
:1015300000F0AEF800F04CF9002383F3118800F0BE
:1015400087F9BDE80840FFF7ABBF00BF000000000F
:101550002DE9F04FC1F80CD0D0F80CD0BDE8F08FD9
:1015600008B500F0FDF8002383F311882846A04752
:1015700000F0D6FC08BD00BF000000000000000025
:1015800020F0030202F1604202F5614270B44309A7
:1015900000F00304D2F80053E400FF269B00A640AD
:1015A00003F16043A14025EA060503F561430124E8
:1015B00000F01F0004FA00F02943C2F8001370BCC9
:1015C000C3F88001186070470000000000000000B0
:1015D00020F0030303F1604303F56D4300F00300C3
:1015E00010B4C0009A69FF24844022EA04028140BA
:1015F000114399615DF8044B704700BF0000000083
:10160000024B034A9B699A61FEE700BF0C1600205B
:1016100070970008000000000000000000000000BB
:1016200030B583B0FFF724FF00F002FA00F098F91C
:1016300000F0B6FE00F0FCFE00F05AF940210E4822
:101640000E4D00F065FB01240D4BC36180F8204076
:10165000A86100F055F8002383F3118862B6AA69E7
:1016600008499161084800932246084BE02100F0A8
:10167000DFFB03B030BD00BFB81000200C16002007
:1016800000040020F098000808110020011600084E
:10169000F8B500F0FDF8164B9B6993F8232012B1C2
:1016A000013A83F823205A6A124D01325A62EB68DC
:1016B0002C680133AC42EB6018D0A768013FA760EB
:1016C000A7B92368E668E7605D602B6000F080F8EA
:1016D000002383F311882069B047202383F3118806
:1016E00000F05EF82C68A368002BEAD0F8BD00BFBC
:1016F0000C160020FC150020000000000000000077
:10170000054B1B6813B9054B1B6823B1044B054AF5
:101710001A60FFF78DBE7047E8110020F415002015
:10172000F81500209097000800000000000000005D
:10173000074B1B6810B5074C0BB9236823B1064B48
:10174000064A1A60FFF774FE0123236010BD00BF34
:10175000E8110020F4150020F815002098970008E3
:10176000094B1B6810B5094C2BB92368002B02DD0F
:101770000023236010BD064B064A1A60FFF758FE8F
:101780000023236010BD00BFE8110020F4150020E5
:10179000F8150020A09700080000000000000000DD
:1017A000074B1B68002B10B5064C01DD236823B1E5
:1017B000054B064A1A60FFF73BFE0123236010BD6C
:1017C000E8110020F4150020F8150020A897000863
:1017D000094B1B68002B10B5084C05DD2368002B56
:1017E00002DD0023236010BD054B064A1A60FFF797
:1017F0001FFE0023236010BDE8110020F415002017
:10180000F8150020B097000800000000000000005C
:1018100010B5202383F31188094C2368002B02DBC9
:10182000084A12682AB1084B084A1A60FFF700FEFE
:10183000236801332360002383F3118810BD00BFA8
:10184000E8110020F4150020F8150020B8970008D2
:1018500010B5202383F31188094C2368002B02DD87
:10186000084A12682AB1084B084A1A60FFF7E0FDDF
:101870002368013B2360002383F3118810BD00BF60
:10188000E8110020F4150020F8150020C09700088A
:10189000064B1B68002B04DB054B1B68002B00DD8F
:1018A0007047044B044A1A60FFF7C2BDE8110020DC
:1018B000F4150020F8150020C8970008000000006B
:1018C000064B1B6823B9064B1B68002B00DD7047D5
:1018D000044B054A1A60FFF7ABBD00BFE8110020BA
:1018E000F4150020F8150020D09700080000000033
:1018F000034A1346402143F8081B5360704700BF5A
:10190000EC110020000000000000000000000000BA
:101910000C4A0D495368896910B40C4CE4681C608A
:101920005960816A996090F820101973103302F59C
:1019300081618B4228BF02F1080353605DF8044BBC
:10194000704700BFEC1100200C160020FC15002091
:10195000014B1860FFF76CBDF81500200000000077
:10196000044B4FF0FF3100225B601B609960DA602E
:10197000704700BFFC1500200000000000000000C0
:10198000F8B505460C4616461F46FFF781FFCDB158
:10199000C6B1BCB10D492F610B68EE609A689442E4
:1019A00004D91B68A41A9A68A242FAD35A686A60DA
:1019B0008B422B605D601560AC6002D09968091B9A
:1019C0009960F8BD0248FFF7C3FFE3E7FC1500206C
:1019D000E097000800000000000000000000000088
:1019E00010B50446FFF754FF84B1E36893B1236850
:1019F0000A4A934203D09968A2680A449A606268CE
:101A00001360216800234A60E36010BD0448FFF7BB
:101A10009FFFEAE70348FFF79BFFE8E7FC1500207C
:101A2000F097000800980008000000000000000087
:101A3000034B00225B601B605B611B619A60704717
:101A40000C16002000000000000000000000000054
:101A500010B50446FFF71CFF94F820308BB10E2B15
:101A60000FD00022A168094B84F820201B689A68D7
:101A70008A42FBD25A686260236020465C60146030
:101A800010BD0348FFF764FFEBE700BF0C16002012
:101A90002098000800000000000000000000000086
:101AA00010B52023044683F31188FFF779FE94F8DC
:101AB00020300D2B11D8DFE803F016101007100BA3
:101AC000101010101010100BA26A9368013393606D
:101AD00094E80C001A60226853604FF0FF33A36251
:101AE0002046FFF7B5FFFFF773FE002383F311884D
:101AF00010BD00BF0000000000000000000000005A
:101B000070B5114C0646FFF7DBFE2368A5691A681D
:101B100085F820601420012185F8230054602846B0
:101B200083F820102260A361FFF7F2FEEA69ADF1AD
:101B300024039A4202D90548FFF70AFFA069294603
:101B4000BDE87040FFF704BD0C1600203498000873
:101B500070B50C4686B00646FFF7B2FE631C12D085
:101B60000D4D0E4AAB69214601A8FFF709FF30462B
:101B7000FFF7C6FF049B13B101A8FFF731FFAB6964
:101B8000986A06B070BD044D3046FFF7B9FFAB69E7
:101B9000986A06B070BD00BF0C160020A11A00089C
:101BA00070B5164D04460E46FFF78AFEA869A26876
:101BB0008368A6629A4213D9FFF74AFF01230646BB
:101BC00084F82030AC61FFF7A3FEF269ADF1240385
:101BD0009A420AD820463146BDE87040FFF7B8BCAB
:101BE0002046BDE87040FFF733BF0548FFF7B0FE61
:101BF00020463146BDE87040FFF7AABC0C16002015
:101C00003498000800000000000000000000000000
:101C100070B5104C2368A5691A682260142101264A
:101C20005460284683F8206085F82310A361FFF7ED
:101C30000FFF2846FFF76CFEEA69ADF124039A42D4
:101C400002D90548FFF784FEA0692946BDE8704027
:101C5000FFF77EBC0C16002034980008000000003E
:101C600070B5154D2A68AC691368A0682B60012611
:101C700000215D6082F820601346AA6184F820107C
:101C800000E01B689A688242FBD85A686260236051
:101C900020465C601460FFF73BFEE269ADF124036F
:101CA0009A4202D90548FFF753FEA8692146BDE8CC
:101CB0007040FFF74DBC00BF0C16002034980008A0
:101CC00008B5FFF7FDFD064B1A689B6992689B6893
:101CD0009A4200D808BDBDE80840FFF7C1BF00BF69
:101CE0000C160020000000000000000000000000B2
:101CF000044B9B6993F823300BB1FFF7B1BFFFF79B
:101D000087BF00BF0C16002000000000000000008C
:101D10002DE9F043134C416466694661002200F1ED
:101D200030054FF002094FF014084FF0010C00F19C
:101D30002C0E00F14C078160046180F820906061F6
:101D400080F8238080F822C080F821200264C263DA
:101D5000426282613061C0F82CE0C761456305636F
:101D6000BDE8F0830C160020000000000000000019
:101D7000884203D200F8012B8842FBD1704700BF94
:101D80002DE9F84F0446894616469846FFF780FD30
:101D900014B1B9F1CF0F38D81F48FFF7D9FD1F4D47
:101DA000DFF87CB06F69A9F124016018E0600023BE
:101DB00044F801804FF0020A4FF014094FF0010C73
:101DC0000A994160C0F820B004F1300204F12C0EF1
:101DD00004F14C0884F820A084F8213084F8239082
:101DE00084F822C0A6602561676166646C61236423
:101DF000E3636362A36120463C61C4F82CE0626344
:101E00002263C4F81C80BDE8F88F7F2EC4D8B8F1D7
:101E1000000FC4D1C0E700BF509800080C16002086
:101E20006115000800000000000000000000000034
:101E30002DE9F04782B099460A9E074688469246A9
:101E400000F14C040346FF2503F8015B9C42FBD1E3
:101E500007EB08039C4204D2552504F8015B9C4221
:101E6000FBD1202383F31188FFF762FC4B465246D7
:101E7000414600963846FFF783FF00210446FFF7EE
:101E80008FFEFFF76DFC002383F31188204602B01C
:101E9000BDE8F08700000000000000000000000026
:101EA00010B5044610B90948FFF752FD202383F30B
:101EB0001188FFF73DFC21460620FFF749FEFFF79A
:101EC0004FFC002383F3118810BD00BF90980008D9
:101ED00038B5104B9C692546A06255F82C0FA842D6
:101EE00006D00368E362FFF7B3FDE06AA842F8D1C9
:101EF00094F821309B0704D1636922691A61226931
:101F000053610E20FFF7FCFD0348BDE83840FFF7A2
:101F10001FBD00BF0C160020A098000800000000A4
:101F200010B52023044683F31188FFF701FC2046F7
:101F3000BDE81040FFF7CCBF00000000000000002B
:101F400010B5044620B1002364602460A36010BD76
:101F50000148FFF7FDFCF6E71099000800000000BB
:101F600038B504460D46FFF793FCC4B1E36B94F813
:101F7000202045EA0301082AE1630CD0092A00D099
:101F800038BDA36A19408B42FAD12046FFF760FDA5
:101F90000023836238BDA36A1942F6D138BD0248D6
:101FA000FFF7D6FCE2E700BFEC9900080000000054
:101FB00070B505460E46FFF76BFC65B12C68A5426F
:101FC00008D0201D0BC83343E360FFF7C9FF246826
:101FD000A542F6D170BD0248FFF7BAFCEEE700BF9C
:101FE000009A00080000000000000000000000004F
:101FF00071B1094B9B6910B498624468024683E84A
:1020000014000D20536023605DF8044BFFF7A0BD62
:102010004FF0FF30704700BF0C160020000000009A
:1020200030B4029C046200250A448560026140606D
:10203000006041618161C160C36130BC704700BF15
:1020400038B50446FFF724FC2068E368636100228A
:10205000A042A260A3610AD06FF00105036823606B
:102060005C60FFF7F5FC85622068A042F6D138BDC0
:1020700038B504460D46FFF70BFCA36962699A4226
:10208000A3681BD00133511CA360616115706269A4
:1020900023699A420BD22068A0420DD003682360C6
:1020A0005C60FFF7D5FC00238362184638BD2068CA
:1020B000E3686361A042F1D1002038BD002BE1D07C
:1020C0006FF0030038BD00BF0000000000000000FA
:1020D000F8B504460F46202383F31188FFF728FB49
:1020E000E36933B12046984703E0FFF781FF061EFE
:1020F00018DBA56820463946002DF6D0A269216973
:10210000531C8B4205F1FF35A361A56028BFE3682E
:10211000167828BFA361FFF723FB002383F3118800
:102120003046F8BDFFF71CFB2B4683F31188304681
:10213000F8BD00BF0000000000000000000000002B
:102140002DE9F047044689461E46D0F81C80924689
:10215000002A37D0202383F31188FFF7E9FA0027FC
:10216000B8F1000F05D02046C04702E0FFF740FF5E
:1021700000BBA56820463146002DF7D0A369013D7C
:102180005A1CA261A5601B7809F8013B2369A2696A
:102190009A4224BFE368A361FFF7E2FA002383F3C6
:1021A00011880137BA450AD0202383F31188FFF73D
:1021B000BFFAD5E7FFF7D4FA2B4683F311883846E8
:1021C000BDE8F0870148FFF7C3FBC3E7509A00085A
:1021D00030B4029C04628D1805614060006082602A
:1021E00041618161C160C36130BC70470000000083
:1021F00038B50446FFF74CFBE2682369206862614A
:102200009B1AA042A261A3600AD06FF00105036887
:1022100023605C60FFF71CFC85622068A042F6D159
:1022200038BD00BF000000000000000000000000FA
:102230002DE9F041202304468846174683F3118890
:10224000FFF776FA03E0FFF7D3FE061E1DDBA56855
:1022500020463946002DF6D06369013D5A1C626163
:10226000A56083F80080236962699A4224BFE3680D
:102270006361E3690BB120469847FFF771FA0023C9
:1022800083F311881846BDE8F081FFF769FA2B4601
:1022900083F311883046BDE8F08100BF00000000E4
:1022A00038B50446FFF7F4FA6369A2699342A3685C
:1022B00016D02069511C0133A360A16181421578B9
:1022C0000BD22068A04206D0036823605C60FFF751
:1022D000BFFB00238362284638BDE368A361F0E7B3
:1022E000002BE6D06FF0020038BD00BF00000000F8
:1022F0002DE9F84F04460E469B46D0F81CA0174621
:10230000002A41D0202383F31188FFF711FA4FF000
:102310000009A56806F101086A1E204635B3636905
:10232000A2605A1C626132781A70236962699A420B
:1023300024BFE3686361BAF1000F00D0D047FFF714
:102340000FFA002383F31188013F09F101094FF0CF
:10235000200316D083F31188FFF7EAF9A5684646F3
:102360006A1E06F101082046002DD8D120465946A4
:10237000FFF73EFE0028CCD0FFF7F2F92B4683F39F
:1023800011884846BDE8F88F0148FFF7E1FAB9E740
:10239000649A000800000000000000000000000037
:1023A000054A064B0648074922F0070223F00703B7
:1023B00002600B60704700BF4B2A002000C0012064
:1023C0002C1600202816002000000000000000004D
:1023D00010B50446FFF75CFA0649074B08681A680F
:1023E000E31D23F00703121A93429ABF1B180B60D8
:1023F000002010BD2C160020281600200000000030
:1024000010B52023044683F31188FFF791F9204685
:10241000FFF7DEFF0446FFF7A3F9002383F31188DB
:10242000204610BD00000000000000000000000079
:10243000044B054A1A6003F1100000229A60DA602A
:10244000FFF77EBD301600200124000800000000C8
:1024500008B501F0C5F900F0D3FB084801F0E0FB36
:1024600000F026F800F0C4F800F062F900F0E8FB94
:1024700000F066FABDE8084002F0EABC30A00008AF
:1024800008494A68104482424B6802D29A4202D9F3
:1024900070479A42F7D9984294BF00230123002B3A
:1024A000F1D17047001000E00000000000000000C3
:1024B00001F046BA0000000000000000000000002B
:1024C00000230122027043608360C36003614361A3
:1024D0001830FFF735BD00BF00000000000000000D
:1024E00038B50D460446B8B1202383F31188FFF7B1
:1024F0001FF92378013B012B02D90948FFF728FA7D
:102500002046656001F03CFA02232370FFF728F9AA
:10251000002383F3118838BD0248FFF719FAE3E777
:10252000909A0008809A0008000000000000000057
:10253000F8B504460E4617461D46FFF7A9F9C4B183
:10254000BEB1B7B1012D01D0EB0712D42378022B15
:1025500005D0043B012B02D90848FFF7F9F9032302
:10256000A760E560266123702046BDE8F84001F0D1
:102570003FBA0348FFF7ECF9E8E700BFD49A000838
:10258000BC9A0008000000000000000000000000ED
:102590002DE9F0411E46044688461746202383F362
:1025A0001188FFF7C5F8636913B10C48FFF7D0F93C
:1025B0000B4D41463A4633462046FFF7B9FFAB691B
:1025C00063610220FFF79CFAAB699C6AFFF7C8F8C9
:1025D000002383F311882046BDE8F081549B000856
:1025E0000C160020000000000000000000000000A9
:1025F00002F096BA00000000000000000000000099
:102600000122002302704360704700BF00000000F9
:1026100038B50D460446D0B1C9B1202383F31188E3
:10262000FFF786F82378013B012B02D90A48FFF710
:102630008FF9AB8823812046656002F089FA022376
:102640002370FFF78DF8002383F3118838BD03480A
:10265000FFF77EF9E1E700BFA09B0008909B000810
:1026600070B50D4616460446B8B1032915D8202387
:1026700083F31188FFF75CF82378022B02D0094816
:10268000FFF766F920462946324602F001FBFFF7C4
:1026900067F8002383F3118870BD0348FFF758F9EA
:1026A000E5E700BF109C0008F89B00080000000050
:1026B0000C30FFF745BD00BF000000000000000027
:1026C0000C304FF0FF33FFF73BBD00BF00000000B0
:1026D0003030FFF70DBE00BF00000000000000001A
:1026E00030304FF0FF33FFF703BE00BF00000000A3
:1026F0000C30FFF7EDBC00BF000000000000000040
:102700000C304FF0FF31FFF7E3BC00BF00000000CA
:102710003030FFF78DBD00BF00000000000000005A
:1027200030304FF0FF32FFF783BD00BF00000000E4
:1027300002F076BB00000000000000000000000076
:1027400070B50E4B044682B040F8043B012600945D
:102750000B461546606004F1540104F10C0026722A
:102760001022FFF75DFC00942B4604F1300004F1C9
:1027700064011022FFF72CFD02B070BDA09C000880
:1027800038B504460D46FFF783F8D4B163693BB111
:10279000294604F10C00FFF76BFC00280BDB38BD69
:1027A000201D0421FFF704FC294604F10C00FFF76B
:1027B0005FFC0028F3DA201D8021BDE83840FFF7D8
:1027C000F7BB0248FFF7C4F8E0E700BF789C0008B9
:1027D00070B5046AD4F8542213681978042900D01B
:1027E00070BD217A0229FBD11B891279134113F0A4
:1027F0000105F5D1226CE36BA66BD31A9E1BEFD0BB
:10280000FEF7AEFF2B4683F31188D4F854223346EB
:102810001068117904F1300200F0A2FA202383F34A
:102820001188FEF785FFD4F85432BDE8704018686F
:10283000197900F0C5BA00BF0000000000000000D8
:10284000F8B5046AD4F854321A681178042900D013
:10285000F8BD217A0229FBD15979538902EB810213
:102860000B41D26813F00105578AF1D1A669E269DC
:102870006369921BD61AB742EAD8FEF771FF2B465E
:1028800083F31188D4F85422B6FBF7F3106851791A
:1028900007FB03F304F10C0200F052FA202383F348
:1028A0001188FEF745FFD4F8543218685979BDE80D
:1028B000F84000F065BA00BF000000000000000012
:1028C0000C30FFF73DBC00BF00000000000000001E
:1028D0000C304FF0FF33FFF733BC00BF00000000A7
:1028E0003030FFF705BD00BF000000000000000011
:1028F00030304FF0FF33FFF7FBBC00BF000000009B
:102900000C30FFF7E5BB00BF000000000000000036
:102910000C304FF0FF31FFF7DBBB00BF00000000C1
:102920003030FFF785BC00BF000000000000000051
:1029300030304FF0FF32FFF77BBC00BF00000000DB
:10294000704700BF00000000000000000000000011
:1029500010B503460E4A43F8042B82B00446012208
:10296000009004F15401436002720A4B0C304FF4A2
:102970008072FFF755FB009404F1300004F5AA7152
:102980004FF48072044BFFF723FC02B010BD00BF70
:10299000F09C000841280008D12700080000000032
:1029A00070B50D4604460E6808B3202383F31188E2
:1029B000FEF7BEFE237A013B012B02D90E48FEF73B
:1029C000C7FF2B7906EB830302229C616B790933E5
:1029D00046F82340AB7906EB8306B461C4F8545241
:1029E0002272FEF7BDFE002383F3118870BD0348F9
:1029F000FEF7AEFFD9E700BFD09C0008C09C0008DE
:102A000070B5D0F8543200F10C06044630461D680B
:102A1000FFF716FB04F13000FFF7EAFB201D012150
:102A2000FFF7C6FAD4F85432597905EB81032846EA
:102A3000DB6832465B8A00F083F9D4F854322846CA
:102A40005979BDE8704000F09BB900BF000000005C
:102A500090F8443003F06003202B01D00020704731
:102A600090F84530212B03D0222B09D0202BF5D113
:102A7000064B836307220023C2630364012070476F
:102A800000238363C36303640120704700080020B0
:102A90002DE9F04100EB8108D8F81840D4B10F4679
:102AA0000646202383F31188FEF77AFE201D0821B5
:102AB000FFF77EFA226CE36BA56BD31A5D1B17D16F
:102AC000D8F80C305A69556835B9FEF781FE0023F5
:102AD00083F31188BDE8F0811B8A013B1D40F4D1CE
:102AE000FEF776FE2B4683F3118804F1300207E0EF
:102AF000FEF76EFE002383F3118804F130022B46AB
:102B00003046394600F02CF9202383F31188FEF774
:102B100047FE3046394600F053F9D6E70000000082
:102B20002DE9F84300EB8104666ACEB10F4680467A
:102B3000202383F31188FEF733FE301D0421FFF7B5
:102B400037FA06F11403E26838CBB2F812902D1B65
:102B5000EC1AA14506D9FEF73BFE002383F311884A
:102B6000BDE8F883FEF734FE002383F31188B4FB3D
:102B7000F9F306F10C0209FB03F34046394600F075
:102B8000DFF8202383F31188FEF70AFE404639461A
:102B900000F0F6F8DFE700BF0000000000000000D2
:102BA000704700BF000000000000000000000000AF
:102BB000014B5B6883607047001000E0000000007C
:102BC0000B4A0C498368526810B40C68C168D31A68
:102BD0001B1B8B42836006D802695DF8044B93424D
:102BE00038BF03617047C3605DF8044B704700BF96
:102BF000001000E05016002000000000000000005F
:102C000010B586B00A4C0B4B0B4901934FF0FF30C7
:102C100000230590236004934B68084A039301A89E
:102C20000292FFF7CDFF039B236006B010BD00BFEB
:102C300050160020B12B0008001000E0C12B000846
:102C400001F066BB00000000000000000000000072
:102C50000023012202704360C36183620362C36286
:102C60004362036303814381704700BF000000009B
:102C700070B50E460446E8B1E1B1202383F3118814
:102C8000FEF756FD2378013B012B02D90B48FEF7D6
:102C90005FFE002520466660E56025616561A561EF
:102CA00001F05EFB02232370FEF75AFD2B4683F3EF
:102CB000118870BD0248FEF74BFEDEE7409D00081C
:102CC000309D00080000000000000000000000002F
:102CD000F8B504460E461546FEF7DAFD04B3FDB11D
:102CE0002378042B02D01048FEF732FE04EB86074F
:102CF000FB6813B10D48FEF72BFE686918B100217F
:102D0000142202F045FFA86918B10021102202F038
:102D10003FFFFD6020463146BDE8F84001F010BCA1
:102D20000348FEF715FEDBE7849D0008A09D000820
:102D30006C9D000800000000000000000000000082
:102D400070B400EB81040126E468A4690025E26008
:102D500063602670A56070BC01F0EABC0000000052
:102D600070B400EB81040126E46864690025E26028
:102D700063602670A56070BC01F0F2BC000000002A
:102D800070B505460E46FEF783FD8DB16B8943FA9B
:102D900006F010F0010401D0012070BD0122B24004
:102DA000134328466B81314601F002FE204670BD78
:102DB0000148FEF7CDFDE9E7F49D000800000000A2
:102DC00070B505460E46FEF763FD8DB12B8943FABB
:102DD00006F010F0010401D0012070BD0122B240C4
:102DE000134328462B81314601F0F2FD204670BD89
:102DF0000148FEF7ADFDE9E70C9E00080000000069
:102E0000002202210170A0F84C2080F84E2080F8AA
:102E10004F2002814281C26002614261826180F87A
:102E2000342001F00DBB00BF0000000000000000D6
:102E3000F8B50023044680F8343000F1440201F074
:102E400067FC63689B688BB32046984770B3E56B5B
:102E500094F8443094F84B1094F84A2042EA012246
:102E6000AA423CBFE263154613F0800FE36840F0CE
:102E70009380002D73D15B69052284F834202046AD
:102E80001D70DD605D609D60294601F069FC2023B6
:102E900083F31188FEF784FC29462046FFF790FF54
:102EA000FEF796FC2B4683F31188F8BD94F8443066
:102EB00013F0600711D02046002101F0B1FD20463B
:102EC000002101F09DFD63681B6813B120460521B8
:102ED0009847062384F83430F8BD94F8455003F041
:102EE0007F0242EA0526B6F5407F00F0108118DD2A
:102EF000B6F5C06F00F0F28040F38780B6F5106F32
:102F000000F0968040F60242964200F01381B6F53A
:102F1000006FD0D104F14F0201252764A263E5635D
:102F200098E7022E00F0C38040F3B880B6F5807FAA
:102F300000F0A480B6F5817FBDD194F84620002A28
:102F4000B9D194F8482012F00F016CD01206204637
:102F500000F1188101F074FD94F8443063E09B693E
:102F6000A26B0026042184F834102046DA605D60EC
:102F70001E709E60314601F0DBFB202383F3118835
:102F8000FEF70EFC31462046FFF7FAFEFEF720FC66
:102F9000334683F31188F8BDE5B15B69A26B002667
:102FA000012184F834102046DA605D601E709E6056
:102FB000314601F0D5FB202383F31188FEF7F0FBA7
:102FC00031462046FFF7FCFEFEF702FC334683F352
:102FD0001188F8BD9B69032284F8342020461D70B7
:102FE000DD605D609D60294601F0A2FB202383F334
:102FF0001188FEF7D5FB29462046FFF7C1FEFEF7F4
:10300000E7FB2B4683F31188F8BD40F2023296426B
:1030100021D0B6F5A06F7FF44EAFB4F84420B2F5DE
:10302000A06F00F09D800025A563E563256411E78E
:1030300094F8462084F84F20002A40F08280032232
:10304000227062681268002AEDD020460221904763
:1030500094F84430E7E794F84620002A7FF42BAF39
:1030600094F8482012F00F01DDD01306204600F13D
:103070008E8001F0C5FC94F84430D4E794F84620E3
:10308000012A7FF418AFB4F84C20A76322F00202A3
:10309000E76327643D46A4F84C20DBE6002E46D1CA
:1030A00004F14C0202252664A263E563D2E694F89B
:1030B000481011F0800F204601F00F0144D101F0BB
:1030C00007FB012844D002287FF4F5AE324BA363FE
:1030D000E0632764054694F84430BBE6626894F8E0
:1030E000490094F84830556894F8471094F8462001
:1030F00043EA00232046A84700283FF4DCAE43689B
:103100000568E563A363276494F84430A2E694F865
:103110004620012A7FF4CFAEB4F84C20A76342F0DA
:103120000202E76327643D46A4F84C2092E6012E94
:103130007FF4C1AE194AA26302250022E56322642E
:1031400088E6042222707CE701F0D2FA0128BAD185
:10315000134BA363E6632764354694F8443079E65D
:1031600094F8463084F84E30204601F0D9F963686F
:103170001B6813B1204601219847032294F844307C
:10318000227050E701F06CFC94F844304BE701F0FA
:1031900047FC94F8443046E7209D0008109D000845
:1031A000609E000800000000000000000000000019
:1031B00038B590F83430022B044647D0052B3ED06A
:1031C000012B10D0002101F02BFC2046002101F042
:1031D00017FC63681B6813B1204605219847062336
:1031E00084F8343038BD90F84B3090F84A20C16BE9
:1031F00042EA03228A42C26805D9158AB1FBF5F377
:1032000005FB131525B393690025032284F83420A8
:1032100029461D70DD605D609D60204601F088FAE2
:10322000202383F31188FEF7BBFA29462046FFF7D7
:10323000A7FDFEF7CDFA2B4683F3118838BD036C4A
:1032400003B19847002384F8343038BDC268DAE708
:10325000536929461D70DD605D609D6001F080FA54
:10326000202383F31188FEF79BFA29462046FFF7B7
:10327000A7FDFEF7ADFA2B4683F31188022384F8ED
:10328000343038BD000000000000000000000000E5
:1032900038B590F83430032B04462FD0042B11D0CE
:1032A0002046002101F0BCFB2046002101F0A8FBD4
:1032B00063681B6813B1204605219847062384F8EC
:1032C000343038BDC3685B690025052280F834209E
:1032D00029461D70DD605D609D6001F041FA20238C
:1032E00083F31188FEF75CFA29462046FFF768FD54
:1032F000FEF76EFA2B4683F3118838BDC3689B69CD
:103300009B68002BCCD1036C03B19847002384F851
:10331000343038BD00000000000000000000000054
:1033200008B5FEF775FA084B084A196801F03D0127
:10333000996013680BB150689847FEF789FABDE8A9
:103340000840FEF7ADB800BF0060024054160020F0
:1033500010B5FEF75DFA094B0948196882688909BA
:1033600001F03D018C019C600AB1C0689047FEF7F6
:103370006FFABDE81040FEF793B800BF006002404E
:1033800054160020000000000000000000000000B3
:1033900010B5FEF73DFA094B094819680269090C96
:1033A00001F03D010C049C600AB140699047FEF7B2
:1033B0004FFABDE81040FEF773B800BF006002404E
:1033C0005416002000000000000000000000000073
:1033D00010B5FEF71DFA094B094819688269890D75
:1033E00001F03D018C059C600AB1C0699047FEF771
:1033F0002FFABDE81040FEF753B800BF006002404E
:103400005416002000000000000000000000000032
:1034100008B5FEF7FDF9084B08485968026A01F043
:103420003D01D9600AB1406A9047FEF711FABDE844
:103430000840FEF735B800BF006002405416002077
:1034400010B5FEF7E5F9094B09485968826A890900
:1034500001F03D018C01DC600AB1C06A9047FEF7C3
:10346000F7F9BDE81040FEF71BB800BF006002404E
:1034700054160020000000000000000000000000C2
:1034800010B5FEF7C5F9094B09485968026B090CDC
:1034900001F03D010C04DC600AB1406B9047FEF77F
:1034A000D7F9BDE81040FDF7FBBF00BF0060024048
:1034B0005416002000000000000000000000000082
:1034C00010B5FEF7A5F9094B09485968826B890DBB
:1034D00001F03D018C05DC600AB1C06B9047FEF73E
:1034E000B7F9BDE81040FDF7DBBF00BF0060024048
:1034F0005416002000000000000000000000000042
:1035000008B5FEF785F9084B08481968026C01F008
:103510003D0199600AB1406C9047FEF799F9BDE80A
:103520000840FDF7BDBF00BF0064024054160020F4
:1035300010B5FEF76DF9094B09481968826C8909C5
:1035400001F03D018C019C600AB1C06C9047FEF710
:103550007FF9BDE81040FDF7A3BF00BF0064024043
:1035600054160020000000000000000000000000D1
:1035700010B5FEF74DF9094B09481968026D090CA1
:1035800001F03D010C049C600AB1406D9047FEF7CC
:103590005FF9BDE81040FDF783BF00BF0064024043
:1035A0005416002000000000000000000000000091
:1035B00010B5FEF72DF9094B09481968826D890D80
:1035C00001F03D018C059C600AB1C06D9047FEF78B
:1035D0003FF9BDE81040FDF763BF00BF0064024043
:1035E0005416002000000000000000000000000051
:1035F00008B5FEF70DF9084B08485968026E01F04E
:103600003D01D9600AB1406E9047FEF721F9BDE84F
:103610000840FDF745BF00BF00640240541600207B
:1036200010B5FEF7F5F8094B09485968826E89090B
:1036300001F03D018C01DC600AB1C06E9047FEF7DD
:1036400007F9BDE81040FDF72BBF00BF0064024042
:1036500054160020000000000000000000000000E0
:1036600010B5FEF7D5F8094B09485968026F090CE7
:1036700001F03D010C04DC600AB1406F9047FEF799
:10368000E7F8BDE81040FDF70BBF00BF0064024043
:1036900054160020000000000000000000000000A0
:1036A00010B5FEF7B5F8094B09485968826F890DC6
:1036B00001F03D018C05DC600AB1C06F9047FEF758
:1036C000C7F8BDE81040FDF7EBBE00BF0064024044
:1036D0005416002000000000000000000000000060
:1036E0000D4B30B400220D4D0D4C1A60114613469F
:1036F000A858016044F833100133102B02F10C027A
:10370000F6D10849084A4FF0FF338B6030BCCB60DC
:103710009360D360704700BFD4160020C09E00089D
:1037200054160020006002400064024000000000C7
:10373000F0B5054685B000283FD0244C6F7A266846
:10374000012000FA07FE1EEA060F2BD120484EEAA0
:10375000060600EBC70C16F0FF0F266040F8372076
:10376000CCF8043004D01B48036B43F4001303630C
:1037700016F47F4F18D12B68186820F01F001860CE
:10378000186810F00104FBD12F7A6E683D20B84014
:10379000212730601C605F6162B1A87A0901FDF7E2
:1037A000EFFE204605B0F0BD0A48036B43F48003EA
:1037B0000363E0E7104605B0F0BD074803930292AB
:1037C0000191FEF7C5F801A90EC9B6E7D41600208D
:1037D0005416002000380240709E000800000000CF
:1037E000204B21491A694FF0FF300022F0B51861D3
:1037F0001A615C6958615A611C6A1C4FDFF878E0F5
:103800001B4E1C4D64F080541C621A620724D3F8CE
:1038100024C058625A62C1F804E08A600C60F968FA
:1038200041F08071F960316841F001013160196C3B
:1038300041F080511964296841F480712960196F41
:1038400001F44071B1F5007F03D04FF48031196766
:103850001A67084A536823F400735360BDE8F040C8
:10386000FFF73EBF0038024010E000E0F0ED00E05E
:10387000001000E0007000403F90020000000000D7
:103880002A4A2B4B4FF080504FF44041106419608E
:10389000136843F001031360136824499807FBD5AC
:1038A0000B68002203F0F9030B6008468A60826807
:1038B0001E4B12F00C0FFAD11A6842F480321A60D3
:1038C0001A461168194B8903FBD55A6F42F0010261
:1038D0005A675A6F15499007FBD5164B4B600B681A
:1038E000134A43F080730B6053685904FCD50F49A9
:1038F0000A680E4B9201FBD50F4A1049996040F2BD
:10390000057111609A6842F002029A601A46936843
:10391000064903F00C03082BF9D14B6C43F48043A8
:103920004B644B6E43F480434B6670470038024053
:103930000070004008544007003C024000940838E2
:1039400010B5084C2046FEF7BBFD0749074A084B57
:10395000A162E262236312206021BDE81040FDF7FE
:103960000FBE00BFD816002000200140509F000865
:10397000162C020000000000000000000000000003
:1039800038B50378012B00D038BD134DA84204464A
:103990000DD01248A26A436803F44003002143F4A7
:1039A00080330124436051609160946038BDC06AE7
:1039B0000B4A06212346FFF7BBFE48B9EB6A094ACA
:1039C0001B6809499960536C43F480735364E0E7C2
:1039D0000648FDF7BDFFF1E7D8160020002301409F
:1039E000313B0008003802404C200140809F000815
:1039F0000369016B1A782DE9F043C4682AB1012CE0
:103A000094BF41F4807141F48471C56A5A882D686D
:103A10008668EE6002FB04F203F118086A60DC6855
:103A2000296098E8005119692E68826AD3F81490C9
:103A30005F6A11F0804F44F0806341F4407146F0BA
:103A400001004FF0000443F4807314BF41F0030100
:103A500041F0010128601460C2F80C90C2F8108097
:103A6000C2F82CC0C2F830E0576353609160BDE8E3
:103A7000F08300BF00000000000000000000000014
:103A8000C16A0A68136823F01F031360136813F0F8
:103A90000103FBD130B40D7A4C68826A3D21A94004
:103AA00001202160536030BC93609060704700BF7C
:103AB00070B5FDF7ADFE1C4B1A6800211960930626
:103AC0002BD51A4CE36A1B685B6833B3236923B3B5
:103AD0002046FFF7D5FF23699B684BB10522227072
:103AE0002046012198472378052B04BF0223237029
:103AF000002525610D4E202383F31188FDF750FE2C
:103B0000606928B14FF0FF3383627561FDF7A0FF54
:103B1000FDF75EFE002383F31188FDF799FEBDE8F3
:103B20007040FDF7BDBC00BF00200140D81600204A
:103B300011F00C0F70B5044619D10369B3B18D06AD
:103B400012D51A78002A45D05D687DB1C268012A75
:103B50003BD95B888168520803FB02F301EB430108
:103B60002B46BDE870401847CA0625D470BDFFF744
:103B700087FF23699B684BB10522227020460021F4
:103B800098472378052B04BF022323700025256165
:103B9000202383F31188FDF703FE636933B14FF0EF
:103BA000FF32656118469A62FDF752FFFDF710FE7D
:103BB000002383F3118870BD5B68002BD6D0C268E8
:103BC00081685208BDE8704018472B468168BDE8FF
:103BD00070401847FFF754FF23695B68BBB10422AC
:103BE00022702046A168E26898472378042B0ED003
:103BF000202383F31188FDF7D3FD6369002BD5D013
:103C00000022626118469A62FDF722FFCEE7022287
:103C1000002322702361EBE7000000000000000099
:103C20002DE9F04FDFF8B481DFF8B4C1D8F830A047
:103C3000DFF8B0E1634F644E644D654C6549664AF8
:103C4000DFF8A4B140F2FF194AEA090AC8F830A027
:103C5000D8F850A04AEA0909C8F850904368CCF84F
:103C600004308368CCF80830C368CCF80C300369A2
:103C7000CCF814304369CCF820308369CCF8243078
:103C80000368CCF80030036ACEF80430436ACEF8FB
:103C90000830836ACEF80C30C36ACEF81430036B58
:103CA000CEF82030436BCEF82430C369CEF8003014
:103CB000C36B7B60036CBB60436CFB60836C7B619C
:103CC000C36C3B62036D7B62836B3B60876D776087
:103CD000C76DB760076EF760476E7761876E3762B2
:103CE000C76E7762476D3760466F6E60866FAE60F5
:103CF000C66FEE60D0F880606E61D0F884602E628E
:103D0000D0F888606E62066F2E60D0F890506560C3
:103D1000D0F89450A560D0F89850E560D0F89C5049
:103D20006561D0F8A0502562D0F8A4506562D0F843
:103D30008C502560D0F8AC404C60D0F8B0408C601E
:103D4000D0F8B440CC60D0F8B8404C61D0F8BC405A
:103D50000C62D0F8C0404C62D0F8A8400C60D0F89B
:103D6000C8105160D0F8CC109160D0F8D010D1605C
:103D7000D0F8D4105161D0F8D8101162D0F8DC100E
:103D80005162D0F8C4101160D0F8E420CBF80420C0
:103D9000D0F8E820CBF80820D0F8EC20CBF80C20A5
:103DA000D0F8F020CBF81420D0F8F420CBF8202065
:103DB000D0F8F820CBF82420D0F8E020CBF8002071
:103DC000BDE8F08F00080240000C024000100240E5
:103DD0000014024000180240001C0240003802405B
:103DE00000000240000402400020024000000000E9
:103DF0002DE9F04F4FF00F0C02F0030EC2F38007D5
:103E0000C2F3C106C2F341150024C2F3C3124FF03E
:103E100001094FF003082BE0D0F820B02BEA030390
:103E200043EA0A030362436809FA04FA23EA0A032D
:103E30003B4343604FEA440A836808FA0AFA6FEA90
:103E40000A0A0AEA030333438360C3680AEA0303E6
:103E50002B43C36003680AEA030343EA0E030360CB
:103E6000490819D07F00B600AD004FEA8E0E01342C
:103E700004F007039B0011F0010F02FA03FA0CFA99
:103E800003F3EDD0072CC7D9D0F824B02BEA0303F5
:103E900043EA0A034362C6E7BDE8F08F0000000072
:103EA0002DE9F04FB54BB6499A69066D916185B021
:103EB0008346202383F31188FDF73AFC4FF0000975
:103EC0009BF80030012B05D0DBF85C306BB97369CF
:103ED000DB060AD4B369A94A43F010039269B361BF
:103EE0000220CBF86420FDF70BFEFDF739FC002320
:103EF00083F311889A46736913F0100423D0DBF81A
:103F00005000036A03F4F012B2F5802F32D0B2F5FC
:103F1000402FF0D103F00F020BEB8202C3F30A1320
:103F2000D26803339B08146AE5D000F58050022262
:103F3000016812B144F8041B013A013BF8D17369DE
:103F400013F01004DBD10122DBF85C3002FA0AF234
:103F50001A4202927DD10AF1010ADBF854309B68C3
:103F60005FFA8AFA9A45C6D9202383F31188FDF7B0
:103F7000DFFBA5E703F00F070BEB8707C3F30A1579
:103F8000FB689A691378EBB953689168D2F80CE032
:103F90000333591AEB1C9B084FEA910109D000F535
:103FA0008050F446046811B14CF8044B0139013BD0
:103FB000F8D10EEB0504D460FB689A6993682B4432
:103FC000936098E7D4683DB300F58050AE46BEF1EB
:103FD000030F626908D923699A4205D3E3686361D4
:103FE000BEF1030F6269F6D8D0F800C0002102F1DB
:103FF00001082CFA01F3C4F8148013702369626974
:104000009A4224BFE3686361BEF1010E04D018290F
:10401000DDD008316269EAE7202383F31188FDF7D8
:1040200087FBA36820682B44A042A36009D00368E3
:1040300023605C60FDF70CFDC0F828902068A0426A
:10404000F5D1FDF73DFEFDF78BFB002383F31188CF
:10405000B2E7202383F31188FDF76AFBB268DBF82F
:104060005C30029922F0010223EA0103B260CBF82E
:104070005C30FDF775FB234683F311880BEB8A0355
:104080001F46DC68626991685368994280F0C0807D
:10409000DBF85000258A4FEA4A14019404195B1A90
:1040A000D4F818199D4228BF1D468BB2B5EB830F7B
:1040B0000AF1010A2DD803963E461378002B3FD112
:1040C000EB1C00EB0A3ED0689B0818BF014605D0E8
:1040D00051F8044BCEF80040013BF9D12844D060A0
:1040E000F4686269936851682B449942936040F286
:1040F0008C80019DDBF85000248A4719CD1AD7F82F
:104100001839A54228BF25469BB2B5EB830FD4D9F9
:10411000039E0024202383F31188FDF709FBB36875
:1041200043F00103B3602CB9D6F83438029A1A432D
:10413000C6F83428FDF714FB002383F311880CE73D
:1041400000EB0A3ED4680DB3D4F810C02A46930899
:1041500039D1A369002108465F1CA7611B78674518
:1041600003FA01F340EA030024BFE368A361013AC4
:1041700008D0182906D00831A369EDE70C160020F5
:10418000B09F0008CEF80000002AE0D1202383F37E
:104190001188FDF7CDFAA36820682B44A042A360E4
:1041A00009D0036823605C60FDF752FCC0F82890DA
:1041B0002068A042F5D1FDF783FDFDF7D1FA002379
:1041C00083F311888CE7A069BCEB000148BF033181
:1041D00089108B4228BF0B464FEA8308C8EB0202C6
:1041E0003BB1014651F8047BCEF80070013BF9D198
:1041F00040448445A06104D8E368A361002AA6D1A5
:10420000C4E7002AC2D00346A4E7039E012481E745
:104210000AF1010AFAE700BF0000000000000000F8
:10422000F0B50024D1F808E025464FF0804C4FF05F
:10423000FF3714E0C1F80059C218C2F81059C2F88B
:104240000879D1F8006B002E17DBC1F8005B03443E
:104250000134A645C3F8105BC3F8087B14D363018F
:10426000C118D1F80029002AE4DAC1F800C90E46C5
:10427000D6F808299207FBD5DEE7C1F800CBD2F8C3
:10428000081BC906FBD5E2E74FF00113C0F81C3844
:10429000F0BD00BF000000000000000000000000B2
:1042A0002DE9F041174F3D6D05EB40130646D3F85D
:1042B000084BC3F8084B200703D5D5F81438190765
:1042C00017D4E20703D5D5F81438DB0701D4BDE8CD
:1042D000F08107EB86017A89C9680A48CC68012316
:1042E000B34022EA03037B8131462346BDE8F04117
:1042F000184707EB86033846DB6831465B6898470A
:10430000DFE700BF101700200000000000000000E1
:1043100070B50E4C0E4E2046FEF79AFC04F1B40523
:104320004FF0A0432365294604F168000023FF22D3
:10433000666523666366FDF71BFD284604F5B671C6
:104340005522BDE87040FDF713BD00BF10170020D7
:10435000A09F000800000000000000000000000016
:1043600070B50378066D012B82B001D002B070BD2C
:104370002E4B9842054649D02B6E0022EA65002B51
:1043800038D02B4BF3602B492C6DC6F800184FF436
:1043900050230022C6F8002E2020B363FEF770F8E9
:1043A000012323612369DB07FCD40C20FEF768F8A6
:1043B0002369002BFCDA0024B460286D696DFFF7D7
:1043C0002FFF6B68C6F81048DB68C6F81448C6F8BB
:1043D0001C485BB143F20803B3614FF0FF337361D4
:1043E000B36843F00103B36002B070BD4FF44053B3
:1043F000B361F2E7009505F168004FF4A87102225D
:104400000D4BFDF7BDFC68662866BAE70B4B5A6B8F
:1044100042F080025A635A69002142F080025A61D8
:1044200043205961E021FDF7ABF8A5E71017002004
:104430004014004003002002A13E00080038024062
:10444000F8B5056D202307462B612B6913F0200476
:10445000FBD10C20FEF714F8D7F854E0DEF8086022
:1044600023464FF00060FF2105EB43120133B342B6
:10447000C2F80009C2F8000BC2F80819C2F8081BFC
:10448000F2D9DEF800304FF0FF324FF00111C5F8DD
:1044900018283A6DC5F81C18BB65DEF800306B6251
:1044A00010231361136913F01004FBD10C20FDF7E6
:1044B000E7FFD5F80038786D134A144E23F4FE63F5
:1044C000C5F80038AB6943F4402343F010030921D9
:1044D000AB61C5F81018C5F81418FE60C5F8104B8C
:1044E000C5F8002BC5F81049C5F80029BC6D04F1CA
:1044F0001003BB654268934202D90548FDF728FACC
:1045000044F48014AC62F8BD40800010E09F0008C5
:10451000C09F000800000000000000000000000034
:10452000026D90F84E10D2F8003823F4FE6343EA8F
:104530000113C2F8003870470000000000000000BE
:104540002DE9F84F0FB200EB87080D46D8F80C1094
:10455000046D0B6803F00303022B064665D0032BA2
:1045600060D05448544A012B0CBF814691466B01E0
:10457000CA68E0184FF0000EC0F810EB002A5BD0BC
:10458000488A05F15802520149EA0000A05005F19D
:10459000100ED4F81C08012202FA0EF20243C4F8ED
:1045A0001C2823448A680020C3F81009002A5DD023
:1045B0008B8B0A8AD6F858B09208012B88BF5A43D1
:1045C00002EB0B01736DB1655B6899424FEA0247DC
:1045D00005F1FF3A2CD80AF1400A326D04EB8A0A41
:1045E000AB0147EA0B0743F02003CAF804701361DC
:1045F00013699906FCD40C20FDF742FFD8F80C3063
:104600001B8A05F14802520143EA855343EA090334
:10461000A3500123D4F81C28AB401343C4F81C3822
:10462000BDE8F88FDFF89C90A1E7DFF89C909EE74B
:104630002248FDF78DF9CEE704EB471205F1100E85
:10464000D2F8000B20F40040C2F8000BD4F81C088C
:10465000012202FA0EF220EA0202C4F81C282344C6
:104660008A680020C3F81009002AA1D105F13F0390
:10467000326D134804EB8303A90141F02001586017
:10468000116113699B06FCD404EB47170C20FDF75E
:10469000F7FED7F8002922F40042C7F80029D4F821
:1046A0001C280123AB4022EA0303C4F81C38BDE8F0
:1046B000F88F00BF0080041000800010C09F000829
:1046C0000004000200800C100080081000000000B0
:1046D0005831036D49015B5813F4004004D013F4C2
:1046E000001F14BF01200220704700BF000000001F
:1046F0004831036D49015B5813F4004004D013F4B2
:10470000001F14BF01200220704700BF00000000FE
:1047100000EB8101CB681B6A19685B68536011600C
:10472000704700BF00000000000000000000000013
:1047300000EB810310B4DB68006D9A695C8A5368F2
:1047400000EB41115A1E43F0C0432244B2FBF4F285
:1047500043EAC243C1F8103B5DF8044B704700BF09
:1047600000EB810310B4DC68626953681361ABB17C
:1047700071B15A1E006D248A00EB41112244B2FB34
:10478000F4F243EAC243C1F810395DF8044B7047B4
:10479000402BEED9402353603F22EBE7036D5DF8D9
:1047A000044B03EB41114FF40023C1F8103970475B
:1047B0002DE9F041364D2E6D06EB40130746D3F838
:1047C0000849C3F80849E10703D5D6F81038DA07D5
:1047D00009D4230605D50124D6F83438BC401C4240
:1047E0002ED1BDE8F08105EB8003D9684B6958688C
:1047F0001A69904240D2121A4FF000085A60C3F86A
:10480000088028463946FFF7ABFF202383F3118841
:10481000FCF7C6FF2B6D03EB47100122D0F80019FF
:1048200041F00441C0F80019D3F83418BA400A43E3
:10483000C3F83428FCF7CCFF434683F31188C8E75C
:10484000202383F31188FCF7ABFFEA6DD6F83438E8
:10485000686E0F4F224323EA0404EA65C6F8344821
:1048600018B1FDF7F5F800237B66FCF7B1FF0023D4
:1048700083F31188BDE8F0812A89D1F808C00123AB
:10488000BB4022EA03032B8128463946E047A0E7D4
:1048900010170020000000000000000000000000D1
:1048A00070B5404EFCF7B4FF356D6B69AC691C40C8
:1048B000E0046C6131D4A10448BFD5F80838220760
:1048C00004D57368DB680BB136489847E3062FD4EC
:1048D0006003D5F8185807D5E90750D4AA0753D470
:1048E0006B0756D42E0759D4240307D5E8033BD4CD
:1048F000A9033ED46A0331D42B0305D4FCF7A8FFE7
:10490000BDE87040FCF7CCBD0320FFF7C9FCFCF705
:104910009FFFBDE87040FCF7C3BD3046FEF770FA5C
:1049200073681B68002BC6D0304600219847C2E749
:10493000202383F31188FCF733FFAB69706E194EA7
:1049400023F01003AB6118B1FDF782F80023736602
:10495000FCF73EFF002383F31188B9E70220FFF73D
:104960009FFC2B03CAD5CFE70020FFF799FCA903D2
:10497000C0D50120FFF794FC6A03BDD5EEE7002007
:10498000FFF716FFAA07ABD50120FFF711FF6B0752
:10499000A8D50220FFF70CFF2E07A5D50320FFF7AF
:1049A00007FFA1E710170020000000000000000032
:1049B000036D03EB4111D1F8003B43F08063C1F874
:1049C000003B7047000000000000000000000000F5
:1049D000036D10B403EB41140122D4F8000940F038
:1049E0000440C4F80009D3F834085DF8044B8A4049
:1049F0000243C3F8342870470000000000000000A4
:104A0000036D03EB4111D1F8003B43F40013C1F8EF
:104A1000003B7047000000000000000000000000A4
:104A2000036D03EB4111D1F8003943F40013C1F8D1
:104A30000039704700000000000000000000000086
:104A4000036D03EB4111D1F8003B23F40013C1F8CF
:104A5000003B704700000000000000000000000064
:104A6000036D03EB4111D1F8003923F40013C1F8B1
:104A70000039704700000000000000000000000046
:104A8000026970B51469D368DBB21C40E343A60722
:104A9000054613611DD4600716D421070FD4E20622
:104AA00008D4E30700D470BD6B6828469B68BDE856
:104AB000704018476B6828469B6A9847F1E76B6817
:104AC00028461B6A9847EAE76B6828469B6998471F
:104AD000E3E743681B699847DDE700BF000000007B
:104AE00008B5FCF795FE0448FFF7CAFFFCF7B0FED7
:104AF000BDE80840FCF7D4BCE4180020000000002A
:104B000008B5FCF785FE0448FFF7BAFFFCF7A0FEE6
:104B1000BDE80840FCF7C4BCF81800200000000005
:104B200038B5064D064C2846FDF76AFD054B2B614E
:104B30002046FDF765FD044B236138BDE4180020D5
:104B4000F8180020000400400008004000000000A9
:104B50000378012B70B5044661D041680369086B86
:104B6000002220F0FF001A60D8601A615A639A632D
:104B7000DA631A645A62E0680A68B0FBF2F6751EDE
:104B8000B5F5803F03D202FB06F2904204D03948CB
:104B9000FCF7DEFE616823692089CA68CC6A0138A7
:104BA00002F00F0280B2ADB2012A9D62D8625C6051
:104BB00003D0022A0CBF03220022486900F00F0034
:104BC000012829D0022825D0C86900F00F0001284B
:104BD0001DD0022819D0486A00F00F00012803D028
:104BE000022803D142F4005242F4805201201A629A
:104BF00058618968DA680020814218BF42F00102DA
:104C00008521DA601861196070BD42F4007242F4C7
:104C10008072E0E742F0200242F01002D4E7164B27
:104C2000984209D0154B984218D02369616846F61E
:104C300068029A61DA619EE7114B1A6C42F0020237
:104C40001A641A6A42F0020200211A621D201962D7
:104C50007021FCF795FC0B4BE360E6E7084B1A6C00
:104C600042F004021A641A6A42F0040200211A6235
:104C70001E20ECE710A00008E4180020F81800201F
:104C80000038024000BD01050000000000000000E7
:104C9000436810B4046903EBC10001F10C0300691F
:104CA00004EB83035A6040B10223E2688B40134255
:104CB00003D11A43DB43E26023615DF8044B704784
:104CC000034A93899BB243F080039381704700BFEE
:104CD0000010014000000000000000000000000083
:104CE000F8B54B4EFCF794FD756FAB892C88A4B2D8
:104CF000E0059FB255D4202383F31188FCF750FDC3
:104D0000A10621D508E0A9884148C9B2FDF738FDC0
:104D10002C88A4B2A00617D52207F4D014F0080FEF
:104D200014BF8021002114F0010F18BF41F02001B1
:104D3000A30748BF41F040016407364848BF41F42B
:104D40008071FDF735F9DEE7FCF742FD002383F3C0
:104D50001188390601D5220636D4630605D4FCF73E
:104D600077FDBDE8F840FCF79BBB202383F3118857
:104D7000FCF716FD726CB36C25489A4236D027F0CA
:104D800040039BB24FF6BF72AB812A80FCF720FD37
:104D9000002383F31188FCF75BFDBDE8F840FCF7C6
:104DA0007FBB202383F31188FCF7FAFC301D4FF4FE
:104DB0000071FDF7FDF8FCF70BFD002383F311886C
:104DC0004FF6FF632B8096E7202383F31188FCF7CF
:104DD000E7FC1148FDF764FA00280FDB80B2A880D9
:104DE000FCF7F6FC002383F31188B6E7836B002BF6
:104DF000C5D004301021FDF7DBF8C0E705480821D5
:104E0000FDF7D6F827F0C00343F04003AB81E7E796
:104E10000C190020101900203C190020000000008F
:104E200010B5044C044A20460021FDF789FC034BD1
:104E3000636710BD0C190020C14C00080010014030
:104E4000FEF71EBD00000000000000000000000092
:104E5000704700BF000000000000000000000000DC
:104E600038B50C1E054609DD2046FDF7C9FA00B12C
:104E700038BD0C232B604FF0FF3038BD0148FCF7E4
:104E800067FDF1E730A1000800000000000000000D
:104E9000022906D0032906D00129064818BF0020A0
:104EA000704705487047032A9ABF044B03EBC200C2
:104EB00000207047F0A2000870A10008C0A20008FE
:104EC00002291AD138B505460C46202383F31188F0
:104ED000FCF766FC28460121084AFDF7F9FE214649
:104EE000074A2846FDF7F4FE0648FDF789FDFCF762
:104EF0006FFC002383F3118838BD704740A1000880
:104F000080A10008981900200000000000000000A7
:104F1000054BD3F854321B681878A0F10400B0FA9E
:104F200080F04009704700BF981900200000000081
:104F300038B50E4D0E4C2846FDF70AFD0D492846A2
:104F4000FDF72EFD226D936B23F40023936340F253
:104F5000DC50FCF7A5FF20460749FDF789FE226DCE
:104F6000936B43F40023936338BD00BF981900206E
:104F700010170020E0A20008B0A100080000000007
:104F800008B5054B054A9B699A610549054A0648DB
:104F90000423FDF7FDFAF8E70C16002000A3000833
:104FA000D0A4000800240020D81600200000000033
:104FB000F8B50C4B0C4A9B690C4D9A614FF40057A5
:104FC0004FF00056FFF7A4FF002814BF7D244FF4D4
:104FD000FA742046AF61FCF763FF2046AE61FCF730
:104FE0005FFFEFE70C1600200CA30008000C024046
:104FF00070B58149054600F0E3FF044658B100252D
:105000000A2020444378312B00D0103501237B4AFD
:10501000AB40936170BD2846794900F0D1FF04464A
:1050200008B10125ECE72846764900F0C9FF04469F
:1050300010B102250920E4E72846734900F0C0FFBB
:10504000044610B103250D20DBE728466F4900F028
:10505000B7FF044610B104250A20D2E728466C4960
:1050600000F0AEFF044610B106250820C9E7284627
:10507000684900F0A5FF044610B107250520C0E7E8
:105080002846654900F09CFF044610B10825092018
:10509000B7E72846614900F093FF044608B10925A7
:1050A000AEE728465E4900F08BFF044610B10A25A2
:1050B0002846A6E728465B4900F082FF044610B167
:1050C0000B2528469DE72846574900F079FF0446FE
:1050D00010B10C25082094E72846544900F070FFD1
:1050E000044690B105250B200130204400210A22FE
:1050F00001F006F94E4B053D1860042D04D8DFE899
:1051000005F066685423420070BD2846494900F006
:1051100057FF044610B106250E20E5E7284646490C
:1051200000F04EFF044610B107250920DCE72846B1
:10513000424900F045FF0646C0B1093021460A2227
:1051400001F0DEF83A4B18603D493E4A0C8983B2C3
:1051500003FB04F382FB0302DB17C3EB2232084696
:1051600092B20221BDE87040FDF77ABA284636496E
:1051700000F026FF0028C7D00B3031460A2201F08C
:10518000BFF82B4B18602E492E4A0C8983B203FBC3
:1051900004F382FB0302DB17C3EB2232084692B210
:1051A0000321BDE87040FDF75BBA25490C89254A0B
:1051B00083B203FB04F382FB0302DB17C3EB22324F
:1051C000084692B20121BDE87040FDF749BA1F4977
:1051D000ECE71B491B4A0C8983B203FB04F382FBF7
:1051E0000302DB17C3EB2232084692B20021BDE86E
:1051F0007040FDF735BA00BF10A30008000C024054
:105200001CA3000828A3000834A3000844A3000836
:1052100050A300085CA3000864A3000870A3000862
:105220007CA3000888A3000894A30008A0A300089A
:105230002C220020ACA30008BCA30008C8A30008CF
:10524000F8180020AD8BDB68D4A30008E418002018
:1052500070B582B002A9154C002341F8043D2046E8
:105260000A2201F04DF801990B783A2B01D002B0D7
:1052700070BD0F4E336898420546F8DC421C8B5CCB
:105280003B2BF4D101310B48FBF742F80948FFF7FB
:10529000AFFE0199023529440D1B2046C5F180025D
:1052A00000F00EFC33685B1B3360E0E780230020D6
:1052B000541C00202C2100200000000000000000F1
:1052C00038B5074D2C68032C4FF0000307DDA342CF
:1052D00005D0FFF7BDFF23462C68032CF7DC38BD53
:1052E000541C00200000000000000000000000002E
:1052F000124B134A9B69134E134DDFF85C9080B537
:10530000124F9A61B84604E0FFF7DAFF0520FCF778
:10531000C7FD40220E480F493368FCF711FF0246D3
:1053200028600028F2D0386814187F2CECD8484444
:105330000849FAF7EDFFC8F80040E5E70C16002031
:10534000E0A300080808002028210020541C0020A9
:10535000A4190020141C002080230020000000005D
:1053600070B590B003460A4668460A4900F070FCE2
:10537000041E0ADD084E25460848336869462A4659
:10538000FCF7B6FF241A002CF6DC0120FCF788FDA0
:1053900010B070BDECA3000808080020C819002058
:1053A0002DE9F04F554B564A9B69564C9A6193B084
:1053B000B4F806A0618AB4F80CC0B4F80A90228848
:1053C000E38AB4F802B0B4F804E0E689258AB4F8B8
:1053D0001880A08A27895144B4F822A04B44624423
:1053E000B4F81AC0B4F826905E4475449A44B4F8F0
:1053F0001CE0454BB4F81EB007444244208CB4F87E
:10540000248066447544B4F82AC0B4F82CE04E44B5
:10541000D3F810901B69019359443B4BB4F82EB05C
:1054200038444244B4F828801F698C44864492086A
:1054300002A836494544DA444FEA9E084FEA9C0BDD
:1054400000F006FCB608014602A8FFF789FF3246C5
:1054500002A82F4900F0FCFBAD08014602A8FFF7A7
:105460007FFF2A4602A82B4900F0F2FB014602A862
:10547000FFF776FF5A4602A8274900F0E9FB0146EC
:1054800002A8FFF76DFF424602A8244900F0E0FBA6
:105490004FEA9A0A014602A8FFF762FF524602A8A5
:1054A0001F4900F0D5FB014602A8FFF759FFC9F3D9
:1054B000403202A81B4900F0CBFB014602A8FFF7CF
:1054C0004FFF019B1849C3F3803202A800F0C0FBD4
:1054D000014602A8FFF744FFC7F3C03202A81349F0
:1054E00000F0B6FB014602A8FFF73AFF0120FCF7E7
:1054F000D7FC0520FCF7D4FC5AE700BF0C160020AF
:10550000F4A30008002400200008024004A40008BE
:1055100018A4000830A4000848A4000860A40008EB
:1055200078A400088CA400089CA40008B8A4000873
:1055300010B502FB01F100F02BF8044668B150F8F9
:10554000042C22F00302043A242A18D8132A06D87D
:10555000034600221A605A609A60204610BD00235C
:105560001B2A036043600FD9242A8360C36005BFF0
:105570000361436100F1100300F11803E9E7002122
:1055800000F006FB204610BD00F10803E1E700BF74
:105590002DE9F04F01F10B05162D83B0064627D9F2
:1055A00035F0070500F1B680A94200F2B38000F0A3
:1055B0003FFBB5F5FC7F22D2C24FE80807EBC003E2
:1055C000DC689C4200F0C8816368E168A56823F04C
:1055D0000303234430465A68E96042F001028D60BB
:1055E0005A6000F02DFB0834204603B0BDE8F08F70
:1055F000102900F28F8000F01BFB1025DCE7680A01
:1056000000F08F80042800F25481A809383041004E
:10561000AC4F07EB8101CC68A14206D10CE0002A17
:1056200080F28280E468A14206D0636823F003031D
:105630005A1B0F2AF3DD01380130A2493C6901F100
:10564000080E744500F07D81636823F003035A1B44
:105650000F2A00F36381002AC1F814E0C1F810E0BA
:1056600073DAB3F5007F80F03981DB0801EBC30802
:105670004FEAA30C4A68D8F80890C4F808900123B0
:1056800003FA0CF31343C4F80C804B60C8F80840CD
:10569000C9F80C408210012494409C4262D82342F5
:1056A00006D120F003006400234200F10400FAD088
:1056B00007EBC008C4468146DCF80C309C4507D196
:1056C00041E1002980F25181DB689C4500F03B817B
:1056D0005A6822F00302511B0F29F2DD1C46D3F851
:1056E0000CC054F8088F5A1945F0010941F0010522
:1056F000C3F804903046C8F80CC0CCF808807A6132
:105700003A61C2F80CE0C2F808E05560515000F070
:1057100097FA69E700240C232046336003B0BDE804
:10572000F08F7E213F2073E72344E1685A68A56823
:1057300042F00102E96030468D605A6000F080FA64
:105740000834204603B0BDE8F08F234430465A6841
:1057500042F001025A6000F073FA0834204603B0A8
:10576000BDE8F08FBC68636823F00308454504D8A2
:10577000C5EB08030F2B00F38C80534BDFF858A1C7
:105780001A68DAF8003001332A4404EB080B00F001
:10579000508102F580520F3222F47F6222F00F0214
:1057A000114630460192FFF75BFBB0F1FF3F8146A7
:1057B000019A00F04781834500F2EE80434B19685F
:1057C000CB451144196000F04281DAF80000DFF89F
:1057D00008E101301BBFCBEB090B5944CEF8009018
:1057E000196019F0070100F00781C1F10800C1F547
:1057F0008051814408314A44C2F30B02C2EB010AD2
:10580000514630460193FFF72BFB431C019B00F0F0
:105810002C81C9EB0002524442F001021968C7F81A
:1058200008905144BC42C9F804201960DFF89CA0DC
:1058300016D0B8F10F0F40F2EE806268A8F10C03A9
:1058400023F00703E01802F001024FF0050E1A439F
:105850000F2B6260C0F804E0C0F808E000F2098194
:105860001B4BBC681A68914288BF1960194B1A68B3
:105870009142626888BF196022F003029542A2EB50
:10588000050301D80F2B04DC304600F0D9F90024C1
:10589000AAE6621943F0010345F001056560304650
:1058A000BA60536000F0CCF90834204603B0BDE87C
:1058B000F08F142868D9542800F29780280B6E3096
:1058C0004100A5E66C0C0020182A00201C2A0020AC
:1058D000142A0020102A0020781000205A0A042AD6
:1058E00055D9142A00F2A7805B324FEA420C07EB2D
:1058F0008C0CDFF8BC81DCF8081061457FD04A6869
:1059000022F00302934202D289688C45F7D1CA681B
:105910007B68E260A1609460CC60BBE6631942F0F2
:10592000010745F00105656030464B610B61C3F826
:105930000CE0C3F808E05F609A50083400F080F98A
:1059400052E64B68A6E609F1010919F0030F0CF1C4
:10595000080C7FF4B1AE2CE004F108036469A342A3
:1059600008BF02303FF469AE2EE61A441C46516867
:10597000DB6854F8085F41F0010151603046EB608C
:105980009D6000F05DF92FE65B30410040E69A092A
:1059900038324FEA420CAAE7BC42454B3FF40EAF07
:1059A0009C68626822F0030268E7D8F80080984596
:1059B0007CD110F0030FA8F1080300F1FF30F4D1FF
:1059C0007B6823EA04037B6064009C423FF6CAAE16
:1059D000002C3FF4C7AE234248467FF469AE640012
:1059E000234200F10400FAD062E6B0F5AA7F18D88D
:1059F000E80B773041000BE64FF48051FBE6D8F816
:105A0000043092104FF0010C0CFA02F21343C8F864
:105A100004300A467DE70123C9F804304C460022D1
:105A20002CE740F2545398421CD8A80C7C3041001B
:105A3000EEE51032B4E6542A23D81A0B6E324FEA40
:105A4000420C54E7BC68626822F0030216E7CBF30D
:105A50000B0000287FF4B9AE4244BB6842F001025B
:105A60005A60FDE6FC217E20D2E501224FF0000ABB
:105A7000D4E604F10801304602F0DAFEDAF800104C
:105A8000EEE6B2F5AA7F04D8DA0B77324FEA420C81
:105A90002DE740F254518A4204D89A0C7C324FEAE6
:105AA000420C24E74FF0FC0C7E2220E77B688BE75A
:105AB0006C0C00200000000000000000000000004E
:105AC0008842F0B50DD98B1898420AD28118002A65
:105AD00054D09A1A13F8014D01F8014D9342F9D1AF
