:020000040800F2
:1000000000040020411200084113000841130008B9
:100010004113000841130008411300084113000870
:100020004113000841130008411300087113000830
:10003000411300084113000841130008411400084F
:100040004113000841130008411300084113000840
:100050004113000841130008411300084113000830
:1000600041130008411300084113000881310008C2
:10007000B1310008F1310008313200087132000856
:10008000A1320008E13200081139000841130008CC
:1000900041130008411300084113000841130008F0
:1000A00041130008411300084113000841130008E0
:1000B00041130008411300084113000841130008D0
:1000C00041130008411300084113000841130008C0
:1000D00041130008114900084113000841130008AA
:1000E00041130008411300084113000841130008A0
:1000F0004113000841130008411300082133000890
:10010000411300084113000841130008411300087F
:10011000411300084113000841130008411300086F
:100120006133000891330008D1330008113400080E
:10013000513400084113000841130008411300081E
:10014000411300084113000841130008114700083B
:1001500081340008C134000801350008411300084B
:10016000411300084113000841130008411300081F
:10017000411300084113000841130008411300080F
:1001800041130008411300084113000841130008FF
:1001900041130008411300084113000841130008EF
:0C01A0004113000841130008411300083F
:1001B00010B582B002F0DCF801F0C2F904F0D0FC16
:1001C0001348002102F01CF9002403F059FC1148E7
:1001D0000221032203F044FD0F4B00944FF4A87159
:1001E00002220E4801F0B4FD00940D480D4B4FF46F
:1001F0008871022201F0ACFD04F0E2FD012001F063
:10020000DFFD04F025FE012001F0DAFDF4E700BF78
:10021000A816002000080240F14B0008081D00202D
:10022000E81E0020C14B0008000000000000000094
:10023000844641EA000313F003036DD1403A41D3F1
:1002400051F8043B40F8043B51F8043B40F8043BB0
:1002500051F8043B40F8043B51F8043B40F8043BA0
:1002600051F8043B40F8043B51F8043B40F8043B90
:1002700051F8043B40F8043B51F8043B40F8043B80
:1002800051F8043B40F8043B51F8043B40F8043B70
:1002900051F8043B40F8043B51F8043B40F8043B60
:1002A00051F8043B40F8043B51F8043B40F8043B50
:1002B00051F8043B40F8043B51F8043B40F8043B40
:1002C000403ABDD2303211D351F8043B40F8043BE0
:1002D00051F8043B40F8043B51F8043B40F8043B20
:1002E00051F8043B40F8043B103AEDD20C3205D3F0
:1002F00051F8043B40F8043B043AF9D2043208D0E8
:10030000D2071CBF11F8013B00F8013B01D30B8859
:1003100003806046704700BF082A13D38B078DD037
:1003200010F003038AD0C3F10403D21ADB071CBF09
:1003300011F8013B00F8013B80D331F8023B20F873
:10034000023B7BE7043AD9D3013A11F8013B00F8AC
:10035000013BF9D20B7803704B7843708B78837034
:100360006046704700000000000000000000000030
:1003700081F0004102E000BF83F0004330B54FEA56
:1003800041044FEA430594EA050F08BF90EA020FC3
:100390001FBF54EA000C55EA020C7FEA645C7FEA56
:1003A000655C00F0E2804FEA5454D4EB5555B8BF79
:1003B0006D420CDD2C4480EA020281EA030382EAEA
:1003C000000083EA010180EA020281EA0303362D7C
:1003D00088BF30BD11F0004F4FEA01314FF4801C4F
:1003E0004CEA113102D0404261EB410113F0004F61
:1003F0004FEA03334CEA133302D0524263EB430318
:1004000094EA050F00F0A780A4F10104D5F1200EB5
:100410000DDB02FA0EFC22FA05F2801841F1000110
:1004200003FA0EF2801843FA05F359410EE0A5F1E4
:1004300020050EF1200E012A03FA0EFC28BF4CF015
:10044000020C43FA05F3C01851EBE37101F00045CB
:1004500007D54FF0000EDCF1000C7EEB00006EEBD8
:100460000101B1F5801F1BD3B1F5001F0CD3490862
:100470005FEA30004FEA3C0C04F101044FEA4452B9
:1004800012F5800F80F09A80BCF1004F08BF5FEA40
:10049000500C50F1000041EB045141EA050130BD20
:1004A0005FEA4C0C404141EB010111F4801FA4F1C3
:1004B0000104E9D191F0000F04BF01460020B1FA18
:1004C00081F308BF2033A3F10B03B3F120020CDA50
:1004D0000C3208DD02F1140CC2F10C0201FA0CF02E
:1004E00021FA02F10CE002F11402D8BFC2F1200C93
:1004F00001FA02F120FA0CFCDCBF41EA0C01904049
:10050000E41AA2BF01EB0451294330BD6FEA040491
:100510001F3C1CDA0C340EDC04F11404C4F120027C
:1005200020FA04F001FA02F340EA030021FA04F38E
:1005300045EA030130BDC4F10C04C4F1200220FAE5
:1005400002F001FA04F340EA0300294630BD21FA23
:1005500004F0294630BD94F0000F83F4801306BFE9
:1005600081F480110134013D4EE77FEA645C18BFDD
:100570007FEA655C29D094EA050F08BF90EA020F74
:1005800005D054EA000C04BF1946104630BD91EA6C
:10059000030F1EBF0021002030BD5FEA545C05D16F
:1005A0004000494128BF41F0004130BD14F58004AE
:1005B0003CBF01F5801130BD01F0004545F0FE4122
:1005C00041F470014FF0000030BD7FEA645C1ABF57
:1005D000194610467FEA655C1CBF0B46024650EA8E
:1005E000013406BF52EA033591EA030F41F40021BA
:1005F00030BD00BF90F0000F04BF0021704730B540
:100600004FF4806404F132044FF000054FF0000114
:1006100050E700BF90F0000F04BF0021704730B5D5
:100620004FF4806404F1320410F0004548BF4042AA
:100630004FF000013EE700BF42004FEAE2014FEAFF
:1006400031014FEA02701FBF12F07F4393F07F4FDA
:1006500081F06051704792F0000F14BF93F07F4F0C
:10066000704730B54FF4607401F0004521F000414F
:1006700020E700BF50EA010208BF704730B54FF0D5
:1006800000050AE050EA010208BF704730B511F0DA
:10069000004502D5404261EB41014FF4806404F112
:1006A00032045FEA915C3FF4DCAE4FF003025FEA94
:1006B000DC0C18BF03325FEADC0C18BF033202EB1C
:1006C000DC02C2F1200300FA03FC20FA02F001FA76
:1006D00003FE40EA0E0021FA02F11444C1E600BF15
:1006E00070B54FF0FF0C4CF4E06C1CEA11541DBFC8
:1006F0001CEA135594EA0C0F95EA0C0F00F0DEF893
:100700002C4481EA030621EA4C5123EA4C5350EA77
:10071000013518BF52EA033541F4801143F48013C8
:1007200038D0A0FB02CE4FF00005E1FB02E506F059
:100730000042E0FB03E54FF00006E1FB03569CF0AE
:10074000000F18BF4EF0010EA4F1FF04B6F5007FB4
:1007500064F5407404D25FEA4E0E6D4146EB060626
:1007600042EAC62141EA55514FEAC52040EA5E50AF
:100770004FEACE2EB4F1FD0C88BFBCF5E06F1ED859
:10078000BEF1004F08BF5FEA500E50F1000041EB90
:10079000045170BD06F0004646EA010140EA02003D
:1007A00081EA0301B4EB5C04C2BFD4EB0C0541EA5F
:1007B000045170BD41F480114FF0000E013C00F374
:1007C000AB8014F1360FDEBF002001F0004170BD98
:1007D000C4F10004203C35DA0C341BDC04F11404B1
:1007E000C4F1200500FA05F320FA04F001FA05F23D
:1007F00040EA020001F0004221F0004110EBD3700A
:1008000021FA04F642EB06015EEA430E08BF20EA35
:10081000D37070BDC4F10C04C4F1200500FA04F3D8
:1008200020FA05F001FA04F240EA020001F000416A
:1008300010EBD37041F100015EEA430E08BF20EADD
:10084000D37070BDC4F1200500FA05F24EEA020E25
:1008500020FA04F301FA05F243EA020321FA04F054
:1008600001F0004121FA04F220EA020000EBD3700B
:100870005EEA430E08BF20EAD37070BD94F0000F0B
:100880000FD101F00046400041EB010111F4801F3F
:1008900008BF013CF7D041EA060195F0000F18BFF0
:1008A000704703F00046520043EB030313F4801F2C
:1008B00008BF013DF7D043EA0603704794EA0C0FE6
:1008C0000CEA135518BF95EA0C0F0CD050EA4106FC
:1008D00018BF52EA4306D1D181EA030101F0004179
:1008E0004FF0000070BD50EA410606BF10461946A1
:1008F00052EA430619D094EA0C0F02D150EA0136AD
:1009000013D195EA0C0F05D152EA03361CBF1046ED
:1009100019460AD181EA030101F0004141F0FE418C
:1009200041F470014FF0000070BD41F0FE4141F410
:10093000780170BD70B54FF0FF0C4CF4E06C1CEA10
:1009400011541DBF1CEA135594EA0C0F95EA0C0FC5
:1009500000F0A7F8A4EB050481EA030E52EA033580
:100960004FEA013100F088804FEA03334FF08055A1
:1009700045EA131343EA12634FEA022245EA1115CE
:1009800045EA10654FEA00260EF000419D4208BF7F
:10099000964244F1FD0404F5407402D25B084FEA2C
:1009A0003202B61A65EB03055B084FEA32024FF4D8
:1009B00080104FF4002CB6EB020E75EB030E22BF35
:1009C000B61A754640EA0C005B084FEA3202B6EBF5
:1009D000020E75EB030E22BFB61A754640EA5C00A4
:1009E0005B084FEA3202B6EB020E75EB030E22BF34
:1009F000B61A754640EA9C005B084FEA3202B6EB35
:100A0000020E75EB030E22BFB61A754640EADC00F3
:100A100055EA060E18D04FEA051545EA16754FEA55
:100A200006164FEAC30343EA52734FEAC2025FEA73
:100A30001C1CC0D111F4801F0BD141EA00014FF002
:100A400000004FF0004CB6E711F4801F04BF0143D3
:100A50000020B4F1FD0C88BFBCF5E06F3FF6AFAEEF
:100A6000B5EB030C04BFB6EB020C5FEA500C50F17F
:100A7000000041EB045170BD0EF0004E4EEA113102
:100A800014EB5C04C2BFD4EB0C0541EA045170BD09
:100A900041F480114FF0000E013C90E645EA060E4D
:100AA0008DE60CEA135594EA0C0F08BF95EA0C0F7B
:100AB0003FF43BAF94EA0C0F0AD150EA01347FF4C3
:100AC00034AF95EA0C0F7FF425AF104619462CE79A
:100AD00095EA0C0F06D152EA03353FF4FDAE1046FD
:100AE000194622E750EA410618BF52EA43067FF44E
:100AF000C5AE50EA41047FF40DAF52EA43057FF4DE
:100B0000EBAE12E700000000000000000000000053
:100B10004FF0FF3C06E000BF4FF0010C02E000BFC9
:100B20004FF0010C4DF804CD4FEA410C7FEA6C5CAC
:100B30004FEA430C18BF7FEA6C5C1BD001B050EA4F
:100B4000410C0CBF52EA430C91EA030F02BF90EA3A
:100B5000020F0020704710F1000F91EA030F58BFF9
:100B6000994208BF90422CBFD8176FEAE37040F05B
:100B7000010070474FEA410C7FEA6C5C02D150EAF9
:100B8000013C07D14FEA430C7FEA6C5CD6D152EAB4
:100B9000033CD3D05DF8040B704700BF8446104679
:100BA00062468C461946634600E000BF01B5FFF778
:100BB000B7FF002848BF10F1000F01BD4DF808ED48
:100BC000FFF7F4FF0CBF012000205DF808FB00BF19
:100BD0004DF808EDFFF7EAFF34BF012000205DF873
:100BE00008FB00BF4DF808EDFFF7E0FF94BF0120C0
:100BF00000205DF808FB00BF4DF808EDFFF7CEFFC1
:100C000094BF012000205DF808FB00BF4DF808EDFF
:100C1000FFF7C4FF34BF012000205DF808FB00BFD0
:100C20004FEA410212F5001215D211D56FF4787314
:100C3000B3EB625212D94FEAC12343F0004343EAB7
:100C4000505311F0004F23FA02F018BF4042704792
:100C50004FF00000704750EA013005D111F000401C
:100C600008BF6FF0004070474FF00000704700BFB2
:100C700053B94AB9002908BF00281CBF4FF0FF3103
:100C80004FF0FF3000F03CB882B0EC462DE9005048
:100C900000F01EF8DDF804E002B00CBC704700BFA5
:100CA0002DE9F041069C154606460F46984600F091
:100CB0002FF805FB01F300FB0838A5FB0023B21A4F
:100CC000434467EB0303C4E90023BDE8F08100BFA0
:100CD0002DE9F041069C904606460F461D4600F061
:100CE00067F900FB05F5A0FB082308FB0155B21AC4
:100CF0002B4467EB0303C4E90023BDE8F08100BF88
:100D0000704700BF0000000000000000000000006D
:100D100000292DE9F043C0F2A6800026002BC0F286
:100D20009C80884694469E46154604460F46002BF6
:100D30003DD18A4259D9B2FA82F33BB1C3F12002C4
:100D40009F4020FA02F29D4017439C40290C220C40
:100D5000B7FBF1FEA8B201FB1E7742EA074700FB92
:100D60000EF3BB420AD97F190EF1FF3280F00581E4
:100D7000BB4240F20281AEF1020E2F44FF1AA4B230
:100D8000B7FBF1F301FB137744EA074700FB03F0DD
:100D9000B84208D97F1903F1FF3280F0F080B842E1
:100DA00040F2ED80023B43EA0E43002203E08B4217
:100DB0000FD900221346341C18BF012460424FF0A3
:100DC000000565EB45015840514000196941BDE8F7
:100DD000F083B3FA83F2002A40F086808B4202D37C
:100DE000844500F2DB800123E5E712B90123B3FB60
:100DF000F2F5B5FA85F000283BD1781B4FEA154E85
:100E00001FFA85FC0122B0FBFEF8210C0EFB18072F
:100E100041EA07470CFB08F3BB4207D97F1908F1E9
:100E2000FF3102D2BB4200F2BD808846FF1AA4B255
:100E3000B7FBFEF30EFB137744EA07470CFB03FCFA
:100E4000BC4507D97F1903F1FF3102D2BC4500F23E
:100E5000A7800B4643EA0843ADE752426FEA060615
:100E600063EB43035DE7404261EB41014FF0FF3626
:100E700054E7C0F1200224FA02F107FA00F385409A
:100E80004FEA154ED7401943B7FBFEF20B0C0EFB91
:100E900012771FFA85FC43EA07430CFB02F79F42D7
:100EA00004FA00F407D95B1902F1FF3074D29F42B3
:100EB00072D9023A2B44DF1B89B2B7FBFEF80EFB56
:100EC000187341EA03430CFB08F79F4208D95B19EA
:100ED00008F1FF315CD29F425AD9A8F102082B4495
:100EE000D81B48EA02428EE7C2F120032CFA03F134
:100EF0000EFA02FE20FA03F741EA0E0E08FA02F09B
:100F000028FA03F14FEA1E453843B1FBF5F8030C0C
:100F100005FB18111FFA8EF743EA014107FB08F39E
:100F20008B420CFA02FC09D911EB0E0108F1FF39D2
:100F300030D28B422ED9A8F102087144C91A80B26E
:100F4000B1FBF5F305FB131140EA014107FB03F781
:100F50008F4208D911EB0E0103F1FF3016D28F42F8
:100F600014D9023B714443EA0843C91BA3FB0C8913
:100F7000494509D305D000221DE79646FEE61346F3
:100F800011E794404445F6D2013BF4E70346EAE713
:100F90008846A5E7C846D1E702468CE713460AE72C
:100FA000023B57E7A8F102082F443FE7000000008A
:100FB0002DE9F041002B44D18A42154604464FD911
:100FC000B2FA82F70E464FB1C7F12003B94020FABA
:100FD00003F602FA07F50E4300FA07F44FEA154E3E
:100FE000230CB6FBFEF0AFB20EFB106143EA0143E7
:100FF00007FB00F1994209D95B1900F1FF3280F03B
:10100000EC80994240F2E98002382B445A1AA4B28B
:10101000B2FBFEF30EFB132244EA024207FB03F786
:10102000974208D9521903F1FF3180F0D8809742D6
:1010300040F2D580023B43EA004000263146BDE83D
:10104000F0818B4247D8B3FA83F6002E48D18B4209
:1010500002D3824200F2CD8001203146BDE8F0810A
:1010600012B90125B5FBF2F5B5FA85F8B8F1000F14
:1010700077D14A1B4FEA154EAFB20126B2FBFEF004
:10108000230C0EFB102143EA014107FB00F38B42C6
:1010900007D9491900F1FF3202D28B4200F2BA801F
:1010A0001046C91AA4B2B1FBFEF30EFB131144EAB9
:1010B000014407FB03F7A74208D9641903F1FF3283
:1010C00080F08F80A74240F28C80023B43EA0040D0
:1010D0003146BDE8F081002630463146BDE8F0815A
:1010E000C6F1200422FA04F5B3402B4320FA04FC95
:1010F00001FA06F721FA04F54FEA134E4CEA070706
:10110000B5FBFEF8390C0EFB18551FFA83FC41EABB
:1011100005450CFB08F1A94202FA06F204D9ED18C4
:1011200008F1FF3467D3A0466D1ABFB2B5FBFEF4D9
:101130000EFB145547EA05410CFB04FC8C4504D911
:10114000C91804F1FF355CD32C4644EA0844CCEBC3
:101150000101A4FB0223994248D344D02046002633
:101160006CE7C8F1200401FA08F305FA08F520FA43
:1011700004F7E1404FEA154E1F43B1FBFEF63A0C6F
:101180000EFB16111FFA85FC42EA01430CFB06F226
:101190009A4200FA08F407D95B1906F1FF3137D2F9
:1011A0009A4235D9023E2B449B1ABFB2B3FBFEF0E4
:1011B0000EFB103347EA03430CFB00F1994207D9B9
:1011C0005B1900F1FF3221D299421FD902382B441A
:1011D0005A1A40EA0646674650E7104616E70B469D
:1011E00029E7134672E7B0409042B7D2601E00264E
:1011F00024E7304622E7A94295D9A8F102081D4408
:1012000092E78C45A0D9023C19449EE71046DFE7DF
:101210000E46C9E70238294443E700BF000000003A
:10122000704700BF00000000000000000000000048
:10123000FEE700BF0000000000000000000000000A
:1012400072B6314880F30988022383F31488BFF310
:101250006F8F2E4B2E4A93420BD2D9430A4422F071
:10126000030204321A444FF0553143F8041B9342F1
:10127000FBD1284B83420CD2274A191D521A22F067
:10128000030204321A444FF0553143F8041B9342D1
:10129000FBD103F0EDFB214A214B9A420CD2D04303
:1012A000184420F003001F4B0430184453F8041B6B
:1012B00042F8041B8342F9D11B4B1C4A93420AD2C9
:1012C000D9430A4422F0030204321A44002143F8AD
:1012D000041B9342FBD1164D164CFFF7A1FFAC4205
:1012E00004D254F8043B9847AC42FAD3124D134C45
:1012F000FEF75EFFAC4204D254F8043B9847AC4280
:10130000FAD3FFF795FF00BF00080020000000207F
:101310000004002000040020030800200008002032
:101320008810002060A00008881000202C210020D8
:10133000AC010008AC010008AC010008AC010008D9
:10134000FEE700BF000000000000000000000000F9
:1013500072B6FEE700000000000000000000000080
:1013600000F076F900F054FC00F08AF900DF00BFCD
:10137000EFF30983203383F30988002383F3118873
:10138000704700BF000000000000000000000000E7
:1013900008B5094B094A002199600720DA6010213D
:1013A00000F0A6F80A20202100F0A2F80B208021EE
:1013B000BDE8084000F09CB800ED00E00003FA052D
:1013C000202383F31188184B5B6813F400631AD051
:1013D000EFF309834FF0807243F8042CA3F120024D
:1013E00082F3098811498A6992F8230070B108686C
:1013F000916882688A4294BF002201227AB10C4A25
:1014000043F8082C704783F3118870470868916887
:1014100082688A4234BF00220122002AEFD1054AA5
:1014200043F8082C704700BF00ED00E0DC150020F9
:10143000611300086C1300080000000000000000A9
:1014400008B500F075F9202383F3118800F038F90E
:1014500000F0AEF800F04CF9002383F3118800F09F
:1014600087F9BDE80840FFF7ABBF00BF00000000F0
:101470002DE9F04FC1F80CD0D0F80CD0BDE8F08FBA
:1014800008B500F0FDF8002383F311882846A04733
:1014900000F0D6FC08BD00BF000000000000000006
:1014A00020F0030202F1604202F5614270B4430988
:1014B00000F00304D2F80053E400FF269B00A6408E
:1014C00003F16043A14025EA060503F561430124C9
:1014D00000F01F0004FA00F02943C2F8001370BCAA
:1014E000C3F8800118607047000000000000000091
:1014F00020F0030303F1604303F56D4300F00300A4
:1015000010B4C0009A69FF24844022EA040281409A
:10151000114399615DF8044B704700BF0000000063
:10152000024B034A9B699A61FEE700BFDC1500206D
:10153000D091000800000000000000000000000042
:1015400030B583B0FFF724FF00F002FA00F098F9FD
:1015500000F0B6FE00F0FCFE00F05AF940210E4803
:101560000E4D00F065FB01240D4BC36180F8204057
:10157000A86100F055F8002383F3118862B6AA69C8
:1015800008499161084800932246084BE02100F089
:10159000DFFB03B030BD00BF88100020DC15002049
:1015A0000004002050930008D810002021150008E6
:1015B000F8B500F0FDF8164B9B6993F8232012B1A3
:1015C000013A83F823205A6A124D01325A62EB68BD
:1015D0002C680133AC42EB6018D0A768013FA760CC
:1015E000A7B92368E668E7605D602B6000F080F8CB
:1015F000002383F311882069B047202383F31188E7
:1016000000F05EF82C68A368002BEAD0F8BD00BF9C
:10161000DC150020CC1500200000000000000000B8
:10162000054B1B6813B9054B1B6823B1044B054AD6
:101630001A60FFF78DBE7047B8110020C415002056
:10164000C8150020F0910008000000000000000014
:10165000074B1B6810B5074C0BB9236823B1064B29
:10166000064A1A60FFF774FE0123236010BD00BF15
:10167000B8110020C4150020C8150020F8910008FA
:10168000094B1B6810B5094C2BB92368002B02DDF0
:101690000023236010BD064B064A1A60FFF758FE70
:1016A0000023236010BD00BFB8110020C415002026
:1016B000C815002000920008000000000000000093
:1016C000074B1B68002B10B5064C01DD236823B1C6
:1016D000054B064A1A60FFF73BFE0123236010BD4D
:1016E000B8110020C4150020C81500200892000879
:1016F000094B1B68002B10B5084C05DD2368002B37
:1017000002DD0023236010BD054B064A1A60FFF777
:101710001FFE0023236010BDB8110020C415002057
:10172000C815002010920008000000000000000012
:1017300010B5202383F31188094C2368002B02DBAA
:10174000084A12682AB1084B084A1A60FFF700FEDF
:10175000236801332360002383F3118810BD00BF89
:10176000B8110020C4150020C815002018920008E8
:1017700010B5202383F31188094C2368002B02DD68
:10178000084A12682AB1084B084A1A60FFF7E0FDC0
:101790002368013B2360002383F3118810BD00BF41
:1017A000B8110020C4150020C815002020920008A0
:1017B000064B1B68002B04DB054B1B68002B00DD70
:1017C0007047044B044A1A60FFF7C2BDB8110020ED
:1017D000C4150020C8150020289200080000000051
:1017E000064B1B6823B9064B1B68002B00DD7047B6
:1017F000044B054A1A60FFF7ABBD00BFB8110020CB
:10180000C4150020C8150020309200080000000018
:10181000034A1346402143F8081B5360704700BF3A
:10182000BC110020000000000000000000000000CB
:101830000C4A0D495368896910B40C4CE4681C606B
:101840005960816A996090F820101973103302F57D
:1018500081618B4228BF02F1080353605DF8044B9D
:10186000704700BFBC110020DC150020CC15002003
:10187000014B1860FFF76CBDC81500200000000088
:10188000044B4FF0FF3100225B601B609960DA600F
:10189000704700BFCC1500200000000000000000D1
:1018A000F8B505460C4616461F46FFF781FFCDB139
:1018B000C6B1BCB10D492F610B68EE609A689442C5
:1018C00004D91B68A41A9A68A242FAD35A686A60BB
:1018D0008B422B605D601560AC6002D09968091B7B
:1018E0009960F8BD0248FFF7C3FFE3E7CC1500207D
:1018F000409200080000000000000000000000000E
:1019000010B50446FFF754FF84B1E36893B1236830
:101910000A4A934203D09968A2680A449A606268AE
:101920001360216800234A60E36010BD0448FFF79C
:101930009FFFEAE70348FFF79BFFE8E7CC1500208D
:1019400050920008609200080000000000000000B3
:10195000034B00225B601B605B611B619A607047F8
:10196000DC15002000000000000000000000000066
:1019700010B50446FFF71CFF94F820308BB10E2BF6
:101980000FD00022A168094B84F820201B689A68B8
:101990008A42FBD25A686260236020465C60146011
:1019A00010BD0348FFF764FFEBE700BFDC15002024
:1019B000809200080000000000000000000000000D
:1019C00010B52023044683F31188FFF779FE94F8BD
:1019D00020300D2B11D8DFE803F016101007100B84
:1019E000101010101010100BA26A9368013393604E
:1019F00094E80C001A60226853604FF0FF33A36232
:101A00002046FFF7B5FFFFF773FE002383F311882D
:101A100010BD00BF0000000000000000000000003A
:101A200070B5114C0646FFF7DBFE2368A5691A68FE
:101A300085F820601420012185F823005460284691
:101A400083F820102260A361FFF7F2FEEA69ADF18E
:101A500024039A4202D90548FFF70AFFA0692946E4
:101A6000BDE87040FFF704BDDC150020949200082B
:101A700070B50C4686B00646FFF7B2FE631C12D066
:101A80000D4D0E4AAB69214601A8FFF709FF30460C
:101A9000FFF7C6FF049B13B101A8FFF731FFAB6945
:101AA000986A06B070BD044D3046FFF7B9FFAB69C8
:101AB000986A06B070BD00BFDC150020C11900088F
:101AC00070B5164D04460E46FFF78AFEA869A26857
:101AD0008368A6629A4213D9FFF74AFF012306469C
:101AE00084F82030AC61FFF7A3FEF269ADF1240366
:101AF0009A420AD820463146BDE87040FFF7B8BC8C
:101B00002046BDE87040FFF733BF0548FFF7B0FE41
:101B100020463146BDE87040FFF7AABCDC15002026
:101B20009492000800000000000000000000000087
:101B300070B5104C2368A5691A682260142101262B
:101B40005460284683F8206085F82310A361FFF7CE
:101B50000FFF2846FFF76CFEEA69ADF124039A42B5
:101B600002D90548FFF784FEA0692946BDE8704008
:101B7000FFF77EBCDC1500209492000800000000F6
:101B800070B5154D2A68AC691368A0682B600126F2
:101B900000215D6082F820601346AA6184F820105D
:101BA00000E01B689A688242FBD85A686260236032
:101BB00020465C601460FFF73BFEE269ADF1240350
:101BC0009A4202D90548FFF753FEA8692146BDE8AD
:101BD0007040FFF74DBC00BFDC1500209492000858
:101BE00008B5FFF7FDFD064B1A689B6992689B6874
:101BF0009A4200D808BDBDE80840FFF7C1BF00BF4A
:101C0000DC150020000000000000000000000000C3
:101C1000044B9B6993F823300BB1FFF7B1BFFFF77B
:101C200087BF00BFDC15002000000000000000009E
:101C30002DE9F043134C416466694661002200F1CE
:101C400030054FF002094FF014084FF0010C00F17D
:101C50002C0E00F14C078160046180F820906061D7
:101C600080F8238080F822C080F821200264C263BB
:101C7000426282613061C0F82CE0C7614563056350
:101C8000BDE8F083DC15002000000000000000002B
:101C9000884203D200F8012B8842FBD1704700BF75
:101CA0002DE9F84F0446894616469846FFF780FD11
:101CB00014B1B9F1CF0F38D81F48FFF7D9FD1F4D28
:101CC000DFF87CB06F69A9F124016018E06000239F
:101CD00044F801804FF0020A4FF014094FF0010C54
:101CE0000A994160C0F820B004F1300204F12C0ED2
:101CF00004F14C0884F820A084F8213084F8239063
:101D000084F822C0A6602561676166646C61236403
:101D1000E3636362A36120463C61C4F82CE0626324
:101D20002263C4F81C80BDE8F88F7F2EC4D8B8F1B8
:101D3000000FC4D1C0E700BFB0920008DC1500203E
:101D400081140008000000000000000000000000F6
:101D50002DE9F04782B099460A9E0746884692468A
:101D600000F14C040346FF2503F8015B9C42FBD1C4
:101D700007EB08039C4204D2552504F8015B9C4202
:101D8000FBD1202383F31188FFF762FC4B465246B8
:101D9000414600963846FFF783FF00210446FFF7CF
:101DA0008FFEFFF76DFC002383F31188204602B0FD
:101DB000BDE8F08700000000000000000000000007
:101DC00010B5044610B90948FFF752FD202383F3EC
:101DD0001188FFF73DFC21460620FFF749FEFFF77B
:101DE0004FFC002383F3118810BD00BFF092000860
:101DF00038B5104B9C692546A06255F82C0FA842B7
:101E000006D00368E362FFF7B3FDE06AA842F8D1A9
:101E100094F821309B0704D1636922691A61226911
:101E200053610E20FFF7FCFD0348BDE83840FFF783
:101E30001FBD00BFDC15002000930008000000005B
:101E400010B52023044683F31188FFF701FC2046D8
:101E5000BDE81040FFF7CCBF00000000000000000C
:101E600010B5044620B1002364602460A36010BD57
:101E70000148FFF7FDFCF6E7709300080000000042
:101E800038B504460D46FFF793FCC4B1E36B94F8F4
:101E9000202045EA0301082AE1630CD0092A00D07A
:101EA00038BDA36A19408B42FAD12046FFF760FD86
:101EB0000023836238BDA36A1942F6D138BD0248B7
:101EC000FFF7D6FCE2E700BF4C94000800000000DA
:101ED00070B505460E46FFF76BFC65B12C68A54250
:101EE00008D0201D0BC83343E360FFF7C9FF246807
:101EF000A542F6D170BD0248FFF7BAFCEEE700BF7D
:101F000060940008000000000000000000000000D5
:101F100071B1094B9B6910B498624468024683E82A
:101F200014000D20536023605DF8044BFFF7A0BD43
:101F30004FF0FF30704700BFDC15002000000000AC
:101F400030B4029C046200250A448560026140604E
:101F5000006041618161C160C36130BC704700BFF6
:101F600038B50446FFF724FC2068E368636100226B
:101F7000A042A260A3610AD06FF00105036823604C
:101F80005C60FFF7F5FC85622068A042F6D138BDA1
:101F900038B504460D46FFF70BFCA36962699A4207
:101FA000A3681BD00133511CA36061611570626985
:101FB00023699A420BD22068A0420DD003682360A7
:101FC0005C60FFF7D5FC00238362184638BD2068AB
:101FD000E3686361A042F1D1002038BD002BE1D05D
:101FE0006FF0030038BD00BF0000000000000000DB
:101FF000F8B504460F46202383F31188FFF728FB2A
:10200000E36933B12046984703E0FFF781FF061EDE
:1020100018DBA56820463946002DF6D0A269216953
:10202000531C8B4205F1FF35A361A56028BFE3680F
:10203000167828BFA361FFF723FB002383F31188E1
:102040003046F8BDFFF71CFB2B4683F31188304662
:10205000F8BD00BF0000000000000000000000000C
:102060002DE9F047044689461E46D0F81C8092466A
:10207000002A37D0202383F31188FFF7E9FA0027DD
:10208000B8F1000F05D02046C04702E0FFF740FF3F
:1020900000BBA56820463146002DF7D0A369013D5D
:1020A0005A1CA261A5601B7809F8013B2369A2694B
:1020B0009A4224BFE368A361FFF7E2FA002383F3A7
:1020C00011880137BA450AD0202383F31188FFF71E
:1020D000BFFAD5E7FFF7D4FA2B4683F311883846C9
:1020E000BDE8F0870148FFF7C3FBC3E7B0940008E1
:1020F00030B4029C04628D1805614060006082600B
:1021000041618161C160C36130BC70470000000063
:1021100038B50446FFF74CFBE2682369206862612A
:102120009B1AA042A261A3600AD06FF00105036868
:1021300023605C60FFF71CFC85622068A042F6D13A
:1021400038BD00BF000000000000000000000000DB
:102150002DE9F041202304468846174683F3118871
:10216000FFF776FA03E0FFF7D3FE061E1DDBA56836
:1021700020463946002DF6D06369013D5A1C626144
:10218000A56083F80080236962699A4224BFE368EE
:102190006361E3690BB120469847FFF771FA0023AA
:1021A00083F311881846BDE8F081FFF769FA2B46E2
:1021B00083F311883046BDE8F08100BF00000000C5
:1021C00038B50446FFF7F4FA6369A2699342A3683D
:1021D00016D02069511C0133A360A161814215789A
:1021E0000BD22068A04206D0036823605C60FFF732
:1021F000BFFB00238362284638BDE368A361F0E794
:10220000002BE6D06FF0020038BD00BF00000000D8
:102210002DE9F84F04460E469B46D0F81CA0174601
:10222000002A41D0202383F31188FFF711FA4FF0E1
:102230000009A56806F101086A1E204635B36369E6
:10224000A2605A1C626132781A70236962699A42EC
:1022500024BFE3686361BAF1000F00D0D047FFF7F5
:102260000FFA002383F31188013F09F101094FF0B0
:10227000200316D083F31188FFF7EAF9A5684646D4
:102280006A1E06F101082046002DD8D12046594685
:10229000FFF73EFE0028CCD0FFF7F2F92B4683F380
:1022A00011884846BDE8F88F0148FFF7E1FAB9E721
:1022B000C4940008000000000000000000000000BE
:1022C000054A064B0648074922F0070223F0070398
:1022D00002600B60704700BF3321002000C0012066
:1022E000FC150020F8150020000000000000000090
:1022F00010B50446FFF75CFA0649074B08681A68F0
:10230000E31D23F00703121A93429ABF1B180B60B8
:10231000002010BDFC150020F81500200000000072
:1023200010B52023044683F31188FFF791F9204666
:10233000FFF7DEFF0446FFF7A3F9002383F31188BC
:10234000204610BD0000000000000000000000005A
:10235000044B054A1A6003F1100000229A60DA600B
:10236000FFF77EBD001600202123000800000000BA
:1023700008B501F065F900F073FB074801F088FB30
:1023800000F026F800F004F900F08AFB00F008FAEB
:10239000BDE8084002F074BBC099000800000000CE
:1023A00008494A68104482424B6802D29A4202D9D4
:1023B00070479A42F7D9984294BF00230123002B1B
:1023C000F1D17047001000E00000000000000000A4
:1023D00001F0E6B90000000000000000000000006D
:1023E00000230122027043608360C3600361436184
:1023F0001830FFF735BD00BF0000000000000000EE
:1024000038B50D460446B8B1202383F31188FFF791
:102410001FF92378013B012B02D90948FFF728FA5D
:102420002046656001F0DCF902232370FFF728F9EC
:10243000002383F3118838BD0248FFF719FAE3E758
:10244000F0940008E0940008000000000000000084
:10245000F8B504460E4617461D46FFF7A9F9C4B164
:10246000BEB1B7B1012D01D0EB0712D42378022BF6
:1024700005D0043B012B02D90848FFF7F9F90323E3
:10248000A760E560266123702046BDE8F84001F0B2
:10249000DFB90348FFF7ECF9E8E700BF349500081F
:1024A0001C95000800000000000000000000000073
:1024B0002DE9F0411E46044688461746202383F343
:1024C0001188FFF7C5F8636913B10C48FFF7D0F91D
:1024D0000B4D41463A4633462046FFF7B9FFAB69FC
:1024E00063610220FFF79CFAAB699C6AFFF7C8F8AA
:1024F000002383F311882046BDE8F081B4950008DD
:10250000DC150020000000000000000000000000BA
:102510000C30FFF7A5BD00BF000000000000000068
:102520000C304FF0FF33FFF79BBD00BF00000000F1
:102530003030FFF76DBE00BF00000000000000005B
:1025400030304FF0FF33FFF763BE00BF00000000E4
:102550000C30FFF74DBD00BF000000000000000080
:102560000C304FF0FF31FFF743BD00BF000000000B
:102570003030FFF7EDBD00BF00000000000000009C
:1025800030304FF0FF32FFF7E3BD00BF0000000026
:1025900002F05EBA00000000000000000000000031
:1025A00070B50E4B044682B040F8043B01260094FF
:1025B0000B461546606004F1540104F10C002672CC
:1025C0001022FFF7BDFC00942B4604F1300004F10B
:1025D00064011022FFF78CFD02B070BD5096000818
:1025E00038B504460D46FFF7E3F8D4B163693BB153
:1025F000294604F10C00FFF7CBFC00280BDB38BDAB
:10260000201D0421FFF764FC294604F10C00FFF7AC
:10261000BFFC0028F3DA201D8021BDE83840FFF719
:1026200057BC0248FFF724F9E0E700BF28960008EE
:1026300070B5046AD4F8542213681978042900D0BC
:1026400070BD217A0229FBD11B891279134113F045
:102650000105F5D1226CE36BA66BD31A9E1BEFD05C
:10266000FFF70EF82B4683F31188D4F85422334633
:102670001068117904F1300200F0A2FA202383F3EC
:102680001188FEF7E5FFD4F85432BDE870401868B1
:10269000197900F0C5BA00BF00000000000000007A
:1026A000F8B5046AD4F854321A681178042900D0B5
:1026B000F8BD217A0229FBD15979538902EB8102B5
:1026C0000B41D26813F00105578AF1D1A669E2697E
:1026D0006369921BD61AB742EAD8FEF7D1FF2B46A0
:1026E00083F31188D4F85422B6FBF7F310685179BC
:1026F00007FB03F304F10C0200F052FA202383F3EA
:102700001188FEF7A5FFD4F8543218685979BDE84E
:10271000F84000F065BA00BF0000000000000000B3
:102720000C30FFF79DBC00BF00000000000000005F
:102730000C304FF0FF33FFF793BC00BF00000000E8
:102740003030FFF765BD00BF000000000000000052
:1027500030304FF0FF33FFF75BBD00BF00000000DB
:102760000C30FFF745BC00BF000000000000000077
:102770000C304FF0FF31FFF73BBC00BF0000000002
:102780003030FFF7E5BC00BF000000000000000093
:1027900030304FF0FF32FFF7DBBC00BF000000001D
:1027A000704700BF000000000000000000000000B3
:1027B00010B503460E4A43F8042B82B004460122AA
:1027C000009004F15401436002720A4B0C304FF444
:1027D0008072FFF7B5FB009404F1300004F5AA7194
:1027E0004FF48072044BFFF783FC02B010BD00BFB2
:1027F000A0960008A126000831260008000000006D
:1028000070B50D4604460E6808B3202383F3118883
:10281000FEF71EFF237A013B012B02D90E48FFF77A
:1028200027F82B7906EB830302229C616B7909332D
:1028300046F82340AB7906EB8306B461C4F85452E2
:102840002272FEF71DFF002383F3118870BD034839
:10285000FFF70EF8D9E700BF8096000870960008D1
:1028600070B5D0F8543200F10C06044630461D68AD
:10287000FFF776FB04F13000FFF74AFC201D012131
:10288000FFF726FBD4F85432597905EB810328462B
:10289000DB6832465B8A00F083F9D4F8543228466C
:1028A0005979BDE8704000F09BB900BF00000000FE
:1028B00090F8443003F06003202B01D000207047D3
:1028C00090F84530212B03D0222B09D0202BF5D1B5
:1028D000064B836307220023C26303640120704711
:1028E00000238363C3630364012070470008002052
:1028F0002DE9F04100EB8108D8F81840D4B10F461B
:102900000646202383F31188FEF7DAFE201D0821F6
:10291000FFF7DEFA226CE36BA56BD31A5D1B17D1B0
:10292000D8F80C305A69556835B9FEF7E1FE002336
:1029300083F31188BDE8F0811B8A013B1D40F4D16F
:10294000FEF7D6FE2B4683F3118804F1300207E030
:10295000FEF7CEFE002383F3118804F130022B46EC
:102960003046394600F02CF9202383F31188FEF716
:10297000A7FE3046394600F053F9D6E700000000C4
:102980002DE9F84300EB8104666ACEB10F4680461C
:10299000202383F31188FEF793FE301D0421FFF7F7
:1029A00097FA06F11403E26838CBB2F812902D1BA7
:1029B000EC1AA14506D9FEF79BFE002383F311888C
:1029C000BDE8F883FEF794FE002383F31188B4FB7F
:1029D000F9F306F10C0209FB03F34046394600F017
:1029E000DFF8202383F31188FEF76AFE404639465C
:1029F00000F0F6F8DFE700BF000000000000000074
:102A0000704700BF00000000000000000000000050
:102A1000014B5B6883607047001000E0000000001D
:102A20000B4A0C498368526810B40C68C168D31A09
:102A30001B1B8B42836006D802695DF8044B9342EE
:102A400038BF03617047C3605DF8044B704700BF37
:102A5000001000E020160020000000000000000030
:102A600010B586B00A4C0B4B0B4901934FF0FF3069
:102A700000230590236004934B68084A039301A840
:102A80000292FFF7CDFF039B236006B010BD00BF8D
:102A900020160020112A0008001000E0212A00085A
:102AA00001F06EBB0000000000000000000000000C
:102AB0000023012202704360C36183620362C36228
:102AC0004362036303814381704700BF000000003D
:102AD00070B50E460446E8B1E1B1202383F31188B6
:102AE000FEF7B6FD2378013B012B02D90B48FEF718
:102AF000BFFE002520466660E56025616561A56131
:102B000001F066FB02232370FEF7BAFD2B4683F328
:102B1000118870BD0248FEF7ABFEDEE7F0960008B4
:102B2000E096000800000000000000000000000027
:102B3000F8B504460E461546FEF73AFE04B3FDB15D
:102B40002378042B02D01048FEF792FE04EB860790
:102B5000FB6813B10D48FEF78BFE686918B10021C0
:102B6000142202F005FDA86918B10021102202F01C
:102B7000FFFCFD6020463146BDE8F84001F018BC7E
:102B80000348FEF775FEDBE734970008509700080E
:102B90001C9700080000000000000000000000007A
:102BA00070B400EB81040126E468A4690025E260AA
:102BB00063602670A56070BC01F0F2BC00000000EC
:102BC00070B400EB81040126E46864690025E260CA
:102BD00063602670A56070BC01F0FABC00000000C4
:102BE00070B505460E46FEF7E3FD8DB16B8943FADD
:102BF00006F010F0010401D0012070BD0122B240A6
:102C0000134328466B81314601F00AFE204670BD11
:102C10000148FEF72DFEE9E7A49700080000000038
:102C200070B505460E46FEF7C3FD8DB12B8943FAFC
:102C300006F010F0010401D0012070BD0122B24065
:102C4000134328462B81314601F0FAFD204670BD22
:102C50000148FEF70DFEE9E7BC9700080000000000
:102C6000002202210170A0F84C2080F84E2080F84C
:102C70004F2002814281C26002614261826180F81C
:102C8000342001F015BB00BF000000000000000070
:102C9000F8B50023044680F8343000F1440201F016
:102CA0006FFC63689B688BB32046984770B3E56BF5
:102CB00094F8443094F84B1094F84A2042EA0122E8
:102CC000AA423CBFE263154613F0800FE36840F070
:102CD0009380002D73D15B69052284F8342020464F
:102CE0001D70DD605D609D60294601F071FC202350
:102CF00083F31188FEF7E4FC29462046FFF790FF96
:102D0000FEF7F6FC2B4683F31188F8BD94F84430A7
:102D100013F0600711D02046002101F0B9FD2046D4
:102D2000002101F0A5FD63681B6813B12046052151
:102D30009847062384F83430F8BD94F8455003F0E2
:102D40007F0242EA0526B6F5407F00F0108118DDCB
:102D5000B6F5C06F00F0F28040F38780B6F5106FD3
:102D600000F0968040F60242964200F01381B6F5DC
:102D7000006FD0D104F14F0201252764A263E563FF
:102D800098E7022E00F0C38040F3B880B6F5807F4C
:102D900000F0A480B6F5817FBDD194F84620002ACA
:102DA000B9D194F8482012F00F016CD012062046D9
:102DB00000F1188101F07CFD94F8443063E09B69D8
:102DC000A26B0026042184F834102046DA605D608E
:102DD0001E709E60314601F0E3FB202383F31188CF
:102DE000FEF76EFC31462046FFF7FAFEFEF780FC48
:102DF000334683F31188F8BDE5B15B69A26B002609
:102E0000012184F834102046DA605D601E709E60F7
:102E1000314601F0DDFB202383F31188FEF750FCDF
:102E200031462046FFF7FCFEFEF762FC334683F393
:102E30001188F8BD9B69032284F8342020461D7058
:102E4000DD605D609D60294601F0AAFB202383F3CD
:102E50001188FEF735FC29462046FFF7C1FEFEF734
:102E600047FC2B4683F31188F8BD40F202329642AC
:102E700021D0B6F5A06F7FF44EAFB4F84420B2F580
:102E8000A06F00F09D800025A563E563256411E730
:102E900094F8462084F84F20002A40F082800322D4
:102EA000227062681268002AEDD020460221904705
:102EB00094F84430E7E794F84620002A7FF42BAFDB
:102EC00094F8482012F00F01DDD01306204600F1DF
:102ED0008E8001F0CDFC94F84430D4E794F846207D
:102EE000012A7FF418AFB4F84C20A76322F0020245
:102EF000E76327643D46A4F84C20DBE6002E46D16C
:102F000004F14C0202252664A263E563D2E694F83C
:102F1000481011F0800F204601F00F0144D101F05C
:102F20000FFB012844D002287FF4F5AE324BA36397
:102F3000E0632764054694F84430BBE6626894F881
:102F4000490094F84830556894F8471094F84620A2
:102F500043EA00232046A84700283FF4DCAE43683C
:102F60000568E563A363276494F84430A2E694F807
:102F70004620012A7FF4CFAEB4F84C20A76342F07C
:102F80000202E76327643D46A4F84C2092E6012E36
:102F90007FF4C1AE194AA26302250022E5632264D0
:102FA00088E6042222707CE701F0DAFA0128BAD11F
:102FB000134BA363E6632764354694F8443079E6FF
:102FC00094F8463084F84E30204601F0E1F9636809
:102FD0001B6813B1204601219847032294F844301E
:102FE000227050E701F074FC94F844304BE701F094
:102FF0004FFC94F8443046E7D0960008C09600088D
:103000001098000800000000000000000000000010
:1030100038B590F83430022B044647D0052B3ED00B
:10302000012B10D0002101F033FC2046002101F0DB
:103030001FFC63681B6813B12046052198470623CF
:1030400084F8343038BD90F84B3090F84A20C16B8A
:1030500042EA03228A42C26805D9158AB1FBF5F318
:1030600005FB131525B393690025032284F834204A
:1030700029461D70DD605D609D60204601F090FA7C
:10308000202383F31188FEF71BFB29462046FFF718
:10309000A7FDFEF72DFB2B4683F3118838BD036C8B
:1030A00003B19847002384F8343038BDC268DAE7AA
:1030B000536929461D70DD605D609D6001F088FAEE
:1030C000202383F31188FEF7FBFA29462046FFF7F9
:1030D000A7FDFEF70DFB2B4683F31188022384F82E
:1030E000343038BD00000000000000000000000087
:1030F00038B590F83430032B04462FD0042B11D070
:103100002046002101F0C4FB2046002101F0B0FB65
:1031100063681B6813B1204605219847062384F88D
:10312000343038BDC3685B690025052280F834203F
:1031300029461D70DD605D609D6001F049FA202325
:1031400083F31188FEF7BCFA29462046FFF768FD95
:10315000FEF7CEFA2B4683F3118838BDC3689B690E
:103160009B68002BCCD1036C03B19847002384F8F3
:10317000343038BD000000000000000000000000F6
:1031800008B5FEF7D5FA084B084A196801F03D0169
:10319000996013680BB150689847FEF7E9FABDE8EB
:1031A0000840FEF70DB900BF006002402416002061
:1031B00010B5FEF7BDFA094B0948196882688909FC
:1031C00001F03D018C019C600AB1C0689047FEF798
:1031D000CFFABDE81040FEF7F3B800BF0060024030
:1031E0002416002000000000000000000000000085
:1031F00010B5FEF79DFA094B094819680269090CD8
:1032000001F03D010C049C600AB140699047FEF753
:10321000AFFABDE81040FEF7D3B800BF006002402F
:103220002416002000000000000000000000000044
:1032300010B5FEF77DFA094B094819688269890DB6
:1032400001F03D018C059C600AB1C0699047FEF712
:103250008FFABDE81040FEF7B3B800BF006002402F
:103260002416002000000000000000000000000004
:1032700008B5FEF75DFA084B08485968026A01F084
:103280003D01D9600AB1406A9047FEF771FABDE886
:103290000840FEF795B800BF0060024024160020E9
:1032A00010B5FEF745FA094B09485968826A890941
:1032B00001F03D018C01DC600AB1C06A9047FEF765
:1032C00057FABDE81040FEF77BB800BF006002402F
:1032D0002416002000000000000000000000000094
:1032E00010B5FEF725FA094B09485968026B090C1D
:1032F00001F03D010C04DC600AB1406B9047FEF721
:1033000037FABDE81040FEF75BB800BF006002402E
:103310002416002000000000000000000000000053
:1033200010B5FEF705FA094B09485968826B890DFB
:1033300001F03D018C05DC600AB1C06B9047FEF7DF
:1033400017FABDE81040FEF73BB800BF006002402E
:103350002416002000000000000000000000000013
:1033600008B5FEF7E5F9084B08481968026C01F04A
:103370003D0199600AB1406C9047FEF7F9F9BDE84C
:103380000840FEF71DB800BF00640240241600206C
:1033900010B5FEF7CDF9094B09481968826C890907
:1033A00001F03D018C019C600AB1C06C9047FEF7B2
:1033B000DFF9BDE81040FEF703B800BF006402402B
:1033C00024160020000000000000000000000000A3
:1033D00010B5FEF7ADF9094B09481968026D090CE3
:1033E00001F03D010C049C600AB1406D9047FEF76E
:1033F000BFF9BDE81040FDF7E3BF00BF0064024025
:103400002416002000000000000000000000000062
:1034100010B5FEF78DF9094B09481968826D890DC1
:1034200001F03D018C059C600AB1C06D9047FEF72C
:103430009FF9BDE81040FDF7C3BF00BF0064024024
:103440002416002000000000000000000000000022
:1034500008B5FEF76DF9084B08485968026E01F08F
:103460003D01D9600AB1406E9047FEF781F9BDE891
:103470000840FDF7A5BF00BF0064024024160020ED
:1034800010B5FEF755F9094B09485968826E89094C
:1034900001F03D018C01DC600AB1C06E9047FEF77F
:1034A00067F9BDE81040FDF78BBF00BF0064024024
:1034B00024160020000000000000000000000000B2
:1034C00010B5FEF735F9094B09485968026F090C28
:1034D00001F03D010C04DC600AB1406F9047FEF73B
:1034E00047F9BDE81040FDF76BBF00BF0064024024
:1034F0002416002000000000000000000000000072
:1035000010B5FEF715F9094B09485968826F890D06
:1035100001F03D018C05DC600AB1C06F9047FEF7F9
:1035200027F9BDE81040FDF74BBF00BF0064024023
:103530002416002000000000000000000000000031
:103540000D4B30B400220D4D0D4C1A601146134640
:10355000A858016044F833100133102B02F10C021B
:10356000F6D10849084A4FF0FF338B6030BCCB607E
:103570009360D360704700BFA416002070980008C5
:103580002416002000600240006402400000000099
:10359000F0B5054685B000283FD0244C6F7A2668E8
:1035A000012000FA07FE1EEA060F2BD120484EEA42
:1035B000060600EBC70C16F0FF0F266040F8372018
:1035C000CCF8043004D01B48036B43F400130363AE
:1035D00016F47F4F18D12B68186820F01F00186070
:1035E000186810F00104FBD12F7A6E683D20B840B6
:1035F000212730601C605F6162B1A87A0901FDF784
:103600004FFF204605B0F0BD0A48036B43F480032A
:103610000363E0E7104605B0F0BD0748039302924C
:103620000191FEF725F901A90EC9B6E7A4160020FD
:1036300024160020003802402098000800000000F6
:10364000204B21491A694FF0FF300022F0B5186174
:103650001A615C6958615A611C6A1C4FDFF878E096
:103660001B4E1C4D64F080541C621A620724D3F870
:1036700024C058625A62C1F804E08A600C60F9689C
:1036800041F08071F960316841F001013160196CDD
:1036900041F080511964296841F480712960196FE3
:1036A00001F44071B1F5007F03D04FF48031196708
:1036B0001A67084A536823F400735360BDE8F0406A
:1036C000FFF73EBF0038024010E000E0F0ED00E000
:1036D000001000E0007000403F9002000000000079
:1036E0002A4A2B4B4FF080504FF440411064196030
:1036F000136843F001031360136824499807FBD54E
:103700000B68002203F0F9030B6008468A608268A8
:103710001E4B12F00C0FFAD11A6842F480321A6074
:103720001A461168194B8903FBD55A6F42F0010202
:103730005A675A6F15499007FBD5164B4B600B68BB
:10374000134A43F080730B6053685904FCD50F494A
:103750000A680E4B9201FBD50F4A1049996040F25E
:10376000057111609A6842F002029A601A469368E5
:10377000064903F00C03082BF9D14B6C43F480434A
:103780004B644B6E43F480434B66704700380240F5
:103790000070004008544007003C02400094083884
:1037A00010B5084C2046FEF71BFE0749074A084B98
:1037B000A162E262236312206021BDE81040FDF7A0
:1037C0006FBE00BFA816002000200140009900082D
:1037D000162C0200000000000000000000000000A5
:1037E00038B50378012B00D038BD134DA8420446EC
:1037F0000DD01248A26A436803F44003002143F449
:1038000080330124436051609160946038BDC06A88
:103810000B4A06212346FFF7BBFE48B9EB6A094A6B
:103820001B6809499960536C43F480735364E0E763
:103830000648FEF71DF8F1E7A81600200023014016
:1038400091390008003802404C20014030990008AE
:103850000369016B1A782DE9F043C4682AB1012C81
:1038600094BF41F4807141F48471C56A5A882D680F
:103870008668EE6002FB04F203F118086A60DC68F7
:10388000296098E8005119692E68826AD3F814906B
:103890005F6A11F0804F44F0806341F4407146F05C
:1038A00001004FF0000443F4807314BF41F00301A2
:1038B00041F0010128601460C2F80C90C2F8108039
:1038C000C2F82CC0C2F830E0576353609160BDE885
:1038D000F08300BF000000000000000000000000B6
:1038E000C16A0A68136823F01F031360136813F09A
:1038F0000103FBD130B40D7A4C68826A3D21A940A6
:1039000001202160536030BC93609060704700BF1D
:1039100070B5FDF70DFF1C4B1A6800211960930666
:103920002BD51A4CE36A1B685B6833B3236923B356
:103930002046FFF7D5FF23699B684BB10522227013
:103940002046012198472378052B04BF02232370CA
:10395000002525610D4E202383F31188FDF7B0FE6D
:10396000606928B14FF0FF3383627561FEF700F89C
:10397000FDF7BEFE002383F31188FDF7F9FEBDE8D5
:103980007040FDF71DBD00BF00200140A8160020BB
:1039900011F00C0F70B5044619D10369B3B18D064F
:1039A00012D51A78002A45D05D687DB1C268012A17
:1039B0003BD95B888168520803FB02F301EB4301AA
:1039C0002B46BDE870401847CA0625D470BDFFF7E6
:1039D00087FF23699B684BB1052222702046002196
:1039E00098472378052B04BF022323700025256107
:1039F000202383F31188FDF763FE636933B14FF031
:103A0000FF32656118469A62FDF7B2FFFDF770FE5E
:103A1000002383F3118870BD5B68002BD6D0C26889
:103A200081685208BDE8704018472B468168BDE8A0
:103A300070401847FFF754FF23695B68BBB104224D
:103A400022702046A168E26898472378042B0ED0A4
:103A5000202383F31188FDF733FE6369002BD5D053
:103A60000022626118469A62FDF782FFCEE70222C9
:103A7000002322702361EBE700000000000000003B
:103A8000024A536843F40003536070470023014027
:103A90002DE9F04FDFF8B481DFF8B4C1D8F830A0D9
:103AA000DFF8B0E1634F644E644D654C6549664A8A
:103AB000DFF8A4B140F2FF194AEA090AC8F830A0B9
:103AC000D8F850A04AEA0909C8F850904368CCF8E1
:103AD00004308368CCF80830C368CCF80C30036934
:103AE000CCF814304369CCF820308369CCF824300A
:103AF0000368CCF80030036ACEF80430436ACEF88D
:103B00000830836ACEF80C30C36ACEF81430036BE9
:103B1000CEF82030436BCEF82430C369CEF80030A5
:103B2000C36B7B60036CBB60436CFB60836C7B612D
:103B3000C36C3B62036D7B62836B3B60876D776018
:103B4000C76DB760076EF760476E7761876E376243
:103B5000C76E7762476D3760466F6E60866FAE6086
:103B6000C66FEE60D0F880606E61D0F884602E621F
:103B7000D0F888606E62066F2E60D0F89050656055
:103B8000D0F89450A560D0F89850E560D0F89C50DB
:103B90006561D0F8A0502562D0F8A4506562D0F8D5
:103BA0008C502560D0F8AC404C60D0F8B0408C60B0
:103BB000D0F8B440CC60D0F8B8404C61D0F8BC40EC
:103BC0000C62D0F8C0404C62D0F8A8400C60D0F82D
:103BD000C8105160D0F8CC109160D0F8D010D160EE
:103BE000D0F8D4105161D0F8D8101162D0F8DC10A0
:103BF0005162D0F8C4101160D0F8E420CBF8042052
:103C0000D0F8E820CBF80820D0F8EC20CBF80C2036
:103C1000D0F8F020CBF81420D0F8F420CBF82020F6
:103C2000D0F8F820CBF82420D0F8E020CBF8002002
:103C3000BDE8F08F00080240000C02400010024076
:103C40000014024000180240001C024000380240EC
:103C5000000002400004024000200240000000007A
:103C60002DE9F04F4FF00F0C02F0030EC2F3800766
:103C7000C2F3C106C2F341150024C2F3C3124FF0D0
:103C800001094FF003082BE0D0F820B02BEA030322
:103C900043EA0A030362436809FA04FA23EA0A03BF
:103CA0003B4343604FEA440A836808FA0AFA6FEA22
:103CB0000A0A0AEA030333438360C3680AEA030378
:103CC0002B43C36003680AEA030343EA0E0303605D
:103CD000490819D07F00B600AD004FEA8E0E0134BE
:103CE00004F007039B0011F0010F02FA03FA0CFA2B
:103CF00003F3EDD0072CC7D9D0F824B02BEA030387
:103D000043EA0A034362C6E7BDE8F08F0000000003
:103D10002DE9F04FB54BB6499A69066D916185B0B2
:103D20008346202383F31188FDF792FC4FF00009AE
:103D30009BF80030012B05D0DBF85C306BB9736960
:103D4000DB060AD4B369A94A43F010039269B36150
:103D50000220CBF86420FDF763FEFDF791FC002301
:103D600083F311889A46736913F0100423D0DBF8AB
:103D70005000036A03F4F012B2F5802F32D0B2F58E
:103D8000402FF0D103F00F020BEB8202C3F30A13B2
:103D9000D26803339B08146AE5D000F580500222F4
:103DA000016812B144F8041B013A013BF8D1736970
:103DB00013F01004DBD10122DBF85C3002FA0AF2C6
:103DC0001A4202927DD10AF1010ADBF854309B6855
:103DD0005FFA8AFA9A45C6D9202383F31188FDF742
:103DE00037FCA5E703F00F070BEB8707C3F30A15B2
:103DF000FB689A691378EBB953689168D2F80CE0C4
:103E00000333591AEB1C9B084FEA910109D000F5C6
:103E10008050F446046811B14CF8044B0139013B61
:103E2000F8D10EEB0504D460FB689A6993682B44C3
:103E3000936098E7D4683DB300F58050AE46BEF17C
:103E4000030F626908D923699A4205D3E368636165
:103E5000BEF1030F6269F6D8D0F800C0002102F16C
:103E600001082CFA01F3C4F8148013702369626905
:103E70009A4224BFE3686361BEF1010E04D01829A1
:103E8000DDD008316269EAE7202383F31188FDF76A
:103E9000DFFBA36820682B44A042A36009D003681D
:103EA00023605C60FDF764FDC0F828902068A042A4
:103EB000F5D1FDF795FEFDF7E3FB002383F31188B1
:103EC000B2E7202383F31188FDF7C2FBB268DBF869
:103ED0005C30029922F0010223EA0103B260CBF8C0
:103EE0005C30FDF7CDFB234683F311880BEB8A038F
:103EF0001F46DC68626991685368994280F0C0800F
:103F0000DBF85000258A4FEA4A14019404195B1A21
:103F1000D4F818199D4228BF1D468BB2B5EB830F0C
:103F20000AF1010A2DD803963E461378002B3FD1A3
:103F3000EB1C00EB0A3ED0689B0818BF014605D079
:103F400051F8044BCEF80040013BF9D12844D06031
:103F5000F4686269936851682B449942936040F217
:103F60008C80019DDBF85000248A4719CD1AD7F8C0
:103F70001839A54228BF25469BB2B5EB830FD4D98B
:103F8000039E0024202383F31188FDF761FBB368AF
:103F900043F00103B3602CB9D6F83438029A1A43BF
:103FA000C6F83428FDF76CFB002383F311880CE777
:103FB00000EB0A3ED4680DB3D4F810C02A4693082B
:103FC00039D1A369002108465F1CA7611B786745AA
:103FD00003FA01F340EA030024BFE368A361013A56
:103FE00008D0182906D00831A369EDE7DC150020B8
:103FF00060990008CEF80000002AE0D1202383F366
:104000001188FDF725FBA36820682B44A042A3601C
:1040100009D0036823605C60FDF7AAFCC0F8289013
:104020002068A042F5D1FDF7DBFDFDF729FB002359
:1040300083F311888CE7A069BCEB000148BF033112
:1040400089108B4228BF0B464FEA8308C8EB020257
:104050003BB1014651F8047BCEF80070013BF9D129
:1040600040448445A06104D8E368A361002AA6D136
:10407000C4E7002AC2D00346A4E7039E012481E7D7
:104080000AF1010AFAE700BF00000000000000008A
:10409000F0B50024D1F808E025464FF0804C4FF0F1
:1040A000FF3714E0C1F80059C218C2F81059C2F81D
:1040B0000879D1F8006B002E17DBC1F8005B0344D0
:1040C0000134A645C3F8105BC3F8087B14D3630121
:1040D000C118D1F80029002AE4DAC1F800C90E4657
:1040E000D6F808299207FBD5DEE7C1F800CBD2F855
:1040F000081BC906FBD5E2E74FF00113C0F81C38D6
:10410000F0BD00BF00000000000000000000000043
:104110002DE9F041174F3D6D05EB40130646D3F8EE
:10412000084BC3F8084B200703D5D5F814381907F6
:1041300017D4E20703D5D5F81438DB0701D4BDE85E
:10414000F08107EB86017A89C9680A48CC680123A7
:10415000B34022EA03037B8131462346BDE8F041A8
:10416000184707EB86033846DB6831465B6898479B
:10417000DFE700BFE01600200000000000000000A4
:1041800070B50E4C0E4E2046FEF792FC04F1B405BD
:104190004FF0A0432365294604F168000023FF2265
:1041A000666523666366FDF773FD284604F5B67100
:1041B0005522BDE87040FDF76BBD00BFE016002042
:1041C00050990008000000000000000000000000FE
:1041D00070B50378066D012B82B001D002B070BDBE
:1041E0002E4B9842054649D02B6E0022EA65002BE3
:1041F00038D02B4BF3602B492C6DC6F800184FF4C8
:1042000050230022C6F8002E2020B363FEF7C8F822
:10421000012323612369DB07FCD40C20FEF7C0F8DF
:104220002369002BFCDA0024B460286D696DFFF768
:104230002FFF6B68C6F81048DB68C6F81448C6F84C
:104240001C485BB143F20803B3614FF0FF33736165
:10425000B36843F00103B36002B070BD4FF4405344
:10426000B361F2E7009505F168004FF4A8710222EE
:104270000D4BFDF715FD68662866BAE70B4B5A6BC8
:1042800042F080025A635A69002142F080025A616A
:1042900043205961E021FDF703F9A5E7E01600206E
:1042A0004014004003002002113D00080038024085
:1042B000F8B5056D202307462B612B6913F0200408
:1042C000FBD10C20FEF76CF8D7F854E0DEF808605C
:1042D00023464FF00060FF2105EB43120133B34248
:1042E000C2F80009C2F8000BC2F80819C2F8081B8E
:1042F000F2D9DEF800304FF0FF324FF00111C5F86F
:1043000018283A6DC5F81C18BB65DEF800306B62E2
:1043100010231361136913F01004FBD10C20FEF776
:104320003FF8D5F80038786D134A144E23F4FE6335
:10433000C5F80038AB6943F4402343F0100309216A
:10434000AB61C5F81018C5F81418FE60C5F8104B1D
:10435000C5F8002BC5F81049C5F80029BC6D04F15B
:104360001003BB654268934202D90548FDF780FA05
:1043700044F48014AC62F8BD4080001090990008AD
:10438000709900080000000000000000000000001C
:10439000026D90F84E10D2F8003823F4FE6343EA21
:1043A0000113C2F800387047000000000000000050
:1043B0002DE9F84F0FB200EB87080D46D8F80C1026
:1043C000046D0B6803F00303022B064665D0032B34
:1043D00060D05448544A012B0CBF814691466B0172
:1043E000CA68E0184FF0000EC0F810EB002A5BD04E
:1043F000488A05F15802520149EA0000A05005F12F
:10440000100ED4F81C08012202FA0EF20243C4F87E
:104410001C2823448A680020C3F81009002A5DD0B4
:104420008B8B0A8AD6F858B09208012B88BF5A4362
:1044300002EB0B01736DB1655B6899424FEA02476D
:1044400005F1FF3A2CD80AF1400A326D04EB8A0AD2
:10445000AB0147EA0B0743F02003CAF8047013616D
:1044600013699906FCD40C20FDF79AFFD8F80C309C
:104470001B8A05F14802520143EA855343EA0903C6
:10448000A3500123D4F81C28AB401343C4F81C38B4
:10449000BDE8F88FDFF89C90A1E7DFF89C909EE7DD
:1044A0002248FDF7E5F9CEE704EB471205F1100EBF
:1044B000D2F8000B20F40040C2F8000BD4F81C081E
:1044C000012202FA0EF220EA0202C4F81C28234458
:1044D0008A680020C3F81009002AA1D105F13F0322
:1044E000326D134804EB8303A90141F020015860A9
:1044F000116113699B06FCD404EB47170C20FDF7F0
:104500004FFFD7F8002922F40042C7F80029D4F859
:104510001C280123AB4022EA0303C4F81C38BDE881
:10452000F88F00BF00800410008000107099000810
:104530000004000200800C10008008100000000041
:104540005831036D49015B5813F4004004D013F453
:10455000001F14BF01200220704700BF00000000B0
:104560004831036D49015B5813F4004004D013F443
:10457000001F14BF01200220704700BF0000000090
:1045800000EB8101CB681B6A19685B68536011609E
:10459000704700BF000000000000000000000000A5
:1045A00000EB810310B4DB68006D9A695C8A536884
:1045B00000EB41115A1E43F0C0432244B2FBF4F217
:1045C00043EAC243C1F8103B5DF8044B704700BF9B
:1045D00000EB810310B4DC68626953681361ABB10E
:1045E00071B15A1E006D248A00EB41112244B2FBC6
:1045F000F4F243EAC243C1F810395DF8044B704746
:10460000402BEED9402353603F22EBE7036D5DF86A
:10461000044B03EB41114FF40023C1F810397047EC
:104620002DE9F041364D2E6D06EB40130746D3F8C9
:104630000849C3F80849E10703D5D6F81038DA0766
:1046400009D4230605D50124D6F83438BC401C42D1
:104650002ED1BDE8F08105EB8003D9684B6958681D
:104660001A69904240D2121A4FF000085A60C3F8FB
:10467000088028463946FFF7ABFF202383F31188D3
:10468000FDF71EF82B6D03EB47100122D0F800193F
:1046900041F00441C0F80019D3F83418BA400A4375
:1046A000C3F83428FDF724F8434683F31188C8E79C
:1046B000202383F31188FDF703F8EA6DD6F8343828
:1046C000686E0F4F224323EA0404EA65C6F83448B3
:1046D00018B1FDF74DF900237B66FDF709F80023BB
:1046E00083F31188BDE8F0812A89D1F808C001233D
:1046F000BB4022EA03032B8128463946E047A0E766
:10470000E016002000000000000000000000000093
:1047100070B5404EFDF70CF8356D6B69AC691C4007
:10472000E0046C6131D4A10448BFD5F808382207F1
:1047300004D57368DB680BB136489847E3062FD47D
:104740006003D5F8185807D5E90750D4AA0753D401
:104750006B0756D42E0759D4240307D5E8033BD45E
:10476000A9033ED46A0331D42B0305D4FDF700F826
:10477000BDE87040FCF724BE0320FFF7C9FCFCF73E
:10478000F7FFBDE87040FCF71BBE3046FEF768FA45
:1047900073681B68002BC6D0304600219847C2E7DB
:1047A000202383F31188FCF78BFFAB69706E194EE1
:1047B00023F01003AB6118B1FDF7DAF8002373663C
:1047C000FCF796FF002383F31188B9E70220FFF777
:1047D0009FFC2B03CAD5CFE70020FFF799FCA90364
:1047E000C0D50120FFF794FC6A03BDD5EEE7002099
:1047F000FFF716FFAA07ABD50120FFF711FF6B07E4
:10480000A8D50220FFF70CFF2E07A5D50320FFF740
:1048100007FFA1E7E01600200000000000000000F4
:10482000036D03EB4111D1F8003B43F08063C1F805
:10483000003B704700000000000000000000000086
:10484000036D10B403EB41140122D4F8000940F0C9
:104850000440C4F80009D3F834085DF8044B8A40DA
:104860000243C3F834287047000000000000000035
:10487000036D03EB4111D1F8003B43F40013C1F881
:10488000003B704700000000000000000000000036
:10489000036D03EB4111D1F8003943F40013C1F863
:1048A0000039704700000000000000000000000018
:1048B000036D03EB4111D1F8003B23F40013C1F861
:1048C000003B7047000000000000000000000000F6
:1048D000036D03EB4111D1F8003923F40013C1F843
:1048E00000397047000000000000000000000000D8
:1048F000034A93899BB243F080039381704700BFC2
:104900000010014000000000000000000000000056
:10491000F8B54B4EFCF70CFF756FAB892C88A4B231
:10492000E0059FB255D4202383F31188FCF7C8FE1D
:10493000A10621D508E0A9884148C9B2FDF750FE7B
:104940002C88A4B2A00617D52207F4D014F0080FC3
:1049500014BF8021002114F0010F18BF41F0200185
:10496000A30748BF41F040016407364848BF41F4FF
:104970008071FDF7ADFADEE7FCF7BAFE002383F3A2
:104980001188390601D5220636D4630605D4FCF712
:10499000EFFEBDE8F840FCF713BD202383F3118838
:1049A000FCF78EFE726CB36C25489A4236D027F025
:1049B00040039BB24FF6BF72AB812A80FCF798FE92
:1049C000002383F31188FCF7D3FEBDE8F840FCF721
:1049D000F7BC202383F31188FCF772FE301D4FF4DF
:1049E0000071FDF775FAFCF783FE002383F311884D
:1049F0004FF6FF632B8096E7202383F31188FCF7A3
:104A00005FFE1148FDF7DCFB00280FDB80B2A880B9
:104A1000FCF76EFE002383F31188B6E7836B002B4F
:104A2000C5D004301021FDF753FAC0E7054808212E
:104A3000FDF74EFA27F0C00343F04003AB81E7E7F0
:104A4000B4180020B8180020E4180020000000006E
:104A500010B5044C044A20460021FDF7A1FD034B8C
:104A6000636710BDB4180020F14800080010014031
:104A7000FEF736BE0000000000000000000000004D
:104A8000704700BF000000000000000000000000B0
:104A900038B50C1E054609DD2046FDF741FC00B186
:104AA00038BD0C232B604FF0FF3038BD0148FCF7B8
:104AB000DFFEF1E7C09A00080000000000000000DF
:104AC000022906D0032906D00129064818BF002074
:104AD000704705487047032A9ABF044B03EBC20096
:104AE00000207047809C0008009B0008509C000834
:104AF00002291AD138B505460C46202383F31188C4
:104B0000FCF7DEFD28460121084AFEF711F8214690
:104B1000074A2846FEF70CF80648FDF7A1FEFCF709
:104B2000E7FD002383F3118838BD7047D09A000851
:104B3000109B000840190020000000000000000049
:104B4000054BD3F854321B681878A0F10400B0FA72
:104B500080F04009704700BF4019002000000000AD
:104B600038B50E4D0E4C2846FDF722FE0D4928465D
:104B7000FDF746FE226D936B23F40023936340F20E
:104B8000DC50FDF71DF920460749FDF7A1FF226D16
:104B9000936B43F40023936338BD00BF401900209A
:104BA000E0160020709C0008409B000800000000F8
:104BB000704700BF0000000000000000000000007F
:104BC00008B5054B054A9B699A610549054A06489F
:104BD0000423FDF76DFCF8E7DC150020909C00082D
:104BE000509D0008D81E0020A816002000000000DC
:104BF0000B4B0C4A9B6970B50B4E9A614FF40055F4
:104C0000FFF79EFF002814BF7D244FF4FA7420465E
:104C10007583FDF7D5F820463583FDF7D1F8EFE72A
:104C2000DC1500209C9C0008000C024000000000E5
:104C300010B52C49044600F0B3FE50B10A230133ED
:104C4000C35C312B284B4FF480420CBF1A835A832C
:104C500010BD2046254900F0A3FE0028EED12046D5
:104C6000234900F09DFE08B10923E8E720462149C9
:104C700000F096FE08B10D23E1E720461E4900F042
:104C80008FFE0028DAD120461C4900F089FE08B1C9
:104C90000823D4E720461A4900F082FE08B1052314
:104CA000CDE72046174900F07BFE0028DCD12046E6
:104CB000154900F075FE0028C0D12046134900F0C8
:104CC0006FFE0028BAD12046114900F069FE08B1F4
:104CD0000C23B5E720460F4900F062FE08B1092316
:104CE000AEE710BDA09C0008000C0240AC9C000880
:104CF000B89C0008C49C0008D49C0008E09C0008F4
:104D0000EC9C0008F49C0008009D00080C9D000825
:104D1000189D0008249D000800000000000000000D
:104D200070B582B002A9164C002341F8043D20461C
:104D30000A2200F0D5FF01990B783A2B01D002B07E
:104D400070BD104E336898420546F8DC0B185B784E
:104D50003B2BF4D12A4601310B48FBF769FA0A488C
:104D6000FFF766FF0199023529440D1B2046C5F166
:104D7000800200F095FB33685B1B3360DFE700BF08
:104D8000581E0020FC1B0020041C00200000000016
:104D900038B5074D2C68032C4FF0000307DDA34204
:104DA00005D0FFF7BDFF23462C68032CF7DC38BD88
:104DB000FC1B0020000000000000000000000000BC
:104DC0001A4B1B481B681B4970B54022FDF748F978
:104DD000194B186070B1194C2368C5187F2D19D96B
:104DE000174D2C68022C0ADD164B1B783B2B06D086
:104DF000FFF7CEFF0520BDE87040FCF7E1BF11488A
:104E000000F03EFC421E0F480134411C00F048FBFC
:104E10002C60EDE70B4E07490246F018FBF708FA45
:104E20002560074D2C68022CDEDCE8E7080800202E
:104E30004C190020BC1B0020001C0020FC1B002083
:104E4000041D0020581E002000000000000000008B
:104E5000164B70B5D9885C885A89DB890C44144498
:104E60001C44C2B0A408204601A90A2200F078F828
:104E700022460F4902A800F0DBFB02AB02460D49B7
:104E80000D4800F0D5FB041E0ADD0C4E25460C48EB
:104E9000094933682A46FDF7BBF9241A002CF6DCD1
:104EA0000520FCF78DFF42B070BD00BFD81E00206A
:104EB000309D0008449D0008F81F002008080020CD
:104EC0007019002000000000000000000000000039
:104ED00010B502FB01F100F04BF8044668B150F840
:104EE000042C22F00302043A242A18D8132A06D8E4
:104EF000034600221A605A609A60204610BD0023C3
:104F00001B2A036043600FD9242A8360C36005BF56
:104F10000361436100F1100300F11803E9E7002188
:104F200000F026FB204610BD00F10803E1E700BFBA
:104F3000931E222B10D80A2A10B506D000230C4647
:104F4000194402F02DF9204610BD0028F6DA2D2371
:104F50000B7040420123F2E700200870704700BF49
:104F6000FFF7E6BF000000000000000000000000A6
:104F70002DE9F04F01F10B05162D83B0064627D918
:104F800035F0070500F1B680A94200F2B38000F0C9
:104F90003FFBB5F5FC7F22D2C24FE80807EBC00308
:104FA000DC689C4200F0C8816368E168A56823F072
:104FB0000303234430465A68E96042F001028D60E1
:104FC0005A6000F02DFB0834204603B0BDE8F08F96
:104FD000102900F28F8000F01BFB1025DCE7680A27
:104FE00000F08F80042800F25481A8093830410075
:104FF000AC4F07EB8101CC68A14206D10CE0002A3E
:1050000080F28280E468A14206D0636823F0030343
:105010005A1B0F2AF3DD01380130A2493C6901F126
:10502000080E744500F07D81636823F003035A1B6A
:105030000F2A00F36381002AC1F814E0C1F810E0E0
:1050400073DAB3F5007F80F03981DB0801EBC30828
:105050004FEAA30C4A68D8F80890C4F808900123D6
:1050600003FA0CF31343C4F80C804B60C8F80840F3
:10507000C9F80C408210012494409C4262D823421B
:1050800006D120F003006400234200F10400FAD0AE
:1050900007EBC008C4468146DCF80C309C4507D1BC
:1050A00041E1002980F25181DB689C4500F03B81A1
:1050B0005A6822F00302511B0F29F2DD1C46D3F877
:1050C0000CC054F8088F5A1945F0010941F0010548
:1050D000C3F804903046C8F80CC0CCF808807A6158
:1050E0003A61C2F80CE0C2F808E05560515000F097
:1050F00097FA69E700240C232046336003B0BDE82B
:10510000F08F7E213F2073E72344E1685A68A56849
:1051100042F00102E96030468D605A6000F080FA8A
:105120000834204603B0BDE8F08F234430465A6867
:1051300042F001025A6000F073FA0834204603B0CE
:10514000BDE8F08FBC68636823F00308454504D8C8
:10515000C5EB08030F2B00F38C80534BDFF858A1ED
:105160001A68DAF8003001332A4404EB080B00F027
:10517000508102F580520F3222F47F6222F00F023A
:10518000114630460192FFF783FCB0F1FF3F8146A4
:10519000019A00F04781834500F2EE80434B196885
:1051A000CB451144196000F04281DAF80000DFF8C5
:1051B00008E101301BBFCBEB090B5944CEF800903E
:1051C000196019F0070100F00781C1F10800C1F56D
:1051D0008051814408314A44C2F30B02C2EB010AF8
:1051E000514630460193FFF753FC431C019B00F0EE
:1051F0002C81C9EB0002524442F001021968C7F841
:1052000008905144BC42C9F804201960DFF89CA002
:1052100016D0B8F10F0F40F2EE806268A8F10C03CF
:1052200023F00703E01802F001024FF0050E1A43C5
:105230000F2B6260C0F804E0C0F808E000F20981BA
:105240001B4BBC681A68914288BF1960194B1A68D9
:105250009142626888BF196022F003029542A2EB76
:10526000050301D80F2B04DC304600F0D9F90024E7
:10527000AAE6621943F0010345F001056560304676
:10528000BA60536000F0CCF90834204603B0BDE8A2
:10529000F08F142868D9542800F29780280B6E30BC
:1052A0004100A5E63C0C0020002100200421002044
:1052B000FC200020F8200020481000205A0A042A70
:1052C00055D9142A00F2A7805B324FEA420C07EB53
:1052D0008C0CDFF8BC81DCF8081061457FD04A688F
:1052E00022F00302934202D289688C45F7D1CA6842
:1052F0007B68E260A1609460CC60BBE6631942F019
:10530000010745F00105656030464B610B61C3F84C
:105310000CE0C3F808E05F609A50083400F080F9B0
:1053200052E64B68A6E609F1010919F0030F0CF1EA
:10533000080C7FF4B1AE2CE004F108036469A342C9
:1053400008BF02303FF469AE2EE61A441C4651688D
:10535000DB6854F8085F41F0010151603046EB60B2
:105360009D6000F05DF92FE65B30410040E69A0950
:1053700038324FEA420CAAE7BC42454B3FF40EAF2D
:105380009C68626822F0030268E7D8F800809845BC
:105390007CD110F0030FA8F1080300F1FF30F4D125
:1053A0007B6823EA04037B6064009C423FF6CAAE3C
:1053B000002C3FF4C7AE234248467FF469AE640038
:1053C000234200F10400FAD062E6B0F5AA7F18D8B3
:1053D000E80B773041000BE64FF48051FBE6D8F83C
:1053E000043092104FF0010C0CFA02F21343C8F88B
:1053F00004300A467DE70123C9F804304C460022F8
:105400002CE740F2545398421CD8A80C7C30410041
:10541000EEE51032B4E6542A23D81A0B6E324FEA66
:10542000420C54E7BC68626822F0030216E7CBF333
:105430000B0000287FF4B9AE4244BB6842F0010281
:105440005A60FDE6FC217E20D2E501224FF0000AE1
:10545000D4E604F10801304602F01AFFDAF8001031
:10546000EEE6B2F5AA7F04D8DA0B77324FEA420CA7
:105470002DE740F254518A4204D89A0C7C324FEA0C
:10548000420C24E74FF0FC0C7E2220E77B688BE780
:105490003C0C0020000000000000000000000000A4
:1054A0008842F0B50DD98B1898420AD28118002A8B
:1054B00054D09A1A13F8014D01F8014D9342F9D1D5
:1054C000F0BD0F2A48D940EA01039B0747D100F1FC
:1054D000100401F11003154653F8106C44F8106CD9
:1054E00053F80C6C44F80C6C53F8086C44F8086CD6
:1054F000103D53F8046C44F8046C0F2D03F11003B5
:1055000004F11004E8D8A2F1100323F00F0302F015
:105510000F0E1033BEF1030F1944034421D91E1F8F
:105520000D467446043C55F8047B46F8047F032C72
:10553000F8D8AEF1040424F00304043423442144D5
:1055400002F0030252B1013B0A4411F8014B03F887
:10555000014F9142F9D1F0BD0346F3E7F0BD034698
:10556000F1E77246EEE700BF000000000000000017
:1055700070B4840746D0541E002A41D0CDB20346F1
:1055800002E0621EE4B3144603F8015B9A07F8D107
:10559000032C2ED9CDB245EA05250F2C45EA054549
:1055A00019D903F110022646103E0F2E42F8105C66
:1055B00042F80C5C42F8085C42F8045C02F110020C
:1055C000F2D8A4F1100222F00F0204F00F041032FE
:1055D000032C13440DD91E462246043A032A46F8EA
:1055E000045BFAD8221F22F003020432134404F0B1
:1055F00003042CB1C9B21C4403F8011BA342FBD124
:1056000070BC704714460346C2E700BF00000000AC
:10561000704700BF00000000000000000000000014
:10562000704700BF00000000000000000000000004
:105630000EB4F0B59CB021AB0F4953F8042B019385
:1056400005466FF00044086802954FF402774FF664
:10565000FF7602A90695ADF8147004940794ADF88E
:10566000166000F04DFB029B00221A701CB0BDE8D2
:10567000F04003B0704700BF380C0020000000006D
:1056800020F0030110F00300C0F1000051F8043BCA
:1056900000F1040C4FEACC0C6FF000021CBF22FAA0
:1056A0000CF213434FF0010C4CEA0C2C4CEA0C4C5E
:1056B000A3EB0C0222EA030212EACC1204BF51F857
:1056C000043B0430F4D0C2F1000102EA0102B2FA54
:1056D00082F2C2F11F0200EBD2007047000000000E
:1056E0002DE9F0414FF0010E744600254FF0FF36D2
:1056F00063198B4200EB06070DD23F5D10F803C023
:10570000BC452DD21D460124C6EB030E63198B4206
:1057100000EB0607F1D34FF00108C2F800E0444661
:1057200000254FF0FF376319994200EB070E0ED9A1
:105730001EF804E010F803C0F44518D91D460124F2
:10574000C7EB03086319994200EB070EF0D8013745
:10575000701C874224BFC2F800803846BDE8F08143
:105760000CD04FF0010E2E4674467544C0E709D0A8
:105770004FF001082F4644464544D4E7744505D010
:105780000134B5E7444504D00134CCE71D4601247B
:10579000AEE71D460124C6E700000000000000003F
:1057A0002DE9F04FADF2144D164605468B461046D6
:1057B000194603AA1C46FFF793FF03AB80460DF280
:1057C0000C4243F8044F9342FBD15CB1621E334656
:1057D000371904A813F8011BBB4240F8212002F13D
:1057E000FF32F7D1039930463144424602F080FE41
:1057F00000286DD108F1FF330093F318824601931E
:1058000023468146544658469A4609EB0A073A1AF7
:105810000021284402F01CFE002840F0AC80002F3C
:1058200000F0A980EB1904AA13F8013C52F82330C8
:105830004BB124B1039A934201D2C2EB0A039944BB
:1058400000243846E1E7444523460AF1FF3E38BFCD
:105850004346734513D203EB090216F803C0A85C54
:1058600084452A4406EB030106D02DE011F801CF50
:1058700012F8010F844527D101337345F6D344450F
:10588000009980F08780009B019809EB0302037860
:10589000A85C83422A447DD1019B06EB040B06E001
:1058A00013F801ED12F8010D864504D161465B4500
:1058B00001F1FF3CF4D101348C4256D8039C3846A8
:1058C000A144C4EB0A04A0E7C8F101029144B6E781
:1058D000C8EB0403434538BF4346013308F1FF37A3
:1058E0000393F31958464FF00009C346A246984661
:1058F00009EB0A04221A0021284402F0A9FDD0BBBA
:10590000CCB32B1904AA13F8013C52F82330C3BBC3
:105910000AF1FF318B4514D209EB0B0216F80BE0AC
:10592000AB5C9E452A4406EB0B005B4606D02BE0A1
:1059300010F801CF12F801EFF44525D101338B4265
:10594000F6D37B1C11D009EB070298F80010AB5C72
:1059500099422A4414D1434605E013F8010D12F888
:10596000011D88420CD1B342F7D105EB09000DF2BD
:10597000144DBDE8F08F00200DF2144DBDE8F08FFE
:10598000039B99442046B3E7CBF10102914499442B
:105990002046ADE741468EE7000000000000000011
:1059A0000278002A00F003812DE9F04F91F8008081
:1059B00085B04346B8F1000F15D0844601F1010EC1
:1059C000012402E01EF8013B63B19A4214BF002497
:1059D00004F001041CF8012F7746002AF2D19EF84A
:1059E00000301BB934B105B0BDE8F08F002005B020
:1059F000BDE8F08F0E4605464146013003F000F940
:105A0000BC1B07460028F1D0012CECD02819874296
:105A100094BFC7EB000B4FF0010B1F2C08D9384681
:105A2000594632462346FFF7BBFE05B0BDE8F08F6E
:105A3000214603AA3046FFF753FE039980460246EB
:105A40003144304602F054FD002858D108F1FF33AC
:105A50000193F3188146054600935846B2462E1925
:105A6000321A0021384402F0F3FC0028BED1002E87
:105A7000BCD0C1454B4638BF43469C4212D95A1947
:105A80001AF80310B85C81423A440AEB030E06D0C0
:105A90002DE01EF8010F12F8011F884227D10133B3
:105AA0009C42F6D8019BC845194640F28380EA180B
:105AB00000980378B85C83423A447BD1009B0AEBA0
:105AC000090B06E013F801CD12F801EDF44504D1FD
:105AD00001465B4501F1FF30F4D109F10109894527
