:020000040800F2
:1000000000040020B9020008BB020008BA02000880
:10001000BA020008BA020008BA020008BA020008D0
:10002000BA020008BA020008BA0200081132000839
:10003000BA020008BA020008BA020008BA020008B0
:10004000BA020008BA020008BA020008BA020008A0
:10005000BA020008BA020008BA020008BA02000890
:10006000BA020008BA020008BA02000801580008E3
:10007000B15700086157000811570008D156000811
:10008000815600083156000841580008BA0200089D
:10009000BA020008BA020008BA020008BA02000850
:1000A000BA020008BA020008BA020008BA02000840
:1000B0003152000801520008D1510008BA0200086C
:1000C000BA020008BA020008BA020008BA02000820
:1000D000BA020008BA020008BA020008BA02000810
:1000E000BA020008BA020008BA020008BA02000800
:1000F000BA020008BA020008BA020008E155000876
:10010000BA020008BA020008BA020008BA020008DF
:10011000BA020008BA020008BA020008BA020008CF
:10012000A15500085155000801550008B1540008B8
:1001300071540008BA020008BA020008BA020008A6
:10014000BA020008BA020008BA02000851530008B7
:1001500021540008D153000881530008BA02000856
:10016000BA020008BA020008BA020008BA0200087F
:10017000BA02000821530008BA020008BA020008B7
:10018000BA020008BA020008BA020008BA0200085F
:10019000BA020008BA020008BA020008BA0200084F
:1001A000BA020008BA020008BA020008BA0200083F
:1001B000BA020008BA020008BA020008BA0200082F
:1001C000BA020008BA020008BA020008BA0200081F
:1001D000BA020008BA020008BA020008BA0200080F
:1001E00072B6274880F30888264880F30988264895
:1001F0004EF60851CEF200010860022080F3148808
:10020000BFF36F8F05F0B4FB04F0A2FE4FF0553042
:100210001E491B4A91423CBF41F8040BFAE71C49B6
:10022000184A91423CBF41F8040BFAE719491A4AAF
:100230001A4B9A423EBF51F8040B42F8040BF8E700
:1002400000201749174A91423CBF41F8040BFAE7D6
:1002500005F046FB05F084FB134C144DAC4203DA69
:1002600054F8041B8847F9E703F0CAFC104C114D01
:10027000AC4203DA54F8041B8847F9E705F068BB81
:1002800000040020000800200000000800000020FA
:100290000004002054AC000800080020E4110020F5
:1002A000E8110020582B0020E0010008E0010008C0
:1002B000E0010008E001000892E700F000F8FEE726
:1002C0002DE9F04FC1F80CD0C3689D46BDE8F08F12
:1002D00002F0EEFF002383F311882846A047002098
:1002E00003F026FC03F024F802F0A2FF02F0E0FF86
:1002F00000DFFEE7844641EA000313F003036DD1FB
:10030000403A41D351F8043B40F8043B51F8043BD8
:1003100040F8043B51F8043B40F8043B51F8043BDF
:1003200040F8043B51F8043B40F8043B51F8043BCF
:1003300040F8043B51F8043B40F8043B51F8043BBF
:1003400040F8043B51F8043B40F8043B51F8043BAF
:1003500040F8043B51F8043B40F8043B51F8043B9F
:1003600040F8043B51F8043B40F8043B51F8043B8F
:1003700040F8043B51F8043B40F8043B51F8043B7F
:1003800040F8043B403ABDD2303211D351F8043B1F
:1003900040F8043B51F8043B40F8043B51F8043B5F
:1003A00040F8043B51F8043B40F8043B103AEDD2CE
:1003B0000C3205D351F8043B40F8043B043AF9D21F
:1003C000043208D0D2071CBF11F8013B00F8013BF2
:1003D00001D30B8803806046704700BF082A13D3FF
:1003E0008B078DD010F003038AD0C3F10403D21A17
:1003F000DB071CBF11F8013B00F8013B80D331F84B
:10040000023B20F8023B7BE7043AD9D3013A11F8CA
:10041000013B00F8013BF9D20B7803704B78437035
:100420008B78837060467047000000000000000079
:1004300001F0FF01102A2BDB10F0070F08D010F895
:10044000013B013A8B422DD010F0070F42B3F6D199
:10045000F0B441EA012141EA014122F007047FF0B2
:1004600000070023F0E80256083C85EA010586EA09
:10047000010685FA47F5A3FA87F586FA47F6A5FA45
:1004800087F68EB9EED1F0BC01F0FF0102F0070251
:1004900032B110F8013B013A83EA010313B1F8D1FC
:1004A0000020704701387047002D06BF35460338DD
:1004B000073815F0010F07D1013015F4807F02BF16
:1004C000013015F4C03F0130F0BC0138704700BF67
:1004D000000000000000000000000000000000001C
:1004E000000000000000000000000000000000000C
:1004F00000000000000000000000000000000000FC
:1005000090F800F06DE9024520F007016FF0000C53
:1005100010F0070491F820F040F049804FF00004FB
:100520006FF00700D1E9002391F840F000F10800D6
:1005300082FA4CF2A4FA8CF283FA4CF3A2FA8CF30E
:100540004BBBD1E9022382FA4CF200F10800A4FA75
:100550008CF283FA4CF3A2FA8CF3E3B9D1E90423C9
:1005600082FA4CF200F10800A4FA8CF283FA4CF300
:10057000A2FA8CF37BB9D1E9062301F1200182FABA
:100580004CF200F10800A4FA8CF283FA4CF3A2FAC0
:100590008CF3002BC6D0002A04BF04301A4612BACE
:1005A000B2FA82F2FDE8024500EBD2007047D1E9D1
:1005B000002304F00305C4F100004FEAC50514F060
:1005C000040F91F840F00CFA05F562EA05021CBF31
:1005D00063EA050362464FF00004A9E781F0004199
:1005E00002E000BF83F0004330B54FEA41044FEA18
:1005F000430594EA050F08BF90EA020F1FBF54EAB3
:10060000000C55EA020C7FEA645C7FEA655C00F04E
:10061000E2804FEA5454D4EB5555B8BF6D420CDD1F
:100620002C4480EA020281EA030382EA000083EAA2
:10063000010180EA020281EA0303362D88BF30BD42
:1006400011F0004F4FEA01314FF4801C4CEA113198
:1006500002D0404261EB410113F0004F4FEA0333F7
:100660004CEA133302D0524263EB430394EA050F82
:1006700000F0A780A4F10104D5F1200E0DDB02FAF1
:100680000EFC22FA05F2801841F1000103FA0EF285
:10069000801843FA05F359410EE0A5F120050EF14B
:1006A000200E012A03FA0EFC28BF4CF0020C43FA7C
:1006B00005F3C01851EBE37101F0004507D54FF089
:1006C000000EDCF1000C7EEB00006EEB0101B1F5D9
:1006D000801F1BD3B1F5001F0CD349085FEA30001F
:1006E0004FEA3C0C04F101044FEA445212F5800F2A
:1006F00080F09A80BCF1004F08BF5FEA500C50F1C7
:10070000000041EB045141EA050130BD5FEA4C0CA9
:10071000404141EB010111F4801FA4F10104E9D132
:1007200091F0000F04BF01460020B1FA81F308BF29
:100730002033A3F10B03B3F120020CDA0C3208DDF5
:1007400002F1140CC2F10C0201FA0CF021FA02F1D0
:100750000CE002F11402D8BFC2F1200C01FA02F140
:1007600020FA0CFCDCBF41EA0C019040E41AA2BF65
:1007700001EB0451294330BD6FEA04041F3C1CDA2D
:100780000C340EDC04F11404C4F1200220FA04F04D
:1007900001FA02F340EA030021FA04F345EA0301F7
:1007A00030BDC4F10C04C4F1200220FA02F001FAB9
:1007B00004F340EA0300294630BD21FA04F029463B
:1007C00030BD94F0000F83F4801306BF81F48011D4
:1007D0000134013D4EE77FEA645C18BF7FEA655C47
:1007E00029D094EA050F08BF90EA020F05D054EA19
:1007F000000C04BF1946104630BD91EA030F1EBF1E
:100800000021002030BD5FEA545C05D14000494121
:1008100028BF41F0004130BD14F580043CBF01F514
:10082000801130BD01F0004545F0FE4141F47001FA
:100830004FF0000030BD7FEA645C1ABF19461046D5
:100840007FEA655C1CBF0B46024650EA013406BFD6
:1008500052EA033591EA030F41F4002130BD00BF95
:1008600090F0000F04BF0021704730B54FF4806452
:1008700004F132044FF000054FF0000150E700BFD3
:1008800090F0000F04BF0021704730B54FF4806432
:1008900004F1320410F0004548BF40424FF000011F
:1008A0003EE700BF42004FEAE2014FEA31014FEA62
:1008B00002701FBF12F07F4393F07F4F81F06051B1
:1008C000704732F07F4208BF704793F07F4F04BFFC
:1008D00041F40021704730B54FF4607401F00045D9
:1008E00021F000411CE700BF50EA010208BF704739
:1008F00030B54FF000050AE050EA010208BF70472A
:1009000030B511F0004502D5404261EB41014FF492
:10091000806404F132045FEA915C3FF4D8AE4FF09A
:1009200003025FEADC0C18BF03325FEADC0C18BF7D
:10093000033202EBDC02C2F1200300FA03FC20FACE
:1009400002F001FA03FE40EA0E0021FA02F114441B
:10095000BDE600BF70B54FF0FF0C4CF4E06C1CEA34
:1009600011541DBF1CEA135594EA0C0F95EA0C0FA5
:1009700000F0DEF82C4481EA030621EA4C5123EA18
:100980004C5350EA013518BF52EA033541F4801147
:1009900043F4801338D0A0FB02CE4FF00005E1FBFA
:1009A00002E506F00042E0FB03E54FF00006E1FB44
:1009B00003569CF0000F18BF4EF0010EA4F1FF0487
:1009C000B6F5007F64F5407404D25FEA4E0E6D41C7
:1009D00046EB060642EAC62141EA55514FEAC520D8
:1009E00040EA5E504FEACE2EB4F1FD0C88BFBCF554
:1009F000E06F1ED8BEF1004F08BF5FEA500E50F105
:100A0000000041EB045170BD06F0004646EA0101CA
:100A100040EA020081EA0301B4EB5C04C2BFD4EBFC
:100A20000C0541EA045170BD41F480114FF0000EF5
:100A3000013C00F3AB8014F1360FDEBF002001F063
:100A4000004170BDC4F10004203C35DA0C341BDCDD
:100A500004F11404C4F1200500FA05F320FA04F0AF
:100A600001FA05F240EA020001F0004221F00041E3
:100A700010EBD37021FA04F642EB06015EEA430E56
:100A800008BF20EAD37070BDC4F10C04C4F1200586
:100A900000FA04F320FA05F001FA04F240EA020039
:100AA00001F0004110EBD37041F100015EEA430E0A
:100AB00008BF20EAD37070BDC4F1200500FA05F22A
:100AC0004EEA020E20FA04F301FA05F243EA0203A9
:100AD00021FA04F001F0004121FA04F220EA0200B8
:100AE00000EBD3705EEA430E08BF20EAD37070BDFE
:100AF00094F0000F0FD101F00046400041EB0101DE
:100B000011F4801F08BF013CF7D041EA060195F0BF
:100B1000000F18BF704703F00046520043EB030379
:100B200013F4801F08BF013DF7D043EA0603704766
:100B300094EA0C0F0CEA135518BF95EA0C0F0CD071
:100B400050EA410618BF52EA4306D1D181EA0301B7
:100B500001F000414FF0000070BD50EA410606BFB1
:100B60001046194652EA430619D094EA0C0F02D1F6
:100B700050EA013613D195EA0C0F05D152EA03363B
:100B80001CBF104619460AD181EA030101F0004159
:100B900041F0FE4141F470014FF0000070BD41F0A2
:100BA000FE4141F4780170BD70B54FF0FF0C4CF47C
:100BB000E06C1CEA11541DBF1CEA135594EA0C0F9B
:100BC00095EA0C0F00F0A7F8A4EB050481EA030EE8
:100BD00052EA03354FEA013100F088804FEA0333CF
:100BE0004FF0805545EA131343EA12634FEA02229D
:100BF00045EA111545EA10654FEA00260EF000415E
:100C00009D4208BF964244F1FD0404F5407402D2AF
:100C10005B084FEA3202B61A65EB03055B084FEA40
:100C200032024FF480104FF4002CB6EB020E75EB3D
:100C3000030E22BFB61A754640EA0C005B084FEA65
:100C40003202B6EB020E75EB030E22BFB61A7546E2
:100C500040EA5C005B084FEA3202B6EB020E75EB2D
:100C6000030E22BFB61A754640EA9C005B084FEAA5
:100C70003202B6EB020E75EB030E22BFB61A7546B2
:100C800040EADC0055EA060E18D04FEA051545EAA1
:100C900016754FEA06164FEAC30343EA52734FEA4A
:100CA000C2025FEA1C1CC0D111F4801F0BD141EAC3
:100CB00000014FF000004FF0004CB6E711F4801F28
:100CC00004BF01430020B4F1FD0C88BFBCF5E06F08
:100CD0003FF6AFAEB5EB030C04BFB6EB020C5FEA18
:100CE000500C50F1000041EB045170BD0EF0004E6D
:100CF0004EEA113114EB5C04C2BFD4EB0C0541EA9F
:100D0000045170BD41F480114FF0000E013C90E69B
:100D100045EA060E8DE60CEA135594EA0C0F08BF5F
:100D200095EA0C0F3FF43BAF94EA0C0F0AD150EA5E
:100D300001347FF434AF95EA0C0F7FF425AF1046F1
:100D400019462CE795EA0C0F06D152EA03353FF419
:100D5000FDAE1046194622E750EA410618BF52EA96
:100D600043067FF4C5AE50EA41047FF40DAF52EA6A
:100D700043057FF4EBAE12E74FF0FF3C06E000BF07
:100D80004FF0010C02E000BF4FF0010C4DF804CD14
:100D90004FEA410C7FEA6C5C4FEA430C18BF7FEAD4
:100DA0006C5C1BD001B050EA410C0CBF52EA430C02
:100DB00091EA030F02BF90EA020F0020704710F182
:100DC000000F91EA030F58BF994208BF90422CBF11
:100DD000D8176FEAE37040F0010070474FEA410C0A
:100DE0007FEA6C5C02D150EA013C07D14FEA430C28
:100DF0007FEA6C5CD6D152EA033CD3D05DF8040B99
:100E0000704700BF8446104662468C4619466346CA
:100E100000E000BF01B5FFF7B7FF002848BF10F1A1
:100E2000000F01BD4DF808EDFFF7F4FF0CBF0120E6
:100E300000205DF808FB00BF4DF808EDFFF7EAFF62
:100E400034BF012000205DF808FB00BF4DF808ED1D
:100E5000FFF7E0FF94BF012000205DF808FB00BF12
:100E60004DF808EDFFF7CEFF94BF012000205DF89C
:100E700008FB00BF4DF808EDFFF7C4FF34BF0120A9
:100E800000205DF808FB00BF4FEA410C7FEA6C5C74
:100E900002D150EA013C0AD14FEA430C7FEA6C5C74
:100EA00002D152EA033C02D14FF0000070474FF0EC
:100EB000010070474FEA410212F5001215D211D518
:100EC0006FF47873B3EB625212D94FEAC12343F047
:100ED000004343EA505311F0004F23FA02F018BFC9
:100EE000404270474FF00000704750EA013005D192
:100EF00011F0004008BF6FF0004070474FF0000055
:100F0000704700BF53B94AB9002908BF00281CBF69
:100F10004FF0FF314FF0FF3000F072B9ADF1080C27
:100F20006DE904CE00F006F8DDF804E0DDE9022307
:100F300004B070472DE9F047089E04468846002B10
:100F40004BD18A42154667D9B2FA82F24AB1C2F150
:100F5000200701FA02F320FA07F7954047EA030851
:100F600094404FEA154E230CB8FBFEF71FFA85FCA0
:100F70000EFB178843EA084307FB0CF1994209D995
:100F8000EB1807F1FF3080F01B81994240F2188185
:100F9000023F2B445B1AA4B2B3FBFEF00EFB1033EE
:100FA00044EA034400FB0CFCA44509D92C1900F1C8
:100FB000FF3380F00781A44540F2048102382C44BD
:100FC00040EA0740A4EB0C0400271EB1D4400023E4
:100FD000C6E900433946BDE8F0878B4209D9002EA7
:100FE00000F0EB800027C6E9000138463946BDE82D
:100FF000F087B3FA83F7002F47D18B4202D38242A6
:1010000000F2FA80841A61EB030301209846002E57
:10101000E0D0C6E90048DDE702B9FFDEB2FA82F2AD
:10102000002A40F08F80491B4FEA154E1FFA85F8C1
:101030000127B1FBFEFC230C0EFB1C1143EA01430C
:1010400008FB0CF1994207D9EB180CF1FF3002D2E2
:10105000994200F2CD808446591AA3B2B1FBFEF04A
:101060000EFB101443EA044408FB00F8A04507D91E
:101070002C1900F1FF3302D2A04500F2B6801846C9
:10108000A4EB080440EA0C409FE7C7F1200CBB40EA
:1010900022FA0CFE4EEA030E01FA07F420FA0CF5D0
:1010A00021FA0CF34FEA1E482543B3FBF8F92C0C48
:1010B00008FB19331FFA8EFA44EA034309FB0AF4CA
:1010C0009C4202FA07F200FA07F10BD91EEB030368
:1010D00009F1FF3080F087809C4240F28480A9F1C2
:1010E000020973441B1BADB2B3FBF8F008FB1033CD
:1010F00045EA034400FB0AFAA24508D91EEB0404A2
:1011000000F1FF336BD2A24569D90238744440EA3A
:101110000940A0FB0289A4EB0A044C45C2464B4699
:1011200054D351D0002E69D0B1EB0A0564EB03040F
:1011300004FA0CFCFD40FC404CEA0505C6E90054ED
:10114000002747E7C2F1200320FA03F7954001FA90
:1011500002F021FA03F34FEA154E3843010CB3FBBA
:10116000FEF71FFA85F80EFB173341EA034107FB30
:1011700008F38B4204FA02F407D9691807F1FF3C1F
:101180002FD28B422DD9023F2944CB1A81B2B3FB17
:10119000FEF00EFB103341EA034100FB08F38B42E3
:1011A00007D9691800F1FF3C17D28B4215D90238D4
:1011B0002944C91A40EA07473BE73746304609E762
:1011C0000746E7E61846FBE64145ABD2B8EB020A14
:1011D00069EB0E0201381346A4E76046E9E71846BA
:1011E00095E76746D1E781467CE702382C4447E71C
:1011F000ACF1020C2B442FE7384608E73746E9E606
:10120000704700BF00000000000000000000000068
:10121000014B5B6883607047001000E00000000035
:10122000022906D0032906D00129064818BF00204C
:10123000704705487047032A9ABF044800EBC20074
:1012400000207047F4A80008A8A800087CA900089E
:10125000202383F311880F4B5B6813F4006302D1E2
:1012600083F311887047EFF309834FF0807243F8DE
:10127000042CA3F1200282F30988074A11689269BD
:101280008968926891428CBF044A054A43F8082C49
:10129000704700BF00ED00E0E0180020E502000804
:1012A000F002000800000000000000000000000044
:1012B0000E4B0F4A5B68C168F0B48468D2F884684A
:1012C00042681B1BD0E904459B1BE61845F100074B
:1012D0009342026888BF436001319342C0E90467CA
:1012E000C0E9023138BF0360F0BC7047001000E075
:1012F000E0180020000000000000000000000000D6
:1013000010B40B4A0B48D36B4FF080441968646AE1
:101310005C60406860F31F2143F8101B02F5046114
:101320008B4228BF02F14003D36310BC704700BF5B
:10133000E0180020001000E00000000000000000A5
:101340000949CA6B10B41378012464F302031370C3
:1013500090F82040406A64F3C70313708B6910BC97
:10136000C2E90230FFF7CCBFE01800200000000007
:10137000094A138F10B513F0020400D010BD2023CA
:1013800083F31188D36B032298601A70FFF7B8FFBC
:1013900084F3118810BD00BFE01800200000000099
:1013A000094A138F10B513F0020400D010BD20239A
:1013B00083F31188D36B022298601A70FFF7A0FFA5
:1013C00084F3118810BD00BFE01800200000000069
:1013D000034A516853685B1A9842FBD8704700BFB4
:1013E000001000E00000000000000000000000000D
:1013F00008B5054672B6064C238F5B0701D5E5623A
:10140000FEE7E36B042298601A70FFF779FFF6E7B6
:10141000E0180020000000000000000000000000B4
:1014200008B5054B1A6B1AB95B6B002B00DD08BDC4
:101430000248FFF7DDFF00BFE018002094A5000878
:1014400008B5054B1A6B002A03DB5B6B002B00DD34
:1014500008BD0248FFF7CCFFE01800208CA500086B
:10146000F8B50E4604461546FFF7EAFFB6B106F199
:10147000FF3C1CEA060C11D10B4FD7E90023501991
:10148000013C304471423444013808402140014459
:101490008B4206D38A4204D83960F8BD0348FFF76F
:1014A000A7FF6046F8BD00BF882200206CA000089E
:1014B0000022FFF7D5BF00BF0000000000000000C1
:1014C00010B50446FFF7BCFFA4B194F820308BB1EF
:1014D0000F2B0FD00022A168084B84F820201B6836
:1014E0009A688A42FBD25A682046C4E900321460E6
:1014F0005C6010BD0248FFF77BFF00BFE0180020D2
:1015000034A00008000000000000000000000000FF
:1015100038B5036898420AD01A680260506093F8A0
:101520002020042A044603D00B48FFF761FF38BD92
:101530006FF001055D621846FFF7C2FF23689C4209
:10154000F5D01A682260546093F82020042AF1D064
:101550000148FFF74DFF00BFFC9F0008000000009E
:101560002DE9F84306460F46FFF76AFFA6B3346835
:10157000A64219D04FF00008D4E903323B4313428E
:10158000E3600ED0D4E90159FFF75AFF0DB36B6B3E
:1015900095F8202049EA03030A2A6B6306D00B2A38
:1015A0000DD02468A642E7D1BDE8F8836A6A1342E9
:1015B000F7D0C5F824802846FFF782FFF1E76A6A72
:1015C00032EA0303EDD1C5F824802846FFF778FFFF
:1015D000E7E70348FFF70CFF0248FFF709FF00BFEA
:1015E000F8A00008A4A0000800000000000000000F
:1015F00008B5036873B193F82020032A07D10022AD
:10160000026018465962BDE80840FFF759BF02481A
:10161000FFF7EEFE08BD00BF24A100080000000097
:1016200008B5202383F31188064A136B002B01DDD4
:10163000516B11B10448FFF7DBFE013B136381F3EB
:10164000118808BDE01800206CA40008000000000C
:1016500008B5202383F31188064A136B002B01DBA6
:10166000516B11B10448FFF7C3FE0133136381F3DB
:10167000118808BDE018002064A4000800000000E4
:1016800008B5064B1A6B002A05DD5A6B002A02DDED
:1016900000225A6308BD0248FFF7AAFEE0180020A6
:1016A0008CA4000800000000000000000000000002
:1016B00008B5064B1A6B002A01DD5A6B12B10448BB
:1016C000FFF796FE01225A6308BD00BFE018002014
:1016D0007CA40008000000000000000000000000E2
:1016E00038B50446202383F31188FFF7E1FF94F80F
:1016F0002030072B10D8DFE803F0150F0F1B0A046A
:101700000F0A656AFFF79CFEAB680133AB60D4E952
:1017100000231A60226853604FF0FF336362204653
:10172000FFF7CEFEFFF7ACFF002383F3118838BD2F
:10173000636A00221A604FF0FF3363622046FFF7AE
:10174000BFFEEFE700000000000000000000000006
:10175000FEE700BF000000000000000000000000E5
:10176000836970B51A69DC681440E2B2D243A607F7
:1017700005461A6103D543681B6903B198476007A2
:1017800004D56B689B690BB128469847210704D59F
:101790006B681B6A0BB128469847E20604D56B6854
:1017A0009B6A0BB128469847E30706D56B689B6890
:1017B0001BB12846BDE87040184770BD000000000E
:1017C00070B502788369012A52D000221A605A63E8
:1017D0009A63DA631A645A62426841691468B1FB19
:1017E000F4F35D1EB5F5803F03D203FB04F3994289
:1017F00002D04248FFF7FCFDD36884688169D66A4D
:101800008D6203F00F03013C012BCC624E603AD095
:10181000022B39D00023506900F00F00012803D0BB
:10182000022803D143F0200343F01003D06900F0F5
:101830000F00012803D0022803D143F4007343F4BE
:101840008073506A00F00F00012803D0022803D1F2
:1018500043F4005343F48053126B0B62012422F0D3
:10186000FF03002085224C610861CB600A6070BDD7
:10187000234A904226D0234A904208D046F6680276
:101880009A61DA61A8E7002343F00103C3E71E4A27
:101890001E49146C1E4D44F004041464146E44F08C
:1018A00004041466146A44F00404146200241462EC
:1018B0004FF08042702481F81E43C1F880210A60F5
:1018C0004561DBE7104A1149146C114D44F00204E4
:1018D0001464146E44F002041466146A44F00204A2
:1018E0001462002414624FF00052702481F81D43EA
:1018F000C1F880210A604561C0E700BFC8A10008A7
:101900001C120020381200200038024000E100E0E4
:1019100000BD010500000000000000000000000004
:1019200000EB8103C26ED868F0B444692368E360B9
:10193000EBB902EB41134FF40024C3F810490368DC
:1019400003F00303012B25D008B202EB4010012362
:10195000D0F8004944F00444C0F80049D2F83408F3
:1019600003FA01F10143C2F83418F0BC704711B317
:1019700043F00056078A02EB41157C1E2344B3FB5B
:10198000F7F346EAC343C5F81039036803F00303CD
:10199000012BD9D108B2D2F8083802EB401413F465
:1019A000807FD4F8003914BF43F0805343F00053D4
:1019B000C4F80039C9E7402BDAD94023014E23602F
:1019C000D8E700BF40000020000000000000000039
:1019D00000EB810330B4DD68AB691C68DC6019B9C9
:1019E000402C84BF40241C606B8AC06E2D685A1E38
:1019F0002244B2FBF3F202FB03F3033323F00303AD
:101A000043EAC24300EB411405F0030243F0C04334
:101A1000012AC4F8103B0AD009B200EB411130BCD6
:101A2000D1F8003B43F00443C1F8003B704709B2D2
:101A3000D0F8083800EB411213F4807FD2F8003B55
:101A400014BF43F0805343F00053C2F8003BE4E777
:101A50002DE9F041C76E07EB41130646D3F8084B5A
:101A6000C3F8084B22070D4608D5D7F814381B07D2
:101A700004D500EB8103DB685B689847E20731D54A
:101A8000D7F81438DB072DD506EB8503D9685DB987
:101A90008A69488A5468B4FBF0F300FB13431BB90E
:101AA0001068D36898420DD37389CC680122AA408C
:101AB00023EA02037381ACB1294630462346BDE8D0
:101AC000F04118471B1AC2E90035202383F311881F
:101AD000FFF7EEFD29463046FFF77AFFFFF7D0FD0E
:101AE00085F31188BDE8F0810000000000000000CF
:101AF00000EB81032DE9F041DB68D0F86CE05E6912
:101B0000D6E90020824232D94D1C1F8A0EEB0535E2
:101B10000EEB411C101ADCF8183987429BB208D230
:101B2000B7EB830F30D8D6F808805FBB1848FFF7B3
:101B30005FFCB0EB830F27D8D6F80880D8F80030C8
:101B40002B6004280AD9441F24F0030404344444BD
:101B5000434653F8042F2A609C42FAD1D6E9002369
:101B600008EB000418448242C6E90104D2D8DEF82A
:101B70003438012000FA01F123EA0103CEF83438A9
:101B8000BDE8F0813846D9E70020BDE8F08100BF0C
:101B90006CA300080000000000000000000000002E
:101BA0002DE9F041C66E06EB41130746D3F808490C
:101BB000C3F80849E3070D4603D5D6F81038DA070D
:101BC00009D4230605D5D6F834280123AB401342A7
:101BD00019D1BDE8F08100EB8103D3F80CC0DCF82B
:101BE0001430D3F800E0DA68964512D30389DCF8A4
:101BF000088001228A4023EA02030381B8F1000F22
:101C0000DFD0C047DDE729463846BDE8F041FFF7A1
:101C10006FBFA2EB0E024FF00008C3E9002820239B
:101C200083F31188FFF744FD29463846FFF778FE15
:101C3000FFF726FD88F31188C3E700BF000000000E
:101C40002DE9F047C66E7569B3691D4015F48059DA
:101C50000446756140F00D81002D4BDB2A0500F133
:101C6000CB80AB040CD5D6F8083813F0060FF36818
:101C700023F470530CBF43F4105343F4A053F360A8
:101C80002F0704D56368DB680BB120469847E8024C
:101C90006CD4AA0200F1C180EB0643D42903D6F824
:101CA000186811D5F20300F1C981B30300F1B381C3
:101CB000770300F1B781300300F1BB81F10200F13D
:101CC000A581B20200F153816B0311D5F70700F132
:101CD0009881B50700F19081700700F18881310784
:101CE00000F18081F20600F17881B30600F13281C3
:101CF000BDE8F087D6F8003E990740F03181D6F86C
:101D00000438626823F00103C6F8043894F8683098
:101D100023701368002BA1D00521204698472A057F
:101D20009FD569E0E06E026A02F4F013B3F5802FEC
:101D3000C2F30A1102F00F0200F02481B3F5402F24
:101D4000ACD104EB8202D3681F6A0029A6D000221E
:101D500000F58050134613F0030F08BF0268072BED
:101D600040F2718101339942F5D197E7D4F86CA024
:101D700000274FF0010806E0236F01379B68FFB290
:101D80009F42B94685D80AEB4712D2F8003903F4CE
:101D90004023B3F5802FEFD1D2F80039002BEBDAD6
:101DA000D2F8003943F09043C2F80039D2F8003934
:101DB000002BFBDB4FEA8919E26E49F02003136127
:101DC00013699906FCD41220FFF702FB04EB87038A
:101DD0002289D96808FA07F3D1F8089022EA0303A8
:101DE0002381B9F1000F02D039462046C847394651
:101DF0002046FFF77DFEBFE7227884F868206368FD
:101E0000052222701B68002B3FF42BAF04212046D3
:101E10009847AB047FF534AF25E7D4F86C800027F2
:101E20004FF0010906E0236F01379B68FFB29F4224
:101E30003FF632AF08EB4712D2F8003B03F44023E1
:101E4000B3F5802FEFD1D2F8003B002BEBDA04EB97
:101E500087036289D96809FA07F3D1F80CA022EA4E
:101E600003036381BAF1000FDDD039462046D04725
:101E7000D9E700230221202201704366C0E9023322
:101E8000C0E90433C0E90633036280F84C303261A4
:101E9000356915F02005FBD11220FFF799FA276F5D
:101EA000C6F83458B8684FF001130130C6F81C3832
:101EB0004FF000614FF0FF3206EB45130135A842A9
:101EC000C3F80019C3F8001BC3F80829C3F8082B8E
:101ED000F2D13B6863673A68E36E726210221A615E
:101EE0001D6915F01005FBD11220FFF771FAD6F825
:101EF0000038216F564A574823F4FE63C6F800386D
:101F0000B36943F4402343F01003B3610923C6F8D7
:101F10001038C6F814384FF0C043E060C6F8103BE4
:101F2000C6F8002BC6F81059C6F80029636F03F1F4
:101F30001002626749688A4221D86268126843F4D5
:101F40008013B362002A3FF4D3AE29462046BDE891
:101F5000F047104720460521BDE8F047FFF720BEB7
:101F6000D6F8003E23F00303C6F8003EC7E605217D
:101F70002046FFF76DFD6B037FF5BAAEA6E6364847
:101F8000FFF736FA04EB8208D8F80C30D3F818C003
:101F9000DCE90137DCF80020A2EB030EC1B14FF001
:101FA000000C00F5805063469A0708BFD0F800C0C7
:101FB0009E4504D987F800C04FEA1C2C0137013335
:101FC0009942F1D1D8F80C30D3F818C0DCE90137C8
:101FD0000F440B44CCE9013760E604212046FFF7AB
:101FE000DFFD82E603212046FFF7DAFD7AE60221D3
:101FF0002046FFF7D5FD72E601212046FFF7D0FD10
:102000006AE600212046FFF7CBFD62E60421204668
:10201000FFF71EFD55E601212046FFF719FD770366
:102020007FF549AE20460221FFF712FD30037FF510
:1020300045AE03212046FFF70BFD3FE60021204679
:10204000FFF706FD31E63A70120A01378AE600BF53
:102050004080001068A7000840A3000800000000AE
:1020600002F0030C2DE9F047D209674600244FF037
:1020700001094FF003084FF00F0E0FE0D0F800A059
:1020800003EA0A033B43072C036035D8036A1E406A
:102090003543056249082DD0BF000134CB07F9D57F
:1020A000436809FA04F523EA050343606300856881
:1020B00008FA03F3DB431D408560C66804F007059A
:1020C000AD001E400EFA05FABCF1020FC66002FA1E
:1020D00005F56FEA0A06D1D1072C12D8D0F820A056
:1020E00006EA0A063543056205682B403B4349086A
:1020F0000360D1D1BDE8F087436A1E403543456295
:10210000C8E7D0F824A006EA0A0635434562EBE7A3
:1021100030B4C46A2268136823F01F031360136885
:1021200013F00103FBD1257A826A60683D21A94042
:10213000016053609368012123F08043936030BCB9
:1021400091607047000000000000000000000000E7
:1021500011F00C0F70B5044616D10369002B35D071
:102160008D0634D51A78002A3CD05D6875B3D0E965
:102170000212012A59D95B885208540004FB03114A
:102180002B46BDE870401847FFF7C2FF23699B68E4
:10219000002B4ED00522227000212046984723783C
:1021A000052B04BF0223237000232361202383F324
:1021B0001188FFF77DFA04F114004FF0FF31FFF7AB
:1021C00017FAFFF75DFA002383F3118870BDCA0682
:1021D000FCD55B68002BF9D0D0E90212BDE8704055
:1021E00052081847FFF794FF23695B68C3B10422C4
:1021F00022702046D4E9021298472378042B0FD08E
:10220000202383F31188FFF753FA04F1140000210F
:10221000FFF7EEF9FFF734FA002383F3118870BD5E
:102220000222002322702361EAE72B46BDE87040BA
:102230001847022223612270B8E700BF00000000A7
:102240002DE9F84305460E4690469946FFF7F8F803
:10225000C5B1052E16D80124B4402889A4B210EACD
:1022600004070FD105EB86030443DB682C81586912
:102270003146C0F80880C0E900972846BDE8F84319
:10228000FFF74EBB0148FFF7B3F800BFFCA30008FF
:1022900038B590F84C10142904462FD0152919D0C0
:1022A000062902D01B48FFF7A3F8C36E4568D3F890
:1022B00000292D6842F40012C3F80029D3F8002B3E
:1022C00042F40012C3F8002B05B1A847062384F896
:1022D0004C3038BD0B2380F84C30202383F3118819
:1022E000FFF7E6F900231A4619462046FFF7A8FF34
:1022F000FFF7C6F9002383F3118838BDC3689B69D3
:102300005B68002BE5D1836D03B19847002384F807
:102310004C3038BD58A40008000000000000000048
:102320002DE9F84305460E4690469946FFF788F892
:10233000C5B1052E16D80124B4406889A4B210EAAC
:1023400004070FD105EB86030443DB686C819869B1
:102350003146C0F80880C0E900972846BDE8F84338
:10236000FFF736BB0148FFF743F800BFCCA30008D6
:1023700038B590F84C30063B0446052B04D8DFE80E
:1023800003F02A03030616402B48FFF731F890F8B4
:10239000631090F86230426D43EA01239A4206D2FC
:1023A000C3681B8AB2FBF3F503FB152585B3142321
:1023B00084F84C30202383F31188FFF779F9002348
:1023C0001A4619462046FFF7ABFFFFF759F90023DD
:1023D00083F3118838BDC36E4168D3F800290D68B6
:1023E00042F40012C3F80029D3F8002B42F4001283
:1023F000C3F8002B0DB10621A847062384F84C3002
:1024000038BD836D03B19847002384F84C3038BD44
:10241000202383F31188FFF74BF92B462A462946E0
:102420002046FFF70DFFFFF72BF985F311880A23EC
:1024300084F84C3038BD00BF4CA4000800000000F8
:10244000704700BF00000000000000000000000016
:1024500090F85C3003F06003202B01D0002070471F
:1024600090F85D30202BF9D3212B07D8074B03655B
:1024700007220023C0E9152301207047222BEDD14C
:102480000023C0E914338365012070470008002051
:1024900008B518B111B1012903D112B10248FEF7F4
:1024A000A7FF002008BD00BF64A2000800000000D4
:1024B000F8B5D0F88C6437683B78042B01D0012044
:1024C000F8BD037A022BFAD133797A89012505FA0E
:1024D00003F31342F3D10446FEF7B2FFD4E9072316
:1024E0009A4209D00432EAD0384671794FF48073A9
:1024F000FFF716FF0020F8BDA369002BDFD1F1E73D
:10250000406BFFF7D5BF00BF0000000000000000D7
:102510000D3138B550F82140B4B1202383F3118830
:10252000FFF7C6F8D4F88C241368527903EB8203C2
:10253000DB689B695D6845B92046FFF7B9FFFFF787
:102540009FF8002383F3118838BD04216018FFF73A
:1025500007F8FEF775FFA36A043B9D4221D8D4E932
:10256000073293421AD01D60D4E90910A2690344CE
:1025700001328B42A261E36101D3236BE361E06826
:1025800004F10C038342D7D00268E260536090F8F4
:102590002030042B08D00748FEF72AFFA269002A42
:1025A000E1D00548FEF724FF00234362FEF788FFD1
:1025B000C2E700BFFC9F0008F8A20008000000006E
:1025C00070B50D460446FEF72BFFD5B1E369043B19
:1025D000AB4216D3E368A3B12369A1691D60E0692A
:1025E000E26803448B42236124BF636A2361013A9A
:1025F000236BE2600022A26233B12046BDE8704046
:1026000018470248FEF7F4FE70BD00BF10A4000892
:1026100038B504460D46FEF713FFD4E90420824284
:1026200003D050F8043B2B6038BDE268002AF8D094
:10263000002038BD00000000000000000000000085
:1026400010B5446BD4F88C2413681978042982B02F
:1026500001D002B010BD217A0229FAD111791A896C
:1026600001238B401342F4D101A904F14400FFF788
:10267000CFFF02460028ECD0D4F88C04019B0179EE
:102680000068FFF7DDFDE4E7000000000000000047
:1026900010B5202382B083F31188234CFFF708F88C
:1026A000D4F88C2413681978042906D0FEF7E8FFC3
:1026B000002383F3118802B010BD217A0229F5D1DD
:1026C00011791A8901238B401342EFD1FEF7B8FE2E
:1026D000D4E915329342E9D1226D002AE6D0E26EA8
:1026E000002AE3D0043AD21AE0D01A60D4E91710D5
:1026F00003448B42226D636524BFA36E6365013A78
:10270000002301A909482265E366FFF781FF02461D
:1027100038B1D4F88C04019B01790068FFF790FD73
:10272000C4E70348FEF764FE54120020981200200C
:10273000ECA2000800000000000000000000000003
:102740002DE9F04100EB810382B01C6A14B30E4600
:102750000546202383F3118800EB8107FEF7A8FFCD
:10276000201D0821FEF7FCFEFB685B691B6804F175
:10277000440813BB404601A9FFF74AFF68B102466F
:1027800031462846019BFFF75BFDFEF779FF0023EA
:1027900083F3118802B0BDE8F081FB685A691268C2
:1027A000002AF2D01B8A013B1340EED1314605F1DD
:1027B0005C022846FFF744FDE7E7FEF741FED4E957
:1027C00015239A4218D0D4E91721206D0B4401300B
:1027D00093422065A36501D3A36EA365606C404559
:1027E000C8D003686364C3F8048090F82030042BD9
:1027F00008D00748FEF7FCFD226D002AE3D005480B
:10280000FEF7F6FD00234362FEF75AFEB2E700BF73
:10281000FC9F0008B4A300080000000000000000B6
:1028200010B50446FEF7FCFDE3689BB1D4E9061041
:102830006369E26803448B42636124BF636A636136
:10284000013A236BE2600022A26233B12046BDE868
:10285000104018470148FEF7CBFD10BD28A3000823
:1028600008B54FF08043DA68920701D5586308BD78
:102870000148FEF7BDFD00BFB0A100080000000048
:1028800070B51A4C0546FEF7CBFD2368A669A34236
:10289000B26802D09B68934222D8AB680021934271
:1028A000696218D93046FEF70BFE012385F8203007
:1028B000238FA561DB07064601D4FEF741FDEFF348
:1028C0000983F269243B9A420DD831462846BDE877
:1028D0007040FDF7F5BC2846BDE87040FEF7F0BD3E
:1028E0000348FEF785FD0348FEF782FDE01800204F
:1028F000E8A000089CA500080000000000000000FF
:1029000070B5124CA5690646FEF78AFD236885F866
:1029100020601A6822600121546083F82010228F01
:10292000A361D30702D42846FEF70AFDEFF309831B
:10293000EA69243B9A4205D82946A069BDE870405F
:10294000FDF7BEBC0248FEF753FD00BFE0180020B3
:102950009CA500080000000000000000000000002E
:102960002DE9F0430C4687B00746FEF759FD631C7E
:1029700050D0FEF765FD002C49D0494E494AB36955
:102980000593B046012C58F81C5F4FF0804308BFF8
:1029900002244545596A049249D0B06AAB68091AC5
:1029A000641840D29C4257D39C420DF1040906D9C9
:1029B0004D452CD02D68E41AAB689C42F8D86B6862
:1029C000CDE90153C3F80090C5F804900394AB68B7
:1029D0001C1B4FF0FF33AC6073623846FFF790FF6B
:1029E000FEF72EFD049BCBB1FEF72AFDF269019B99
:1029F0004A4536D0029A1360019B002143455A6034
:102A000004910BD09A6803990A449A6006E026481C
:102A1000FEF7EEFC3846FFF773FF214EB369586AA4
:102A200007B0BDE8F0832D68E41AAB68BCE7B1627B
:102A30000394DA6801950DF1040912F0020202957F
:102A4000C6E9079905D12144022059631A61D8606B
:102A5000C3E71648FEF7CCFC2044FFF701FFAB6844
:102A6000A2E700224345F361C3F80480049212D028
:102A70009A680399B06A0A444FF080419A604B6AA1
:102A80001B1A9A42CAD9D11A012998BF9A1C10441C
:102A9000FFF7E6FEC2E74FF08043DA60BEE700BF13
:102AA000E0180020E116000840A0000864A100081A
:102AB00070B504460D46144EFEF7B2FC0EE0237AC4
:102AC000CBB9DDB1B36962682946C3E9004204208D
:102AD00013606360FFF744FF00280BDBE368002B03
:102AE000EDD0E3686BB12369E1691A1D0B44C4E9B9
:102AF0000A23002070BD6FF0010070BD4FF0FF3061
:102B000070BD0248FEF774FCE0180020E0A3000846
:102B100070B504460D46144EFEF782FC0EE0237A93
:102B2000CBB9DDB1B36962682946C3E9004204202C
:102B300013606360FFF714FF00280BDBE368002BD2
:102B4000EDD0E3686BB163691A6804331A44C4E9D1
:102B50000A32002070BD6FF0010070BD4FF0FF30F1
:102B600070BD0248FEF744FCE01800200CA30008EA
:102B700010B5C0B00246074B0749684603F04EF84F
:102B8000064B1C680246694664681846A04740B078
:102B900010BD00BF002A002080A8000854120020A9
:102BA0002DE9F84304460D461646FEF749FC44B1AC
:102BB0002378042B05D10FFA85F804EB8807FB680E
:102BC00013B15A48FEF714FC7269FE601AB1136023
:102BD00053609360D360B36923B100221A605A60D6
:102BE0009A60DA60FB681A6802F00302022A00F0B9
:102BF0009780032A00F091804D484E49012A0CBF6E
:102C000081468946E66E9869690172184FF0000C9A
:102C1000C2F810CB05F110024FF0010C0CFA02F2D1
:102C2000002848D0B3F812C005F1580040014CEA22
:102C3000090C46F800C0D6F81C080243C6F81C2848
:102C400031445A690020C1F81009002A42D09A8BF9
:102C5000198A012A4FEA910388BF5343D4E91C2102
:102C600058186067526890425DD805F13F00E26EE7
:102C700041EA034306EB8000A90141F020014360D3
:102C8000116113699906FCD41220FEF7A1FBFB68C1
:102C90001A8A05F1480342EA85525B0142EA0902B9
:102CA000F2500121D6F81C3801FA05F51D43C6F88B
:102CB0001C58BDE8F88306EB481CDCF8000B20F438
:102CC0000040CCF8000BD6F81C0820EA0202C6F837
:102CD0001C28B5E705F13F03E26E174806EB8303B6
:102CE000A90141F020015860116113699B06FCD4D1
:102CF00006EB48181220FEF76BFBD8F8003923F4D6
:102D00000043C8F80039D6F81C38012101FA05F54E
:102D100023EA0505C6F81C58CBE7DFF8249071E7D5
:102D2000DFF820906EE70548FEF762FB88A30008F5
:102D300000800410008000100004000240A300087E
:102D400000800C100080081000000000000000004F
:102D500038B5052916D8DFE801F050151650500394
:102D6000202383F31188334DFEF7A2FC0024281D95
:102D70000121FEF7F5FB2C7585F84C40FEF780FC31
:102D800084F3118838BD0546202383F31188FEF7AC
:102D90008FFC284C284A28460121FFF701FF022119
:102DA000264A2846FFF7FCFE0025FEF749FB236B69
:102DB000236204F10C00E361A561C4E90D55FEF73F
:102DC000A7FB2575FEF73CFBD4E9192304F1440069
:102DD0002265C4E91533E5662567FEF799FB0121F5
:102DE000201D84F84C50FEF7BBFB2046FFF760FB2C
:102DF000FEF746FC85F3118838BD202383F3118844
:102E00000C4CFEF755FC0221201DFEF7A9FB012505
:102E100004F10C002575FEF77BFB04F1440084F8F7
:102E20004C50FEF775FBFEF72BFC002383F3118853
:102E300038BD00BF541200208CA70008B0A70008BE
:102E400070B590F84C30044613B1002380F84C3034
:102E500004EB81016268CB681B6A19685B682366B2
:102E6000E165936843B32046984728B3616D94F8B1
:102E70005C3094F8630094F8622042EA00228A42AF
:102E80002CBF0A466265190600F18680002A5AD0D6
:102E9000152384F84C30202383F31188FEF708FCB7
:102EA000D4E9142320460021FFF73AFAFEF7E8FBA5
:102EB000002383F3118870BD94F85C3013F0600533
:102EC000194616D0E26ED2F80039616843F4001357
:102ED000C2F80039D2F8003B0D6843F40013C2F881
:102EE000003B15B106212046A847062384F84C3044
:102EF00070BD94F85D0003F07F0242EA002240F2C8
:102F00000230824200F0D38031D8022A00F0BE8025
:102F100040F29380B2F5817F00F09780B2F5407F58
:102F20006BD0B2F5807FCDD194F85E30012BC9D142
:102F3000B4F864302565C4E9155523F00203A4F8FC
:102F400064300B0635D40B2384F84C30202383F3F4
:102F50001188FEF7ADFB002320461A460021FFF73B
:102F60006FF9FEF78DFB002383F3118870BD40F2EB
:102F70000160824250D9B2F5106F26D040F602416E
:102F80008A427CD0B2F5006F9CD104F16702012126
:102F9000A565C4E914216CE75AB1092384F84C30C3
:102FA000202383F31188FEF783FBD4E91423204602
:102FB000D4E7142384F84C30202383F31188FEF7E0
:102FC00077FB002320461A466DE72378042B00F098
:102FD000BE8094F85E304BB10421626884F867309B
:102FE0002170136813B10221204698470023C4E9D9
:102FF0001433A36594F85C10A3E794F85E30012BBA
:103000007FF460AFB4F86430256543F00203C4E98F
:103010001555A4F8643094E7B2F5C06F5DD2B2F5EF
:10302000A06F7FF44FAFB4F85C30B3F5A06F76D0EB
:103030000023C4E91433A36583E7EAB904F164000B
:103040000221A265C4E9140113E794F85E30002B55
:103050007FF438AF94F8603013F00F00E8D0E26EE0
:1030600013F0800F02EB40137ED1D3F8002B22F433
:103070000012C3F8002BDBE7012A7FF423AF5F4A7D
:10308000226502210022C4E91512F2E694F86000DC
:10309000E26E050600F00F0138D45831490151584D
:1030A0000D047FF510AF8E0237D5554AE8E794F846
:1030B0005E30002B7FF406AF94F8603013F00F0001
:1030C000B6D0E26E02EB4012180654D4D2F8003BA0
:1030D00043F40013C2F8003BAAE794F8610061686A
:1030E00094F860304E6894F85E2094F85F1043EADC
:1030F00000232046B04700283FF4E4AED0E9001397
:10310000A565C4E9143194F85C30B2E64831490150
:10311000515808047FF5D7AEC5E73A4AB0E794F8AE
:103120005E10E26E84F86610D2F80038606823F40E
:10313000FE63056843EA0113C2F8003815B10121A6
:103140002046A847032394F85C10237070E72023DF
:1031500083F31188FEF7ACFAFEF772F92378042B9B
:1031600010D02948FEF744F9D3F8002922F40012C0
:10317000C3F800295CE7D2F8003943F40013C2F821
:10318000003955E7226F2189136863676389906866
:10319000E66E2561C4E90555C4E9075501F0010152
:1031A00003F0010321812A46013063814FF0FF3192
:1031B00006EB421301328242C3F80059C3F810599A
:1031C000C3F80819C3F8005BC3F8105BC3F8081B09
:1031D000EED14FF00113C6F81C38FEF751FA85F313
:1031E00011880321636884F8675021701B68002BE5
:1031F0003FF4EFAE20469847EBE600BFC4A90008B5
:10320000E0A7000854A500089CA3000800000000E7
:10321000EFF30983203383F30988002383F31188B4
:10322000704700BF00000000000000000000000028
:1032300070B51C4D2B68AE691C682C60012265605E
:1032400083F82020AB61FEF7FBF826B396F8203018
:103250000BB30F2B1FD00023B26886F8203000E09C
:103260002468A3689342FBD863682A8FC6E90043A9
:103270001E60D307666002D43046FEF761F8EFF3B4
:103280000983F269243B9A4208D83146A869BDE80F
:103290007040FDF715B80448FEF7AAF80348FEF79A
:1032A000A7F800BFE018002058A000089CA500085F
:1032B00008B5054B1A6B22B9596B002901DD5A6319
:1032C00008BD0248FEF794F8E018002084A4000826
:1032D00008B5FFF7EDFF084B1A689A4204D09969C8
:1032E00093688A689A4203D3002383F3118808BD48
:1032F0000248FEF77DF800BFE0180020B49F0008E8
:1033000008B5FFF7D5FF084B1A689A4204D09969AF
:1033100093688A689A4203D3002383F3118808BD17
:103320000248FEF765F800BFE01800209C9F0008E7
:1033300008B5054B1A6B0AB95A6B12B10348FEF770
:1033400057F801225A6308BDE018002074A4000851
:1033500070B5202304460D46164683F31188FFF707
:10336000E7FF324629462046FEF77AF80446FFF783
:103370009FFF084B1A689A4204D0996993688A683B
:103380009A4204D3002383F31188204670BD02487B
:10339000FEF72EF8E0180020D89F0008000000007B
:1033A00010B50446081E0ADB00220421FFF7D0FFF7
:1033B00000B110BD0C2323604FF0FF3010BD014859
:1033C000FEF716F844A1000800000000000000000D
:1033D000304D314AAB69314C314EDFF8E08080B579
:1033E000304F9A61202383F31188FFF7A1FF6369AF
:1033F00013B12D48FDF7FCFFFEF722F82378022BCE
:1034000005D0043B012B02D92848FDF7F1FFE36A00
:10341000DFF8ACE0032020701A68236B27614FF0BF
:10342000040C1821C4E9026CD66051601360116865
:10343000A36AD5F818C041F00101116000224FF4D1
:10344000A0011A60DA601A61D9621A6340F203328D
:10345000C3F834801649C3F804E09A60154A9960AD
:103460004FF0FF31CCF82420C4F814C0FFF778FAED
:10347000FFF71EFF2B68AB4204D0AA699B689268D5
:103480009A4203D3002383F31188ABE70A48FDF780
:10349000AFFF00BFE018002058A50008E811002089
:1034A000C828002064A500084CA2000814A2000847
:1034B00003030040FC110020909F00086AB1E61E43
:1034C00000010004000000000000000000000000F7
:1034D0002DE9F04F202385B0804683F31188BD4C41
:1034E000FFF726FFD4F8109099F82230013389F8BD
:1034F0002230FFF7DDFE2368A34204D0A2699B6857
:1035000092689A4247D3002686F311882027D9F87B
:103510001C30984500F0908087F31188FFF708FF72
:10352000D9F81050A54200F0898095F82230FF2B81
:1035300037D0013385F82230FFF7BAFE2368A34263
:1035400004D0A2699B6892689A4224D386F31188BA
:1035500087F31188FFF7ECFE99F82230F3B1013BB5
:1035600089F82230D9F8203003F0FF130F2B1BD03D
:10357000FFF79EFE2368A34204D0A2699B6892686D
:103580009A4256D386F31188A946002DBFD128460A
:1035900005B0BDE8F08F9048FDF72AFF8F48FDF792
:1035A00027FF8F48FDF724FFD9E904231A61D9F8D2
:1035B00010205361FFF77CFE2368A34204D0A26968
:1035C0009B6892689A4234D386F3118899F8213027
:1035D00003F00303012B33D0022BD5D1D9F840A03F
:1035E000D9F81C9087F31188FFF7A2FEFDF728FF9A
:1035F000BAF1000F00F08680B9F1000F00F0828070
:10360000DAF80830013B19EA030F7BD1DAF8003011
:10361000C9F80030CAF80090FFF74AFE2368A342B9
:10362000B0D0A2699B6892689A42ABD26D48FDF710
:10363000DFFE6D48FDF7DCFE4D46A8E700257BE781
:10364000D9F81C90B9F1000F59D019F0070F56D1D5
:1036500059E902130733DB0849F8043C01F10C0B6C
:10366000019187F31188FFF763FEFDF7D9FED4F8C7
:1036700018A00199BBF1000F30D04869002800F074
:103680009780DAF80820836801929A420AD990F864
:103690002030019A8260062B00F0C180072B00F0D9
:1036A0008E80F3B15A4604E09068DAF80830984208
:1036B00003D312689345F7D15A4653680191CAE97A
:1036C00000230620C3F800A0C2F804A0CAF824B062
:1036D000FFF716F901994B699A4516D04348FDF753
:1036E00087FED0E900324FF0010C80F820C0136053
:1036F000036801915A60FDF7E3FE0199D2E73C4867
:10370000FDF776FE3B48FDF773FEDAF838309B454F
:10371000E4D10191FFF7CCFD22680199A24205D0C6
:10372000A36992689B689342C0F0BA80A9F108002F
:1037300001F1040C86F311886246904205D3536868
:10374000013302EBC3039842D9D39445136801D0E7
:1037500090422BD90BB1984228D259F804CC49F8A1
:10376000083C10600CF1010C59F8083C00EBCC0E41
:103770009E4500F09F80D2F804C00CF1010302EBDB
:10378000C303984200F08F80A2690291019287F3EF
:103790001188FFF7CDFD019A0299906B18B18368EB
:1037A0009A4200F092801448FDF722FE1A46C4E7C0
:1037B000DAF83830C1E905A3CAF838B0A9E7D0E98A
:1037C000003ECEF80030D0F824C00368C3F804E00F
:1037D000E64618E0E018002028A0000808A100082C
:1037E00034A10008E49F0008B49F00084CA0000822
:1037F000BCA0000898A00008C8A00008DEF80830A7
:10380000019A9A4203D8DEF800E0F445F6D1DEF8DA
:103810000430C0E900E31860CEF8040042E7D0E9C4
:1038200000231A60D0F824C00268E646536004E022
:10383000DEF80830019A9A4203D8DEF800E0F44539
:10384000F6D1DEF80430C0E900E31860CEF80400D9
:10385000DCF8080015E7D9F800009360D9F8383093
:10386000C860C0F804B0C1E905934846C9F838B04B
:10387000FDF726FEFDF7D4FDFDF7E2FD2268A36902
:1038800092689B689A424AD8FFF712FD2368A342C8
:103890003FF478AEA2699B6892689A42BFF472AE18
:1038A0002048FDF7A5FD59E9020301336344106088
:1038B000536069E7DEF804E050F83C3049F8083C12
:1038C0000EEB0C0349F8043C55E783457FF46BAFDE
:1038D000D1F818A0C2F838A002910192FDF7A0FD1E
:1038E0000299D1F80C90CB4517D0019AD36BBAF15D
:1038F000000FB0D0CDE902230191FDF791FDDAF878
:103900000000039B8245DDE9011203D080688342F9
:1039100038BF0346DAF80CA0E9E74E61B4E7FFF7D9
:1039200087FCB1E7C09F0008000000000000000015
:10393000F8B5440706D105460C4616461F46FFF764
:10394000C7FD10B11E48FDF753FD2A19954205D257
:103950002B46552103F8011B9A42FBD1202383F308
:103960001188483C2C44FFF7E3FC164B2361A4F17B
:10397000240215495869E561E26044F8041C0225F7
:1039800001221249258484F82220A161002204F139
:103990002C0104F12805606144F8202C44F8247CB3
:1039A000A660C4E90D22E66304612046C4E90A5119
:1039B00021635C61FEF764FFFFF78AFC2046F8BDD7
:1039C000D4A00008E0180020D1020008ACA500082F
:1039D00010B52023044683F31188FFF7A9FC214684
:1039E0000820FEF7BDFFFFF763FC084B1A689A42F8
:1039F00004D0996993688A689A4203D3002383F3B9
:103A0000118810BD0248FDF7F3FC00BFE01800204C
:103A1000B49F00080000000000000000000000004B
:103A200080B53E4C3E49A26986B02023916183F364
:103A30001188FFF77DFC3B4AA369029306AB5168EE
:103A400043F8141D00204FF0FF3153600225CDE9EB
:103A500003500591FFF72CFC2368A34204D0A26910
:103A60009B6892689A4256D3002383F311882E4FA5
:103A700020264FF00208A56986F31188FFF758FC4D
:103A80006B6B13F0020207D1C5F824800A20FEF701
:103A900037FF6B6B03F0020223EA02036B63FFF74D
:103AA00007FC2368A34204D0A2699B6892689A42EB
:103AB00031D3002585F3118886F31188FFF738FC90
:103AC000DDF810900495FFF7F3FB2368A34204D0C0
:103AD000A2699B6892689A421DD3002383F31188E0
:103AE00019F0040F1CBF4FF480433B8319F0080FFB
:103AF0001CBF4FF400433B834FF4FA70FFF768FF9D
:103B00004FF480424FF400437A834FF4FA707B8382
:103B1000FFF75EFFAFE70548FDF76AFCE0180020FD
:103B200090A8000854120020000C0240CC9F00080E
:103B300008B50546202383F31188FFF7F9FB104BE6
:103B40009C69A06A656204F12805A84206D0036852
:103B5000A362FDF7B5FCA06AA842F8D194F8223020
:103B600043B994F821309B0704D1D4E904231A61A6
:103B7000226953610F20FEF7C3FE0248FDF738FCAF
:103B8000E018002018A1000800000000000000005C
:103B900070B5037C8B420AD904460D461646202395
:103BA00083F31188FFF7C4FB2378022B02D00F4860
:103BB000FDF71EFCA369E2680121A9400C3503EB67
:103BC00085050A43E2606E60FFF772FB084B1A68D6
:103BD0009A4204D0996993688A689A4203D3002371
:103BE00083F3118870BD0348FDF702FCF4A10008BF
:103BF000E01800209C9F000800000000000000006A
:103C00001E4B1F481A696FEAC25200216FEAD25256
:103C10002DE980484FF0FF341A6119615A695C61DF
:103C200059611A6A62F080521A6219625A6A5C62B9
:103C300059621A6C42F080521A641A6E42F0805235
:103C40001A66026842F4807202601A6F02F44072CF
:103C5000B2F5007F8BB003D04FF480321A6719673A
:103C6000074A084953680848084E23F40073536014
:103C7000074B00241C60224623460DE0003802401A
:103C800000700040A0A400081060024074270020CB
:103C9000F427002051F80C0C036046F83230013252
:103CA000102A01F10C01F5D1D24AD34FD348DFF8E5
:103CB00090E37B6060254FF0FF314FF0400B816057
:103CC000BB60C160CEF808108020FB60CEF80C10FD
:103CD00082F806534FF4807E3B61C2F880B17B616D
:103CE000C2F800B04FF4007B82F80753C2F880019D
:103CF000106082F80853C2F880E1C2F800E082F850
:103D00000953C2F880B1C2F800B04FF4806B82F85A
:103D10000A53C2F880B1C2F800B04FF4000B82F829
:103D20001753C2F880B1C2F800B007F1180B82F83F
:103D30002853C7F818B0C2F884E1C2F804E04FF085
:103D4000010E87F800E0C7F81CB0DFF8F8B282F87F
:103D50001253C7F828B0DFF8F0B2DFF8F082C7F8E6
:103D600030B0A74DDFF8E8B2DFF8E892FD624FF41B
:103D700080253B62C2F88051C8F804301560C8F84D
:103D800018B00BF5806B9F4CDFF8CCA2DFF8CCC2EB
:103D9000C9F818B00425DFF8C8B288F8105089F8BF
:103DA00010504FF0A045CAE91B5B88F800E089F885
:103DB00000E08AF800E0C8F80C30C9F80430C9F80F
:103DC0000C30CAF82430CAF83830CAF82830CAF89B
:103DD0003C30CAF82C30CAF84030CAF83030CAF843
:103DE0004430CAF83430CAF84830CAE9013384F89C
:103DF00000E0DCF84050636245EA0E05CCF8405024
:103E0000DCF86050DFF85CB2A36345EA0E05CCF83D
:103E10006050DBF808C0A3624CEA0E0CE363E36277
:103E20002364236363646363A364C4E90133CBF84D
:103E300008C04FF0804C42F2CF0BCCF828B0DFF82E
:103E400028B2CCF82C10704DC4F86CB0DFF81CB25E
:103E5000CCF81830C4F870B0DFF814B2CCF83430B5
:103E60004FF08054CCF80C30CCF80430CCF814E08F
:103E7000CCF800E005F1400E05F11C0C82F81C03A3
:103E8000C2F880411460C5E90055C5E90455C5E98B
:103E90000EBEC5E907CC00246962AB60AB62013499
:103EA00005EB0413802C93F830206FF3020283F8A3
:103EB0003020F4D100214FF0FF3C0022002304A861
:103EC000CDE90823C5E90C11C5F88418CDE9051121
:103ED00007910191CDF810C0FDF79AF904A8FDF7FC
:103EE000E7F94A4A4A4B0199C5F84848C5F87C4861
:103EF00002F10C04C2E90344DFF878C1516103F117
:103F00002404C2E90111C2F800C0996003F1100C49
:103F10005961D96203F128025C6285F8611803F1E6
:103F20004004C5F87818C5F8741803F13C01394805
:103F3000C3F810C09A62D963374A1C64DFF838E1CD
:103F40003649374C1A624FF0140B4FF01C0CC3F873
:103F500018B0C3F830C04FF0040B4FF0010C9A6357
:103F6000069AC3F81CB0CEE90014C3F834B0C3E914
:103F70000033C5F8842885F862C8C168294AD5F895
:103F800014E0294BC5F858384FF6FF0B01EA0B0136
:103F9000264B274CC5F850580A43C5F854E8CEF8CC
:103FA0001030C260E268234985F860C842F0807230
:103FB000E2600A686B6142EA0C02AB614FF0100CE0
:103FC0000A6003F12802202180F81FC02C33C5F8B5
:103FD000682880F82210C5F86C38C5F870382B6B4B
:103FE000154CC5F85C4813B96B6B002B46D01348D1
:103FF000FDF7FEF900E100E0E8110020006002405A
:1040000024A500085C170020E01800205827002095
:104010006821002000ED00E0B1140008582B0020BA
:10402000000002200003FA05B4A5000820210020AA
:10403000F0ED00E0001000E000040020F0A7000810
:104040000064024000200140162C02001C120020D7
:104050000004004038120020E4160020003802401E
:10406000D4A70008002004E000000440E4A70008F2
:10407000F0FF8000513300088822002083F311886C
:1040800062B6C248FFF724FA10B1C148FDF7B0F993
:10409000DFF8F8B2034655220BF803200133D82B82
:1040A000FAD1202383F31188FFF742F9FDF7C8F90D
:1040B000DFF814C3B748CBF8A800B74A6869B74916
:1040C000CBF86C20002301220CF1240ECBF88C10CD
:1040D0000221B34CCBF87030CBE93133CBF89820C8
:1040E000CBF8CC208BF8B220ABF8B010CBF8A050B6
:1040F000CBF8A400CBF89CC0CBF8ACB0C0F810E073
:104100007046C5F814E00CF14C0E0CF1500CCBE9E4
:104110002EECCBF8C0C0039302920191FEF7B0FBE6
:10412000FFF7D6F82046039BDFF8A0C2029A019958
:1041300040F804CB04F28C4EDFF894C2A3612272E3
:104140002275E162C4E90D3384F84C202165616673
:10415000C4E91B3304F17C0204F52173C4F83CC0AC
:10416000C4F85CE04FF4827C04F10C0B04F1440EC3
:104170008C496362C4E91533A3662464A46761674C
:104180006060C4E903BBC4E907222263C4E911EEFD
:104190002023C4F828C0C4F860C083F31188FFF757
:1041A000C7F8237A0199013B012B00F230827E4B44
:1041B000C4F88C34CAF82440CAF83840CAF82840F9
:1041C0002172FFF775F82B68AB4205D0AA699B688E
:1041D00092689A42C0F018824FF0000B8BF311885E
:1041E000DAF86C20936B23F40023936343F6982052
:1041F000FFF7EEFB202080F311880190FFF798F87D
:104200009AF800200198531E012B00F2FA81674BA7
:10421000CAF80430012ACAE903BBCAE905BBCAE9E6
:1042200007BBDAF86C4041D002238AF80030FFF770
:104230003FF82B68AB4205D0AA699B6892689A4206
:10424000C0F0E881002484F31188DAF86C20584823
:10425000936B43F40023936301210322FDF700FFD6
:10426000032202215248FDF7FBFE0322042150489D
:10427000FDF7F6FE032208214D48FDF7F1FE03226B
:1042800010214B48FDF7ECFE032220214848FDF7A2
:10429000E7FE202383F31188FFF74AF83B785A1E84
:1042A000012A40F299804348FDF7A2F8424B01925F
:1042B000D3F834C04149DFF81CE14CF0800CC3F85E
:1042C00034C0D3F854C04CF0800CC3F854C0D3F8B9
:1042D00014C04CF0800CC3F814C0C3F814B0E02331
:1042E00081F843330823C1F888314FF0C00C8B604C
:1042F0003349C4F80CE04FF45023C4F80018C4F854
:1043000000BEC4F800C0A363FDF762F8019A226101
:10431000236913F0010BFBD11220FDF759F8236933
:10432000002BFCDADAE91B130022D3F808C0A260E4
:104330004FF0FF3001EB4B130BF1010BE345C3F8DA
:104340000029C3F81029C3F80809C3F8002BC3F8E3
:10435000102BC3F8080BEDD9DAF80430DB684FF006
:104360000110C1F81C08C4F81028C4F81428C4F8B7
:104370001C28002B00F05181124BA3614FF0FF333A
:104380006361A36843F00103A3604DE7B0210020FF
:104390008CA00008F8A7000851170008D1020008F7
:1043A000541200204126000888A8000898A8000898
:1043B0000008024080A100080038024000E100E04F
:1043C00003002002083C30C01C2200209CA90008E9
:1043D0000125000840140040012B7C601DD0022301
:1043E0003B70FEF765FF2B68AB4205D0AA699B685E
:1043F00092689A42C0F00281002585F311884FF03F
:10440000200A8AF31188FEF793FF99F80030013BE8
:10441000012B7BD98248FCF7EBFFFA6A002A72D0A5
:104420008048517A00688B40034269D1034306EB10
:10443000C1047C48DFF844C2036013F0FF0F6760DB
:1044400046F831C008D07849086B40F40010086382
:10445000086D40F40010086513F47F4F08D0724BCC
:10446000196B41F480011963196D41F480011965DC
:104470001068036823F01F030360016811F0010155
:10448000FBD192F808C05368684E3D2404FA0CF43E
:104490004FF0210C1C600160C0F814C0937A5A09D7
:1044A00003F1604404F5614492004FF0600C02F1A6
:1044B000604284F800C302F56142012403F01F0347
:1044C000DFF864C104FA03F3C2F880311360866038
:1044D000DCF84430BA6A564843F48073CCF8443070
:1044E000DCF8643043F48073CCF86430436803F440
:1044F000400343F4803343605160916094606EE701
:104500004C48FCF775FF4C48FCF772FF4B4E4C488B
:1045100073680227C9E90163FDF752F9C9F80C5025
:1045200089F80070FEF7ECFE8AF31188FEF700FFB1
:1045300098F80030013B012B3FF66CAF414C73689B
:104540004148C8F80830C8F80460FDF739F9C8F8E0
:104550000C5088F80070FEF7D3FE204651464FF409
:104560008172FDF77DFD4FF481724021FDF778FDEA
:104570004FF481728021FDF773FD4FF481724FF487
:104580008071FDF76DFD4FF481724FF40071FDF7FE
:1045900067FD2A4601212C48FFF7FAFA2A462946E8
:1045A0002748FFF7F5FA2A4601212548FFF7F0FAD8
:1045B0002A4639462248FFF7EBFA2A4603212048CB
:1045C000FFF7E6FA4FF08063A361FF221F4B2048FC
:1045D0004FF49961FFF7ACF91E4B1F4880224FF44E
:1045E0008471FFF7A5F91D4B1D4880224FF484719B
:1045F000FFF79EF90120FFF7EBF9FBE71948FCF7FD
:10460000F7FE1948FCF7F4FE1848FCF7F1FE1848CD
:10461000FCF7EEFE1748FCF7EBFE174BA361ADE687
:104620008CA10008F4270020003802404C200140F3
:1046300000230140D8A10008D8A2000808080020E3
:1046400038120020000402401C120020814600089D
:1046500090220020213A0008F8280020D1330008D9
:10466000D8170020909F000860A30008A89F0008AA
:10467000A8A200081CA00008003C30C0512100087E
:104680002DE98048AC4BAD4A9B69AD4DAD4EDFF88E
:1046900014B3AD4C9A6191B0DFF8A4822A680A2362
:1046A000176A214680224046B8470328F6DDA64B0C
:1046B0000E934FF03A0C4FF03B0E0EAA0BA9074693
:1046C0002046ADF82CC0ADF830E001F089F90EAA13
:1046D00080460CA9002001F083F98146404601F094
:1046E00049F9431C01D087420BDC8022002120467F
:1046F00001F04AFA4FF480720021584601F044FA62
:10470000CAE77C2348460FAA0DA9ADF83430CDF88E
:104710003C9001F065F90FAA07460DA9002001F0B1
:104720005FF90DA980460FAA002001F059F98749C9
:104730008146384601F0EAFB30B38549404601F036
:10474000E5FB002800F088804FF0100A0021484661
:10475000089101F00FF90899002813BF01230023E5
:10476000012200228B4002FA0AF27A4913438B613C
:10477000794B7A49CDE900933A464346584601F0D1
:104780004DFAFEF7F5F9B0E73846754901F0BEFB82
:104790000028F6D0B6F80EC0338AB6F802A0B28868
:1047A000B08A3789318CB6F80CE0B6F80090B6F8CC
:1047B0000680E2441A44B6F80AC0F38A0744634408
:1047C0000F44B6F81CC0718AB08DF1448844B6F825
:1047D0001AE0318B6244B6F822C007448944F2449F
:1047E000F18BB08C03EB0C0E5E4BB6F828C0BF0803
:1047F00088441F60F18C5C4B81446244708DB6F834
:104800002EC08A44197880440EEB0C0392084FEABC
:1048100099094FEA9A0A08924FEA98089B0821B32F
:10482000B7F5A57F25D351490A690869096903933A
:10483000C1F3C031C2F3403CC0F380300691089907
:104840000091CDE904C053464A46CDE90187484965
:10485000584601F0E3F994E74649404601F056FB1B
:1048600078B14FF0110A012171E740F6BA12974270
:10487000D9D90022012140480993FFF789F9099B02
:10488000D1E73E49404601F041FB18B14FF0120A12
:1048900002215CE73A49404601F038FB18B14FF07D
:1048A000130A032153E73749404601F02FFB18B1A3
:1048B0004FF0140A04214AE73349404601F026FB31
:1048C00018B14FF0160A062141E73049404601F081
:1048D0001DFB18B14FF0170A072138E72C49404655
:1048E00001F014FB18B14FF0180A08212FE72949ED
:1048F000404601F00BFB18B14FF0190A092126E7D9
:104900002549404601F002FB18B14FF01A0A0A216E
:104910001DE72249404601F0F9FA18B14FF01B0A91
:104920000B2114E71E49404601F0F0FAE0B34FF0C6
:104930001C0A0C210BE700BFE0180020CCA50008E2
:1049400054120020C828002048280020D8A50008BC
:10495000DCA50008000C0240CCA60008B8A60008A0
:10496000D0A600084028002044280020000802406B
:10497000D4A60008E8A500081C120020F4A5000831
:1049800000A6000810A600081CA6000828A600081B
:1049900030A600083CA6000848A6000854A6000857
:1049A00060A60008002A00205149404601F0AEFAF6
:1049B000089070B1484600F0DDFF4E4A002814BF51
:1049C0004FF480634FF080639361A2F500629361BE
:1049D000CEE64949404601F099FA8246002831D096
:1049E000484600F0C7FF021E19DD424B08984FF4FD
:1049F00000319961414B1968414B187040F6BA1368
:104A0000994219D83F4B3F489B6803FB02F33E4A4B
:104A1000A2FB0332520B0121FFF7BAF8A8E6354B8F
:104A2000374802219961354B1B680121B3F5A57FF9
:104A3000017001D35242E5E7002201213148FFF71E
:104A4000A7F895E63149404601F060FA78B148464A
:104A500000F090FF2E4B2C4A9B6803FB00F3A2FB57
:104A600003325146520B2A48FFF792F880E6294953
:104A7000404601F04BFA78B1484600F07BFF244BEA
:104A8000214A9B6803FB00F3A2FB0332520B012176
:104A90001F48FFF77DF86BE61F49404601F036FAE4
:104AA00078B1484600F066FF194B174A9B6803FB34
:104AB00000F3A2FB0332520B02211548FFF768F8FE
:104AC00056E61649404601F021FA78B1484600F012
:104AD00051FF0F4B0C4A9B6803FB00F3A2FB033210
:104AE000520B03210A48FFF753F841E60C4B40E60E
:104AF0006CA60008000C024078A6000840280020A0
:104B0000442800201C1200205917B7D184A60008A1
:104B10003812002094A60008A0A60008ACA6000841
:104B2000C4A6000800000000000000000000000013
:104B30002DE9F04F85B0002A00F090809846044699
:104B40008B461746202383F31188FEF7F1FB4FF0C5
:104B50008043A06A5A6A434E42440025CDE90223AD
:104B600008F1FF330193A94600284FD0E36AA7EB71
:104B7000050A1B1A9A4528BF9A46BAF1400F23D955
:104B80000BF14003DBF800C0DBF80410DBF8082071
:104B9000DBF80CE0C0F80CE00BF1100B9B45C0F803
:104BA00000C04160826000F11000EBD1A36AE26AAC
:104BB00040339A4205F14005A36211D8E1692046CD
:104BC0000439FDF7FDFC0BE052465946FBF792FB1A
:104BD000A36AE26A53449A425544D344A362EDD98E
:104BE000FEF766FB3368B34204D0B2699B689268F3
:104BF0009A422BD389F31188BD4223D2202383F319
:104C00001188FEF795FBA06A0028AFD1019B033302
:104C10001FD8039B596A029B591A884505D3204621
:104C2000FDF746FF08B9A06AA0E7FEF741FB33682D
:104C3000B34204D0B2699B6892689A4206D30023BB
:104C400083F31188284605B0BDE8F08F0648FCF7CD
:104C5000CFFB41462046FDF72BFFE3E70348FCF777
:104C6000C7FB00BFE018002010A0000824A4000823
:104C70004430FFF75DBF00BF0000000000000000EF
:104C800044304FF0FF33FFF753BF00BF0000000078
:104C900070B5202382B004460D46164683F3118872
:104CA000FEF746FBA36AFBB11D70D4E90A3201335B
:104CB0009342A36212D2FEF7FBFA174B1A689A428C
:104CC00004D0996993688A689A4204D3002080F3DB
:104CD000118802B070BD1148FCF78AFBE1692046DB
:104CE0000439FDF76DFCE6E731462046FDF7E0FEAE
:104CF00008B9A36AD8E70190FEF7DAFA064B0198E3
:104D00001A689A4204D0996993688A689A42E2D3F1
:104D1000002383F31188DCE7E018002010A00008CE
:104D20004430FFF7B5BF00BF0000000000000000E6
:104D300044304FF0FF32FFF7ABBF00BF0000000070
:104D40002DE9F04F85B0002A00F090809946044686
:104D50000F469046202383F31188FEF7E9FA4FF0BF
:104D60008043A16A5A6A434E4A440025CDE9022392
:104D700009F1FF330193AA4600294FD0E36AA8EB5B
:104D8000050B5B1A9B4528BF9B46BBF1400F23D9FF
:104D900001F140023B46D1F800E0D1F804C0886838
:104DA000D1F80CB0C3F80CB010319142C3F800E058
:104DB000C3F804C0986003F11003ECD1A36AE26A5F
:104DC00040339A4207F1400705F14005A3620FD82E
:104DD0002046FDF725FD0BE05A463846FBF78AFAD8
:104DE000A36AE26A5B449A425D445F44A362EFD9DE
:104DF000FEF75EFA3368B34204D0B2699B689268EA
:104E00009A422BD38AF31188454523D2202383F37A
:104E10001188FEF78DFAA16A0029AFD1019B0333F7
:104E20001FD8039B596A029B591A894505D320460E
:104E3000FDF76EFE08B9A16AA0E7FEF739FA3368FC
:104E4000B34204D0B2699B6892689A4206D30023A9
:104E500083F31188284605B0BDE8F08F0648FCF7BB
:104E6000C7FA49462046FDF753FEE3E70348FCF73F
:104E7000BFFA00BFE018002010A0000850A30008EF
:104E80000C30FFF75DBF00BF000000000000000015
:104E90000C304FF0FF33FFF753BF00BF000000009E
:104EA00030B5202383B004460D4683F31188FEF706
:104EB0003FFAA36A53B313F8015BE26AA362934219
:104EC00020D2FEF7F5F9154B1A689A4204D0996979
:104ED00093688A689A4212D32846002383F3118884
:104EE00003B030BD0190FEF7E3F90C4B01981A684E
:104EF0009A42F2D0996993688A689A42EDD208483A
:104F0000FCF776FA2046FDF78BFCDAE729462046C7
:104F1000FDF7FEFD0028E5D1A36ACCE7E0180020EC
:104F200010A00008000000000000000000000000C9
:104F30000C30FFF7B5BF00BF00000000000000000C
:104F40000C304FF0FF31FFF7ABBF00BF0000000097
:104F5000864ADFF84CC211692DE9F04340F2FF198F
:104F6000002341EA090111611361116BDFF834E29A
:104F70007F4F804E804D814C41EA09011163116DD4
:104F800041EA0909C2F850906FF4A849CEF80430FC
:104F9000CEF80890DFF81092CEF80C904FF6FF7123
:104FA000DFF80892CEF81410CEF82090DFF80092C7
:104FB000CEF8249009F12A5909F5B019CEF80090DD
:104FC0004FF4107EC7F804E04FF0FF30DFF8E4E163
:104FD000B860C7F80CE04FF0806E7961C7F820E048
:104FE000DFF8D4E14FF04008C7F82480C7F800E0AC
:104FF000AEF1AF4EAEF5A60EAEF62C3E7360B060CD
:10500000C6F80CE04FF0C04E7161C6F820E0DFF842
:10501000ACE1C6F824E0DFF8A8E1C6F800E0DFF86C
:10502000A4E16B60A860C5F80CE04FF0200EC5F855
:1050300014E007F580574FF0553E2B6206F5805679
:105040006B62C5F800E005F58055DFF838E1CCF873
:105050000430CCF80800CCF80C30CCF81410CCF8A4
:105060002030CCF82430CCF800807B604FF0805C9E
:10507000B860FB6079613B627B623B604FF4404704
:105080007360B060F36071613362736233606B6050
:10509000A860EB6069612B626B622B606360A0604B
:1050A000E3606161236263622360C2F840C0CEF8AE
:1050B0000070136843F00103136013689D07FCD56B
:1050C00093682A4923F0030393608B6813F00C0361
:1050D000FBD10A68254802F0F9020A608B600B6870
:1050E00043F480330B6003689C03FCD5436F1F4A75
:1050F00043F001034367536F9907FCD5204B53607E
:105100001368204943F0807313604B685A04FCD540
:10511000164A13689B01FCD51B4B1C4991601A6809
:105120001B4B9A4217D01B4B40F205721A600F4A74
:10513000936843F002039360936803F00C03082B19
:10514000FAD1536C43F480435364536E43F4804369
:105150005366BDE8F083104A104B12689A42E2D1C0
:105160000C4B40F205121A60E1E700BF0038024024
:105170000004024000080240000C024000200240EF
:105180000854400700700040002004E00094883874
:1051900011640020003C024000ED00E041C20F41DC
:1051A000001002400000024054000140000056552B
:1051B00000AA0A0015456155802018000006060067
:1051C00001802002AAA0AA00000000000000000048
:1051D00010B5094C2046FCF7E3F8FCF739FA07480C
:1051E000FCF7BEFAFCF71CFA2046FCF7C1F8BDE854
:1051F0001040FCF72DB800BF74A100083812002041
:1052000010B5094C2046FCF7CBF8FCF721FA07480B
:10521000FCF7A6FAFCF704FA2046FCF7A9F8BDE86B
:105220001040FCF715B800BF58A100081C12002060
:105230002DE9F84F4FF080483448FCF7B1F8FCF7FF
:1052400007FAD8F810309B0708D4FCF7E9F92F4883
:10525000FCF78EF8BDE8F84FFBF7FABF0026C8F858
:105260001060202383F31188294DAA46FCF720FA09
:10527000FCF7E6F8FCF7E4F85AF81C4FA368D8F8F6
:105280002410AA6AA1EB020999451FD3202721689F
:10529000D4F80CB01A445145AA62C1F804A0E961DF
:1052A000E66008BFC8F80C60A9EB0309FCF7E8F951
:1052B00086F311882069D84787F31188FCF7F8F93D
:1052C000EC69A3689945DAD3AA6AE0E7EB6953452C
:1052D00013D09A68A962A2EB09029A60A468022C12
:1052E0002CBF0C198C1C2046FDF7BAFAAA6AD8F814
:1052F0002430A11A9B1A8B4205D8FCF7C1F9002370
:1053000083F31188A1E70348FCF772F84CA1000869
:10531000E0180020F09F00080000000000000000DE
:1053200010B5094C2046FCF73BF8FCF791F907480B
:10533000FCF786FCFCF774F92046FCF719F8BDE889
:105340001040FBF785BF00BF40A400085C17002099
:1053500010B5094C2046FCF723F8FCF779F907480B
:10536000FCF76EFCFCF75CF92046FCF701F8BDE8A1
:105370001040FBF76DBF00BF34A40008E416002006
:1053800010B50D48FCF70CF8FCF762F90B4B0C4814
:105390005968826F890D01F03D018C05DC600AB10E
:1053A000C06F9047FCF73CF90348FBF7E1FFBDE80D
:1053B0001040FBF74DBF00BFCCA2000800640240C4
:1053C0007427002000000000000000000000000022
:1053D00010B50D48FBF7E4FFFCF73AF90B4B0C480E
:1053E0005968026F090C01F03D010C04DC600AB140
:1053F000406F9047FCF714F90348FBF7B9FFBDE88D
:105400001040FBF725BF00BFC0A2000800640240A7
:1054100074270020000000000000000000000000D1
:1054200010B50D48FBF7BCFFFCF712F90B4B0C480D
:105430005968826E890901F03D018C01DC600AB176
:10544000C06E9047FCF7ECF80348FBF791FFBDE80E
:105450001040FBF7FDBE00BFB4A20008006402408C
:105460007427002000000000000000000000000081
:1054700008B50C48FBF794FFFCF7EAF80A4B0B4819
:105480005968026E01F03D01D9600AB1406E904743
:10549000FCF7C6F80348FBF76BFFBDE80840FBF7D5
:1054A000D7BE00BF9CA20008006402407427002001
:1054B00010B50D48FBF774FFFCF7CAF80B4B0C480E
:1054C0001968826D890D01F03D018C059C600AB15F
:1054D000C06D9047FCF7A4F80348FBF749FFBDE80F
:1054E0001040FBF7B5BE00BF90A200080064024068
:1054F00074270020000000000000000000000000F1
:1055000010B50D48FBF74CFFFCF7A2F80B4B0C480D
:105510001968026D090C01F03D010C049C600AB190
:10552000406D9047FCF77CF80348FBF721FFBDE88E
:105530001040FBF78DBE00BF84A20008006402404B
:1055400074270020000000000000000000000000A0
:1055500010B50D48FBF724FFFCF77AF80B4B0C480D
:105560001968826C890901F03D018C019C600AB1C7
:10557000C06C9047FCF754F80348FBF7F9FEBDE810
:105580001040FBF765BE00BF78A20008006402402F
:105590007427002000000000000000000000000050
:1055A00008B50C48FBF7FCFEFCF752F80A4B0B4819
:1055B0001968026C01F03D0199600AB1406C904796
:1055C000FCF72EF80348FBF7D3FEBDE80840FBF7D5
:1055D0003FBE00BF6CA20008006402407427002098
:1055E00010B50D48FBF7DCFEFCF732F80B4B0C480E
:1055F0005968826B890D01F03D018C05DC600AB1B0
:10560000C06B9047FCF70CF80348FBF7B1FEBDE810
:105610001040FBF71DBE00BF58A20008006002400A
:1056200074270020000000000000000000000000BF
:1056300010B50D48FBF7B4FEFCF70AF80B4B0C480D
:105640005968026B090C01F03D010C04DC600AB1E1
:10565000406B9047FBF7E4FF0348FBF789FEBDE88A
:105660001040FBF7F5BD00BF40A2000800600240FB
:10567000742700200000000000000000000000006F
:1056800010B50D48FBF78CFEFBF7E2FF0B4B0C4807
:105690005968826A890901F03D018C01DC600AB118
:1056A000C06A9047FBF7BCFF0348FBF761FEBDE80B
:1056B0001040FBF7CDBD00BF34A2000800600240DF
:1056C000742700200000000000000000000000001F
:1056D00008B50C48FBF764FEFBF7BAFF0A4B0B4812
:1056E0005968026A01F03D01D9600AB1406A9047E9
:1056F000FBF796FF0348FBF73BFEBDE80840FBF7CE
:10570000A7BD00BF28A20008006002407427002047
:1057100010B50D48FBF744FEFBF79AFF0B4B0C4806
:1057200019688269890D01F03D018C059C600AB100
:10573000C0699047FBF774FF0348FBF719FEBDE80B
:105740001040FBF785BD00BF08A2000800600240C2
:10575000742700200000000000000000000000008E
:1057600010B50D48FBF71CFEFBF772FF0B4B0C4806
:1057700019680269090C01F03D010C049C600AB132
:1057800040699047FBF74CFF0348FBF7F1FDBDE88C
:105790001040FBF75DBD00BFE8A1000800600240BB
:1057A000742700200000000000000000000000003E
:1057B00010B50D48FBF7F4FDFBF74AFF0B4B0C4807
:1057C00019688268890901F03D018C019C600AB169
:1057D000C0689047FBF724FF0348FBF7C9FDBDE80D
:1057E0001040FBF735BD00BFBCA1000800600240BF
:1057F00074270020000000000000000000000000EE
:1058000008B50C48FBF7CCFDFBF722FF0A4B0B4A0F
:10581000196801F03D01996013680BB15068984711
:10582000FBF7FEFE0348FBF7A3FDBDE80840FBF7CE
:105830000FBD00BFA4A10008006002407427002033
:1058400010B52048FBF7ACFDFBF702FF1E4B1A68B2
:1058500000211960930627D51C4CE36A1B685B681E
:1058600013B3236903B32046FCF752FC23699B68FA
:105870001BB3052222700121204698472378052B6F
:1058800004BF0223237000232361202383F31188A4
:10589000FBF70EFF4FF0FF310D48FBF7A9FEFBF7BA
:1058A000EFFE002383F31188FBF7BAFE0548FBF7F0
:1058B0005FFDBDE81040FBF7CBBC022223612270E4
:1058C000E3E700BF98A1000800200140E811002094
:1058D000FC1100200000000000000000000000009B
:1058E000F0B4144E144D154C154B164906F1700CBE
:1058F00000279C4211D904391A4651F8040F42F886
:10590000040B9442F9D8DA43144424F00304043419
:1059100023449D4203D943F8047B9D42FBD866454E
:1059200005D0D6E90413D6E906451036E1E7F0BC08
:10593000704700BF00A80008582B0020582B0020FB
:10594000582B002038B600080000000000000000BE
:10595000FEE700BF000000000000000000000000A3
:10596000704700BF000000000000000000000000C1
:10597000704700BF0A22002100F0C8B8F0B420B37D
:1059800007460D4617F8016B01E0A64216D015F840
:10599000014B002CF9D1EEB13E460C4616F8015BE6
:1059A00000E073B114F8013B9D42FAD15DB10023D0
:1059B0003B70166006463046F0BC704763B138460F
:1059C000DEE73746E8E72E46F3E710680028D7D130
:1059D0000646F0E71660EEE7176006460370EAE752
:1059E0000123FFF7CBBF00BF2DE9F84F0E468046DD
:1059F000174699460D4600E025462C460A9814F8AD
:105A000001BB00F099F85844417811F00801F3D136
:105A1000BBF12D0F57D0BBF12B0F04BF95F801B090
:105A2000AC1CB9F1000F04D0B9F1100F50D0CC4626
:105A300005E0BBF1300F55D04FF00A09CC460029E4
:105A40000CBF6FF0004E4FF0004E0025BEFBFCF384
:105A500028460CFB13EA05E029D00CFB00200125A9
:105A600014F801BBABF13002092A05D9ABF14102B0
:105A7000192A0BD8ABF1370291450FDDB5F1FF3F85
:105A8000EED08342E8D24FF0FF35E9E7ABF1610297
:105A9000192A03D8ABF157029145EFDC6B1C0BD0F0
:105AA00001B140420FB14DBB3E60BDE8F88F924559
:105AB000D3DA4FF0FF35D3E72223C8F80030FFB127
:105AC000661E7046F0E7AC1C95F801B00121A8E70E
:105AD000BBF1300FABD1237803F0DF03582B06D096
