:020000040800F2
:1000000000040020D9022000DB022000DA022000D8
:10001000DA022000DA022000DA022000DA022000F0
:10002000DA022000DA022000DA022000E13B2000A0
:10003000DA022000DA022000DA022000DA022000D0
:10004000DA022000DA022000DA022000DA022000C0
:10005000DA022000DA022000DA022000DA022000B0
:10006000DA022000DA022000DA022000DA022000A0
:10007000DA022000DA022000DA022000DA02200090
:10008000DA022000DA022000DA022000DA02200080
:10009000DA022000DA022000DA022000DA02200070
:1000A000DA022000DA022000DA022000DA02200060
:1000B00081B62000DA022000DA022000DA022000F5
:1000C000DA022000DA022000DA022000DA02200040
:1000D000DA022000DA022000DA022000DA02200030
:1000E000DA022000DA022000DA022000DA02200020
:1000F000DA022000DA022000DA022000DA02200010
:10010000DA022000DA022000DA022000DA022000FF
:10011000DA022000DA022000DA022000DA022000EF
:10012000DA022000DA022000DA022000DA022000DF
:10013000DA022000DA022000DA022000DA022000CF
:10014000DA022000DA022000DA022000B1B7200033
:10015000DA022000DA022000DA022000DA022000AF
:10016000DA022000DA022000DA022000DA0220009F
:10017000DA02200081B72000DA022000DA02200033
:10018000DA022000DA022000DA022000DA0220007F
:10019000DA022000DA022000DA022000DA0220006F
:1001A000DA022000DA022000DA022000DA0220005F
:1001B000DA022000DA022000DA022000DA0220004F
:1001C000DA022000DA022000DA022000DA0220003F
:1001D000DA022000DA022000DA022000DA0220002F
:1001E000DA022000DA022000DA022000DA0220001F
:1001F000DA022000DA022000DA022000DA0220000F
:1002000072B6274880F30888264880F30988264874
:100210004EF60851CEF200010860022080F31488E7
:10022000BFF36F8F0BF024FB0BF092F84FF05530BB
:100230001E491B4A91423CBF41F8040BFAE71C4996
:10024000184A91423CBF41F8040BFAE719491A4A8F
:100250001A4B9A423EBF51F8040B42F8040BF8E7E0
:1002600000201749174A91423CBF41F8040BFAE7B6
:100270000BF0B6FA0BF0F4FA134C144DAC4203DA5F
:1002800054F8041B8847F9E708F02AFE104C114D7A
:10029000AC4203DA54F8041B8847F9E70BF0D8BAEC
:1002A00000040020000800200000200000000020C2
:1002B0000004002054E900080000012098040120F7
:1002C0000008002010210020000220000002200071
:1002D000000220000002200092E700F000F8FEE794
:1002E0002DE9F04FC1F80CD0D0F80CD0BDE8F08F5C
:1002F00003F0DEFC002383F311882846A04700208A
:1003000008F086F903F024FD03F07AFC03F0D0FC3A
:1003100000DFFEE7844641EA000313F003036DD1DA
:10032000403A41D351F8043B40F8043B51F8043BB8
:1003300040F8043B51F8043B40F8043B51F8043BBF
:1003400040F8043B51F8043B40F8043B51F8043BAF
:1003500040F8043B51F8043B40F8043B51F8043B9F
:1003600040F8043B51F8043B40F8043B51F8043B8F
:1003700040F8043B51F8043B40F8043B51F8043B7F
:1003800040F8043B51F8043B40F8043B51F8043B6F
:1003900040F8043B51F8043B40F8043B51F8043B5F
:1003A00040F8043B403ABDD2303211D351F8043BFF
:1003B00040F8043B51F8043B40F8043B51F8043B3F
:1003C00040F8043B51F8043B40F8043B103AEDD2AE
:1003D0000C3205D351F8043B40F8043B043AF9D2FF
:1003E000043208D0D2071CBF11F8013B00F8013BD2
:1003F00001D30B8803806046704700BF082A13D3DF
:100400008B078DD010F003038AD0C3F10403D21AF6
:10041000DB071CBF11F8013B00F8013B80D331F82A
:10042000023B20F8023B7BE7043AD9D3013A11F8AA
:10043000013B00F8013BF9D20B7803704B78437015
:100440008B78837060467047000000000000000059
:10045000000000000000000000000000000000009C
:10046000A2EB0300704700BF02780B78012A28BF77
:100470009A42F5D16DE9044540EA0104CDE90267ED
:100480006FF0000C4FEA447212B380EA010414F0DA
:10049000070F6AD100F0070420F0070004F00305FD
:1004A00021F007014FEAC505F0E8042314F0040F1A
:1004B000F1E804670CFA05F462EA040266EA04064D
:1004C0000AD063EA0403624667EA0407664603E06B
:1004D000F0E80423F1E8046782FA4CF582EA0604A6
:1004E000A4FA8CF46CBB83FA4CF583EA0705A5FAF1
:1004F0008CF595B950E9022351E9026782FA4CF56F
:1005000082EA0604A4FA8CF483FA4CF583EA070520
:10051000A5FA8CF52543DBD09CB92DBAB5FA85F444
:1005200024F0070427FA04F1DDE9026723FA04F353
:1005300003F0FF0001F0FF01FDE80445A0EB01001E
:10054000704724BAB4FA84F424F0070426FA04F1BC
:10055000DDE9026722FA04F202F0FF0001F0FF0178
:10056000FDE80445A0EB0100704714F0030F3CD1F7
:1005700010F0030428D150F8082B51F8083B82FAF8
:100580004CF582EA0305A5FA8CF55DB950F8042C08
:1005900051F8043C82FA4CF582EA0305A5FA8CF581
:1005A000002DE8D02DBAB5FA85F424F0070423FA1B
:1005B00004F122FA04F202F0FF0001F0FF01FDE86D
:1005C0000445A0EB010070474FEAC40420F003008B
:1005D00050F8082B21F0030151F8083B0CFA04F401
:1005E00062EA040263EA0403C9E710F003041AD0C4
:1005F000A1EB040120F00300E40750F8042B06D01F
:100600000FD28B785FFAA2F4E41A06D12BB1CB7823
:100610005FFAB2F4E41A00D11BB920465DF8104B22
:10062000704701F1040150F8042BCC0721F00301BD
:1006300051F8043B48D824D222F07F4482FA4CF58A
:1006400094EA1325A5FA8CF50AD165B951F8043B53
:1006500084EA0204B4EB036F0ED150F8042BEBE7ED
:100660004FEA132355E035F07F454DD10878FDE87A
:100670000445C0F1000070474FEA126203F0FF0327
:1006800047E002EA1C4482FA4CF594EA1345A5FAC5
:100690008CF50AD165B951F8043B84EA0204B4EB45
:1006A000034F0CD150F8042BEBE74FEA134330E033
:1006B00015EA1C4528D10B884FEA124229E04FEA7F
:1006C000124203EA1C4324E002F0FF0482FA4CF5D4
:1006D00094EA1365A5FA8CF50AD165B951F8043B83
:1006E00084EA0204B4EB032F09D150F8042BEBE7A2
:1006F0004FEA13630DE015F0FF0F05D10B684FEAC9
:10070000122223F07F4304E04FF00000FDE804458F
:10071000704712BA1BBA82FA4CF482EA0304A4FAB4
:100720008CF5B5FA85F402FA04F203FA04F34FEA01
:100730001260FDE80445A0EB136070470000000064
:10074000014B5B6883607047001000E00000000010
:100750004FF08043091A5B6A1B1A8B420BD30123AB
:10076000064A0749184630B4064D074C2B702370D3
:10077000116030BC70470020704700BFC41E0020CD
:10078000D8C10008681F0020C81E0020000000001B
:100790000020704700000000000000000000000082
:1007A000704700BF000000000000000000000000D3
:1007B000014B00221A607047981F002000000000C3
:1007C00050B90123054A30B4054D1846054C2B702D
:1007D0002370116030BC704700207047C41E002099
:1007E000681F0020C81E002000000000000000005C
:1007F000054A01214FF08043116019465A6A4B6A3D
:100800009A42FCD0704700BF6C1F0020000000001F
:1008100018B370B584B0114E6D462C4600E01446F6
:10082000A6FB00232246DB0803EB8301A0EB41017A
:1008300018463031C9B202F8011B002BEFD1AA4291
:1008400009D9074E01E014F8011D30680368DB6820
:100850009847A542F7D104B070BD7047CDCCCCCC41
:10086000C01E00200000000000000000000000008A
:1008700028B9044B302118680368DB681847FFF774
:10088000C7BF00BFC01E0020000000000000000025
:1008900070B5017889B10446094D28680368DB68A2
:1008A000984714F8011F0029F7D12868022205494A
:1008B0000368BDE870405B681847014DF5E700BF6D
:1008C000C01E0020DCC40008000000000000000082
:1008D000017859B138B50446054D28680368DB68CE
:1008E000984714F8011F0029F7D138BD704700BFA1
:1008F000C01E0020000000000000000000000000FA
:10090000F0B40E4E421E0E4F35683B4603E013F81E
:10091000014B844207D19D4212F8010FF7D810B95C
:100920003760F0BC70470123064D074C074A184654
:100930002B7023701160F0BC704700BF801F002037
:10094000701F0020681F0020C81E0020C41E002049
:1009500070B54C24074D28682D210368DB68984743
:10096000013CF8D12868022203490368BDE87040C1
:100970005B681847C01E0020DCC4000800000000AF
:10098000022906D0032906D00129074818BF0020F4
:10099000704706487047032A03D8054800EBC20099
:1009A00070470020704700BF80E8000834E8000866
:1009B00008E900080000000000000000000000003E
:1009C00072B6202383F3118862B60F4B5B6813F471
:1009D000006302D183F311887047EFF309834FF06E
:1009E0008071A3F1200243F8041C82F30988074AAE
:1009F000116892698968926891428CBF044A054ADD
:100A000043F8082C704700BF00ED00E0C80D00203F
:100A1000050320001003200000000000000000007B
:100A2000104B82685B6810499B1A42682DE93008B8
:100A3000D1F88448C1681B1B01318360C160D0E9D3
:100A4000044514EB030B45F1000C9342026888BF88
:100A500043609342C0E904BC38BF0360BDE830087E
:100A6000704700BF001000E0C80D0020000000002B
:100A70000B4A4FF0804130B4D36B02F504604D6AED
:100A8000084C5D601968646864F31F2143F8101B0B
:100A9000834228BF02F1400330BCD363704700BFDC
:100AA000C80D0020001000E0000000000000000061
:100AB0000B4B1A8FD20700D57047D96B30B40A7828
:100AC0000125446A65F302020A7090F8200060F381
:100AD000C7020A709B69C1E9023430BCFFF7C8BF86
:100AE000C80D002000000000000000000000000011
:100AF0000A4A138F10B513F0020400D010BD72B66D
:100B0000202383F3118862B60321D36B9860197098
:100B1000FFF7AEFF84F3118810BD00BFC80D0020A1
:100B20000A4A138F10B513F0020400D010BD72B63C
:100B3000202383F3118862B60221D36B9860197069
:100B4000FFF796FF84F3118810BD00BFC80D002089
:100B5000034A516853685B1A9842FBD8704700BF3C
:100B6000001000E000000000000000000000000095
:100B700008B5054672B6064C238F5B0701D5E562C2
:100B8000FEE7E36B042298601A70FFF771FFF6E747
:100B9000C80D002000000000000000000000000060
:100BA0000B4B00200B4AD91D21F00701CB1AC3F5CE
:100BB000CC6310B4DB0802F10C049060506151600A
:100BC00010600860C2E903444B6010BC704700BF6E
:100BD00058180020DC170020000000000000000072
:100BE0000B4B00200B4AD91D21F00701CB1AC3F192
:100BF000780310B4DB0802F10C049060506151607E
:100C000010600860C2E903444B6010BC704700BF2D
:100C1000E81E0020CC1E00200000000000000000A4
:100C2000034B002104221960D960C3E901227047F7
:100C3000800401200000000000000000000000000F
:100C40000A4B00210A4A03F1200030B403F11804D2
:100C500002F110051A605D6019611975C3E9064457
:100C6000C3E90222C3E9080030BC704758040120E0
:100C7000F817002000000000000000000000000045
:100C8000FFF7DEBF000000000000000000000000D1
:100C9000FFF7D6BF000000000000000000000000C9
:100CA000044B00224FF4A47004211A60DA60C3E9F7
:100CB000010170470818002000000000000000003B
:100CC000C0E90000816070470000000000000000E3
:100CD00010B4064B0022042418461146DA609A61CB
:100CE000C3E9044410BCFFF7EBBF00BF14040120AC
:100CF000FFF7EEBF00000000000000000000000051
:100D000001210148FFF7DCBF44180020000000006B
:100D100000210148FFF7D4BF441800200000000064
:100D200000210148FFF7CCBF381800200000000068
:100D3000FFF7F6BF00000000000000000000000008
:100D4000FFF7EEBF00000000000000000000000000
:100D5000FFF7E6BF000000000000000000000000F8
:100D600001210148FFF7ACBF381800200000000047
:100D700008B5054B1A6B1AB95B6B002B00DD08BD7B
:100D80000248FFF7F5FE00BFC80D0020F8C10008BB
:100D900008B5054B1A6B002A03DB5B6B002B00DDEB
:100DA00008BD0248FFF7E4FEC80D0020F0C10008AE
:100DB00038B504460D46FFF7EBFF44B13DB1A368DB
:100DC000013B1D4203D123682B60256038BD0148DB
:100DD000FFF7CEFE30BE000800000000000000005B
:100DE000F8B50E4604461546FFF7D2FFA6B1731EAE
:100DF000334211D10B4A631E714217683344546861
:100E000078190B4030440138084003449C4206D313
:100E10009F4204D81360F8BD0348FFF7A9FE0020E5
:100E2000F8BD00BF70170020BCBD00080000000026
:100E30000022FFF7D5BF00BF000000000000000047
:100E40002DE9F0410446FFF7A3FF6168480707D189
:100E5000A3685A0704D1994234BF0025012515B172
:100E60002048FFF785FE5A1AC72AF9D9E068FF28FB
:100E7000F6D82669002EF3D043F82C1C4FF0020858
:100E800061694FF0010C184AA3F16C0743F8681C24
:100E90002168A3F11C0443F86C6CA3F1200643F80D
:100EA000301CA3F1480103F8288C03F8275C03F8F1
:100EB00026CC43F8382C43F8400C43F8145C43E943
:100EC00004505569094843F83C7C43F84C0C0846EB
:100ED00043F8345C2961516143F8184C43E90864D4
:100EE000BDE8F081DCBD0008C80D0020F102200043
:100EF00010B50446FFF74CFFBCB194F82020A2B116
:100F0000A2F10F02B2FA82F2520972B9A168084B3B
:100F100084F820201B689A688A42FBD25A682046CF
:100F2000C4E9003214605C6010BD0248FFF720FE87
:100F3000C80D002068BD000800000000000000008F
:100F400008B50368984209D01A680260506093F8A7
:100F50002020042A03D00548FFF70AFE08BD00221E
:100F600018465A62BDE80840FFF7C2BF00BD00083E
:100F700038B5104C0546FFF70BFF237DA3B9FFF7EB
:100F800007FF23699BB1E16860680A1D0968824216
:100F9000E260296001D32268E260013B06482361D8
:100FA000FFF7CEFF002038BD6FF0010038BD4FF0D5
:100FB000FF3038BD580401207004012000000000FB
:100FC00038B5036898420AD01A6804460260506037
:100FD00093F82020042A03D00B48FFF7C9FD38BD41
:100FE0006FF001055D621846FFF782FF23689C429F
:100FF000F5D01A682260546093F82020042AF1D0BA
:101000000148FFF7B5FD00BF00BD0008000000006B
:1010100038B504460D46FFF7BBFEBCB1616B94F8D2
:10102000203029430A2B61630CD00B2B00D038BD34
:10103000636A8B43FBD1002320466362BDE83840DE
:10104000FFF756BF636A1942F5D1F0E70148FFF791
:101050008FFD00BF10BF000800000000000000006E
:1010600070B506460D46FFF793FE8EB13468A64272
:101070000DD0E3682B43E36015B12269134203D01E
:10108000D4E90101FFF7C4FF2468A642F1D170BD85
:101090000148FFF76DFD00BF48BE000800000000DA
:1010A0002DE9F0411D4B0546D3F81880FFF760FE8F
:1010B0002DB1D8F8386016B1B368434502D018484E
:1010C000FFF756FDAE42FAD1EC68C8F83840FFF79A
:1010D0004FFE2F68BD421CD0D8F83C605CB1FFF7D2
:1010E00047FE23689C4203D09B689E4238BF1E4641
:1010F000E468002CF3D13B683846BA6BC8F8086046
:101100002B605D60C5E90272BD63BDE8F041FFF789
:10111000EFBE0023B360BDE8F08100BFC80D002022
:10112000CCBE00080000000000000000000000002D
:1011300010B50446FFF72CFE2CB1A3682268002BE3
:1011400004DBA24204D00A48FFF712FDA242FAD003
:101150000133002BA36000DD10BD13680021104691
:1011600023605C605162BDE81040FFF7C1BE00BF64
:10117000ACBE0008000000000000000000000000FD
:1011800010B50446FFF704FEE20710D5244BD3E95F
:101190000010994239D00022096801329942FBD1EE
:1011A000884230D04068013A9842FBD15ABBA3072D
:1011B00012D51B4BDA6903F11C00196A824228D050
:1011C0000023126801338242FBD191421BD049684F
:1011D000013B8142FBD1B3B914F0040012D0104B93
:1011E0000020D3E904219A4217D0126901309A42B3
:1011F000FBD1914207D0496901389942FBD10030B7
:1012000018BF012010BD012010BD9842CFD0002290
:10121000C8E78142E0D00023D9E79142EBD110BD6D
:10122000C80D0020000000000000000000000000C9
:1012300008B572B6202383F3118862B6064A136B91
:10124000002B01DD516B11B10448FFF791FC013B0C
:10125000136381F3118808BDC80D0020A8C10008E0
:1012600008B572B6202383F3118862B6064A136B61
:10127000002B01DB516B11B10448FFF779FC0133FE
:10128000136381F3118808BDC80D0020A0C10008B8
:1012900008B5064B1A6B002A05DD5A6B002A02DDE1
:1012A00000225A6308BD0248FFF762FCC80D002007
:1012B000D0C1000800000000000000000000000095
:1012C00008B5064B1A6B002A01DD5A6B12B10448AF
:1012D000FFF74EFC01225A6308BD00BFC80D002075
:1012E000B8C100080000000000000000000000007D
:1012F00038B5044672B6202383F3118862B6FFF72F
:10130000DFFF94F82030072B10D8DFE803F0150F2B
:101310000F1B0A040F0A656AFFF73AFDAB68013339
:10132000AB60D4E900231A60226853604FF0FF33AA
:1013300020466362FFF7DCFDFFF7AAFF002383F37B
:10134000118838BD636A002220461A604FF0FF33CF
:101350006362FFF7CDFDEFE7000000000000000032
:1013600008B5044B1A6B0AB95B6B13B10248FFF75F
:10137000FFFB08BDC80D002098C100080000000058
:1013800008B5044B1A6B0AB95B6B13B10248FFF73F
:10139000EFFB08BDC80D0020C0C100080000000020
:1013A00038B501220D4B20241A6084F3118862B6EF
:1013B000FFF7E6FF72B60A4B1A6B0AB95D6B15B1FF
:1013C0000848FFF7D5FB84F3118862B6FFF7D8FF12
:1013D000FFF7C6FF85F3118862B638BD6C1F002089
:1013E000C80D0020DCD40008000000000000000050
:1013F000FEE700BF00000000000000000000000049
:1014000000EB8103D0F89020D868F0B444692368D9
:10141000E360EBB902EB41134FF40024C3F8104929
:10142000036803F00303012B27D008B202EB40103E
:101430000123D0F8004903FA01F144F00444C0F854
:101440000049D2F834381943F0BCC2F83418704758
:1014500009B9402B22D843F00056078A02EB411508
:101460007C1E2344B3FBF7F346EAC343C5F81039A7
:10147000036803F00303012BD7D108B2D2F8083870
:1014800002EB401413F4807FD4F8003914BF43F00A
:10149000805343F00053C4F80039C7E74023014E9E
:1014A0002360DAE740000020000000000000000098
:1014B00000EB810370B4DC68A3691E68DE6009B9C3
:1014C000402E24D8638A24685A1ED0F8900004F075
:1014D0000304324400EB4115012CB2FBF3F202FB92
:1014E00003F303F1030323F0030343EAC24343F08E
:1014F000C043C5F8103B0ED009B200EB4111D1F842
:10150000003B43F0044370BCC1F8003B70474022ED
:1015100016461A60D6E709B2D0F8083800EB411237
:1015200013F4807FD2F8003B14BF43F0805343F0A4
:101530000053C2F8003BE0E700000000000000009C
:101540002DE9F041D0F8907006460D4607EB4113A7
:10155000D3F8084B2207C3F8084B08D5D7F814383E
:101560001B0704D500EB8103DB685B689847E20743
:1015700033D5D7F81438DB072FD506EB8503D968A8
:101580005DB98A69488A5468B4FBF0F300FB1343E1
:101590001BB91068D36898420DD301227389CC68B7
:1015A000AA4023EA02037381BCB129463046234690
:1015B000BDE8F04118471B1AC2E9003572B6202376
:1015C00083F3118862B6FFF77BFE29463046FFF7AA
:1015D0006FFFFFF75DFE85F31188BDE8F08100BF66
:1015E00000EB8103DB682DE9F0415F698E46D0F89E
:1015F0009080D7E90024A2422ED94D1C08EB4E1C46
:10160000198A08EB0535141BDCF81839A1429BB286
:1016100007D2B1EB830F2CD8BE6841BB1648FFF749
:10162000A7FAB4EB830F24D8BE683368042C2B6070
:101630000AD9601F334620F003000430304453F8C9
:10164000042F98422A60FAD17B6826443A681C44E9
:10165000A242C7E90146D6D80120D8F8343800FAAA
:101660000EFE23EA0E03C8F83438BDE8F0810C46BC
:10167000DBE70020BDE8F081A0C00008000000000A
:101680002DE9F041D0F8906007460D4606EB411376
:10169000D3F80849C3F80849E30703D5D6F810384A
:1016A000DA0709D4230605D50123D6F83428AB4040
:1016B000134219D1BDE8F08100EB8103D3F80CC0CF
:1016C000DCF81430D3F800E0DA68964512D3012232
:1016D0000389DCF808808A4023EA02030381B8F119
:1016E000000FDFD0C047DDE729463846BDE8F041AE
:1016F000FFF776BFA2EB0E024FF00008C3E9002807
:1017000072B6202383F3118862B6FFF7D9FD29460C
:101710003846FFF775FEFFF7BBFD88F31188C1E778
:101720002DE9F047D0F8906004467569B3691D4013
:1017300015F48059756140F01F81002D5DDB2A058D
:1017400000F1DE80AB040CD5D6F8083813F0060F94
:10175000F36823F470530CBF43F4105343F4A053C5
:10176000F3602F0704D56368DB680BB12046984708
:10177000E8027FD4AA0200F1D480EB0655D42803F6
:10178000D6F818681AD5F10300F1DD81B20300F133
:10179000E181730300F1E581370300F1E981F00293
:1017A00000F1ED81B10200F1F181720200F1F581E9
:1017B000330200F1C381F70100F1628168031AD599
:1017C000F10700F1B681B20700F1AE81730700F1B5
:1017D000A681370700F19E81F50600F19681B006DB
:1017E00000F18E81710600F18681320600F17E8162
:1017F000F30500F13881BDE8F087D6F8003E99077F
:1018000040F03781D6F80438626823F00103C6F847
:10181000043894F88C3023701368002B8FD0052186
:10182000204698472A058DD56AE0D4F89000026AD0
:1018300002F4F013C2F30A1102F00F02B3F5802F85
:1018400000F02981B3F5402F99D104EB8202D368CF
:101850001F6A002993D0002200F58050134613F030
:10186000030F00D10268072B40F29C81013399429B
:10187000F5D184E7D4F890A000274FF0010808E0E4
:101880000137D4F89430FFB29B689F42B9463FF6C7
:1018900071AF0AEB4712D2F8003903F44023B3F5D5
:1018A000802FEDD1D2F80039002BE9DAD2F80039D7
:1018B00043F09043C2F80039D2F80039002BFBDB2B
:1018C0004FEA8919D4F8902049F020031361136975
:1018D0009906FCD41220FFF73BF9228904EB87011B
:1018E00008FA07F3C96822EA03038A68238112B160
:1018F00039462046904739462046FFF771FEBFE73C
:1019000021780522636884F88C1022701B68002BF4
:101910003FF418AF042120469847AB047FF521AF70
:1019200012E7D4F8908000274FF0010907E0013753
:10193000D4F89430FFB29B689F423FF61EAF08EB8D
:101940004712D2F8003B03F44023B3F5802FEED1C9
:10195000D2F8003B002BEADA04EB8701628909FA2E
:1019600007F3C96822EA0303CA686381002ADED04C
:10197000394620469047DAE700200225234604F145
:101980002C010246C4F88800257043F8080F43F87C
:10199000042F9942FBD1202384F8702033613569EC
:1019A00015F02005FBD11220FFF7D2F8D4F894707F
:1019B0004FF001134FF00061B8684FF0FF32C6F8E6
:1019C00034580130C6F81C3806EB45130135854202
:1019D000C3F80019C3F8001BC3F80829C3F8082B83
:1019E000F2D139681022D4F89030C4F898103968D0
:1019F00071621A611D6915F01005FBD112206B4F41
:101A0000FFF7A6F8D6F80028694B092122F4FE62F8
:101A10004FF0C040C6F80028B2691343654AB3616D
:101A2000C6F81018C6F81418E760C6F8100BC6F808
:101A3000002BC6F81059C6F80029D4E9251303F184
:101A40001002C4F8982049688A4221D8626843F499
:101A500080131268B362002A3FF4CDAE29462046B7
:101A6000BDE8F047104720460821BDE8F047FFF7E2
:101A700007BED6F8003E23F00303C6F8003EC1E6D9
:101A800020460821FFF75CFD68037FF5B4AE97E6BA
:101A90004948FFF76DF804EB8208D8F80C30D3F80A
:101AA00018C0DCE90137DCF80020A2EB030EC1B15D
:101AB0004FF0000C00F5805063469A0701D1D0F832
:101AC00000C09E4504D987F800C04FEA1C2C01379E
:101AD00001339942F1D1D8F80C30D3F818C0DCE9C1
:101AE00001370F440B44CCE9013748E60721204673
:101AF000FFF7C6FD7CE606212046FFF7C1FD74E630
:101B000005212046FFF7BCFD6CE604212046FFF7C7
:101B1000B7FD64E603212046FFF7B2FD5CE6022133
:101B20002046FFF7ADFD54E601212046FFF7A8FD52
:101B30004CE600212046FFF7A3FD44E6072120469E
:101B4000FFF7FEFC37E600212046FFF7F9FCB20361
:101B50007FF51FAE01212046FFF7F2FC73037FF5EE
:101B60001BAE02212046FFF7EBFC37037FF517AED3
:101B700020460321FFF7E4FCF0027FF513AE0421B9
:101B80002046FFF7DDFCB1027FF50FAE05212046B0
:101B9000FFF7D6FC72027FF50BAE06212046FFF759
:101BA000CFFC05E63A70120A01375FE6F0C4000880
:101BB00010000C004080001074C0000800000000FD
:101BC0002DE9F04104460E4617469846FFF7E0F827
:101BD000BCB1082E15D801202589B04080B215EA85
:101BE00000030ED104EB8602054320463146D2683D
:101BF00025815469A760C4E90083BDE8F041FFF77F
:101C0000FFBB0148FEF7B4FF30C100080000000030
:101C100038B590F870100446142932D015291AD01E
:101C2000062902D01D48FEF7A3FFD0F89030456882
:101C3000D3F800292D6842F40012C3F80029D3F824
:101C4000002B42F40012C3F8002B05B1A84706236D
:101C500084F8703038BD0B2380F8703072B62023C2
:101C600083F3118862B6FFF72BFB002320461A4648
:101C70001946FFF7A5FFFFF70BFB002383F311883D
:101C800038BDC3689B695B68002BE3D1C36F03B1A8
:101C90009847002384F8703038BD00BF8CC100081D
:101CA0002DE9F04104460E4617469846FFF770F8B6
:101CB000BCB1082E15D801206589B04080B215EA64
:101CC00000030ED104EB8602054320463146D2685C
:101CD00065819469A760C4E90083BDE8F041FFF71E
:101CE000E7BB0148FEF744FF00C100080000000008
:101CF00038B590F870300446063B052B04D8DFE871
:101D000003F02C03030616432D48FEF731FF90F82D
:101D1000871090F88630826F43EA01239A4206D2F8
:101D2000C3681B8AB2FBF3F503FB15259DB314238F
:101D300084F8703072B6202383F3118862B6FFF7FF
:101D4000BFFA002320461A461946FFF7A9FFFFF7FE
:101D50009FFA002383F3118838BDD0F89030416892
:101D6000D3F800290D6842F40012C3F80029D3F813
:101D7000002B42F40012C3F8002B0DB10621A84736
:101D8000062384F8703038BDC36F03B19847002331
:101D900084F8703038BD72B6202383F3118862B6A0
:101DA000FFF78EFA2B462A4629462046FFF708FF02
:101DB000FFF76EFA85F311880A2384F8703038BD76
:101DC00080C10008000000000000000000000000CA
:101DD000704700BF0000000000000000000000008D
:101DE00090F8803003F06003202B01D00020704772
:101DF00090F881300246202BF8D3212B09D80721F7
:101E00000023012010B4074CD367C2E91D4110BC68
:101E10007047222BEAD100230120C2E91D33D3678A
:101E2000704700BF300401200000000000000000E7
:101E300008B518B111B1012903D112B10248FEF75A
:101E400097FE002008BD00BF0CC000080000000085
:101E5000F8B5D0F88C6437683B78042B01D00120AA
:101E6000F8BD037A022BFAD1337901257A8905FA74
:101E700003F31342F3D10446FEF78AFFD4E90723A4
:101E80009A4209D00432EAD0384671794FF480730F
:101E9000FFF706FF0020F8BDA369002BDFD1F1E7B3
:101EA000406BFFF7D5BF00BF00000000000000003E
:101EB000133138B550F82140C4B172B6202383F3F2
:101EC000118862B6FFF7FCF9D4F88C2413685279B4
:101ED00003EB8203DB689B695D6845B92046FFF729
:101EE000B7FFFFF7D5F9002383F3118838BD04212C
:101EF0006018FFF7B5F8FEF74BFFA36A043B9D425D
:101F000017D8D4E90732934210D01D60A06AA269A5
:101F10000344616A01328B42E361A26101D3236B06
:101F2000E36104F10C00FFF70BF8D7E7A269002A80
:101F3000EBD00148FEF71CFE2CC00008000000009A
:101F400070B50D460446FEF713FFD5B1E369043BB7
:101F5000AB4216D3E368A3B12369A1691D60E069B0
:101F6000E2680344013A8B422361E26001D3636A71
:101F700023610022236BA26233B12046BDE870408A
:101F800018470248FEF7F4FD70BD00BF44C10008C9
:101F900038B504460D46FEF7FBFED4E90420824224
:101FA00003D050F8043B2B6038BDE268002AF8D01B
:101FB000002038BD0000000000000000000000000C
:101FC00010B5446B82B0D4F88C24136819780429B6
:101FD00001D002B010BD217A0229FAD11079012274
:101FE000198902FA00F30B42F3D101A904F144006C
:101FF000FFF7CEFF0028ECD0D4F88C440246019BBA
:1020000021792068FFF7DCFDE3E700BF0000000056
:1020100010B582B072B6202383F3118862B6244CC7
:10202000FFF74EF9D4F88C2413681978042906D0E8
:10203000FFF72EF9002383F3118802B010BD217A37
:102040000229F5D110790122198902FA00F30B4215
:10205000EED1FEF79DFED4E915329342E8D1226D10
:10206000002AE5D0E26E002AE2D0043AD21ADFD08C
:102070001A60206E226D0344E16D013A8B42636564
:10208000226501D3A36E6365002301A90948E366B5
:10209000FFF77EFF40B1D4F88C440246019B2179C2
:1020A0002068FFF78DFDC3E70348FEF761FD00BF21
:1020B000000800204408002020C0000800000000A4
:1020C00001F10B032DE9F04150F8234082B024B315
:1020D00006460D4672B6202383F3118862B600EBE4
:1020E000810704F14408FFF7EBF8201D0821FEF7F3
:1020F000B7FFFB685B691B6813BB404601A9FFF78C
:1021000047FF68B1024629463046019BFFF758FD5C
:10211000FFF7BEF8002383F3118802B0BDE8F08119
:10212000FB685A691268002AF2D01B8A013B1340EF
:10213000EED1294606F180023046FFF741FDE7E780
:10214000FEF726FED4E915239A420ED0216E226DA9
:102150000B44E16D01328B42A365226501D3A36E6E
:10216000A3654046FEF7ECFEC7E7226D002AEDD0DE
:102170000148FEF7FDFC00BFE8C0000800000000B9
:1021800010B50446FEF7F4FDE3689BB16369E069AE
:10219000E2680344A169013A8B426361E26001D3C2
:1021A000636A63610022236BA26233B12046BDE8FB
:1021B000104018470148FEF7DBFC10BD5CC000086A
:1021C00008B54FF08043DA68920701D5586308BD1F
:1021D0000148FEF7CDFC00BF00C000080000000071
:1021E00038B50446FEF7D4FDE368002B2FD01B4B17
:1021F000DA69A2420ED022681C33616800200A60AE
:1022000022689A425160E06003D0A16893680B4451
:10221000936038BD11681846002440F81C1F8142A5
:102220004860D46016D095684FF080448A68986AF8
:1022300015448D60626A121A9542EAD9A91A0129D9
:1022400098BF951C2844BDE83840FFF7B9BF044843
:10225000FEF78EFC4FF08043DC6038BDC80D0020D7
:10226000F4BD0008000000000000000000000000B5
:102270002DE9F0410C46064615469846FEF788FDC6
:1022800064B3264F022CF5604FF080423B4638BFC6
:102290000224C6F8108053F81C5F516A9D4224D076
:1022A000B86AAB68091A64181BD2A34230D89C42A2
:1022B00006D9AE4212D02D68E41AAB68A342F8D317
:1022C0006B684FF0FF32C6E900531E606E60B46069
:1022D000AB681C1BAC607A62BDE8F0811048FEF769
:1022E00047FC2D68E41AAB68E1E7B962C7E9076605
:1022F000B460D36813F00203C6E9005505D10C445D
:10230000022154631361D160E6E70648FEF730FC12
:102310002044FFF755FFAB68C9E700BFC80D002098
:1023200074BD0008F0BF00080000000000000000BD
:1023300010B5FEF72DFD074B1A689A4209D01168B7
:10234000002410464B6019605462BDE81040FEF74F
:10235000CFBD10BD040401200000000000000000FB
:1023600010B50A4CFEF714FD00210122236804F188
:10237000180021612275C4E90233FEF721FE04F141
:102380002000BDE81040FEF71BBE00BF580401202E
:10239000F8B5124C0746FEF7FBFC237DC3B9FEF7E8
:1023A000F7FCFEF7F5FC2369D4E90065AA1BB3EB43
:1023B000A20F10D0A168013309480A1D9542A260FE
:1023C0000F6098BFA6602361FEF7BAFD0020F8BD3C
:1023D0006FF00100F8BD4FF0FF30F8BD5804012048
:1023E0007804012000000000000000000000000050
:1023F000F8B5124C0746FEF7CBFC237DC3B9FEF7B8
:10240000C7FCFEF7C5FC2269D4E90056731BB2EB8A
:10241000A30F10D0E36801320948043B9D4288BFF6
:10242000331FE3601F602261FEF78AFD0020F8BDC4
:102430006FF00100F8BD4FF0FF30F8BD58040120E7
:1024400078040120000000000000000000000000EF
:1024500070B50123334D344C042634482B60FEF70D
:1024600037FA40F68800FEF7D3F92046FEF710FA57
:1024700002232F482B60FEF72BFA4420FEF7C8F901
:102480002046FEF705FA03232A482B60FEF720FAC0
:102490001420FEF7BDF92046FEF7FAF926482E6013
:1024A000FEF716FA0C20FEF7B3F92046FEF7F0F916
:1024B000052322482B60FEF70BFA1020FEF7A8F93F
:1024C0002046FEF7E5F906231D482B60FEF700FACB
:1024D0000820FEF79DF92046FEF7DAF90723194890
:1024E0002B60FEF7F5F93046FEF792F92046FEF72D
:1024F000CFF9082314482B60FEF7EAF91420FEF701
:1025000087F92046FEF7C4F9092310482B60FEF72F
:10251000DFF92820FEF77CF92046BDE87040FEF781
:10252000B7B900BF6C1F0020ECDA0008DCDA000845
:10253000F4DA000804DB000814DB000824DB0008E0
:1025400034DB000844DB000854DB000864DB0008CF
:10255000024B0022C3E900339A607047181800202C
:10256000F8B50123104A072500241F460F4E1360BB
:1025700025FA04F3DB0711D556F8242082B107FAB7
:1025800004F32046013425EA03059047002DEFD1DE
:1025900007490848BDE8F840FEF7B2B90134E7E75B
:1025A0000548FEF7E5FA00BF6C1F00205CC5000877
:1025B000D4D70008E8D7000840BF0008000000009A
:1025C0000020064A064B074990609860C1E9001157
:1025D000C2E90022C3E90033704700BF380401207C
:1025E0004804012004040120000000000000000055
:1025F000044B0021044A9960C2E90022C3E9003378
:10260000704700BF380401200404012000000000CE
:10261000FFF7EEBF00000000000000000000000017
:10262000024B0022C3E900339A607047380401204E
:10263000FFF7F6BF000000000000000000000000EF
:10264000044A0021044B91609960C2E90022C3E969
:1026500000337047380401204804012000000000C6
:1026600038B5C94B0125C94CC9481D60FEF730F982
:102670002020FEF7CDF82046FEF70AF9C548FEF700
:1026800027F942F21070FEF7C3F82046FEF700F972
:10269000C148FEF71DF92020FEF7BAF82046FEF7E4
:1026A000F7F8BE48FEF714F92020FEF7B1F82046EF
:1026B000FEF7EEF8BA48FEF70BF90220FEF7A8F88D
:1026C0002046FEF7E5F8B748FEF702F90020FEF7CE
:1026D000CFF82046FEF7DCF8B348FEF7F9F8002003
:1026E000FEF7C6F82046FEF7D3F8B048FEF7F0F83C
:1026F0000020FEF7BDF82046FEF7CAF8AC48FEF70A
:10270000E7F82846FEF784F82046FEF7C1F8A94806
:10271000FEF7DEF82846FEF77BF82046FEF7B8F80D
:10272000A548FEF7D5F82846FEF772F82046FEF7D2
:10273000AFF8A248FEF7CCF82846FEF769F8204625
:10274000FEF7A6F89E48FEF7C3F82846FEF760F8A5
:102750002046FEF79DF89B48FEF7BAF80020FEF7EA
:1027600087F82046FEF794F89748FEF7B1F8284618
:10277000FEF74EF82046FEF78BF89448FEF7A8F8CF
:102780000020FEF775F82046FEF782F89048FEF725
:102790009FF82846FEF73CF82046FEF779F88D486A
:1027A000FEF796F82846FEF733F82046FEF770F855
:1027B0008948FEF78DF82846FEF72AF82046FEF7EE
:1027C00067F88648FEF784F82846FEF721F8204689
:1027D000FEF75EF88248FEF77BF82846FEF718F809
:1027E0002046FEF755F87F48FEF772F80020FEF706
:1027F0003FF82046FEF74CF87B48FEF769F828467C
:10280000FEF706F82046FEF743F87848FEF760F832
:102810002846FDF7FDFF2046FEF73AF87448FEF71C
:1028200057F82846FDF7F4FF2046FEF731F87148C7
:10283000FEF74EF82846FDF7EBFF2046FEF728F896
:102840006D48FEF745F82846FDF7E2FF2046FEF703
:102850001FF86A48FEF73CF82846FDF7D9FF2046E6
:10286000FEF716F86648FEF733F82846FDF7D0FF66
:102870002046FEF70DF86348FEF72AF80820FDF71A
:10288000C7FF2046FEF704F85F48FEF721F8284608
:10289000FDF7BEFF2046FDF7FBFF5C48FEF718F88A
:1028A0002846FDF7B5FF2046FDF7F2FF5848FEF732
:1028B0000FF82846FDF7ACFF2046FDF7E9FF554825
:1028C000FEF706F82846FDF7A3FF2046FDF7E0FFD8
:1028D0005148FDF7FDFF2846FDF79AFF2046FDF71A
:1028E000D7FF4E48FDF7F4FF0020FDF7C1FF20465B
:1028F000FDF7CEFF4A48FDF7EBFF2846FDF788FFBE
:102900002046FDF7C5FF4748FDF7E2FF2846FDF7E3
:102910007FFF2046FDF7BCFF4348FDF7D9FF28465F
:10292000FDF776FF2046FDF7B3FF4048FDF7D0FFE7
:102930000F20FDF76DFF2046FDF7AAFF3C48FDF78D
:10294000C7FF8020FDF764FF2046FDF7A1FF39484F
:10295000FDF7BEFF2846FDF75BFF2046FDF798FF19
:102960003548FDF7B5FF2846FDF752FF2046FDF735
:102970008FFF3248FDF7ACFF0020FDF779FF2046BE
:10298000BDE83840FDF784BF6C1F00204CDD000817
:1029900098CC0008C4CC0008F0CC00081CCD00087E
:1029A00048CD000874CD0008A0CD0008CCCD0008AB
:1029B000F8CD000824CE000850CE00087CCE0008D8
:1029C000A8CE0008D4CE000800CF00082CCF000805
:1029D00058CF000884CF0008B0CF0008DCCF000833
:1029E00008D0000834D0000860D000088CD000085F
:1029F000B8D00008E4D0000810D100083CD100088D
:102A000068D1000894D10008C0D10008ECD10008BA
:102A100018D2000844D2000870D200089CD20008E6
:102A2000C8D20008F4D2000820D300084CD3000814
:102A300078D30008A4D30008D0D30008FCD3000842
:102A4000194B0122194810B51A60FDF721FF184CE7
:102A50001848FDF73DFF0020FDF70AFF2046FDF76F
:102A600017FF1548FDF734FF1448FDF711FF144810
:102A7000FDF72EFF0520FDF7CBFE2046FDF708FFF2
:102A80001048FDF725FF0020FDF7F2FE2046FDF778
:102A9000FFFE0D48FDF71CFF0020FDF7E9FE204674
:102AA000BDE81040FDF7F4BE6C1F002070CB00089D
:102AB0004CDD0008A4CB0008D0CB0008FCCB0008FC
:102AC00004CC000830CC00085CCC000800000000FA
:102AD0001C4B01221C4810B51A60FDF7F9FE1B487B
:102AE000FDF7D6FE1A48FDF7F3FE1A48FDF7D0FEB3
:102AF0001948FDF7EDFE1948FDF7CAFE1848FDF725
:102B0000E7FE1848184CFDF7C3FE1848FDF7E0FE35
:102B10000420FDF77DFE2046FDF7BAFE1448FDF7C0
:102B2000D7FE0820FDF774FE2046FDF7B1FE1148E0
:102B3000FDF7CEFE0820FDF76BFE2046BDE81040F5
:102B4000FDF7A6BE6C1F0020B4C90008E0C900084C
:102B5000ECC9000818CA000824CA000850CA0008B6
:102B600098CA0008C4CA00084CDD0008DCCA000886
:102B700008CB000834CB0008000000000000000073
:102B80002DE9F84304460D461646FEF701F944B117
:102B90002378042B05D10FFA85F804EB8807FB682E
:102BA00013B15B48FDF7E4FF7269FE601AB1136070
:102BB00053609360D360B36923B100221A605A60F6
:102BC0009A60DA60FB681A6802F00302022A00F0D9
:102BD0009880032A00F092804E484F49012A0CBF8A
:102BE00081468946D4F8906069014FF0000E05F1E6
:102BF000100270184FF0010CC0F810EB0CFA02FC38
:102C00009869002848D0588A05F1580240EA09001E
:102C10005201B050D6F81C2842EA0C02C6F81C2813
:102C2000314400205A69C1F81009002A43D0998B19
:102C30001A8A01294FEA920388BF4B43D4E925122F
:102C40009818C4F89800496888425DD805F13F009B
:102C5000A90142EA0343D4F8902006EB800041F03A
:102C600020014360116113699906FCD41220FDF71D
:102C70006FFFFA6805F148010123128A4901AB4050
:102C800042EA855242EA09027250D6F81C281343E0
:102C9000C6F81C38BDE8F88306EB4810D0F8002BC6
:102CA00022F40042C0F8002BD6F81C2822EA0C02BD
:102CB000C6F81C28B4E705F13F01AB01D4F8902019
:102CC00006EB8101154843F0200348601361136946
:102CD0009B06FCD406EB48181220FDF739FF0121B2
:102CE000D8F80039A94023F40043C8F80039D6F8D1
:102CF0001C5825EA0105C6F81C58CBE7DFF82490DC
:102D000070E7DFF824906DE70548FDF731FF00BF5D
:102D1000BCC0000800800410008000100004000205
:102D200074C0000800800C10008008100000000033
:102D300070B5052918D8DFE801F05417185454036A
:102D400072B6202383F3118862B6354D0024FEF756
:102D5000B7FA0121281DFEF783F92C7585F84C4040
:102D6000FEF796FA84F3118870BD064672B62023EA
:102D700083F3118862B6FEF7A3FA294C3046294A3C
:102D800001210025FFF7FCFE0221274A3046FFF70C
:102D9000F7FEFDF7FDFF236B04F10C00A561C4E90C
:102DA0000733C4E90D55FEF70BF92575FDF7F0FF64
:102DB000626EA36E04F144002265C4E91533C4E9D0
:102DC0001B55FEF7FDF80121201D84F84C50FEF73D
:102DD00047F92046FFF73CF8FEF75AFA85F31188C9
:102DE00070BD72B6202383F3118862B60C4CFEF7D7
:102DF00067FA01250221201DFEF732F904F10C00CB
:102E00002575FEF7DDF804F1440084F84C50FEF718
:102E1000D7F8FEF73DFA002383F3118870BD00BF99
:102E20000008002014C5000838C500080000000094
:102E300038B50D46E8B1044628601149204608F02F
:102E4000B7FE215C044422290DD00D49204608F02C
:102E50008DFE286018B1421C00232A60037023787D
:102E600053B1204638BD0134204608F08DFD28605E
:102E7000F0E70C68002CE0D10024204638BD00BFEC
:102E800020C9000800000000000000000000000051
:102E90000EB42DE9F04F86B0044600270FAE56F869
:102EA000045B029629786A1C59B125290FD0236842
:102EB000154620460137DB68984729786A1C0029A7
:102EC000F3D1384606B0BDE8F04F03B070476978DB
:102ED0002D2900F07E814FF0000C302900F0748124
:102EE0004FF0200B01324FF0000805E03378043634
:102EF00012F8011B03EB4508A1F13003104608EB63
:102F00008805DBB2092BF3D92A29EFD02E294FF0FF
:102F1000000248D001F0DF03451C4C2B4FD1037851
:102F2000002B00F08B80A3F14401342900F23E8194
:102F3000DFE811F058013C013C013C013C01580123
:102F40003C013C013C013C013C0137013C013C019E
:102F50003C013C013C0107013C013C0185013C0175
:102F60003C013C013C013C013C013C013C013C0179
:102F70003C01AB0058013C013C013C013C015801C3
:102F80003C013C013C013C013C0137013C013C015E
:102F90003C0188003C0107013C013C01850133787C
:102FA000043603EB450210F8011B02EB8205A1F188
:102FB0003003DBB2092BF4D92A29F0D0AAE7A1F11A
:102FC0004103A1F14405DBB2342D00F2ED80DFE8CE
:102FD00015F03901EB00EB00EB00EB003901EB00E1
:102FE000EB00EB00EB00EB00E700EB00EB00EB008D
:102FF000EB00EB00B700EB00EB000501EB00EB0092
:10300000EB00EB00EB00EB00EB00EB00EB00EB0068
:103010005B003901EB00EB00EB00EB003901EB004A
:10302000EB00EB00EB00EB00E700EB00EB00EB004C
:103030003800EB00B700EB00EB0005010B4605463E
:1030400071E70546D6F800900436B9F1000F00F09C
:103050000F8199F800304846002A40F01081002B7B
:1030600000F01E8147F6FE724B4601E0013A03D4A0
:1030700013F8011F0029F9D11B1A4FF0200BA8EB00
:103080000308013B00930CE0054633680DF1180975
:1030900008F1FF38043609F80C3D4FF0200B0023EF
:1030A0000093B8F1000F25DBBCF1000F40F08880E1
:1030B000C8F10003B8F1000F00F0818099F800100A
:1030C00022682D29D26803D1BBF1300F00F0C280F5
:1030D0009A4601E02368DA685946204690471AF17B
:1030E000010AF7D1009A53464744002AFFF6DAAEA8
:1030F000984605E0009B002BFFF6D4AE4FF0000889
:10310000DDF800A023680AF1FF3A19F8011B2046F8
:10311000DB689847BAF1FF3FF4D10137009B3B448D
:103120001F46B8F1000F3FF4BDAEC14623685946B3
:103130002046DB689847B9F10109F7D14744B1E669
:1031400005464FF00A0956F804EB0DF1170200E0AE
:103150000246501EBEFBF9F109FB11EA8E460AF148
:103160003003392BC8BF0AF13703DBB202F8013C48
:103170000029EDD10DF117010DF10C09A1EB000AA9
:10318000CE4600EB0A0101E012F8013B8A420EF83C
:10319000013BF9D10AF1FF33A8EB0A08009380E75D
:1031A00005464FF00809CEE705460B460DF1180914
:1031B000002208F1FF38009209F80C3D71E79846AB
:1031C000009B002B9CDAACE751784FF0300B0132BA
:1031D00088E6AA1CA9784FF0010C7EE605464FF060
:1031E0001009B0E7311D32680E46002A4FDB0DF1A1
:1031F0000C09484600F10B03194600932B4BA3FB27
:1032000002E3DB0803EB830A9E46A2EB4A03724605
:103210003033DBB201F8013D002AEFD1009A521A97
:10322000024401E011F8013F00F8013B9042F9D15E
:10323000A0EB0900431EA8EB0008009331E74FF014
:10324000100980E73146192B054651F8042BCAD9DD
:103250000E46CAE7204601939047009B226801373B
:10326000013B09F10109D2680093019B9A4633E7BB
:103270000F488146002A3FF4F5AE013AF4E6002BF0
:10328000FBD14FF0FF334FF0200B009309E72D23C4
:1032900052420DF10D000DF10C098DF80C30A9E72B
:1032A0004FF0FF334FF0200B0093FDE6CDCCCCCC9C
:1032B00058C20008000000000000000000000000EC
:1032C000002918DC70B504460C4E0D4D02E0336841
:1032D0005B6898472368002120469B699847013026
:1032E0004FF4806229460548F1D020460549BDE8E3
:1032F0007040FFF7CDBD0449FFF7CABD00080020AC
:1033000000000120C0C40008D0C400080000000074
:10331000012903D0034A0449FFF7BABD12680349E3
:10332000FFF7B6BD60C2000870C200087CC200088A
:10333000002903DD194A1A49FFF7AABD10B5044652
:1033400082B0184A1849FFF7A3FD184A18492046C9
:10335000FFF79EFD174A18492046FFF799FD174AC7
:1033600017492046FFF794FD164A17492046FFF7F4
:103370008FFD164A16492046FFF78AFD154A164961
:103380002046FFF785FD154A154B2046009215494A
:10339000154AFFF77DFD02B010BD00BF84C20008D2
:1033A00070C20008FCCB00088CC2000850CA00089C
:1033B000A0C20008E0C90008B4C2000818CA00088A
:1033C000C8C20008C4CA0008DCC20008F0C2000875
:1033D00024C3000838C3000860C300089CC3000869
:1033E00074C3000884C3000878C30008000000000C
:1033F00070B50C68A14212D00D46064602E0246862
:10340000A5420CD008223146A01808F031FB002854
:10341000F5D12CB1636820460133636070BD002490
:10342000204670BD00000000000000000000000009
:1034300070B5184D04460E46FDF79AFC2A68A86937
:10344000AA42836802D092689A4218D8A26866623B
:103450009A4217D9FDF74CFD01230646AC6184F86A
:103460002030FDF725FBEFF30983243BF2699A42F4
:103470000DD831462046BDE87040FCF731BF064804
:10348000FDF776FB2046BDE87040FDF731BD0348EF
:10349000FDF76EFBC80D0020BCBE000828C2000866
:1034A00070B5104C0646FDF763FC0121A569236841
:1034B00085F8206028461A68546083F8201022603E
:1034C000A361FDF7F5FAEFF30983243BEA699A4219
:1034D00005D82946A069BDE87040FCF701BF024845
:1034E000FDF746FBC80D002028C2000800000000C0
:1034F000F8B504463E4B9D69FDF73AFC2CB3A36832
:10350000002B4BD0A9689A68914208D993F82020E3
:103510009960062A47D0072A1ED0002A30D02646B6
:10352000234603E09968AA68914235D31B689C4200
:10353000F8D173680620C5E900631D6075606C6290
:10354000FFF7AEFFA368AB4202D02A48FDF710FB9D
:10355000AB6BA342F9D1F8BDD3E900205E6A0260EB
:103560001F683246786002E09068884237D312685C
:103570009642F9D17268C3E9006213607360CEE7C6
:10358000D3E90012012083F82000184611601B685F
:103590005A60FDF7ADFCC2E71E46CAE7AB6BC4E953
:1035A0000253AC63F8BDD3E9002C5E6ACCF800206E
:1035B000186837463246C0F804C002E09068884276
:1035C00014D312689642F9D17A68A968C3E90072E7
:1035D00013607B60B3689A688A4297D39FE7164668
:1035E0007268C3E900621360736098E71746EBE7FF
:1035F000C80D002080BD0008000000000000000091
:1036000008B5114B9C6904F12805A36A6062AB42BE
:1036100007D01A681846A262FDF76AFCA36AAB429B
:10362000F7D194F8223043B994F821309B0704D1A4
:10363000D4E904231A61226953610F20FFF730FF98
:103640000248FDF795FA00BFC80D002050BF0008E2
:1036500070B50D4686B00646FDF78AFB6B1C0E4C16
:1036600013D0A36929460D4A01A8FEF701FE304692
:10367000FFF716FFFDF78CFB049B13B101A8FEF7C3
:10368000AFFDA369586A06B070BD3046FFF708FF6A
:10369000A369586A06B070BDC80D0020F112200061
:1036A00038B504460D46FDF763FB2CB1A3682268CC
:1036B000002B04DBA24204D00E48FDF759FAA242C7
:1036C000FAD05A1E002AA26001DB002038BD6DB17D
:1036D000094B294605209B695C626268C3E9004288
:1036E00013606360BDE83840FFF7B2BFA3604FF0DE
:1036F000FF3038BD78BE0008C80D00200000000073
:1037000061B10246074B04209B6910B45468C3E9B9
:1037100000242360536010BCFFF79ABF4FF0FF30C6
:10372000704700BFC80D002000000000000000002E
:1037300038B504460D46FDF71BFB07E0237A93B925
:1037400029462046FFF7DCFF00280BDBE368002B4F
:10375000F4D0E36853B123690020E1691A1D0B44DA
:10376000C4E90A2338BD6FF0010038BD0148FDF7F8
:10377000FFF900BF14C100080000000000000000B5
:1037800038B504460D46FDF7F3FA07E0237A93B9FE
:1037900029462046FFF7B4FF00280BDBE368002B27
:1037A000F4D0E36853B1636900201A1D1B68134409
:1037B000C4E90A2338BD6FF0010038BD0148FDF7A8
:1037C000D7F900BF40C00008000000000000000062
:1037D000F8B590F87030044613B1002380F87030CB
:1037E00004EB81016268CB681B6A19685B68C4F8E6
:1037F0008010C4F88430936853B32046984738B398
:10380000A16F94F8803094F8870094F8862042EAFB
:1038100000228A422CBF0A46A267190600F18D8059
:10382000002A5DD0152384F8703072B6202383F30C
:10383000118862B6FDF744FD2046D4E91D2300211E
:10384000FEF72EFAFDF724FD002383F31188F8BD5F
:1038500094F8803013F06005194617D0D4F8902002
:10386000D2F80039616843F400130D68C2F80039DA
:10387000D2F8003B43F40013C2F8003B15B1062117
:103880002046A847062384F87030F8BD94F881607C
:1038900003F07F0240F2023042EA0622824200F048
:1038A000E08033D8022A00F0CA8040F29B80B2F553
:1038B000817F00F0A080B2F5407F73D0B2F5807FA9
:1038C000CCD194F88230012BC8D1B4F88830656728
:1038D00023F00203C4E91E55A4F888300B063BD43C
:1038E0000B2384F8703072B6202383F3118862B6FC
:1038F000FDF7E6FC002320461A460021FEF760F99A
:10390000FDF7C6FC002383F31188F8BD40F2016087
:10391000824256D9B2F5106F2CD040F602418A424D
:1039200000F08580B2F5006F98D104F18B0101227F
:10393000E56761671146A26765E76AB1092384F804
:10394000703072B6202383F3118862B6FDF7B8FC9D
:103950002046D4E91D23D0E7142384F8703072B6D2
:10396000202383F3118862B6FDF7AAFC00232046CA
:103970001A4664E72378042B00F0C58094F882305F
:103980004BB10421626884F88B302170136813B145
:10399000022120469847002394F88010C4E91D3383
:1039A000E3679BE794F88230012B7FF457AFB4F8BC
:1039B0008830656743F00203C4E91E55A4F88830D7
:1039C0008CE7B2F5C06F63D2B2F5A06F7FF446AF5B
:1039D000B4F88030B3F5A06F7CD00023C4E91D3368
:1039E000E3677BE702BB04F188010220E2676167BD
:1039F0000146A06707E794F88230002B7FF42EAFD2
:103A000094F8843013F00F00E7D0D4F8902013F02E
:103A1000800F02EB401340F08580D3F8002B22F496
:103A20000012C3F8002BD8E7012A7FF417AF6549CD
:103A30000222002061671146C4E91E20E3E694F8E3
:103A40008400D4F8902000F00F01000639D45831DA
:103A5000490151580D047FF503AF8E0238D55A49FC
:103A6000E6E794F88230002B7FF4F8AE94F88430C7
:103A700013F00F00B1D0D4F8902002EB40121806DA
:103A800057D4D2F8003B43F40013C2F8003BA4E73C
:103A900094F885202046616894F884304E6843EAA3
:103AA000022394F8831094F88220B04700283FF452
:103AB000D5AED0E90013E567C4E91D3194F8803034
:103AC000A1E64831490151580F047FF5C9AEC4E75A
:103AD0003E49ADE794F88210D4F8902084F88A101B
:103AE000D2F80038606823F4FE63056843EA0113E6
:103AF000C2F8003815B101212046A847032394F8E5
:103B00008010237069E772B6202383F3118862B6B0
:103B1000FDF7D6FBFDF73CF92378042B10D02C4899
:103B2000FDF726F8D3F8002922F40012C3F8002983
:103B300053E7D2F8003943F40013C2F800394CE7D8
:103B4000D4F894302A4627892E4618684FF0FF3162
:103B500007F001072561C4F89800986863896561DA
:103B6000013003F001032781C4E90655C4E9085573
:103B7000C4E90A55D4F89050638105EB4213013231
:103B80009042C3F80069C3F81069C3F80819C3F874
:103B9000006BC3F8106BC3F8081BEED14FF0011394
:103BA000C5F81C38FDF774FB86F3118803216368A0
:103BB00084F88B6021701B68002B3FF4DFAE204639
:103BC0009847DBE650E9000874C50008ECC100081E
:103BD000D0C000080000000000000000000000004D
:103BE000EFF30983203383F30988002383F31188DB
:103BF000704700BF0000000000000000000000004F
:103C000070B51C4E01223368B5691C68666083F884
:103C100020203460B361FDF7BBF83DB395F8203048
:103C200023B3A3F10F03B3FA83F35B09F3B9AA68D3
:103C300085F8203000E02468A3689342FBD86368CD
:103C40002846C5E900431D606560FCF731FFEFF3CE
:103C50000983243BEA699A4205D82946B069BDE840
:103C60007040FCF73DBB0448FCF782FF0348FCF7BB
:103C70007FFF00BFC80D002028C20008A8BD0008B3
:103C800008B5FDF775F8FDF783F8064B1A689B69D0
:103C900092689B689A4200D808BDBDE80840FFF7CB
:103CA000AFBF00BFC80D00200000000000000000F2
:103CB00008B5054B1A6B22B9596B002901DD5A630F
:103CC00008BD0248FCF754FFC80D0020C8C1000819
:103CD00008B5FFF7EDFF084B1A689A4204D09969BE
:103CE00093688A689A4203D3002383F3118808BD3E
:103CF0000248FCF73DFF00BFC80D0020E8BC0008EB
:103D000008B5EFF30583C3F3080383B9FFF7B8FFE2
:103D1000FFF7CEFF0A4B1A689A4204D0996993685C
:103D20008A689A4209D3002383F3118808BDFDF7FE
:103D3000AFFA002383F3118808BD0248FCF718FF8F
:103D4000C80D0020F8BB00080000000000000000C3
:103D500008B5054B1A6B0AB95A6B12B10348FCF748
:103D600007FF01225A6308BDC80D0020B0C100083A
:103D700010B5044672B6202383F3118862B6FFF7AC
:103D8000E7FF21460B48FFF78BFC0446FFF790FF47
:103D9000094B1A689A4204D0996993688A689A42D2
:103DA00004D3002383F31188204610BD0348FCF799
:103DB000DFFE00BF38180020C80D002010BC00082E
:103DC00070B572B6202383F3118862B6214CFFF7D9
:103DD000BFFFA3682268002B04DBA24204D01E4868
:103DE000FCF7C6FEA242FAD00133002BA36023DD0C
:103DF000013B002BA36012DB0024184DFFF740FFAE
:103E0000FFF756FF2B68AB4204D0AA699B68926803
:103E10009A421BD3002383F31188204670BD0F4DB7
:103E200005206368AE69C6E900431E60746266607F
:103E3000FFF736FB746AE3E7206803685C60236081
:103E4000FDF756F80022A3684262D1E70448FCF768
:103E50008FFE00BF3818002030BF0008C80D0020BA
:103E600010BC00080000000000000000000000007E
:103E700038B572B6202383F3118862B6FFF768FF66
:103E8000FCF776FF0F4B9A689AB100250E4CFFF7AE
:103E90000FFF2368A34204D0A2699B6892689A42EC
:103EA00004D3002383F31188284638BD0748FCF764
:103EB0005FFE054C0125A269916B9363C3E9022162
:103EC000E5E700BF38040120C80D00201CBC000835
:103ED00008B572B6202383F3118862B6FFF738FF66
:103EE0000D4B1868984205D00268002153601A6093
:103EF000FFF79EFAFFF7DCFE084B1A689A4204D0DF
:103F0000996993688A689A4203D3002383F31188DE
:103F100008BD0348FCF72CFE04040120C80D002056
:103F200028BC0008000000000000000000000000A5
:103F3000F8B506460C46174672B6202383F311885F
:103F400062B60F4DFFF704FF30684FF0FF33AA69E8
:103F5000002120603460C4E90313C4E90127FFF79E
:103F6000A7FE2B68AB4204D0AA699B6892689A426C
:103F700003D3002383F31188F8BD0248FCF7F8FD52
:103F8000C80D002034BC0008000000000000000044
:103F900038B572B6202383F3118862B60C4CFFF754
:103FA000D7FE0022A3695D6B5A63FFF781FE236889
:103FB000A34204D0A2699B6892689A4204D300236A
:103FC00083F31188284638BD0248FCF7D1FD00BFB5
:103FD000C80D002034BC00080000000000000000F4
:103FE00008B5FFF7D5FF024A024B12601B6008BDFF
:103FF0000C0401201004012000000000000000005B
:10400000FFF7C6BF00000000000000000000000035
:10401000FFF7F6BF000000000000000000000000F5
:10402000FFF7EEBF000000000000000000000000ED
:10403000FFF7E6BF000000000000000000000000E5
:10404000FFF7DEBF000000000000000000000000DD
:1040500070B5144CA66972B6202383F3118862B63A
:10406000FFF776FE736B33B94FF0FF330A207362AC
:10407000FFF716FA736B5D421D4023EA0503736375
:10408000FFF716FE2368A34204D0A2699B689268DA
:104090009A4204D3002383F31188284670BD024856
:1040A000FCF766FDC80D002034BC000800000000CD
:1040B00070B5134CA56972B6202383F3118862B6DC
:1040C000FFF746FE6E6B36B94FF0FF330A206B6286
:1040D000FFF7E6F96E6B00236B63FFF7E9FD2368DA
:1040E000A34204D0A2699B6892689A4204D3002339
:1040F00083F31188304670BD0248FCF739FD00BFDC
:10410000C80D002034BC00080000000000000000C2
:1041100038B5144CA56972B6202383F3118862B6B2
:10412000FFF716FE6B6B03F00502052A05D0052389
:104130000B206B62FFF7B4F96B6B23F005036B6325
:10414000FFF7B6FD2368A34204D0A2699B6892687A
:104150009A4204D3002383F31188052038BD024816
:10416000FCF706FDC80D002034BC0008000000006C
:1041700070B51E4C0546A66972B6202383F31188DC
:1041800062B6FFF7E5FD736B53B9EDB14FF0FF3346
:1041900029460A207362FFF75BFA002814DB736B71
:1041A0005D421D4023EA05037363FFF781FD236829
:1041B000A34204D0A2699B6892689A4213D3002359
:1041C00083F31188284670BDFFF772FD2368A34270
:1041D00004D0A2699B6892689A4204D3002585F3B3
:1041E0001188284670BD0248FCF7C2FCC80D0020AB
:1041F00034BC0008000000000000000000000000C7
:10420000F8B51A4C0746A66972B6202383F31188C5
:1042100062B6FFF79DFD756B55B9D7B14FF0FF330F
:1042200039460A207362FFF713FA002811DB756B19
:1042300000237363FFF73CFD2368A34204D0A26907
:104240009B6892689A420ED3002383F31188284614
:10425000F8BDFFF72DFD2368A342F5D0A2699B6846
:1042600092689A42F0D20248FCF782FCC80D002006
:1042700034BC000800000000000000000000000046
:1042800008B572B6202383F3118862B6FFF760FD8C
:10429000FEF766F8FFF7F4FCFFF70AFD074B1A6814
:1042A0009A4204D0996993688A689A4203D300239A
:1042B00083F3118808BD0248FCF75AFCC80D0020A2
:1042C00058BC0008000000000000000000000000D2
:1042D000FFF7D6BF00000000000000000000000053
:1042E000FFF7F6BF00000000000000000000000023
:1042F000FFF7EEBF0000000000000000000000001B
:104300002DE9F84380460F4672B6202383F31188C7
:1043100062B6234CFFF71CFDFCF72AFD04F11806DA
:1043200011E0FCF735FDFCF733FD2369D4E9009576
:10433000A5EB0902B3EBA20F1ED139463046FFF7B9
:10434000DFF9054620B9237D002BEAD06FF0010587
:10435000FFF7AEFC134B1A689A4204D09969936830
:104360008A689A4205D3002383F311882846BDE862
:10437000F8830D48FCF7FCFBA16801330B480A1DCC
:104380009542A260C1F800804FF0000598BFC4F8C4
:1043900008902361FCF7D4FDFFF772FCD8E700BF5B
:1043A00058040120C80D002058BC000878040120E2
:1043B0002DE9F8438146884672B6202383F311889D
:1043C00062B6224CFFF7C4FCFCF7D2FC04F11806DD
:1043D00010E0FCF7DDFCFCF7DBFC2369D4E90057B7
:1043E0007A1BB3EBA20F1ED141463046FFF788F986
:1043F000054620B9237D002BEBD06FF00105FFF7B8
:1044000057FC134B1A689A4204D0996993688A68DA
:104410009A4205D3002383F311882846BDE8F88328
:104420000C48FCF7A5FBE26801330B48043A9542BF
:104430004FF0000588BF3A1FE260C2F80090236188
:10444000FCF77EFDFFF71CFCD9E700BF58040120F4
:10445000C80D002058BC00087804012000000000AE
:104460002DE9F04180460F4672B6202383F3118870
:1044700062B6224CFFF76CFCFCF77AFC04F12006D4
:1044800009E0FCF785FC2369DBB939463046FFF7C4
:1044900037F9054620B9237D002BF2D06FF00105D6
:1044A000FFF706FC164B1A689A4204D09969936884
:1044B0008A689A421FD3002383F311882846BDE8F7
:1044C000F081E16860680A1D09688242E260C8F80C
:1044D000001001D32268E260013B0A4800252361F5
:1044E000FCF72EFDFFF7CCFBFFF7E2FB044B1A684D
:1044F0009A42DBD1DFE70448FCF73AFB580401207D
:10450000C80D00207004012058BC00080000000005
:1045100038B5054672B6202383F3118862B6154C70
:10452000FFF716FC29462046FFF7BAF800BBFCF758
:104530002FFCE568A5B12B68E360FFF7B9FB0E4BD4
:104540001A689A4204D0996993688A689A4204D397
:10455000002383F31188284638BD0848FCF708FB80
:10456000A369002BE9D0D4E9040198470546E4E7A4
:104570000025E2E714040120C80D002070BC0008EB
:1045800008B50122064B4FF47A701A60FFF7C0FF9E
:10459000B0FA80F003494009BDE80840FCF710B9C3
:1045A0006C1F002010C70008000000000000000081
:1045B00008B572B6202383F3118862B6FFF7C8FBF3
:1045C00003480021FCF74CFD0020FFF719F800BF5D
:1045D0005018002000000000000000000000000053
:1045E00081467549DFF804A2D9F804302DE98048E6
:1045F00007689BB08B4638460193FEF749FC384666
:104600006E490AAEFEF744FC51463846FEF740FCC0
:10461000D9F8005034462B689B6801220DF10F0138
:1046200028469847002872D09DF80F1004296AD0B8
:10463000082918D0A1F17F03B3FA83F35B0993B97A
:104640000D2924D01F292B68E6D90DF16702944269
:10465000E2D2DB68284698479DF80F30013404F811
:10466000013C2B68D8E7B4422B68D5D0DB68082121
:104670002846013C98472B6820212846DB6898474C
:104680002B6808212846DB6898472B68C4E79846C2
:1046900028465946FEF7FCFB04A984F80080304602
:1046A000FEF7C6FB04A90546002005ACFEF7C0FBDB
:1046B00060B1B8F1040F1FD044F8040B04A9002026
:1046C00008F10108FEF7B4FB0028F2D11AAB03EBA6
:1046D000880343F8540C002D96D039492846FBF73F
:1046E000C3FE00283ED1B8F1000F1AD0344A384634
:1046F0003449FEF7CDFB87E733493846FEF7C8FB60
:104700000023099380E728463049FEF7C1FB2A4978
:104710003846FEF7BDFB2E493846FEF7B9FBFFF7DA
:1047200047FF2C493846FEF7B3FB2B4C2B4A2C4D48
:1047300029463846FEF7ACFB54F8082F002AF7D17B
:10474000019C54B1226842B1254D29463846FEF7F6
:104750009FFB54F8082F002AF7D159463846FEF738
:1047600097FB51E71C4C1D4802E054F8080F50B16C
:104770002946FBF779FE0028F7D1636805AA414670
:104780003846984740E7019C5CB1206818B908E0BA
:1047900054F8080F28B12946FBF766FE0028F7D128
:1047A000EBE72A460F493846FEF772FB0E493846BA
:1047B000FEF76EFB28E700BFDCC40008E8DC000859
:1047C00028DD000870C2000810DD000804DD0008C4
:1047D00008DD000830DD000858DD0008E0DC0008D6
:1047E00040DD000844DD000848DD0008FCDC00086E
:1047F000002903DD034A0449FEF74ABB08B5FFF769
:10480000D7FE00BFE0DC000870C200080000000016
:1048100070B504460D46164672B6202383F3118800
:1048200062B6FFF795FA324629462046FCF7D8FAD9
:104830000446FFF73DFA084B1A689A4204D099697A
:1048400093688A689A4204D3002383F31188204630
:1048500070BD0248FCF78CF9C80D002064BC00084C
:1048600070B50123594E82B04224594D33604FF048
:10487000FF312046FFF744FDB0FA80F02946400999
:10488000FBF79EFF88B90134462CF0D102230121A9
:1048900058203360FFF734FDA0F1FF304C49B0FAE7
:1048A00080F04009FBF78CFF08B102B070BD72B612
:1048B000202383F3118862B6464CFFF749FA58204B
:1048C000FDF766FD0546FFF7F3F92368A34204D020
:1048D000A2699B6892689A4275D3002383F311887A
:1048E000A5F1FF303A49B0FA80F04009FBF768FFC4
:1048F0000028DAD101215820FFF75AFDA0F1FF303E
:104900003349B0FA80F04009FBF75AFF0028CCD1B8
:1049100072B6202383F3118862B6FFF719FA582084
:10492000FDF766FD0546FFF7C3F92368A34204D0EF
:10493000A2699B6892689A4245D3002383F3118849
:10494000A5F1FF302249B0FA80F04009FBF738FFAB
:1049500005460028A9D103233360FFF791FC042307
:104960001D4A01210DEB030015753360FFF778FD3B
:10497000A0F1FF301649B0FA80F04009FBF720FFA4
:10498000002892D172B6202383F3118862B6FFF714
:10499000DFF901A8FCF7ECFA0546FFF789F923686F
:1049A000A34204D0A2699B6892689A420BD3002369
:1049B00083F31188A5F1FF300549B0FA80F0400972
:1049C000FBF7FEFE71E70548FCF7D2F86C1F0020EC
:1049D000A0C60008C80D002058040120E8BC00084B
:1049E00038B5104DAC6972B6202383F3118862B6D6
:1049F000FFF7AEF90320FEF753FD636A002BF9D0F1
:104A0000FFF756F92B68AB4204D0AA699B689268FD
:104A10009A4203D3002383F3118838BD0248FCF780
:104A2000A7F800BFC80D0020DCBC00080000000093
:104A3000F8B501234E4C00202360FFF799FBB0FA34
:104A400080F04C494009FBF7BBFE00B1F8BDFFF711
:104A5000D7FBB0FA80F047494009FBF7B1FE0546A5
:104A60000028F3D1444EB76972B6202383F311882E
:104A700062B6FFF76DF97B6B01335BD0FFF718F976
:104A80003368B34204D0B2699B6892689A424ED3AD
:104A9000002383F31188012528463649FBF790FE51
:104AA0000028D3D102234FF4FA702360FFF760FB94
:104AB000B0FA80F02F494009FBF782FE0028C5D1EB
:104AC0004FF4FA70FFF79CFBB0FA80F029494009D7
:104AD000FBF776FE04460028B8D1B56972B62023EC
:104AE00083F3118862B6FFF733F96B6B013309D09A
:104AF0004FF0FF334FF4FA710B206B62FEF7A8FD05
:104B0000002826DB00236B63FFF7D2F83368B3423B
:104B100004D0B2699B6892689A4208D3002383F359
:104B2000118820461349BDE8F840FBF749BE1348F9
:104B3000FCF71EF87D63FFF7BBF83368B34204D07F
:104B4000B2699B6892689A42F1D3002383F311887B
:104B5000A2E7FFF7ADF83368B34204D0B2699B68AF
:104B600092689A42E3D3002383F311880124D8E7A3
:104B70006C1F002080D80008C80D002034BC00083D
:104B800010B5044672B6202383F3118862B6FFF78E
:104B9000DFF8FCF7FDF8A368002B13DDFFF770F8D2
:104BA000FFF786F8094B1A689A4204D0996993680E
:104BB0008A689A4203D3002383F3118810BD044806
:104BC000FBF7D6FF2046FCF7B3FAE7E7C80D002055
:104BD000B8BC000800000000000000000000000059
:104BE00070B5464E0125356072B6202383F31188D7
:104BF00062B6434CFFF7ACF82846FCF7C1FA05460D
:104C0000FFF756F82368A34204D0A2699B68926814
:104C10009A4243D3002383F3118885F00100394978
:104C2000C0B2FBF7CDFD00B170BD0225356072B694
:104C3000202383F3118862B6FFF78AF82846FCF731
:104C40009FFA0546FFF734F82368A34204D0A2690F
:104C50009B6892689A4221D3002383F3118885F0E0
:104C600001002949C0B2FBF7ABFD0028DCD10323CA
:104C7000336072B6202383F3118862B6FFF768F8B9
:104C80000420FCF77DFA0546FFF712F82368A342DB
:104C900007D0A2699B6892689A4202D21B48FBF730
:104CA00067FF002383F3118885F001001849C0B223
:104CB000FBF786FD0028B7D10423336072B62023AA
:104CC00083F3118862B6FFF743F80820FCF758FA1F
:104CD0000546FEF7EDFF2368A34204D0A2699B6856
:104CE00092689A42DAD3002383F3118885F0010099
:104CF0000849C0B2BDE87040FBF762BD6C1F0020E0
:104D0000C80D002038D4000850D4000894BC000816
:104D100074D4000890D400080000000000000000D7
:104D20002DE9F843144C2027144E4FF0000804F1ED
:104D3000140954F8045BBDB172B687F3118862B6EA
:104D4000FFF706F895F8213043F0040385F8213089
:104D5000FEF7AEFF3368B34204D0B2699B68926835
:104D60009A4205D388F311884C45E2D1BDE8F88317
:104D70000348FBF7FDFE00BF841F0020C80D002084
:104D800004BC00080000000000000000000000005B
:104D900010B5044672B6202383F3118862B6FEF77D
:104DA000D7FF0D4A0D4913688B4202D2591C1C7063
:104DB0001160FEF77DFF0A4B1A689A4204D0996988
:104DC00093688A689A4203D3002383F3118810BD45
:104DD0000448FBF7CDFE00BF801F0020801F00208D
:104DE000C80D00207CBC000800000000000000008E
:104DF0002DE9F04F0123C44E83B0336072B62023F7
:104E000083F3118862B6C14CFEF7A2FFFBF7C0FF27
:104E1000FBF7BEFF2069BE49D4E900239B1AC0EB13
:104E2000A300A0F10400B0FA80F04009FBF7C8FC31
:104E3000002840F02B82B74DFEF73AFF2B68AB42BB
:104E400005D0AA699B6892689A42C0F02A82002322
:104E500083F311880223336072B6202383F3118811
:104E600062B6FEF775FFFDF77BFAFEF721FF2B68B0
:104E7000AB4205D0AA699B6892689A42C0F0118241
:104E8000002383F3118872B6202383F3118862B65E
:104E9000FEF75EFFFBF77CFFFBF77AFF20699E4978
:104EA000D4E900239B1AC0EBA300A0F10400B0FAE0
:104EB00080F04009FBF784FC002840F0D781FEF722
:104EC000F7FE2B68AB4205D0AA699B6892689A42AC
:104ED000C0F0E781002383F3118872B6202383F3A7
:104EE000118862B6FEF734FFFBF752FF20698B4949
:104EF000B0FA80F04009FBF763FC002840F0B6816F
:104F0000FEF7D6FE2B68AB4205D0AA699B68926873
:104F10009A42C0F0C681002383F3118872B6202321
:104F200083F3118862B6FEF713FF2068A3687C49FB
:104F3000C01AB0FA80F04009FBF742FC002840F0AC
:104F40009581FEF7B5FE2B68AB4205D0AA699B6838
:104F500092689A42C0F0A581002383F3118872B64B
:104F6000202383F3118862B6FEF7F2FE2068E3681F
:104F70006C49C01AB0FA80F04009FBF721FC002808
:104F800040F07481FEF794FE2B68AB4205D0AA690D
:104F90009B6892689A42C0F08481002383F3118851
:104FA00003229A4642274FF02008DFF87CB1237590
:104FB000326072B688F3118862B6FEF7C9FE3846D1
:104FC000FDF7E6F98146FEF773FE2A68AA4205D08E
:104FD000AB6992689B689342C0F063818AF3118841
:104FE000B9FA89F059464009FBF7EAFB002840F07E
:104FF0004A810137452FDCD172B6202383F3118813
:1050000062B6FEF7A5FE4120FDF7F2F90746FEF76E
:105010004FFE2B68AB4205D0AA699B6892689A4202
:10502000C0F03F81002383F31188B7FA87F03E492F
:105030004009FBF7C5FB002840F0258104233360BD
:1050400072B6202383F3118862B6FEF781FEFBF768
:105050009FFEFBF79DFE2269D4E900135B1A3349DA
:10506000B2EBA30F0CBF01200020FBF7A9FB002827
:1050700040F0FC80FEF71CFE2B68AB4205D0AA690D
:105080009B6892689A42C0F00C81002383F31188D8
:1050900072B6202383F3118862B6FEF759FEFBF740
:1050A00077FE20692249A0F1040CDCF1000040EBFE
:1050B0000C00FBF785FB002840F0D880FEF7F8FDD8
:1050C0002B68AB4205D0AA699B6892689A42C0F0EF
:1050D000E880002383F3118872B6202383F31188BC
:1050E00062B6FEF735FE1349D4E90230C71A78429A
:1050F0007841FBF765FB002840F0D680FEF7D8FD2D
:105100002B68AB421ED017E06C1F00205804012012
:10511000D8C50008C80D0020E4C50008F0C5000887
:10512000FCC5000820C60008A0C6000844C6000848
:1051300050C600085CC60008AA699B6892689A423B
:10514000C0F0AF80002383F311880522984604271E
:105150004FF0200ADFF86091326072B68AF311884E
:1051600062B6FEF7F5FD01A8FBF702FF8346FEF7E6
:105170009FFD2B68AB4205D0AA699B6892689A4252
:10518000C0F08F8088F31188BBFA8BF04946400944
:10519000FBF716FB002876D19DF80400FFF7F8FD19
:1051A000013FDAD142494348FBF7AAFB00286AD104
:1051B00006234FF0FF3146203360FFF7A1F8B0FA25
:1051C00080F03D494009FBF7FBFA00285BD14FF026
:1051D000FF3101A8FFF744F9B0FA80F036494009E1
:1051E000FBF7EEFA00284ED10723336072B6202574
:1051F00085F3118862B6FEF7ABFDFBF7C9FDFBF73F
:10520000C7FD2369D4E90012521A2C49C3EBA2034B
:105210001E1F70427041FBF7D3FA002844D1FEF7FD
:1052200057FD72B685F3118862B6FEF791FDFBF764
:10523000AFFD20692249B0FA80F04009FBF7C0FABF
:10524000002831D1FEF744FD2068A3681D49C21A29
:1052500050425041FBF7B4FAA8B92068E3681A49F4
:10526000C31A58425841FBF7ABFA0CE0FEF720FD99
:105270002B68AB4204D0AA699B6892689A4210D30B
:10528000002383F3118803B0BDE8F08FFEF710FD13
:105290000E4B1A689A42F3D0996993688A689A42C9
:1052A000EED20B48FBF764FCFEF712FDEBE700BF04
:1052B00074C6000888C60008A0C60008E4C5000837
:1052C000F0C50008FCC5000820C60008C80D002075
:1052D000E8BC000800000000000000000000000022
:1052E000F0B50123C34E83B0336072B6202383F33D
:1052F000118862B6C04CFEF72BFDFBF749FDFBF7AA
:1053000047FD2069BD49D4E900239B1AC0EBA300E7
:10531000A0F10400B0FA80F04009FBF751FA002830
:1053200040F0D581B64DFEF7C3FC2B68AB4205D0EB
:10533000AA699B6892689A42C0F0E381002383F3D4
:10534000118802233360FEF79BFF72B6202383F39C
:10535000118862B6FEF7FCFCFBF71AFDFBF718FD9F
:105360002069A849D4E900239B1AC0EBA300A0F14F
:105370000400B0FA80F04009FBF722FA002840F060
:10538000B681FEF795FC2B68AB4205D0AA699B68F5
:1053900092689A42C0F0B581002383F3118872B6F7
:1053A000202383F3118862B6FEF7D2FCFBF7F0FCF2
:1053B00020699549B0FA80F04009FBF701FA00280E
:1053C00040F09581FEF774FC2B68AB4205D0AA69CA
:1053D0009B6892689A42C0F09481002383F31188FD
:1053E00072B6202383F3118862B6FEF7B1FC206801
:1053F000A3688649C01AB0FA80F04009FBF7E0F9CB
:10540000002840F07481FEF753FC2B68AB4205D0B6
:10541000AA699B6892689A42C0F07381002383F363
:10542000118872B6202383F3118862B6FEF790FCD0
:105430002068E3687649C01AB0FA80F04009FBF7AB
:10544000BFF9002840F05381FEF732FC2B68AB42D5
:1054500005D0AA699B6892689A42C0F052810020E8
:1054600080F3118803234FF0FF313360FEF748FFCC
:10547000851C684914BF00200120FBF7A1F9002812
:1054800040F033814FF0FF31FEF792FF821C6149FB
:1054900014BF00200120FBF793F9002840F025817C
:1054A0004FF0FF3101A8FEF7DBFF831C594914BF01
:1054B00000200120FBF784F9002840F01681042326
:1054C0004225554F207533604FF0FF312846FEF7D7
:1054D00017FFB0FA80F039464009FBF771F9002850
:1054E00040F003810135452DEED14FF0FF314120D1
:1054F000FEF75EFFB0FA80F047494009FBF760F91C
:10550000002840F0F2800523336072B6202585F331
:10551000118862B6FEF71CFCFBF73AFCFBF738FC7F
:105520002269D4E900135B1A3C49B2EBA30F0CBF0C
:1055300001200020FBF744F9002840F0E580FEF749
:10554000C7FB72B685F3118862B6FEF701FCFBF764
:105550001FFC20693249A0F1040CDCF1000040EB93
:105560000C00FBF72DF9002840F0CE80FEF7B0FBD1
:1055700072B685F3118862B6FEF7EAFB2949D4E9D1
:105580000230C71A78427841FBF71AF9002840F038
:10559000BB80FEF79DFB042506231F4F33604FF0B1
:1055A000FF3101A8FEF75CFFB0FA80F039464009F0
:1055B000FBF706F9002840F098809DF80400FFF7FB
:1055C000E7FB013DEBD118491848FBF799F9002892
:1055D00040F08B8007234FF0FF3146203360FEF709
:1055E0008FFEB0FA80F00C494009FBF7E9F800287B
:1055F0007BD11DE06C1F002058040120D8C5000895
:10560000C80D0020E4C50008F0C50008FCC500086E
:1056100020C60008B4C50008A0C6000844C600089B
:1056200050C600085CC6000874C6000888C600089A
:105630004FF0FF3101A8FEF713FFB0FA80F03449B4
:105640004009FBF7BDF800284FD10823336072B63C
:10565000202585F3118862B6FEF77AFBFBF798FBED
:10566000FBF796FB2369D4E90012521A2949C3EBD0
:10567000A2031E1F70427041FBF7A2F8002843D11D
:10568000FEF726FB72B685F3118862B6FEF760FB63
:10569000FBF77EFB20692049B0FA80F04009FBF758
:1056A0008FF8002830D1FEF713FB2068A3681B4950
:1056B000C21A50425041FBF783F8B0B92068E36842
:1056C0001749C31A58425841FBF77AF80DE0FEF724
:1056D000EFFA144B1A689A4204D0996993688A6861
:1056E0009A420ED3002383F3118803B0F0BDFEF776
:1056F000DFFA2B68AB42F5D0AA699B6892689A42A0
:10570000F0D20948FBF734FAFEF7E2FAEDE700BF02
:10571000A0C60008E4C50008F0C50008FCC50008E4
:1057200020C60008C80D0020E8BC000800000000EA
:105730004320FFF72DBB00BF000000000000000069
:105740004220FFF725BB00BF000000000000000062
:105750004120FFF71DBB00BF00000000000000005B
:1057600010B5044672B6202383F3118862B6FEF7A3
:10577000EFFA144A13684BB193F8201003291AD199
:105780000021184659621160FBF7B2FBFEF778FA68
:10579000FEF78EFA0C4B1A689A4204D09969936806
:1057A0008A689A420AD3002383F311882078BDE8DF
:1057B0001040FFF7EDBA0548FBF7DAF90448FBF7AC
:1057C000D7F900BF981F0020C80D002094BF000823
:1057D000ACBC000800000000000000000000000059
:1057E0000078FFF7D5BA00BF0000000000000000FD
:1057F000FFF7F6BF000000000000000000000000FE
:10580000002903DD134A1449FDF742BB38B50446AD
:1058100072B6202383F3118862B6FEF799FA4FF02F
:1058200080435D6AFEF744FA0C4B1968994204D034
:105830009A698B6892689A4209D3002383F311888E
:1058400007492A462046BDE83840FDF721BB0548F8
:10585000FBF78EF924C4000870C20008C80D0020B0
:105860002CC4000838BD0008000000000000000043
:1058700038B504460D4672B6202383F3118862B60C
:10588000FEF766FA294604F10C00FBF791FA204670
:10589000FBF74EFCFEF7F4F9FEF70AFA074B1A681D
:1058A0009A4204D0996993688A689A4203D3002384
:1058B00083F3118838BD0248FBF75AF9C80D002060
:1058C00070BC0008000000000000000000000000A4
:1058D0002DE9F041304E0123DFF8D880042537460A
:1058E0002E4CC8F8003021463846FFF7C1FF336917
:1058F000013D1C44F7D102230424294DC8F800308F
:105900000020FEF705FE0030294618BF0120FAF7F7
:1059100057FF00283DD1013CF2D10323C8F80030E5
:10592000FEF7F6FDB0FA80F01E494009FAF748FF8D
:1059300078BB042419491848C8F80040FFF798FFBD
:1059400019491548FFF794FF18491348FFF790FFCE
:1059500017491148FFF78CFF114D0523C8F8003097
:105960000020FEF7D5FD0030294618BF0120FAF7C8
:1059700027FF70B9013CF3D10623C8F80030FEF7C9
:10598000C7FDB0FA80F007494009BDE8F041FAF7D9
:1059900017BFBDE8F08100BF1404012028180020C3
:1059A000F4C6000810C700082C180020301800208A
:1059B000341800206C1F00200000000000000000D0
:1059C00038B504460D4672B6202383F3118862B6BB
:1059D000FEF7BEF929462046FBF7EAF9FEF768F91B
:1059E000074B1A689A4204D0996993688A689A4268
:1059F00003D3002383F3118838BD0248FBF7B8F8BE
:105A0000C80D002070BC000800000000000000006D
:105A100010B5A0B1436893B1013B436073B90C4624
:105A200002E098420ED01C4623689942F9D100202A
:105A3000BDE8104001461046FFF7C2BF10BD054843
:105A4000FBF796F80368014610462360BDE8104056
:105A5000FFF7B6BFCCBF0008000000000000000048
:105A600038B5054672B6202383F3118862B6FEF777
:105A70006FF9FBF78DF92C68A4B123682B60FEF752
:105A800017F90C4B1A689A4204D0996993688A688E
:105A90009A4204D3002383F31188204638BD064878
:105AA000FBF766F8EB68002BE9D0D5E901019847D0
:105AB0000446E4E7C80D002070BC000800000000A8
:105AC000F0B5214D87B007460E4628461446FFF72D
:105AD000C7FF002835D06B681C4A0344009701902B
