:020000040800F2
:1000000000040020790200087B0200087A02000840
:100010007A0200087A0200087A0200087A020008D0
:100020007A0200087A0200087A02000811340008F7
:100030007A0200087A0200087A0200087A020008B0
:100040007A0200087A0200087A0200087A020008A0
:100050007A0200087A0200087A0200087A02000890
:100060007A0200087A0200087A0200087A02000880
:100070007A0200087A0200087A0200087A02000870
:100080007A0200087A0200087A0200087A02000860
:100090007A0200087A0200087A0200087A02000850
:1000A0007A0200087A0200087A0200087A02000840
:1000B00011AE00087A0200087A0200087A020008ED
:1000C0007A0200087A0200087A0200087A02000820
:1000D0007A0200087A0200087A0200087A02000810
:1000E0007A0200087A0200087A0200087A02000800
:1000F0007A0200087A0200087A0200087A020008F0
:100100007A0200087A0200087A0200087A020008DF
:100110007A0200087A0200087A0200087A020008CF
:100120007A0200087A0200087A0200087A020008BF
:100130007A0200087A0200087A0200087A020008AF
:100140007A0200087A0200087A0200087A0200089F
:100150007A0200087A0200087A0200087A0200088F
:100160007A0200087A0200087A020008E1AA000870
:100170007A0200087A0200087A0200087A0200086F
:100180007A0200087A0200087A0200087A0200085F
:100190007A0200087A0200087A0200087A0200084F
:1001A00072B6274880F30888264880F309882648D5
:1001B0004EF60851CEF200010860022080F3148848
:1001C000BFF36F8F0AF0E4FE0AF0BAFB4FF0553030
:1001D0001E491B4A91423CBF41F8040BFAE71C49F7
:1001E000184A91423CBF41F8040BFAE719491A4AF0
:1001F0001A4B9A423EBF51F8040B42F8040BF8E741
:1002000000201749174A91423CBF41F8040BFAE716
:100210000AF076FE0AF0B4FE134C144DAC4203DA39
:1002200054F8041B8847F9E708F0B2F9104C114D57
:10023000AC4203DA54F8041B8847F9E70AF098BE89
:10024000000400200008002000000008000000203A
:1002500000040020CCDF000800080020980C0020DB
:10026000980C0020F8240020A0010008A00100083C
:10027000A0010008A001000892E700F000F8FEE7E6
:100280002DE9F04FC1F80CD0C3689D46BDE8F08F52
:1002900003F026F9002383F311882846A0470020A5
:1002A00007F0EEFC03F084F903F0C2F803F018F94C
:1002B00000DFFEE7844641EA000313F003036DD13B
:1002C000403A41D351F8043B40F8043B51F8043B19
:1002D00040F8043B51F8043B40F8043B51F8043B20
:1002E00040F8043B51F8043B40F8043B51F8043B10
:1002F00040F8043B51F8043B40F8043B51F8043B00
:1003000040F8043B51F8043B40F8043B51F8043BEF
:1003100040F8043B51F8043B40F8043B51F8043BDF
:1003200040F8043B51F8043B40F8043B51F8043BCF
:1003300040F8043B51F8043B40F8043B51F8043BBF
:1003400040F8043B403ABDD2303211D351F8043B5F
:1003500040F8043B51F8043B40F8043B51F8043B9F
:1003600040F8043B51F8043B40F8043B103AEDD20E
:100370000C3205D351F8043B40F8043B043AF9D25F
:10038000043208D0D2071CBF11F8013B00F8013B32
:1003900001D30B8803806046704700BF082A13D33F
:1003A0008B078DD010F003038AD0C3F10403D21A57
:1003B000DB071CBF11F8013B00F8013B80D331F88B
:1003C000023B20F8023B7BE7043AD9D3013A11F80B
:1003D000013B00F8013BF9D20B7803704B78437076
:1003E0008B788370604670470000000000000000BA
:1003F00000000000000000000000000000000000FD
:10040000A2EB0300704700BF02780B78012A28BFD7
:100410009A42F5D16DE9044540EA0104CDE902674D
:100420006FF0000C4FEA447212B380EA010414F03A
:10043000070F6AD100F0070420F0070004F003055D
:1004400021F007014FEAC505F0E8042314F0040F7A
:10045000F1E804670CFA05F462EA040266EA0406AD
:100460000AD063EA0403624667EA0407664603E0CB
:10047000F0E80423F1E8046782FA4CF582EA060406
:10048000A4FA8CF46CBB83FA4CF583EA0705A5FA51
:100490008CF595B950E9022351E9026782FA4CF5CF
:1004A00082EA0604A4FA8CF483FA4CF583EA070581
:1004B000A5FA8CF52543DBD09CB92DBAB5FA85F4A5
:1004C00024F0070427FA04F1DDE9026723FA04F3B4
:1004D00003F0FF0001F0FF01FDE80445A0EB01007F
:1004E000704724BAB4FA84F424F0070426FA04F11D
:1004F000DDE9026722FA04F202F0FF0001F0FF01D9
:10050000FDE80445A0EB0100704714F0030F3CD157
:1005100010F0030428D150F8082B51F8083B82FA58
:100520004CF582EA0305A5FA8CF55DB950F8042C68
:1005300051F8043C82FA4CF582EA0305A5FA8CF5E1
:10054000002DE8D02DBAB5FA85F424F0070423FA7B
:1005500004F122FA04F202F0FF0001F0FF01FDE8CD
:100560000445A0EB010070474FEAC40420F00300EB
:1005700050F8082B21F0030151F8083B0CFA04F461
:1005800062EA040263EA0403C9E710F003041AD024
:10059000A1EB040120F00300E40750F8042B06D07F
:1005A0000FD28B785FFAA2F4E41A06D12BB1CB7884
:1005B0005FFAB2F4E41A00D11BB920465DF8104B83
:1005C000704701F1040150F8042BCC0721F003011E
:1005D00051F8043B48D824D222F07F4482FA4CF5EB
:1005E00094EA1325A5FA8CF50AD165B951F8043BB4
:1005F00084EA0204B4EB036F0ED150F8042BEBE74E
:100600004FEA132355E035F07F454DD10878FDE8DA
:100610000445C0F1000070474FEA126203F0FF0387
:1006200047E002EA1C4482FA4CF594EA1345A5FA25
:100630008CF50AD165B951F8043B84EA0204B4EBA5
:10064000034F0CD150F8042BEBE74FEA134330E093
:1006500015EA1C4528D10B884FEA124229E04FEADF
:10066000124203EA1C4324E002F0FF0482FA4CF534
:1006700094EA1365A5FA8CF50AD165B951F8043BE3
:1006800084EA0204B4EB032F09D150F8042BEBE702
:100690004FEA13630DE015F0FF0F05D10B684FEA29
:1006A000122223F07F4304E04FF00000FDE80445F0
:1006B000704712BA1BBA82FA4CF482EA0304A4FA15
:1006C0008CF5B5FA85F402FA04F203FA04F34FEA62
:1006D0001260FDE80445A0EB1360704700000000C5
:1006E000014B5B6883607047001000E00000000071
:1006F0004FF08043091A5B6A1B1A8B4208D30549E5
:10070000054A064B064808600120107018707047B3
:1007100000207047AC22002050230020B02200208F
:1007200080B8000800000000000000000000000089
:1007300000207047000000000000000000000000E2
:10074000704700BF00000000000000000000000033
:10075000014B00221A607047802300200000000037
:1007600048B910B4054A064C064B012020701070A1
:10077000196010BC70470020704700BFB0220020F5
:1007800050230020AC2200200000000000000000E8
:10079000044B01214FF080421960516A536A99421B
:1007A000FCD070475423002000000000000000002F
:1007B00020B370B584B06D462C46114E00E014464F
:1007C000A6FB0023DB0803EB8301A0EB410000F153
:1007D00030012246C9B202F8011B1846002BEED1A7
:1007E000AA4209D9074E01E014F8011D30680368D8
:1007F000DB689847A542F7D104B070BD704700BFD1
:10080000CDCCCCCCA82200200000000000000000CD
:1008100028B9044B186803683021DB681847FFF7D4
:10082000C7BF00BFA8220020000000000000000099
:1008300070B5017889B10A4D044628680368DB6801
:10084000984714F8011F0029F7D128680549036863
:1008500002225B68BDE870401847014DF5E700BF14
:10086000A82200206CBB000800000000000000006F
:10087000017859B138B5064D044628680368DB682D
:10088000984714F8011F0029F7D138BD704700BF01
:10089000A82200200000000000000000000000006E
:1008A000F0B40D4E0D4F3568421E3B4603E013F881
:1008B000014B844207D19D4212F8010FF7D810B9BD
:1008C0003760F0BC7047064C064A074B0120207089
:1008D00010701960F0BC7047682300205823002076
:1008E00050230020B0220020AC2200200000000095
:1008F00070B5084D4C24286803682D21DB689847A3
:10090000013CF8D128680449036802225B68BDE80D
:1009100070401847A82200206CBB000800000000AF
:10092000022906D0032906D00129064818BF002055
:10093000704705487047032A9ABF044800EBC2007D
:1009400000207047F8DE0008ACDE000880DF0008F9
:10095000202383F311880F4B5B6813F4006302D1EB
:1009600083F311887047EFF309834FF0807243F8E7
:10097000042CA3F1200282F30988074A11689269C6
:100980008968926891428CBF044A054A43F8082C52
:10099000704700BF00ED00E0B0110020A502000884
:1009A000B00200080000000000000000000000008D
:1009B0000E4B0F4A5B68C168F0B48468D2F8846853
:1009C00042681B1BD0E904459B1BE61845F1000754
:1009D0009342026888BF436001319342C0E90467D3
:1009E000C0E9023138BF0360F0BC7047001000E07E
:1009F000B011002000000000000000000000000016
:100A000010B40B4A0B48D36B4FF080441968646AEA
:100A10005C60406860F31F2143F8101B02F504611D
:100A20008B4228BF02F14003D36310BC704700BF64
:100A3000B0110020001000E00000000000000000E5
:100A40000B4B1A8FD20700D57047D96B30B40A7898
:100A5000446A012565F302020A7090F8200060F3F1
:100A6000C7020A709B69C1E9023430BCFFF7C8BFF6
:100A7000B011002000000000000000000000000095
:100A8000094A138F10B513F0020400D010BD2023C3
:100A900083F31188D36B032298601A70FFF7B0FFBD
:100AA00084F3118810BD00BFB011002000000000C9
:100AB000094A138F10B513F0020400D010BD202393
:100AC00083F31188D36B022298601A70FFF798FFA6
:100AD00084F3118810BD00BFB01100200000000099
:100AE00008B5054672B6064C238F5B0701D5E56253
:100AF000FEE7E36B042298601A70FFF781FFF6E7C8
:100B0000B011002000000000000000000000000004
:100B1000054B00220421C3E90033DA609A619A6030
:100B2000C3E90411704700BF140C0020000000004E
:100B3000FFF7EEBF00000000000000000000000012
:100B400008B5054B1A6B1AB95B6B002B00DD08BDAD
:100B50000248FFF7C5FF00BFB0110020A0B8000891
:100B600008B5054B1A6B002A03DB5B6B002B00DD1D
:100B700008BD0248FFF7B4FFB011002098B8000884
:100B800038B504460D46FFF7EBFF44B13DB1A3680D
:100B9000013B1D4203D123682B60256038BD01480D
:100BA000FFF79EFFD0B40008000000000000000026
:100BB000F8B50E4604461546FFF7D2FFB6B106F16A
:100BC000FF3C1CEA060C11D10B4FD7E9002350194A
:100BD000013C304471423444013808402140014412
:100BE0008B4206D38A4204D83960F8BD0348FFF728
:100BF00077FF6046F8BD00BF581B00205CB40008BA
:100C00000022FFF7D5BF00BF000000000000000079
:100C1000F8B50446FFF7A4FF65686B0703D1A36826
:100C200013F0070002D02148FFF75AFF9D42FAD285
:100C30005A1BC72AF7D9E168FF29F4D82669002E84
:100C4000F1D01B4A676943F86C6C4FF0020E4FF00D
:100C5000010C266803F8270C03F828EC03F826CCCF
:100C600043F8382C43F82C5CA3F16C04556943F825
:100C7000687C43F8306C43F8401C43F80C1C43F884
:100C80003C4CA3F14801A3F11C040A4F43F8345C27
:100C9000A3F1200643E9050043F84C7C084629618E
:100CA000516143E9086443F8184CF8BD7CB400086E
:100CB000B0110020910200080000000000000000B8
:100CC00010B50446FFF74CFFA4B194F820308BB167
:100CD0000F2B0FD00022A168084B84F820201B683E
:100CE0009A688A42FBD25A682046C4E900321460EE
:100CF0005C6010BD0248FFF7F3FE00BFB01100209A
:100D000008B400080000000000000000000000001F
:100D100008B50368984209D01A680260506093F8D9
:100D20002020042A03D00548FFF7DAFE08BD002280
:100D30005A621846BDE80840FFF7C2BFA0B30008DA
:100D400038B5114C0546FFF70BFF237DB3B9FFF70C
:100D500007FF2269AAB1E3686168186804338B420F
:100D6000E36002F1FF32286028BF2368074828BFEC
:100D7000E3602261FFF7CCFF002038BD6FF0010077
:100D800038BD4FF0FF3038BD580C0020700C0020EB
:100D900038B5036898420AD01A680260506093F828
:100DA0002020042A044603D00B48FFF799FE38BDE3
:100DB0006FF001055D621846FFF782FF23689C42D1
:100DC000F5D01A682260546093F82020042AF1D0EC
:100DD0000148FFF785FE00BFA0B300080000000037
:100DE00038B504460D46FFF7BBFEBCB1616B94F805
:100DF000203029430A2B61630CD00B2B00D038BD67
:100E0000636A8B43FBD1002363622046BDE8384010
:100E1000FFF756BF636A1942F5D1F0E70148FFF7C3
:100E20005FFE00BFC8B50008000000000000000021
:100E300070B506460D46FFF793FE8EB13468A642A4
:100E40000DD0E3682B43E36015B12269134203D050
:100E5000D4E90101FFF7C4FF2468A642F1D170BDB7
:100E60000148FFF73DFE00BFE8B4000800000000A5
:100E70001E4B2DE9F0410546D3F81880FFF760FEC0
:100E80002DB1D8F8386016B1B368434502D0184880
:100E9000FFF726FEAE42FAD1EC68C8F83840FFF7FB
:100EA0004FFE2F68BD421CD0D8F83C605CB1FFF704
:100EB00047FE23689C4203D09B689E4238BF1E4673
:100EC000E468002CF3D1BA6B3B68C8F80860384678
:100ED0002B605D60C5E90272BD63BDE8F041FFF7BC
:100EE000EFBE0023B360BDE8F08100BFB011002069
:100EF0006CB50008000000000000000000000000C9
:100F000010B50446FFF72CFE2CB1A3682268002B15
:100F100004DBA24204D00A48FFF7E2FDA242FAD065
:100F20000133002BA36000DD10BD13682360002196
:100F30005C6010465162BDE81040FFF7C1BE00BFC3
:100F40004CB5000800000000000000000000000098
:100F500010B50446FFF704FEE20712D5274BD3E98C
:100F6000001099423FD000220968994202F1010223
:100F7000FAD1884235D04068984202F1FF32FAD166
:100F80007ABBA30713D51D48D0E907211C30824244
:100F90002DD000231268824203F10103FAD191425D
:100FA0001FD04968814203F1FF33FAD1CBB914F065
:100FB000040015D0114BD3E904219A424FF00000F0
:100FC00019D012699A4200F10100FAD1914208D079
:100FD0004969994200F1FF30FAD1003018BF012071
:100FE00010BD012010BD9842CBD00022C3E7814242
:100FF000DDD00023D5E79142EAD110BDB011002029
:1010000008B5202383F31188064A136B002B01DDFA
:10101000516B11B10448FFF763FD013B136381F38A
:10102000118808BDB011002050B800080000000071
:1010300008B5202383F31188064A136B002B01DBCC
:10104000516B11B10448FFF74BFD0133136381F37A
:10105000118808BDB011002048B800080000000049
:1010600008B5064B1A6B002A05DD5A6B002A02DD13
:1010700000225A6308BD0248FFF732FDB01100207C
:1010800078B8000800000000000000000000000028
:1010900008B5064B1A6B002A01DD5A6B12B10448E1
:1010A000FFF71EFD01225A6308BD00BFB0110020EA
:1010B00060B8000800000000000000000000000010
:1010C00038B50446202383F31188FFF7E1FF94F835
:1010D0002030072B10D8DFE803F0150F0F1B0A0490
:1010E0000F0A656AFFF73CFDAB680133AB60D4E9DA
:1010F00000231A60226853604FF0FF33636220467A
:10110000FFF7DEFDFFF7ACFF002383F3118838BD46
:10111000636A00221A604FF0FF3363622046FFF7D4
:10112000CFFDEFE70000000000000000000000001D
:1011300008B5044B1A6B0AB95B6B13B10248FFF791
:10114000CFFC08BDB011002040B80008000000002E
:1011500008B5044B1A6B0AB95B6B13B10248FFF771
:10116000BFFC08BDB011002068B8000800000000F6
:1011700038B50E4B01221A60202484F3118862B620
:10118000FFF7E6FF72B60A4B1A6B0AB95D6B15B131
:101190000848FFF7A5FC84F3118862B6FFF7D8FF73
:1011A000FFF7C6FF85F3118862B638BD54230020CF
:1011B000B011002054CB0008000000000000000027
:1011C000FEE700BF0000000000000000000000007B
:1011D00000EB810370B5DD682B6803F00303022B7D
:1011E00070D0032B6BD0012B5AD04FF40073364ACA
:1011F0006C69126D02F1804202F5C04202EB0112ED
:1012000084B12C8A00265660D0F88460013424F022
:1012100001043444B4F5007FC0F8844043D816601C
:1012200043F02003AC69DCB16D8A3E2D05F1FF343B
:101230003CD944F01F040134244E641146EA84244E
:10124000A4B2D460D0F88440013525F001052544CE
:10125000B5F5007FC0F8845025D8946043F400535E
:101260008A0002F1804202F5B84210684404106816
:1012700048BF43F48043400648BF43F0400319434E
:1012800021F4784148F2800021F0F001014311601F
:10129000116847F6700423404B400343136070BD50
:1012A0000B48FFF71DFC0B48FFF71AFC44F0010444
:1012B000013404EBD474640204F47C44C1E74FF4B9
:1012C000C06394E7002392E7005C00400080FFFFCA
:1012D000A8B70008E4B60008000000000000000005
:1012E00041680D4BC96870B400294FF080054FF07C
:1012F00000011965094C596408BF4FF41C46DD64B0
:1013000018BF4FF41E4640251E64C0F88450C460C8
:1013100070BCFFF75DBF00BF005C004080BB0008F1
:10132000F8B507460C4615461E46FFF719FC002F78
:1013300047D0072C45D80123A3403A899BB212EA33
:1013400003003ED107EB84011343CA68DFF87CC079
:10135000118A52693B81B142C2E9006028BF31461F
:10136000D160DCF85030956003F1804303F5C04351
:1013700003EB04131868596000F1005000F5405069
:10138000400061B101394908031D03EB810100E010
:10139000043335F8022B026099421846F8D1A400B4
:1013A00004F1804404F5B844236823F4F04323F0A7
:1013B000400383F0300343F4004343F08003236091
:1013C000F8BD0148FFF78CFBF0B70008005C004057
:1013D000F8B590F864101429044637D0152921D0A7
:1013E000062902D01F48FFF77BFB1F4E4268336877
:1013F000156823F4F04323F0400383F0100248F211
:1014000080073A433260336823F4904323F070033B
:1014100083F480533B43336005B1A847062384F827
:101420006430F8BD0B2380F86430202383F31188E7
:10143000FFF72EFE00231A4619462046FFF770FFDD
:10144000FFF70EFE002383F31188F8BDC3689B6984
:101450005B68002BE5D1036F03B19847002384F844
:101460006430F8BD34B80008005C004000000000A3
:10147000F8B505460C4617461E46FFF771FB65B3E7
:10148000072C2AD8012101FA04F36A899BB212EAD7
:10149000030022D105EB840C1343DCF80C206B8194
:1014A00093699F60C3E90060D6B1528A013E164439
:1014B000B6FBF2F69E81A40004F1804404F5B84422
:1014C000236823F4904323F0700383F4405343F4E0
:1014D000004343F080032360F8BD0248FFF700FBA0
:1014E0009981E8E7C0B70008000000000000000094
:1014F00038B590F86430063B0446052B04D8DFE885
:1015000003F02B030306174A3048FFF7E9FA90F877
:101510007B1090F87A30C26E43EA01239A4207D2D8
:10152000C3681B8AB2FBF3F503FB1525002D39D0E8
:10153000142384F86430202383F31188FFF7A8FD77
:1015400000231A4619462046FFF792FFFFF788FD51
:10155000002383F3118838BD1D4942680B68156864
:1015600023F4F04323F0400383F0100248F280009C
:1015700002430A600B6823F4904323F0700383F462
:10158000805303430B6015B106212046A84706236C
:1015900084F8643038BD036F03B19847002384F8A2
:1015A000643038BD202383F31188FFF771FD2B468B
:1015B0002A4629462046FFF7B3FEFFF751FD85F383
:1015C00011880A2384F8643038BD00BF28B80008A9
:1015D000005C00400000000000000000000000006F
:1015E00070B590F86430044613B1002380F864307D
:1015F000C84B1B6D03F1804303F5C04303EB01139C
:1016000004F174029B6803F1005303F540535B003F
:1016100003F11000196822F8021B04338342F9D148
:1016200063689B6843B32046984728B3E26E94F8FA
:10163000743094F87B0094F87A1041EA00219142CA
:101640002CBF1146E1661A0600F19A8000296DD080
:10165000152384F86430202383F31188FFF718FDE5
:10166000D4E91A2320460021FFF702FFFFF7F8FC18
:10167000002383F3118870BD94F8743013F0600573
:1016800018461ED0A34962680B68156823F4F0431E
:1016900023F0400383F0100248F2800002430A6006
:1016A0000B6823F4904323F0700383F480530343C7
:1016B0000B6015B106212046A847062384F8643044
:1016C00070BD94F8751003F07F0242EA012240F2E7
:1016D00002318A4200F0FF803CD8022A00F0E38009
:1016E00040F2A780B2F5817F00F0AC80B2F5407F78
:1016F00077D0B2F5807FC5D194F87630012BC1D177
:10170000B4F87C30A56623F00203C4E91B55A4F8A5
:101710007C3009E0B2F5C06F72D2B2F5A06FB1D1E2
:10172000C4E91A557C4B2367030636D40B2384F88F
:101730006430202383F31188FFF7AAFC002320469E
:101740001A460021FFF7ECFDFFF78AFC002383F324
:10175000118870BD40F201618A42DBD9B2F5106F89
:1017600027D040F602418A4200F09680B2F5006F21
:1017700088D104F17F0101222567C4E91A1258E7D4
:1017800059B1092384F86430202383F31188FFF7CB
:101790007FFCD4E91A232046D3E7142384F864306D
:1017A000202383F31188FFF773FC002320461A4699
:1017B00059E72378042B00F0BD8094F876304BB1C4
:1017C0000421626884F87F302170136813B102210C
:1017D000204698470023C4E91A33236794F874001D
:1017E000A2E794F87630012B7FF44CAFB4F87C304C
:1017F000A56643F00203C4E91B55A4F87C3093E7C7
:1018000094F87900616894F878304E6894F87620FE
:1018100094F8771043EA00232046B04700283FF4AD
:1018200031AFD0E900232567C4E91A3294F8743047
:10183000FFE672BB022104F17C002267C4E91A01B1
:101840000A46F6E694F87630002B7FF41BAF94F846
:10185000782012F00F0317D09B0003F1804303F5AB
:10186000B84312F0800F1A6871D102F44052B2F5F9
:10187000405F09D01A6822F4F04222F0400242F49C
:10188000204242F080021A600023C4E91A33236721
:101890004AE7012A7FF4F6AE204AA266002102221E
:1018A000C4E91B21C5E694F8781001F00F0011F08F
:1018B000800F184951F8201034D111F440513FF4F1
:1018C000E1AEB1F5805F33D11549A1660220002158
:1018D000C4E91B01ADE694F87630002B7FF4D2AE5C
:1018E00094F8782012F00F03CED09B0003F18043D0
:1018F00003F5B84312F0800F1A6839D122F49042F0
:1019000022F0700282F4805242F4004242F08002DF
:101910001A60B9E7005C0040011A0008C8DF00083F
:10192000F8BB000811F030013FF4ACAE1029CBD069
:101930002F49CAE7202383F31188FFF7A9FBFFF79C
:101940000FF92378042B1FD02A48FFF7C9F802F0BB
:101950003002302A98D01A6822F4F04222F0400275
:1019600082F0200242F4004242F080021A608BE7CB
:1019700022F4F04222F0400282F0100242F40042CF
:1019800042F080021A607FE7228963892561C4E9F9
:101990000555C4E90755C4E9095502F0010203F0F1
:1019A0000103402122816381C4F88410012248F29E
:1019B0008000930003F1804303F5B84301321968B6
:1019C000082A41EA000119601860F2D1FFF748FBCC
:1019D000002383F311880321626884F87F3021702B
:1019E0001368002B3FF4E9AE20469847E5E600BFB8
:1019F00094B8000878B7000800000000000000005C
:101A000090F87630426880F87E300649126843F0DC
:101A1000800310B50446CB640AB10121904703232B
:101A2000237010BD005C00400000000000000000BA
:101A3000704700BF00000000000000000000000030
:101A400090F8743003F06003202B01D00020704721
:101A500090F87530202BF9D3212B07D8074B8366DC
:101A600007220023C0E91B2301207047222BEDD160
:101A70000023C0E91A33036701207047300C0020AF
:101A800008B518B111B1012903D112B10248FFF70D
:101A900027F8002008BD00BFC4B600080000000001
:101AA000F8B5D0F88C6437683B78042B01D001205E
:101AB000F8BD037A022BFAD133797A89012505FA28
:101AC00003F31342F3D10446FFF74AF8D4E907239E
:101AD0009A4209D00432EAD0384671794FF48073C3
:101AE000FFF7C6FC0020F8BDA369002BDFD1F1E7AA
:101AF000406BFFF7D5BF00BF0000000000000000F2
:101B0000113138B550F82140B4B1202383F3118846
:101B1000FFF7BEFAD4F88C241368527903EB8203E2
:101B2000DB689B695D6845B92046FFF7B9FFFFF7A1
:101B300097FA002383F3118838BD04216018FFF75A
:101B400077F9FFF70DF8A36A043B9D4217D8D4E953
:101B50000732934210D01D60D4E90910A2690344F2
:101B600001328B42A261E36101D3236BE36104F193
:101B70000C00FFF7CDF8D7E7A269002AEBD00148A7
:101B8000FEF7AEFFF4B60008000000000000000001
:101B900070B50D460446FEF7D3FFD5B1E369043BAB
:101BA000AB4216D3E368A3B12369A1691D60E06964
:101BB000E26803448B42236124BF636A2361013AD4
:101BC000236BE2600022A26233B12046BDE8704080
:101BD00018470248FEF784FF70BD00BF04B8000834
:101BE00038B504460D46FEF7BBFFD4E90420824217
:101BF00003D050F8043B2B6038BDE268002AF8D0CF
:101C0000002038BD000000000000000000000000BF
:101C100010B5446BD4F88C2413681978042982B069
:101C200001D002B010BD217A0229FAD111791A89A6
:101C300001238B401342F4D101A904F14400FFF7C2
:101C4000CFFF02460028ECD0D4F88C04019B017928
:101C50000068FFF765FBE4E70000000000000000FB
:101C600010B5202382B083F31188234CFFF710FABC
:101C7000D4F88C2413681978042906D0FFF7F0F9FA
:101C8000002383F3118802B010BD217A0229F5D117
:101C900011791A8901238B401342EFD1FEF760FFBF
:101CA000D4E915329342E9D1226D002AE6D0E26EE2
:101CB000002AE3D0043AD21AE0D01A60D4E917100F
:101CC00003448B42226D636524BFA36E6365013AB2
:101CD000002301A909482265E366FFF781FF024658
:101CE00038B1D4F88C04019B01790068FFF718FB28
:101CF000C4E70348FEF7F4FE980C0020DC0C00203B
:101D0000D8B600080000000000000000000000003D
:101D10002DE9F04100EB810382B09C6A14B30E46BA
:101D20000546202383F3118800EB8107FFF7B0F904
:101D3000201D0821FFF77CF8FB685B691B6804F134
:101D4000440813BB404601A9FFF74AFF68B10246A9
:101D500031462846019BFFF7E3FAFFF781F900239C
:101D600083F3118802B0BDE8F081FB685A691268FC
:101D7000002AF2D01B8A013B1340EED1314605F117
:101D800074022846FFF7CCFAE7E7FEF7E9FED4E94C
:101D900015239A420ED0D4E91721206D0B4401304F
:101DA00093422065A36501D3A36EA3654046FEF769
:101DB000AFFFC7E7226D002AEDD00148FEF790FE85
:101DC00090B70008000000000000000000000000C4
:101DD00010B50446FEF7B4FEE3689BB1D4E90610E3
:101DE0006369E26803448B42636124BF636A636191
:101DF000013A236BE2600022A26233B12046BDE8C3
:101E0000104018470148FEF76BFE10BD24B70008CC
:101E100008B54FF08043DA68920701D5586308BDD2
:101E20000148FEF75DFE00BFB8B6000800000000E4
:101E300010B50446FEF794FEE368002B2FD01B4B31
:101E4000DA69A2420ED0D4E900210A6022681C336C
:101E500000209A425160E06003D0A16893680B446F
:101E6000936010BD1846116840F81C1F0024814281
:101E70004860D46016D094688A68986A14444FF019
:101E800080428C60526A121A9442EAD9A11A01293E
:101E900098BF941C2044BDE81040FFF7B9BF044828
:101EA000FEF71EFE4FF08043DC6010BDB011002035
:101EB00094B40008000000000000000000000000D2
:101EC0002DE9F0410C46064617461D46FEF748FE32
:101ED00074B3DFF8A48035614346022C53F81C5FCD
:101EE000F7604FF0804238BF02249D42516A26D0ED
:101EF000D8F82800AB68091A64181CD2A3422FD85E
:101F00009C4206D9AE4213D02D68E41AAB68A342B6
:101F1000F8D36B68C6E900531E606E60B460AB68AE
:101F20004FF0FF321C1BAC60C8F82420BDE8F081E4
:101F30000F48FEF7D5FD2D68E41AAB68E0E7C8F856
:101F40002810C8E90766B460D36813F00203C6E935
:101F500000550AD10C44022154631361D160E5E7B6
:101F60002044FFF755FFAB68CAE70248FEF7B8FD0B
:101F700014B40008A8B60008B0110020000000004A
:101F800010B5FEF7EDFD074B1A689A4209D01168AB
:101F9000196000244B6010465462BDE81040FEF703
:101FA0008FBE10BD040C00200000000000000000E7
:101FB00010B50A4CFEF7D4FD236804F11800002187
:101FC000012221612275C4E90233FEF7E1FE04F12A
:101FD0002000BDE81040FEF7DBBE00BF580C00201B
:101FE000F8B5134C0746FEF7BBFD237DCBB9FEF7D2
:101FF000B7FDD4E90065FEF7B3FD2369AA1BB3EB77
:10200000A20F11D0A1680B480A1DA26095420F6073
:1020100003F1010398BFA6602361FEF779FE00205B
:10202000F8BD6FF00100F8BD4FF0FF30F8BD00BF04
:10203000580C0020780C0020000000000000000078
:10204000F8B5124C0746FEF78BFD237DC3B9FEF7AA
:1020500087FDD4E90056FEF783FD2269731BB2EBBE
:10206000A30F10D0E3680A48043B9D4288BF331F8A
:10207000E36001321F602261FEF74AFE0020F8BDD6
:102080006FF00100F8BD4FF0FF30F8BD580C002094
:10209000780C00200000000000000000000000009C
:1020A0000B4B0C4AD91D21F00701CB1AC3F5CC63A9
:1020B00010B4002002F10C04DB084B605160086092
:1020C000C2E9034410609060506110BC704700BFCB
:1020D000401C0020C41B0020000000000000000085
:1020E0000B4B0C4AD91D21F00701CB1AC3F1780321
:1020F00010B4002002F10C04DB084B605160086052
:10210000C2E9034410609060506110BC704700BF8A
:10211000D0220020B42200200000000000000000B7
:10212000034B002104221960D960C3E901227047E2
:10213000800C0020000000000000000000000000F3
:1021400030B40A4B0A4A1A6002F1100503F1180470
:10215000002103F120005D60C3E90644C3E90222C7
:10216000C3E908001961197530BC7047580C00208C
:10217000E01B002000000000000000000000000044
:10218000FFF7DEBF000000000000000000000000BC
:10219000FFF7D6BF000000000000000000000000B4
:1021A00070B5344D344C354801232B60FEF760FB8D
:1021B00040F68800FEF7FCFA2046FEF739FB0223C2
:1021C0002F482B60FEF754FB4420FEF7F1FA20461F
:1021D000FEF72EFB03232B482B60FEF749FB142050
:1021E000FEF7E6FA2046FEF723FB042626482E607B
:1021F000FEF73EFB0C20FEF7DBFA2046FEF718FB4D
:10220000052322482B60FEF733FB1020FEF7D0FA9F
:102210002046FEF70DFB06231D482B60FEF728FB2A
:102220000820FEF7C5FA2046FEF702FB07231948EF
:102230002B60FEF71DFB3046FEF7BAFA2046FEF78C
:10224000F7FA082314482B60FEF712FB1420FEF760
:10225000AFFA2046FEF7ECFA092310482B60FEF790
:1022600007FB2820FEF7A4FA2046BDE87040FEF7E1
:10227000DFBA00BF5423002064D1000854D1000805
:102280006CD100087CD100088CD100089CD10008DA
:10229000ACD10008BCD10008CCD10008DCD10008CA
:1022A000024B0022C3E900339A607047001C0020F3
:1022B000024B0122C3E900339A6070472C1C0020B6
:1022C000024B0022C3E900339A6070472C1C0020A7
:1022D000044B00224FF4A4700421C3E901011A60E9
:1022E000DA607047F01B00200000000000000000D2
:1022F000104AF8B50126104F16600725002425FA6C
:1023000004F3DB0711D557F8243083B106FA04F241
:10231000204625EA020501349847002DEFD10749F0
:102320000748BDE8F840FEF7BBBA0134E7E70548C7
:10233000FEF7D6FB54230020ECBB00084CCE00086F
:1023400060CE0008F8B500080000000000000000A2
:102350000649074A074B096000204960C2E900228C
:1023600090609860C3E90033704700BF040C002000
:10237000380C0020480C0020000000000000000085
:10238000044A054B126000215260C3E90033996092
:10239000704700BF040C0020380C00200000000033
:1023A000FFF7EEBF0000000000000000000000008A
:1023B000024B0022C3E900339A607047380C0020BA
:1023C000FFF7F6BF00000000000000000000000062
:1023D000044A054B12600021C2E901219960C3E95A
:1023E00000337047380C0020480C0020000000002B
:1023F000024B0022C3E900339A607047201C002082
:10240000FFF7F6BF00000000000000000000000021
:10241000FFF7EEBF00000000000000000000000019
:10242000FFF7E6BF00000000000000000000000011
:10243000024B0122C3E900339A607047201C002040
:1024400038B5C94BC94CCA4801251D60FEF710FAC2
:102450002020FEF7ADF92046FEF7EAF9C548FEF761
:1024600007FA42F21070FEF7A3F92046FEF7E0F9F2
:10247000C148FEF7FDF92020FEF79AF92046FEF745
:10248000D7F9BE48FEF7F4F92020FEF791F920466F
:10249000FEF7CEF9BA48FEF7EBF90220FEF788F90D
:1024A0002046FEF7C5F9B748FEF7E2F90020FEF72F
:1024B000AFF92046FEF7BCF9B348FEF7D9F9002082
:1024C000FEF7A6F92046FEF7B3F9B048FEF7D0F9BB
:1024D0000020FEF79DF92046FEF7AAF9AC48FEF76A
:1024E000C7F92846FEF764F92046FEF7A1F9A94886
:1024F000FEF7BEF92846FEF75BF92046FEF798F98D
:10250000A548FEF7B5F92846FEF752F92046FEF732
:102510008FF9A248FEF7ACF92846FEF749F92046A4
:10252000FEF786F99E48FEF7A3F92846FEF740F924
:102530002046FEF77DF99B48FEF79AF90020FEF74A
:1025400067F92046FEF774F99748FEF791F9284697
:10255000FEF72EF92046FEF76BF99448FEF788F94E
:102560000020FEF755F92046FEF762F99048FEF785
:102570007FF92846FEF71CF92046FEF759F98D48E9
:10258000FEF776F92846FEF713F92046FEF750F9D4
:102590008948FEF76DF92846FEF70AF92046FEF74E
:1025A00047F98648FEF764F92846FEF701F9204608
:1025B000FEF73EF98248FEF75BF92846FEF7F8F889
:1025C0002046FEF735F97F48FEF752F90020FEF766
:1025D0001FF92046FEF72CF97B48FEF749F92846FB
:1025E000FEF7E6F82046FEF723F97848FEF740F9B3
:1025F0002846FEF7DDF82046FEF71AF97448FEF784
:1026000037F92846FEF7D4F82046FEF711F971484D
:10261000FEF72EF92846FEF7CBF82046FEF708F91C
:102620006D48FEF725F92846FEF7C2F82046FEF76A
:10263000FFF86A48FEF71CF92846FEF7B9F820466D
:10264000FEF7F6F86648FEF713F92846FEF7B0F8ED
:102650002046FEF7EDF86348FEF70AF90820FEF77A
:10266000A7F82046FEF7E4F85F48FEF701F9284690
:10267000FEF79EF82046FEF7DBF85C48FEF7F8F818
:102680002846FEF795F82046FEF7D2F85848FEF7A0
:10269000EFF82846FEF78CF82046FEF7C9F85548B3
:1026A000FEF7E6F82846FEF783F82046FEF7C0F866
:1026B0005148FEF7DDF82846FEF77AF82046FEF787
:1026C000B7F84E48FEF7D4F80020FEF7A1F82046F0
:1026D000FEF7AEF84A48FEF7CBF82846FEF768F852
:1026E0002046FEF7A5F84748FEF7C2F82846FEF751
:1026F0005FF82046FEF79CF84348FEF7B9F82846F5
:10270000FEF756F82046FEF793F84048FEF7B0F87B
:102710000F20FEF74DF82046FEF78AF83C48FEF7FA
:10272000A7F88020FEF744F82046FEF781F83948E4
:10273000FEF79EF82846FEF73BF82046FEF778F8AD
:102740003548FEF795F82846FEF732F82046FEF7A2
:102750006FF83248FEF78CF80020FEF759F8204653
:10276000BDE83840FEF764B854230020C4D3000805
:1027700010C300083CC3000868C3000894C30008E5
:10278000C0C30008ECC3000818C4000844C4000813
:1027900070C400089CC40008C8C40008F4C4000841
:1027A00020C500084CC5000878C50008A4C500086D
:1027B000D0C50008FCC5000828C6000854C600089B
:1027C00080C60008ACC60008D8C6000804C70008C8
:1027D00030C700085CC7000888C70008B4C70008F5
:1027E000E0C700080CC8000838C8000864C8000822
:1027F00090C80008BCC80008E8C8000814C9000850
:1028000040C900086CC9000898C90008C4C900087C
:10281000F0C900081CCA000848CA000874CA0008A9
:10282000194B1A4810B501221A60194CFEF700F82E
:102830001848FEF71DF80020FDF7EAFF2046FDF7D7
:10284000F7FF1548FEF714F81448FDF7F1FF144898
:10285000FEF70EF80520FDF7ABFF2046FDF7E8FF79
:102860001048FEF705F80020FDF7D2FF2046FDF7DF
:10287000DFFF0D48FDF7FCFF0020FDF7C9FF2046F4
:10288000BDE81040FDF7D4BF54230020E8C1000884
:10289000C4D300081CC2000848C2000874C2000863
:1028A0007CC20008A8C20008D4C2000800000000D2
:1028B0001C4B1D4810B501221A60FDF7D9FF1B48BB
:1028C0001B4CFDF7B5FF1B48FDF7D2FF1A48FDF77B
:1028D000AFFF1A48FDF7CCFF1948FDF7A9FF1948CB
:1028E000FDF7C6FF1848FDF7A3FF1848FDF7C0FF26
:1028F0000420FDF75DFF2046FDF79AFF1448FDF721
:10290000B7FF0820FDF754FF2046FDF791FF11485F
:10291000FDF7AEFF0820FDF74BFF2046BDE8104055
:10292000FDF786BF542300202CC0000858C00008C3
:10293000C4D3000864C0000890C000089CC0000810
:10294000C8C0000810C100083CC1000854C10008FC
:1029500080C10008ACC100080000000000000000B9
:1029600070B504460E461546FEF7FAF834B12378E2
:10297000042B03D104EB8602D06810B10B48FEF79C
:10298000AFF86B69D5601BB1186058609860D8606B
:10299000AB6923B100221A605A609A60DA6031464E
:1029A0002046BDE87040FEF713BC00BF64B70008C6
:1029B00038B5052916D8DFE801F050151650500338
:1029C000202383F31188334DFEF762FB0024281D7A
:1029D0000121FEF72DFA2C7585F84C40FEF740FBDF
:1029E00084F3118838BD0546202383F31188FEF750
:1029F0004FFB284C284A28460121FFF7B1FF02214E
:102A0000264A2846FFF7ACFF0025FEF7A9F8236BFE
:102A1000236204F10C00E361A561C4E90D55FEF7E2
:102A2000B7F92575FEF79CF8D4E9192304F14400A1
:102A30002265C4E91533E5662567FEF7A9F901218A
:102A4000201D84F84C50FEF7F3F92046FFF728F8D4
:102A5000FEF706FB85F3118838BD202383F3118828
:102A60000C4CFEF715FB0221201DFEF7E1F90125B4
:102A700004F10C002575FEF78BF904F1440084F88D
:102A80004C50FEF785F9FEF7EBFA002383F311882B
:102A900038BD00BF980C0020A4BB0008C8BB0008CC
:102AA00070B50E46F0B1044630601149204608F07A
:102AB000CFFB215C222904EB00050DD00C492846F0
:102AC00008F0A4FB306018B1421C00233260037090
:102AD0002B7853B1284670BD0135284608F0A4FA7A
:102AE0003060F0E70C68002CDFD10025284670BD6F
:102AF00098BF000800000000000000000000000077
:102B00000EB42DE9F04F86B00FAF044657F8046BB2
:102B100002974FF000083178721C61B1252910D05E
:102B200023681646DB6820469847317808F101088B
:102B3000721C0029F2D1404606B0BDE8F04F03B048
:102B4000704771782D2903BFB178B21C4FF0010C8A
:102B50004FF0000C302903BF517801324FF0300A9A
:102B60004FF0200A0132002505E03B78043712F8C7
:102B7000011B03EB4005A1F13003DBB2092B9646A4
:102B800005EB8500F3D92A29EFD02E294FF000025A
:102B900048D001F0DF034C2B0EF101064ED0A1F11D
:102BA0004103A1F14400DBB2342800F21681DFE8D2
:102BB00010F06501140114011401140165011401E0
:102BC0001401140114011401100114011401140161
:102BD00014011401E100140114016E011401140127
:102BE000140114011401140114011401140114013D
:102BF0008F00650114011401140114016501140111
:102C00001401140114011401100114011401140120
:102C10006D001401E100140114016E013B780437CA
:102C200003EB40021EF8011BA1F13003DBB2092BBC
:102C300002EB8200F4D92A29F0D0AAE79EF80030EE
:102C40000BB3A3F14401342900F2C980DFE801F09D
:102C5000D7C7C7C7C7D7C7C7C7C7C7C2C7C7C7C7E9
:102C6000C793C7C7D4C7C7C7C7C7C7C7C7C7C741A1
:102C7000D7C7C7C7C7D7C7C7C7C7C7C2C7C7C71F71
:102C8000C793C7C7D4000B467646DAE77646D7F82F
:102C900000900437B9F1000F00F0FD8099F8003082
:102CA0004846002A40F0FE80002B00F00C8147F6D9
:102CB000FE724B4601E0013A03D413F8011F0029CC
:102CC000F9D11B1AED1A013B00934FF0200A0BE0DB
:102CD00076460DF118093B6809F80C3D0023013DCB
:102CE000043700934FF0200A002D1EDBBCF1000FCB
:102CF0007ED16B42002D7AD099F8001022682D29E0
:102D0000D26800F0A8809B4601E02368DA6851464B
:102D1000204690471BF1010BF7D1009A002A5B4631
:102D2000A844FFF6F8AE1D4604E0009B002BFFF61A
:102D3000F2AE0025DDF800B0236819F8011BDB684E
:102D40000BF1FF3B20469847BBF1FF3FF4D1009BBE
:102D500008F1010843449846002D3FF4DCAEA94633
:102D600023685146DB6820469847B9F10109F7D13D
:102D7000A844D0E676464FF00A0957F8042B0DF127
:102D8000170100E00146B2FBF9FE09FB1E2202F129
:102D90003003392BC8BF02F13703DBB2724601F8AA
:102DA000013C481E002AEDD10DF11702A2EB000BE9
:102DB0000DF10C094A46584401E011F8013B02F8B4
:102DC000013B8142F9D10BF1FF33A5EB0B050093D9
:102DD0008AE776464FF00809CFE776460B460DF1B5
:102DE0001809013D09F80C3D002300937CE71D46BE
:102DF000009B002B9EDAAFE74FF01009BDE7391DAD
:102E00003A680F46002A55DB0DF10C09484600F1DF
:102E10000B03009319462F4BA3FB02E3DB0803EBE4
:102E2000830B9E46A2EB4B033033DBB2724601F8B4
:102E3000013D002AEFD1009A521A024401E011F834
:102E4000013F00F8013B9042F9D1A0EB0900431E7D
:102E50002D1A009348E7BAF1300F7FF454AF2046A3
:102E600001939047009B2268013B0093019BD2682D
:102E700008F1010809F101099B4648E73946192B79
:102E800051F8042B764688BF0F46BBD8B8E7764684
:102E90004FF0100971E710488146002A3FF407AF50
:102EA000013A06E7002BFBD14FF0FF3300934FF0C0
:102EB000200A19E72D2352428DF80C300DF10D0038
:102EC0000DF10C09A3E74FF0FF3300934FF0200AF8
:102ED0000CE700BFCDCCCCCC00B90008000000004E
:102EE000002918DC70B504460C4E0D4D02E0336825
:102EF0005B689847236800219B692046984701300A
:102F00004FF4806229460548F1D020460549BDE8C6
:102F10007040FFF7F5BD0449FFF7F2BD980C0020A3
:102F20000008002050BB000860BB00080000000043
:102F3000012903D0034A0449FFF7E2BD126803499F
:102F4000FFF7DEBD08B9000818B9000824B9000869
:102F5000002903DD194A1A49FFF7D2BD10B5194AF5
:102F6000194982B00446FFF7CBFD184A184920469C
:102F7000FFF7C6FD174A18492046FFF7C1FD174A5B
:102F800017492046FFF7BCFD164A17492046FFF7B0
:102F9000B7FD164A16492046FFF7B2FD154A1649F5
:102FA0002046FFF7ADFD154B00932046144B154A04
:102FB0001549FFF7A5FD02B010BD00BF2CB90008F0
:102FC00018B9000874C2000834B90008C8C0000865
:102FD00048B9000858C000085CB9000890C0000853
:102FE00070B900083CC1000884B9000898B900080D
:102FF000B4B90008C8B90008F0B900082CBA000834
:1030000004BA000808BA000814BA0008000000005A
:1030100070B50C68A14212D00D46064602E0246845
:10302000A5420CD008223146A01808F071F80028FB
:10303000F5D12CB1636801336360204670BD002474
:10304000204670BD000000000000000000000000ED
:10305000F8B5194D04460F46FDF772FD2A68AE69B2
:10306000AA42B36802D092689A4219D8A2686762ED
:103070009A4218D93046FDF723FE012384F8203008
:103080000646AC61FDF7DCFCEFF30983F269243BF3
:103090009A420DD831462046BDE8F840FDF7F0B819
:1030A0000648FDF71DFD2046BDE8F840FDF708BEC7
:1030B0000348FDF715FD00BFB01100205CB5000806
:1030C000D0B8000800000000000000000000000070
:1030D00070B5104CA5690646FDF732FD236885F8EA
:1030E00020601A68226001215460284683F820106D
:1030F000A361FDF7A5FCEFF30983EA69243B9A423B
:1031000005D82946A069BDE87040FDF7B9B8024866
:10311000FDF7E6FCB0110020D0B800080000000068
:10312000F8B53E4B04469D69FDF70AFD2CB3A06837
:1031300000284AD0AA6883689A4208D990F82030BB
:103140008260062B46D0072B1ED0002B30D026469F
:10315000234603E09968AA68914234D31B689C42D5
:10316000F8D173680620C5E900631D6075606C6264
:10317000FFF7AEFFA368AB4202D02948FDF7B0FCD1
:10318000AB6BA342F9D1F8BDD0E900131960466AD0
:1031900001684B60334602E09968914234D31B6862
:1031A0009E42F9D17368C0E9006318607060CEE791
:1031B000D0E90023012180F820101A6002685360D2
:1031C000FDF77EFDC3E71E46CBE7AB6BC4E90253B8
:1031D000AC63F8BDD0E900131960466A0168374650
:1031E0004B60334602E09968914214D31B689E42BB
:1031F000F9D17B68AA68C0E9007318607860B0688C
:10320000836893429AD3A2E71E467368C0E90063BD
:10321000186070609BE71F46EBE700BFB01100200D
:1032200020B40008000000000000000000000000C2
:1032300008B5114B9C69A36A606204F12805AB4292
:1032400007D01A68A2621846FDF73AFDA36AAB429E
:10325000F7D194F8223043B994F821309B0704D178
:10326000D4E904231A61226953610F20FFF730FF6C
:103270000248FDF735FC00BFB011002008B6000879
:1032800070B50D4686B00646FDF75AFC6B1C14D08F
:103290000E4C0F4AA369294601A8FEF711FE3046DD
:1032A000FFF716FFFDF75CFC049B13B101A8FEF7C6
:1032B000BFFDA369586A06B070BD044C3046FFF7E5
:1032C00007FFA369586A06B070BD00BFB0110020A7
:1032D000C110000800000000000000000000000015
:1032E00038B504460D46FDF72BFC2CB1A3682268C7
:1032F000002B04DBA24204D00E48FDF7F1FBA242F2
:10330000FAD05A1E002AA26001DB002038BD6DB140
:10331000094B9B695C6262685A601C6029461360B5
:1033200005206360BDE83840FFF7AABFA3604FF0F7
:10333000FF3038BD18B50008B011002000000000B3
:1033400061B1084B10B4024644689B690420C3E98C
:1033500000242360536010BCFFF792BF4FF0FF3092
:10336000704700BFB0110020000000000000000006
:1033700038B504460D46FDF7E3FB07E0237A93B921
:1033800029462046FFF7DCFF00280BDBE368002B13
:10339000F4D0E36853B12369E1691A1D0B44C4E911
:1033A0000A23002038BD6FF0010038BD0148FDF749
:1033B00097FB00BFD4B70008000000000000000029
:1033C00038B504460D46FDF7BBFB07E0237A93B9F9
:1033D00029462046FFF7B4FF00280BDBE368002BEB
:1033E000F4D0E36853B163691A6804331A44C4E93A
:1033F0000A32002038BD6FF0010038BD0148FDF7EA
:103400006FFB00BF08B700080000000000000000CC
:10341000EFF30983203383F30988002383F31188B2
:10342000704700BF00000000000000000000000026
:1034300070B51A4D2B68AE691C682C60012265605E
:1034400083F82020AB61FDF78BFB0EB396F820309C
:10345000F3B10F2B1CD00023B26886F8203000E0B7
:103460002468A3689342FBD863683046C6E90043EA
:103470001E606660FDF7E4FAEFF30983F269243B0E
:103480009A4208D83146A869BDE87040FCF7F8BEFA
:103490000348FDF725FB0348FDF722FBB011002090
:1034A00048B40008D0B80008000000000000000088
:1034B00008B5FDF745FBFDF753FB064B1A689B6902
:1034C00092689B689A4200D808BDBDE80840FFF7A3
:1034D000AFBF00BFB01100200000000000000000DE
:1034E00008B5054B1A6B22B9596B002901DD5A63E7
:1034F00008BD0248FDF7F4FAB011002070B80008CA
:1035000008B5FFF7EDFF084B1A689A4204D0996995
:1035100093688A689A4203D3002383F3118808BD15
:103520000248FDF7DDFA00BFB0110020D4B2000858
:1035300008B5FFF7D5FF084B1A689A4204D099697D
:1035400093688A689A4203D3002383F3118808BDE5
:103550000248FDF7C5FA00BFB011002088B300088B
:1035600008B5EFF30583C3F3080383B9FFF7A0FFA2
:10357000FFF7B6FF0A4B1A689A4204D0996993681C
:103580008A689A4209D3002383F3118808BDFDF7A6
:1035900067FD002383F3118808BD0248FDF7A0FAF8
:1035A000B011002098B200080000000000000000E8
:1035B00008B5054B1A6B0AB95A6B12B10348FDF7EF
:1035C0008FFA01225A6308BDB011002058B80008D4
:1035D00070B5202383F31188214CFFF7E9FFA3681E
:1035E0002268002B04DBA24204D01E48FDF778FAC3
:1035F000A242FAD00133002BA36023DD013B002B54
:10360000A36012DBFFF754FF174D0024FFF768FF9C
:103610002B68AB4204D0AA699B6892689A421BD37C
:10362000002383F31188204670BD0F4D6368AE6997
:103630000520C6E900431E6074626660FFF748FD1E
:10364000746AE3E72068036823605C60FDF738FB79
:103650000022A3684262D1E70448FDF741FA00BFA7
:10366000201C0020E8B50008B0110020B0B200080E
:1036700038B5202383F31188FFF79AFFFDF760FA2E
:103680000E4B0F4C9A6892B10025FFF729FF236873
:10369000A34204D0A2699B6892689A4204D3002393
:1036A00083F31188284638BD0648FDF719FAA26948
:1036B0009A60916BD96093630125E6E7380C00208E
:1036C000B0110020BCB200080000000000000000A3
:1036D00008B5202383F31188FFF76AFF0D4B1868A4
:1036E000984205D002681A6053600021FFF7B0FCD1
:1036F000FFF7F6FE084B1A689A4204D0996993685E
:103700008A689A4203D3002383F3118808BD0348D3
:10371000FDF7E6F9040C0020B0110020C8B2000843
:1037200038B5202383F311880C4CFFF741FFA369C0
:1037300000225D6B5A63FFF7D3FE2368A34204D0D7
:10374000A2699B6892689A4204D3002383F311888C
:10375000284638BD0248FDF7C3F900BFB01100206C
:10376000D4B20008000000000000000000000000CB
:1037700008B5FFF7D5FF024A024B12601B6008BD77
:103780000C0C0020100C00200000000000000000C5
:10379000FFF7C6BF000000000000000000000000AE
:1037A000FFF7F6BF0000000000000000000000006E
:1037B000FFF7EEBF00000000000000000000000066
:1037C000FFF7E6BF0000000000000000000000005E
:1037D000FFF7DEBF00000000000000000000000056
:1037E00070B5134C2023A66983F31188FFF7E0FE20
:1037F000736B33B94FF0FF3373620A20FFF768FC35
:10380000736B5D421D4023EA05037363FFF768FE97
:103810002368A34204D0A2699B6892689A4204D3A9
:10382000002383F31188284670BD0248FDF758F93C
:10383000B0110020D4B20008000000000000000019
:1038400070B5124C2023A56983F31188FFF7B0FEF1
:103850006E6B36B94FF0FF336B620A20FFF738FC0E
:103860006E6B00236B63FFF73BFE2368A34204D01B
:10387000A2699B6892689A4204D3002383F311885B
:10388000304670BD0248FDF72BF900BFB011002093
:10389000D4B200080000000000000000000000009A
:1038A00038B5134C2023A56983F31188FFF780FEF8
:1038B0006B6B03F00502052A05D005236B620B2014
:1038C000FFF706FC6B6B23F005036B63FFF708FE45
:1038D0002368A34204D0A2699B6892689A4204D3E9
:1038E000002383F31188052038BD0248FDF7F8F85E
:1038F000B0110020D4B20008000000000000000059
:1039000070B51D4C0546A669202383F31188FFF787
:103910004FFE736B53B9EDB14FF0FF33294673621D
:103920000A20FFF7ADFC002814DB736B5D421D40DD
:1039300023EA05037363FFF7D3FD2368A34204D092
:10394000A2699B6892689A4213D3002383F311887B
:10395000284670BDFFF7C4FD2368A34204D0A269C6
:103960009B6892689A4204D3002585F31188284603
:1039700070BD0248FDF7B4F8B0110020D4B20008C1
:1039800008B5202383F31188FFF712FEFEF710FB22
:10399000FFF78EFDFFF7A4FD074B1A689A4204D08B
:1039A000996993688A689A4203D3002383F3118844
:1039B00008BD0248FDF794F8B0110020F8B20008E5
:1039C000FFF7DEBF00000000000000000000000064
:1039D000FFF7F6BF0000000000000000000000003C
:1039E000FFF7EEBF00000000000000000000000034
:1039F0002DE9F84380460F46202383F31188234C9A
:103A0000FFF7D6FD04F11806FDF79AF811E0FDF76F
:103A1000A7F8D4E90095FDF7A3F82369A5EB0902FF
:103A2000B3EBA20F1ED139463046FFF789FC05469D
:103A300020B9237D002BEAD06FF00105FFF750FD80
:103A4000134B1A689A4204D0996993688A689A421B
:103A500005D3002383F311882846BDE8F8830D4879
:103A6000FDF73EF8A1680C480A1DA2609542C1F816
:103A7000008003F1010398BFC4F80890236100257A
:103A8000FDF746F9FFF714FDD8E700BF580C0020FA
:103A9000B0110020F8B20008780C002000000000EF
:103AA0002DE9F84380460F46202383F31188224CEA
:103AB000FFF77EFD04F11806FDF742F811E0FDF76F
:103AC0004FF8D4E90059FDF74BF82369A9EB05023B
:103AD000B3EBA20F1ED139463046FFF731FC054645
:103AE00020B9237D002BEAD06FF00105FFF7F8FC29
:103AF000124B1A689A4204D0996993688A689A426C
:103B000005D3002383F311882846BDE8F8830C48C9
:103B1000FCF7E6FFE2680B48043A954288BFA9F13A
:103B20000402E2600133C2F8008000252361FDF742
:103B3000EFF8FFF7BDFCD9E7580C0020B0110020CA
:103B4000F8B20008780C002000000000000000001F
:103B50002DE9F041202380460F4683F31188204C45
:103B6000FFF726FD04F12006FCF7EAFF09E0FCF769
:103B7000F7FF2369DBB939463046FFF7E1FB05461D
:103B800020B9237D002BF2D06FF00105FFF7A8FCD0
:103B9000144B1A689A4204D0996993688A689A42C9
:103BA0001BD3002383F311882846BDE8F081E26827
:103BB0006168106804328A42E26003F1FF33C8F89A
:103BC000000028BF2268084828BFE2602361002562
:103BD000FDF79EF8FFF76CFCD8E70448FCF780FF80
:103BE000580C0020B0110020700C0020F8B2000822
:103BF00038B50546202383F31188154CFFF7D8FC10
:103C000029462046FFF76CFB00BBFCF7A9FFE568DF
:103C1000A5B12B68E360FFF763FC0E4B1A689A426C
:103C200004D0996993688A689A4204D3002383F385
:103C30001188284638BD0848FCF752FFA369002BBD
:103C4000E9D0D4E9040198470546E4E70025E2E716
:103C5000140C0020B011002010B300080000000078
:103C600008B5074B01224FF47A701A60FFF7C0FFC6
:103C7000B0FA80F040090349BDE80840FCF770BD88
:103C80005423002088BD0008000000000000000050
:103C900070B5202304460D46164683F31188FFF7BE
:103CA00087FC324629462046FCF782FF0446FFF790
:103CB00017FC084B1A689A4204D0996993688A687D
:103CC0009A4204D3002383F31188204670BD024832
:103CD000FCF706FFB011002004B30008000000004C
:103CE00070B5574E574D012382B0336042244FF0D8
:103CF000FF312046FFF77CFEB0FA80F029464009EC
:103D0000FCF72EFD88B90134462CF0D102230121A5
:103D100058203360FFF76CFEA0F1FF30B0FA80F05E
:103D200048494009FCF71CFD08B102B070BD2023D2
:103D300083F31188FFF73CFC5820FEF751F9424C01
:103D40000546FFF7CDFB2368A34204D0A2699B6818
:103D500092689A4270D3002383F31188A5F1FF3053
:103D6000B0FA80F037494009FCF7FAFC0028DCD1B2
:103D700001215820FFF794FEA0F1FF30B0FA80F047
:103D800030494009FCF7ECFC0028CED1202383F316
:103D90001188FFF70DFC5820FEF752F90546FFF792
:103DA0009FFB2368A34204D0A2699B6892689A4251
:103DB00042D3002383F31188A5F1FF30B0FA80F0DD
:103DC00020494009FCF7CCFC05460028ADD103236F
:103DD0003360FFF7D5FD1D4B01211D7501A804239C
:103DE0003360FFF7B5FEA0F1FF30B0FA80F015495F
:103DF0004009FCF7B5FC002897D1202383F31188F4
:103E0000FFF7D6FB01A8FCF79BFF0546FFF768FB11
:103E10002368A34204D0A2699B6892689A420BD39C
:103E2000002383F31188A5F1FF30B0FA80F0054933
:103E30004009FCF795FC78E70548FCF751FE00BF08
:103E40005423002018BD0008B0110020580C002099
:103E500088B300080000000000000000000000001F
:103E600038B50F4D2023AC6983F31188FFF7A0FB11
:103E70000320FFF72DF9636A002BF9D0FFF730FB21
:103E80002B68AB4204D0AA699B6892689A4203D31C
:103E9000002383F3118838BD0248FCF721FE00BFE0
:103EA000B01100207CB300080000000000000000FA
:103EB000F8B56B4E012300203360FFF721FDB0FA07
:103EC00080F040096749FCF74BFC00B1F8BD664C37
:103ED00005462023A76983F31188FFF769FB7B6BF5
:103EE000002B40F09780FFF7FBFA2368A34205D030
:103EF000A2699B6892689A42C0F08980002383F38C
:103F0000118801205749FCF72BFC05460028DDD11C
:103F1000A769202383F31188FFF74AFB7B6B0133EA
:103F200000F08780FFF7DCFA2368A34204D0A2697F
:103F30009B6892689A426AD3002383F31188012513
:103F400028464849FCF70CFC0028BFD102234FF457
:103F5000FA703360FFF7D4FCB0FA80F040094149B1
:103F6000FCF7FEFB0028B1D1A669202383F311885A
:103F7000FFF71EFB756B55B94FF0FF3373624FF4BB
:103F8000FA710A20FFF77CF9002861DB756B0023CA
:103F90007363FFF7A5FA2368A34204D0A2699B6864
:103FA00092689A4233D3002383F31188B5FA85F0DF
:103FB00040092C49FCF7D4FB0546002886D1A669A8
:103FC000202383F31188FFF7F3FA736B013309D0D1
:103FD0004FF0FF3373624FF4FA710B20FFF750F983
:103FE000002839DB00237363FFF77AFA2368A342C2
:103FF00004D0A2699B6892689A4208D3002383F395
:10400000118828461749BDE8F840FCF7A9BB1748B6
:10401000FCF766FD7D63FFF763FA2368A34204D0D3
:10402000A2699B6892689A42F1D3002080F31188BC
:1040300068E77D63FFF754FA2368A34204D0A269BE
:104040009B6892689A42E2D3002383F3118877E752
:10405000FFF756FA0120ACE7FFF752FA0125D0E747
:1040600054230020F8CE0008B0110020D4B200087C
:1040700010B52023044683F31188FFF799FAFCF763
:104080006FFDA368002B13DDFFF712FAFFF728FA84
:10409000094B1A689A4204D0996993688A689A42CF
:1040A00003D3002383F3118810BD0448FCF718FDE7
:1040B0002046FCF725FFE7E7B011002058B30008C1
:1040C00070B5424E01253560202383F31188FFF738
:1040D0006FFA2846FCF73CFF3D4C0546FFF700FA17
:1040E0002368A34204D0A2699B6892689A423FD396
:1040F000002383F3118885F00100C0B23549FCF735
:104100002FFB00B170BD02253560202383F3118899
:10411000FFF74EFA2846FCF71BFF0546FFF7E0F9CC
:104120002368A34204D0A2699B6892689A421FD375
:10413000002383F3118885F00100C0B22649FCF703
:104140000FFB0028DED103233360202383F3118883
:10415000FFF72EFA0420FCF7FBFE0546FFF7C0F937
:104160002368A34207D0A2699B6892689A4202D250
:104170001A48FCF7B5FC002383F3118885F0010091
:10418000C0B21749FCF7ECFA0028BBD10423336016
:10419000202383F31188FFF70BFA0820FCF7D8FEE1
:1041A0000546FFF79DF92368A34204D0A2699B68E6
:1041B00092689A42DCD3002383F3118885F00100D2
:1041C000C0B20849BDE87040FCF7CABA54230020C9
:1041D000B0110020B0CA0008C8CA000834B30008F3
:1041E000ECCA000808CB0008000000000000000036
:1041F0002DE9F843134C144E04F1140920274FF015
:10420000000854F8045BADB187F31188FFF7D0F9CB
:1042100095F8213043F0040385F82130FFF760F969
:104220003368B34204D0B2699B6892689A4205D35E
:1042300088F311884C45E4D1BDE8F8830348FCF7C6
:104240004FFC00BF6C230020B0110020A4B2000876
:1042500010B52023044683F31188FFF7A9F90D4A0E
:104260000D4913688B4202D2591C1C701160FFF774
:1042700037F90A4B1A689A4204D0996993688A6898
:104280009A4203D3002383F3118810BD0448FCF73E
:1042900027FC00BF6823002068230020B011002005
:1042A0001CB3000800000000000000000000000037
:1042B0002DE9F04FC24E012383B03360202383F3F6
:1042C0001188C04CFFF774F9FCF74AFCFCF748FC76
:1042D000D4E900232069BC499B1AC0EBA300A0F1DC
:1042E0000400B0FA80F04009FCF73AFA002840F0E8
:1042F0001282B64DFFF7F4F82B68AB4205D0AA69DD
:104300009B6892689A42C0F01182002383F311885F
:1043100002233360202383F31188FFF749F9FDF767
:1043200047FEFFF7DDF82B68AB4205D0AA699B6812
:1043300092689A42C0F0FA81002383F31188202307
:1043400083F31188FFF734F9FCF70AFCFCF708FC4B
:10435000D4E9002320699E499B1AC0EBA300A0F179
:104360000400B0FA80F04009FCF7FAF9002840F0A8
:10437000C281FFF7B5F82B68AB4205D0AA699B68EC
:1043800092689A42C0F0D281002383F311882023DF
:1043900083F31188FFF70CF9FCF7E2FB20698D49E4
:1043A000B0FA80F04009FCF7DBF9002840F0A38167
:1043B000FFF796F82B68AB4205D0AA699B68926814
:1043C0009A42C0F0B381002383F31188202383F342
:1043D0001188FFF7EDF82068A3687F49C01AB0FA8A
:1043E00080F04009FCF7BCF9002840F08481FFF719
:1043F00077F82B68AB4205D0AA699B6892689A420D
:10440000C0F09481002383F31188202383F3118863
:10441000FFF7CEF82068E3687049C01AB0FA80F060
:104420004009FCF79DF9002840F06581FFF758F836
:104430002B68AB4205D0AA699B6892689A42C0F08B
:104440007581002383F311880322DFF894A123757B
:104450009846326042274FF0200989F31188FFF710
:10446000A7F83846FDF7BCFD8346FFF739F82A6800
:10447000AA4205D0AB6992689B689342C0F056810E
:1044800088F31188BBFA8BF040095146FCF768F9B4
:10449000002840F03D810137452FDED1202383F3F2
:1044A0001188FFF785F84120FDF7CAFD0746FFF7A1
:1044B00017F82B68AB4205D0AA699B6892689A42AC
:1044C000C0F03481002383F31188B7FA87F04009E4
:1044D0004349FCF745F9002840F01A810423336072
:1044E000202383F31188FFF763F8FCF739FBFCF70F
:1044F00037FBD4E9001322695B1AB2EBA30F0CBFA0
:10450000012000203749FCF72BF9002840F0F38008
:10451000FEF7E6FF2B68AB4205D0AA699B6892685C
:104520009A42C0F00381002383F31188202383F390
:104530001188FFF73DF8FCF713FB20692A49A0F129
:10454000040CDCF1000040EB0C00FCF709F900283A
:1045500040F0D180FEF7C4FF2B68AB4205D0AA69BA
:104560009B6892689A42C0F0E180002383F311882F
:10457000202383F31188FFF71BF8D4E90230C71A10
:10458000784278411949FCF7EBF8002840F0D180D7
:10459000FEF7A6FF2B68AB4205D0AA699B6892681C
:1045A0009A42C0F0C380002383F311880522DFF80C
:1045B00030903260984604274FF0200A18E000BF80
:1045C00054230020580C002050BC0008B0110020DB
:1045D0005CBC000868BC000874BC000898BC0008FB
:1045E00018BD0008BCBC0008C8BC0008D4BC00084A
:1045F0008AF31188FEF7DCFF01A8FCF7A1FB8346D4
:10460000FEF76EFF2B68AB4205D0AA699B689268E3
:104610009A42C0F08B8088F31188BBFA8BF0400976
:104620004946FCF79DF8002872D19DF80400FFF779
:104630000FFE013FDCD140494048FCF731F900282A
:1046400066D106234FF0FF3146203360FFF7D0F9E3
:10465000B0FA80F040093A49FCF782F8002857D1B7
:104660004FF0FF3101A8FFF773FAB0FA80F040096C
:104670003349FCF775F800284AD107233360202519
:1046800085F31188FEF794FFFCF76AFAFCF768FAE5
:10469000D4E9000223692B49121AC3EBA2031E1F9F
:1046A00070427041FCF75CF8002842D1FEF740FFF1
:1046B00085F31188FEF77CFFFCF752FA2069224946
:1046C000B0FA80F04009FCF74BF8002831D1FEF732
:1046D0002FFF2068A3681D49C21A50425041FCF7C1
:1046E0003FF8A8B92068E3681949C31A58425841ED
:1046F000FCF736F80CE0FEF7F3FE2B68AB4204D073
:10470000AA699B6892689A4210D3002383F31188A8
:1047100003B0BDE8F08FFEF7E3FE0E4B1A689A4235
:10472000F3D0996993688A689A42EED20A48FCF7F6
:10473000D7F9FEF7FDFEEBE7ECBC000800BD000872
:1047400018BD00085CBC000868BC000874BC000808
:1047500098BC0008B011002088B3000800000000D9
:10476000F0B5C34E012383B03360202383F3118857
:10477000C04CFEF71DFFFCF7F3F9FCF7F1F9D4E9A3
:1047800000232069BC499B1AC0EBA300A0F10400E0
:10479000B0FA80F04009FBF7E3FF002840F0C48145
:1047A000B64DFEF79DFE2B68AB4205D0AA699B680B
:1047B00092689A42C0F0D281002383F311880223C9
:1047C0003360FFF7DDF8202383F31188FEF7F0FE56
:1047D000FCF7C6F9FCF7C4F9D4E900232069A8491D
:1047E0009B1AC0EBA300A0F10400B0FA80F04009CE
:1047F000FBF7B6FF002840F0A781FEF771FE2B689B
:10480000AB4205D0AA699B6892689A42C0F0A68123
:10481000002383F31188202383F31188FEF7C8FE59
:10482000FCF79EF920699749B0FA80F04009FBF740
:1048300097FF002840F08881FEF752FE2B68AB42BC
:1048400005D0AA699B6892689A42C0F087810023CC
:1048500083F31188202383F31188FEF7A9FE2068D3
:10486000A3688949C01AB0FA80F04009FBF778FFC5
:10487000002840F06981FEF733FE2B68AB4205D07B
:10488000AA699B6892689A42C0F06881002383F30A
:104890001188202383F31188FEF78AFE2068E368DD
:1048A0007A49C01AB0FA80F04009FBF759FF002896
:1048B00040F04A81FEF714FE2B68AB4205D0AA698E
:1048C0009B6892689A42C0F04981002080F3118869
:1048D00003234FF0FF313360FFF78AF8851C14BFC4
:1048E000002001206A49FBF73BFF002840F02A81A5
:1048F0004FF0FF31FFF7D4F8821C14BF00200120D5
:104900006349FBF72DFF002840F01C814FF0FF3179
:1049100001A8FFF71DF9831C14BF002001205C498A
:10492000FBF71EFF002840F00D810423594F20752E
:10493000336042254FF0FF312846FFF759F8B0FAAF
:1049400080F039464009FBF70BFF002840F0FA8061
:104950000135452DEED14FF0FF314120FFF7A0F892
:10496000B0FA80F040094B49FBF7FAFE002840F00E
:10497000E98005233360202585F31188FEF718FEB2
:10498000FCF7EEF8FCF7ECF8D4E9001322695B1AA7
:10499000B2EBA30F0CBF012000203F49FBF7E0FE64
:1049A000002840F0DE80FEF7C3FD85F31188FEF796
:1049B000FFFDFCF7D5F820693849A0F1040CDCF1C3
:1049C000000040EB0C00FBF7CBFE002840F0C98054
:1049D000FEF7AEFD85F31188FEF7EAFDD4E902305B
:1049E000C71A784278412E49FBF7BAFE002840F0FA
:1049F000B880FEF79DFD274F0623336004254FF056
:104A0000FF3101A8FFF7A4F8B0FA80F03946400959
:104A1000FBF7A6FE002840F095809DF80400FFF704
:104A200017FC013DEBD11F491F48FBF739FF002858
:104A300040F0888007234FF0FF3146203360FEF7B7
:104A4000D7FFB0FA80F040091249FBF789FE002831
:104A500078D14FF0FF3101A8FFF77AF8B0FA80F073
:104A600040090C49FBF77CFE00286BD11EE000BF1B
:104A700054230020580C002050BC0008B011002026
:104A80005CBC000868BC000874BC000898BC000846
:104A90002CBC000818BD0008BCBC0008C8BC00083D
:104AA000D4BC0008ECBC000800BD0008082333603B
:104AB000202585F31188FEF77BFDFCF751F8FCF704
:104AC0004FF8D4E9000223692749121AC3EBA20365
:104AD0001E1F70427041FBF743FE002841D1FEF7D4
:104AE00027FD85F31188FEF763FDFCF739F820698F
:104AF0001E49B0FA80F04009FBF732FE002830D1A1
:104B0000FEF716FD2068A3681949C21A50425041A9
:104B1000FBF726FEB0B92068E3681649C31A58426D
:104B20005841FBF71DFE0DE0FEF7DAFC124B1A6848
:104B30009A4204D0996993688A689A420ED30023F6
:104B400083F3118803B0F0BDFEF7CAFC2B68AB42BB
:104B5000F5D0AA699B6892689A42F0D20748FBF7A1
:104B6000BFFFFEF7E5FCEDE75CBC000868BC000891
:104B700074BC000898BC0008B011002088B300087D
:104B80004320FFF765BB00BF0000000000000000ED
:104B90004220FFF75DBB00BF0000000000000000E6
:104BA0004120FFF755BB00BF0000000000000000DF
:104BB00010B52023044683F31188FEF7F9FC134B4C
:104BC000186840B190F82020032A19D100224262CF
:104BD0001A60FCF775F8FEF76BFCFEF781FC0C4BD6
:104BE0001A689A4204D0996993688A689A420AD3EB
:104BF000002383F311882078BDE81040FFF728BB1D
:104C00000448FBF76DFF0448FBF76AFF8023002090
:104C1000B01100204CB600084CB3000800000000A2
:104C20000078FFF715BB00BF000000000000000087
:104C3000FFF7F6BF000000000000000000000000C9
:104C4000002903DD124A1349FDF75ABF38B504465F
:104C5000202383F31188FEF7ABFC4FF080435D6A9D
:104C6000FEF73EFC0C4B1968994204D09A698B6898
:104C700092689A4209D3002383F3118807492A4690
:104C80002046BDE83840FDF73BBF0548FBF728FF4D
:104C9000B4BA000818B90008B0110020BCBA000866
:104CA000D8B3000800000000000000000000000071
:104CB0002DE98048D0E900739BB073490193814688
:104CC00038468B46FDF71CFF38467049DFF8F0A1E7
:104CD000FDF716FF0AAE51463846FDF711FFD9F829
:104CE0000040236835469B6801220DF10F012046E4
:104CF0009847002869D09DF80F10042961D0082931
:104D000013D07F2911D00D2923D01F292368EAD978
:104D10000DF167029542E6D2DB68204698479DF880
:104D20000F302B7023680135DDE7B5422368DAD0F8
:104D3000DB6808212046984723682021DB6820464D
:104D4000984723680821DB6820469847013D23687F
:104D5000C9E7204659460024FDF7D2FE04A92C706D
:104D60003046FDF79DFE04A98046002005ADFDF705
:104D700097FE50B1042C1DD045F8040B04A9002067
:104D80000134FDF78DFE0028F4D11AAB03EB840348
:104D900043F8540CB8F1000F9DD03D494046FBF755
:104DA00033FB002846D124B3394A3A493846FDF747
:104DB000A7FE90E738493846FDF7A2FE0023099385
:104DC00089E720463549FDF79BFE2F493846FDF718
:104DD00097FE38463249FDF793FE202383F311886E
:104DE000FEF7E6FB2F480021FCF722F80020FEF733
:104DF0001FFA2D492D4C2E4D3846FDF781FE2D4AC8
:104E000029463846FDF77CFE54F8082F002AF7D1D2
:104E1000019C54B1226842B1254D29463846FDF720
:104E20006FFE54F8082F002AF7D159463846FDF78F
:104E300067FE50E71D4D1F4802E055F8080F50B1BE
:104E40004146FBF7E1FA0028F7D16B6805AA214635
:104E5000384698473FE7019D5DB1286818B908E0DA
:104E600055F8080F28B14146FBF7CEFA0028F7D1D4
:104E7000EBE7424610493846FDF742FE0F493846F7
:104E8000FDF73EFE27E700BF6CBB000860D30008BB
:104E9000A0D3000818B9000888D300087CD3000804
:104EA00080D30008381C0020A8D30008D0D3000805
:104EB000B8D3000858D30008BCD30008C0D30008FA
:104EC00074D3000800000000000000000000000093
:104ED000002903DD084A0949FDF712BE08B5202361
:104EE00083F31188FEF764FB05480021FBF7A0FF60
:104EF0000020FEF79DF900BF58D3000818B900083C
:104F0000381C00200000000000000000000000002D
:104F10002DE9F04740B3174D0E461746044600F101
:104F20000C094FF020084FF0000A88F31188FEF7B3
:104F30003FFB31464846FBF723FE2046FBF7E0FFE8
:104F4000FEF7B6FAFEF7CCFA2B68AB4204D0AA699A
:104F50009B6892689A420AD38AF311882369013FB9
:104F60001E44E2D1BDE8F0870348FBF7B9FD0348D2
:104F7000FBF7B6FDB01100209CB5000810B3000887
:104F80002DE9F047364D37493748384E0123042282
:104F90002B60FFF7BDFF02232B6004240020FEF7E7
:104FA00027FE003018BF01203146FBF7D9FB00284F
:104FB00051D1013CF2D103232B60FEF719FEB0FA68
:104FC00080F040092A49FBF7CBFB002843D1254C50
:104FD000284F294E042304F1100AA7F10C092B6075
:104FE0004FF0200888F31188FEF7E2FA2146384690
:104FF000FBF7C6FD4846FBF783FFFEF759FAFEF7BD
:105000006FFA3368B34204D0B2699B6892689A42DF
:1050100023D3002383F311880434A245E2D105236E
:10502000124E2B6004240020FEF7E2FD003018BF72
:1050300001203146FBF794FB68B9013CF3D106230C
:105040002B60FEF7D5FDB0FA80F040090849BDE8B5
:10505000F047FBF785BBBDE8F0870848FBF740FD4C
:1050600054230020101C0020140C00206CBD0008EC
:1050700088BD0008200C0020B011002010B30008EB
:1050800038B504460D46202383F31188FEF790FAC5
:1050900029462046FBF774FDFEF722FA074B1A68F3
:1050A0009A4204D0996993688A689A4203D300238C
:1050B00083F3118838BD0248FBF712FDB0110020C0
:1050C00010B3000800000000000000000000000015
:1050D00010B5A0B1436893B1013B436073B90C466E
:1050E00002E098420ED01C4623689942F9D1002074
:1050F0000146BDE810401046FFF7C2BF10BD05488D
:10510000FBF7EEFC036823600146BDE81040104643
:10511000FFF7B6BF84B600080000000000000000E2
:1051200038B50546202383F31188FEF741FAFBF7D3
:1051300017FD2C68A4B123682B60FEF7D1F90C4B46
:105140001A689A4204D0996993688A689A4204D38B
:10515000002383F31188204638BD0648FBF7C0FCC6
:10516000EB68002BE9D0D5E9010198470446E4E754
:10517000B011002010B30008000000000000000083
:10518000F0B5204D87B0074628460E461446FFF777
:10519000C7FF002833D06B681B4A0097034498422E
:1051A0000190039605940293049204D2552200F8CC
:1051B000012B8342FBD1202383F31188FEF7F8F9FA
:1051C0006846FBF725FD022380F8213005640021A5
:1051D0000446FDF73DFFFEF783F90C4B1A689A422F
:1051E00004D0996993688A689A4205D3002383F3AF
:1051F0001188204607B0F0BD0548FBF771FC044656
:10520000F7E700BFF01B0020314C0008B011002070
:10521000ECB20008000000000000000000000000E8
:105220002DE9F047DFF84491454D464C464F0123A8
:10523000C9F8003004264FF020084FF0000A88F328
:105240001188FEF7B5F929463846FBF799FCFEF7B9
:1052500047F92368A34204D0A2699B6892689A42E6
:1052600056D38AF311887B68013E1D44E7D102239F
:10527000354E364DC9F8003004243046FFF750FF54
:10528000003018BF01202946FBF76AFA00283DD1FB
:10529000013CF2D103232C48C9F80030FFF740FF4E
:1052A000B0FA80F040092A49FBF75AFA70BB264849
:1052B0002349264D0646FFF7E3FE26493046FFF711
:1052C000DFFE25493046FFF7DBFE24493046FFF775
:1052D000D7FE0523C9F8003004243046FFF720FF2D
:1052E000003018BF01202946FBF73AFA70B9013C9B
:1052F000F3D106231448C9F80030FFF711FFB0FAC4
:1053000080F040091249FBF72BFA20B1BDE8F08785
:105310001348FBF7E5FB07210423124A0A48C9F8A2
:1053200000103C60C7E90133FA60FFF7F9FEB0FAFC
:1053300080F040090C49BDE8F047FBF711BA00BF07
:10534000101C0020B0110020800C00206CBD000853
:1053500088BD0008141C0020181C00201C1C002004
:1053600010B300083107000840BD00085423002096
:10537000F8B50C68A1420D460646174603D10DE06C
:105380002468A5420AD008223146A01805F0C0FEC4
:105390000028F5D114B104462046F8BD3846FFF781
:1053A000BFFE044648B108221044314605F0FCFE19
:1053B0002B680122C4E900322C602046F8BD00BFF2
:1053C00038B504460D46202383F31188FEF7F0F824
:1053D00094F820300D2B02D00D48FBF781FBFBF732
:1053E000AFFB29462046FDF733FEFEF779F8094B5F
:1053F0001A689A4204D0996993688A689A4203D3DA
:10540000002383F3118838BD0348FBF769FB00BF15
:1054100038B40008B0110020E0B20008000000001D
:1054200070B5202383F31188154CFEF7C1F8A669E7
:10543000FBF796FB334653F82C5F9D4217D02A6842
:10544000F2620D21536085F82010FEF749F82368B9
:10545000A34204D0A2699B6892689A4204D30023B5
:1054600083F31188284670BD0648FBF739FB0E20F0
:10547000FDF72EFEA669F56A06F12C03DFE700BFF3
:10548000B0110020E0B200080000000000000000A1
:1054900010B5FFF7C5FF90F820200D2A02D005486F
:1054A000FBF71EFB446A2146FFF78AFF002CF0D170
:1054B00010BD00BFF0B300080000000000000000B5
:1054C000F8B5194EB46960B30F460546202383F33F
:1054D0001188FEF76DF867622B6B636005F12C0293
:1054E00022601C6095F820302C630E2B15D00C2008
:1054F000FDF7EEFD646AFDF7F3FF3368B34204D0B5
:10550000B2699B6892689A4204D3002383F311889E
:105510002046F8BD0548FBF7E3FA2846FBF7D0FB29
:10552000E5E70348FBF7DCFAB0110020E0B2000821
:10553000FCB30008000000000000000000000000B4
:1055400010B541210446FFF7BBFF20464221FFF77B
:10555000B7FF20464321FFF7B3FF20464421BDE8B3
:105560001040FFF7ADBF00BF0000000000000000CA
:1055700038B50546202383F311880C4CFEF718F844
:10558000A369586B05435D63FDF7AAFF2368A34237
:1055900004D0A2699B6892689A4204D3002383F3E3
:1055A0001188284638BD0248FBF79AFAB01100204E
:1055B000D4B200080000000000000000000000005D
:1055C00038B504460D46202383F31188FDF7F0FF1C
:1055D000224602E0AB4212D01A461368A342F9D128
:1055E000FDF77EFF0C4B1A689A4204D099699368C4
:1055F0008A689A420CD3002383F3118838BD2B6844
:105600001360FDF76DFF044B1A689A42EED1F2E782
:105610000248FBF765FA00BFB0110020D4B20008C1
:105620002DE9F043584DDFF878812D600223C8F84A
:1056300000308BB0202383F31188544C0AAEFDF761
:10564000B7FF2B6846F8143DA36906930123002297
:1056500007934FF0FF33CDE908232E60FDF740FF9D
:105660002368A34204D0A2699B6892689A4240D3FF
:105670004FF0000989F31188202383F311880AAFC2
:10568000FDF796FF2B6847F8283DA3690193022296
:105690004FF0FF330493CDF80C9002922F60FDF78A
:1056A0001FFF2368A34204D0A2699B6892689A42B4
:1056B0001FD3002383F31188202383F31188FDF780
:1056C00077FF28683249401B18BF0120FBF748F8D4
:1056D00090B1FDF705FF2368A34204D0A2699B683F
:1056E00092689A424CD3002383F311880BB0BDE833
:1056F000F0832848FBF7F4F9FDF7F2FE2368A34294
:1057000004D0A2699B6892689A4239D3002383F33C
:105710001188032331461C48C8F80030FFF750FFBA
:10572000202383F31188FDF743FF28681849401BA5
:1057300018BF0120FBF714F80028CAD1FDF7D0FEEE
:105740002368A34204D0A2699B6892689A4217D347
:10575000002383F31188042339460B48C8F800302E
:10576000FFF72EFF202383F31188FDF721FF286820
:105770000949401BB0FA80F04009FAF7F1FFA8E7A9
:105780000648FBF7ADF900BF0C0C0020B01100205B
:1057900020CE0008D4B200082CCE000870B3000858
:1057A0005423002000000000000000000000000062
:1057B0002DE9F843DFF8A880D8F8186050B1054605
:1057C000202383F31188FDF7F3FEB76B17B1BB6895
:1057D000B34202D02048FBF783F9AF42FAD1EC681C
:1057E000B463FBF7ADF9D5F800904D452ED0F76BBB
:1057F0005CB1FBF7A5F923689C4203D09B689F42EC
:1058000038BF1F46E468002CF3D1D9F80030D9F82E
:105810003820B76048462B605D60C5E90292C9F840
:105820003850FBF74DFAFDF743FEFDF759FED8F867
:105830000030434505D0D8F818209B6892689A42FA
:1058400007D3002383F31188BDE8F8830023BB60EE
:10585000EBE70248FBF744F90CB50008BCB20008BE
:10586000B011002000000000000000000000000057
:105870002DE9F84F5A4D5B4CAA69022396682360C4
:10588000FDF7F6FE5849FAF76BFF08B1BDE8F88F4F
:1058900003232360FDF7ECFE80F00100C0B2534902
:1058A000FAF75EFF0028F1D1514F042338462360F8
:1058B000FFF77EFFB8684F49B0FA80F04009FAF769
:1058C0004FFF0028E2D138684B49C01BB0FA80F086
:1058D0004009FAF745FF0028D8D1AB6947499868D5
:1058E000801BB0FA80F0052340092360FAF738FFE7
:1058F0000028CBD106232360FDF7BAFE3A49FAF718
:105900002FFF0028C2D1FDF7B3FE80F00100C0B226
:105910003649FAF725FF82460028B7D1D5F8189006
:10592000202383F31188FDF743FED9F83880B8F1BE
:10593000000F21D0D8F80CB0C9F838B0FBF700F947
:10594000D8F80030984544D0996B1A68C8F8002000
:105950001846C2F80480C8E90231C3F83880FBF762
:10596000AFF9D9F83880B8F1000FE3D1D9F83C305D
:10597000C9F80830FDF79CFDFDF7B2FD2B68AB427E
:1059800004D0AA699B6892689A4226D3002383F3C5
:105990001188B8681749B0FA80F04009FAF7E0FEBC
:1059A00000287FF473AF38681349C71B78427841E9
:1059B000FAF7D6FE00287FF469AFAB690F49986803
:1059C000821B0723504223605041BDE8F84FFAF78D
:1059D000C7BEC8F808A0D846C5E70948FBF780F855
:1059E000B01100205423002078CD000888CD000895
:1059F000380C002094CD0008A0CD0008B0CD0008E0
:105A0000BCB2000800000000000000000000000020
:105A100010B52023044683F31188FDF7C9FD204605
:105A2000FDF77EFBFDF75CFD074B1A689A4204D038
:105A3000996993688A689A4203D3002383F3118893
:105A400010BD0248FBF74CF8B0110020BCB20008B2
:105A50002DE9F84300293CD03A4B0646002808BF00
:105A60001E4606F10C07384601F107080D46FFF700
:105A7000CFFF311D0B684FEAD808C3B1D3F804C07B
:105A800003F10F000CF1010220F0070003EBC2024A
:105A9000A0F10809914503F1080E04D20446101A3A
:105AA000C010804518D919460B68002BE6D138463E
:105AB000FFF77EFE34684CB1082208F10100C000F7
:105AC0001146A047044608B140E902652046BDE8FA
:105AD000F8831D48FBF704F84B4519D3E0451C68D3
